:02000002D0002C
:1040000000400D00E8640D00000006000C000501F2
:084010000401E80500000000B6
:04401800DC600D005B
:10401C0009480A49884208B505D0094A824202D0AB
:10402C00121A02F011F80748074A0021121A02F07E
:10403C0016F8014808BD00BF60E3032054640D006E
:10404C00CCE30320CCE30320F0E7032070B500F0B1
:10405C002FFD074C074BE41AA40800251E46A54269
:10406C0004D056F8253098470135F8E770BD00BFED
:10407C0050640D0018640D0000F014B808B500F081
:10408C0031F8BDE8084000F0D5BC00F07BBA00F078
:10409C0079BA0078B0FA80F04009704701230370B8
:1040AC007047000008B500F003FE4FF4165100F005
:1040BC00F3FD034B01211888BDE8084001F0B8B8A6
:1040CC0060E3032037B5044610EE100A0D4601F0EC
:1040DC0011FC2A46CDE900010021204600F020FC0D
:1040EC0003B030BD30B52DED028B132083B001F041
:1040FC00DCF807EE900AF8EEE77A17EE900A01F07A
:10410C00F9FB00222F4B01F049FC00222E4B01F051
:10411C0045FC01F03BFF019001F0ECFB044602462C
:10412C000B460D460020284901F084FA22462B4606
:10413C0001F05EFD01F02AFFDFED247A08EE900A13
:10414C0088EEA78A00F0B4FD21499DED010AFFF726
:10415C00B9FF00F0ADFDB0EE680A1E49FFF7B2FFE3
:10416C0000F0A6FDB0EE480A1B49FFF7ABFF00F0CC
:10417C009FFD044618EE100A01F0BCFB0022174B01
:10418C0001F00CFC0022164B01F056FA01F0FEFE79
:10419C00022100EE100A204600F0B3FB002001F0D3
:1041AC0071F80128014600D018B90E4B188801F09F
:1041BC0050F84FF47A7003B0BDEC028BBDE8304080
:1041CC0000F0FABB0000303F000014406666164158
:1041DC00F0600D0006610D0019610D000040CF3F2D
:1041EC000000244060E3032000F010B808B5024B37
:1041FC001B689B68019308BD6802030008B5024B5D
:10420C001B68DB68019308BD6802030008B5024B0C
:10421C001B681B68019308BD2C02030008B5024BF8
:10422C001B685B68019308BD2C02030008B5024BA8
:10423C001B689B68019308BD2C02030008B5024B58
:10424C001B68DB68019308BD2C02030008B5024B08
:10425C001B681B69019308BD2C02030008B5024BB7
:10426C001B685B69019308BD2C02030008B5024B67
:10427C001B681B6B019308BD2C02030008B5024B95
:10428C001B68DB69019308BD3002030008B5024BC3
:10429C001B681B6A019308BD3002030008B5024B72
:1042AC001B685B68019308BD1802030008B5024B3C
:1042BC001B685B69019308BD1802030008B5024B2B
:1042CC001B689B68019308BD4802030008B5024BAC
:1042DC001B681B69019308BD4802030008B5024B1B
:1042EC001B685B69019308BD4802030008B5024BCB
:1042FC001B685B6C019308BD4802030008B5024BB8
:10430C001B689B6C019308BD4802030008B5024B67
:10431C001B685B69019308BD6402030008B5024B7E
:10432C001B681B68019308BD3C02030008B5024BD7
:10433C001B68DB68019308BD3C02030008B5024B07
:10434C001B681B69019308BD3C02030008B5024BB6
:10435C001B685B69019308BD3C02030008B5024B66
:10436C001B689B69019308BD3C02030008B5024B16
:10437C001B68DB69019308BD3C02030008B5024BC6
:10438C001B681B6A019308BD3C02030008B5024B75
:10439C001B689B6A019308BD3C02030008B5024BE5
:1043AC001B681B6A019308BD2802030008B5024B69
:1043BC001B685B6A019308BD2802030008B5024B19
:1043CC001B689B6A019308BD2802030008B5024BC9
:1043DC001B68DB6A019308BD2802030008B5024B79
:1043EC001B681B6B019308BD2802030008B5024B28
:1043FC001B685B6B019308BD2802030008B5024BD8
:10440C001B681B6C019308BD2802030008B5024B06
:10441C001B681B68019308BD4C02030008B5024BD6
:10442C001B685B68019308BD4C02030008B5024B86
:10443C001B681B69019308BD4C02030008B5024BB5
:10444C001B685B69019308BD4C02030008B5024B65
:10445C001B689B69019308BD4C02030008B5024B15
:10446C001B68DB69019308BD4C02030008B5024BC5
:10447C001B681B6A019308BD4C02030008B5024B74
:10448C001B685B68019308BD2002030008B5024B52
:10449C001B685B69019308BD2002030008B5034B40
:1044AC001B68D3F88830019308BD0000200203007C
:1044BC0008B5034B1B68D3F89430019308BD00007A
:1044CC002002030008B5024B1B685B68019308BD12
:1044DC004002030008B5024B1B689B68019308BDA2
:1044EC004002030008B5024B1B68DB68019308BD52
:1044FC004002030008B5024B1B681B69019308BD01
:10450C004002030008B5024B1B685B69019308BDB0
:10451C004002030008B5024B1B689B69019308BD60
:10452C004002030008B5024B1B68DB69019308BD10
:10453C004002030008B5024B1B681B6A019308BDBF
:10454C004002030008B5024B1B681B6B019308BDAE
:10455C004002030008B5024B1B685B6B019308BD5E
:10456C004002030008B5024B1B68DB6B019308BDCE
:10457C004402030008B5024B1B681B68019308BD7D
:10458C001C02030008B5024B1B685B68019308BD55
:10459C001C02030008B5024B1B685B6A019308BD43
:1045AC001C020300002211464068FFF7C3BF002223
:1045BC0011464068FFF7CEBF00224068FFF7C2BF2C
:1045CC00002281F001014068FFF7ACBF00231A46BE
:1045DC0019464068FFF79EBF00231A4619464068EB
:1045EC00FFF790BF002211464068FFF783BF0022FF
:1045FC0011464068FFF76EBF002202214068FFF7AA
:10460C0071BF00231A464068FFF75CBF024B0322C0
:10461C005A60024A1A607047D0E3032034610D00DF
:10462C0010B5044601700846FFF728FE00236360AE
:10463C00204610BD0078FFF729BE10B5044600686F
:10464C0018B1FFF79FFF0023236010BD10B504467F
:10465C00FFF7F3FF204610BD10B5094C00204FF6B4
:10466C00FF732060A080A07120816381FFF706FF9B
:10467C002046044A0449BDE8104000F06DBE00BF5E
:10468C00D8E30320CCE3032059460D0010B50446B3
:10469C00006808B1FFF732FE204610BD10B5064C7D
:1046AC00002320462360FFF721FE2046034A0449DD
:1046BC00BDE8104000F050BEE4E30320CCE303203F
:1046CC0099460D00F8B506460D468F180024BD42DC
:1046DC000CD0336815F8011B9B68304698470028AE
:1046EC0001DB0444F3E7002C08BF04462046F8BD68
:1046FC0070B505460C46084649B101F0E1FC2B6843
:10470C00024621462846DB68BDE87040184770BD5C
:10471C0003689B68184738B50D210546FFF7F8FF6D
:10472C000A2104462846FFF7F3FF204438BD30B574
:10473C008BB00B4600218DF82410012A98BF0A2259
:10474C000DF12304B3FBF2F505FB123303F0FF0369
:10475C00092B94BF30333733DBB2214604F80139CF
:10476C002B46002DEED1FFF7C3FF0BB030BD000080
:10477C002DE9F04757EC106B82460D4610EE102ACF
:10478C003B4610EE100A394601F0A2FB08B14E4927
:10479C0012E027F000494FF0FF324C4B30464946AF
:1047AC0001F096FB68B94FF0FF32484B3046494652
:1047BC0001F070FB28B946495046FFF799FFBDE858
:1047CC00F0874FF06042434B3046394601F076FBA0
:1047DC0008B14149F0E74FF06042404B3046394652
:1047EC0001F04EFB0028F4D100220023304639465C
:1047FC0001F046FB40B12D215046FFF789FF07F130
:10480C00004304461F4600E0044635494FF00008BB
:10481C0000205FFA88F39D4206D90022314B01F04B
:10482C00E7F908F10108F4E732463B4600F004FFD3
:10483C000F46064601F08AFB0A2201468046504686
:10484C00FFF775FF0444E5B3404601F031F802462A
:10485C000B463046394600F0EDFE06460F465046F4
:10486C002149FFF745FF044400221E4B30463946D0
:10487C0001F094F806460F4601F040FBB0F1000938
:10488C0007DA2D215046FFF743FFC9F1000180469E
:10489C0002E049464FF000080A225046FFF747FF56
:1048AC0040440444484601F013F802460B46304697
:1048BC00394600F0BFFE013D15F0FF0506460F46D8
:1048CC00D2D12046BDE8F08760610D00FFFFEF7F7D
:1048DC006A610D00FFFFEF4164610D00FFFFEFC146
:1048EC000000E03F0000244068610D0038B5C9B2FB
:1048FC000546FFF73DFF04462846FFF70CFF204412
:10490C0038BD38B5044610EE100A0D4600F0F2FF23
:10491C0041EC100B29462046BDE83840FFF7E6BFB6
:10492C000CB42DE9F04387B000AF07F1380405460D
:10493C0054F8049B3C600E4623464A461421381D0D
:10494C00FFF728FE132805D8391D2846FFF7D0FE9F
:10495C00044613E000F1080323F00703E846ADEB2F
:10496C00030D411C23464A4668463C60FFF712FE85
:10497C0069462846FFF7BCFE0446C5461EB12846CC
:10498C00FFF7C9FE044420461C37BD46BDE8F04382
:10499C0002B07047014B024A1A607047E8E30320EB
:1049AC00E1610D00024B1A68024B1A60704700BFA0
:1049BC0064E30320ECE303200021FFF767BD10B58F
:1049CC008368044613B1032201469847204610BD64
:1049DC0010B50446FFF7F3FF204610BD0348044A08
:1049EC0004490023836000F0B7BC00BFF0E3032050
:1049FC00CCE30320DD490D0008B50C4B33B100F0BE
:104A0C0057F903681B699847002809DC084B63B108
:104A1C0000F0D0F903681B699847002803DC08BD37
:104A2C00AFF30080F2E7AFF3008008BD0000000098
:104A3C000000000008B5FFF7DFFFFFF737FC014B64
:104A4C00186008BD30E703200248034A0349121AD4
:104A5C0001F0FABA00F4032004F4032050640D00B2
:104A6C0007B5002300931A466FF07701FFF720FD7E
:104A7C0003B05DF804FB000007B543880A2B08D08F
:104A8C00502B09D1094B1B683BB103B05DF804EB0B
:104A9C001847FFF7E5FF06E0002300931A466FF076
:104AAC007701FFF705FD03B05DF804FB00E403207C
:104ABC0038B5104C104D2368AB42104B0CBF012283
:104ACC0000221A7002D0FFF7BFFF2560FFF7E6FB4C
:104ADC00044601F0CDFA0A4B13B12046AFF3008027
:104AEC0000210748FFF73EFD00210648BDE838408D
:104AFC00FFF7D4BC00F403201E1C279A04E4032007
:104B0C0000000000854A0D00704710B518210446BE
:104B1C0000F030FC204610BDF0B5037D062B8DB0A7
:104B2C000E4600F104074FF0000402D000F1080516
:104B3C0018E00CAD394605F8304D2F232A460A20D3
:104B4C00FFF7E4FB284601F0BBFA33680246DB684A
:104B5C002946304698470FE024B12E213046FFF706
:104B6C00D7FD044415F8011D0A223046FFF7DFFD7E
:104B7C00BD420444F0D120460DB0F0BD10B5054B3C
:104B8C000446112240F8043B002101F068FA20464B
:104B9C0010BD00BF80620D000346074A10B543F8F4
:104BAC00042B01F1100251F8044B43F8044B9142D1
:104BBC00F9D10A781A7010BD80620D0010B59DF8FD
:104BCC00084044EA032343EA024242EA0161042317
:104BDC004160037510BD37B50D788B784A78C9786C
:104BEC0000912946FFF7EAFF03B030BD41747047CE
:104BFC00704708B50021007CFFF728FC30EA200044
:104C0C0028BF4FF0FF3008BD08B50121007CFFF72D
:104C1C001DFC30EA200028BF4FF0FF3008BD08B55E
:104C2C00007CFFF70BFC20EAE07008BD08B5007CA7
:104C3C00FFF7FCFB20EAE07008BD007CFFF716BC18
:104C4C0010B51421044600F095FB204610BD38B574
:104C5C000446007C0D46FFF7F1FB002801DC607C6C
:104C6C0028B12946207CFFF7F9FB20EAE07038BD1B
:104C7C0010B50446002363604FF47A73A360054BB0
:104C8C00236001230846217463741146FFF7BEFBB1
:104C9C00204610BD94620D000022007CFFF7BEBBC5
:104CAC0010B514220446002101F0D9F9204610BD9C
:104CBC0030B50E4D87B001A8FFF7F2FF296811F04F
:104CCC00010410D12846FFF7E4F960B101AA21468E
:104CDC000748FFF7CDFF2846FFF7E0F9054A0649DC
:104CEC00034800F039FB024807B030BD08E403204C
:104CFC000CE40320CCE30320FD4B0D007047417402
:104D0C00704708B5007CFFF741FB20EAE07008BD56
:104D1C0008B5007CFFF712FB20EAE07008BD08B56F
:104D2C00007CFFF71BFB30EA200028BF4FF0FF3060
:104D3C0008BD08B5007CFFF709FB30EA200028BF4E
:104D4C004FF0FF3008BD007CFFF710BB10B51421ED
:104D5C00044600F00FFB204610BD70B5457C0446A0
:104D6C000E4625B9007CFFF711FB002805DD314606
:104D7C00207CBDE87040FFF7D9BA284670BD000012
:104D8C0010B5044608461146002262604FF47A7250
:104D9C00A260054A22600122207462741A46FFF751
:104DAC00BDFA204610BD00BFC4620D00007CFFF7A9
:104DBC00E5BA000038B50C4D296811F0010411D189
:104DCC002846FFF766F968B1084A094B094821469D
:104DDC00FFF7D6FF2846FFF761F9074A0749054850
:104DEC0000F0BAFA034838BDB8E40320BCE4032051
:104DFC0034E4032020E40320CCE30320094D0D0010
:104E0C007047F8B5064615460C468F18BC4206D0BE
:104E1C00336814F8011B9B6830469847F6E7284620
:104E2C00F8BD0022007CFFF7B9BA0021007CFFF727
:104E3C00BDBA0021007CFFF7C1BA0021007CFFF74E
:104E4C00C5BA0021007CFFF7C9BA10B5142104467D
:104E5C0000F090FA204610BD10B5044600236360A4
:104E6C004FF47A73A360044B2174084623601146F7
:104E7C00FFF7C4FA204610BDF4620D000021007C3F
:104E8C00FFF7B4BA002211464068FFF753BB00226B
:104E9C0011464068FFF75EBB00224068FFF752BB2B
:104EAC00002281F001014068FFF73CBB00231A4649
:104EBC0001214068FFF72EBB00231A4619464068B3
:104ECC00FFF720BB002211464068FFF713BB0022FE
:104EDC0011464068FFF7FEBA002202214068FFF736
:104EEC0001BB00231A464068FFF7ECBA38B50546FB
:104EFC0088B104684CB1A3681BB10322214620463B
:104F0C0098471021204600F035FA28461421BDE8B8
:104F1C00384000F02FBA38BD10B103685B681847F1
:104F2C00704710B503680446BBB15868FFF7C6F963
:104F3C0078B923685A7C12B95868FFF7C7F9236807
:104F4C005868FFF7CBF920680023236028B1FFF7DE
:104F5C00CDFF206808B1FFF7C9FF204610BD38B55A
:104F6C000446D0F8C40108B1FFF791F8D4F8C00199
:104F7C0008B1FFF7C3F9D4F8BC5135B12846FFF797
:104F8C00D0FF0421284600F0F5F9206808B1FFF79E
:104F9C00C3FF204638BD000010B5044B044640F852
:104FAC00083BFFF7DCFF204610BD00BF1C630D0063
:104FBC0038B50E4C0E4B23600025022304F5E4702B
:104FCC006360A560C4F8C451C4F8C851FFF78EF9EA
:104FDC00084BC4F8CC5184F8D05123602046064AC3
:104FEC000649BDE8384000F0B7B900BF40E50320E2
:104FFC0084630D001C630D00CCE30320A54F0D0052
:10500C00002211464068FFF775BA0022114640682D
:10501C00FFF790BA002211464068FFF79BBA0022B6
:10502C004068FFF78FBA002281F001014068FFF75A
:10503C0079BA00231A4619464068FFF76BBA002369
:10504C001A4619464068FFF75DBA002211464068BF
:10505C00FFF740BA002202214068FFF743BA002351
:10506C001A464068FFF72EBA024B04225A60024AD5
:10507C001A60704714E7032050630D0000231A4692
:10508C004068FFF71FBA002202214068FFF72ABAD6
:10509C00002211464068FFF71DBA002211464068F5
:1050AC00FFF728BA00231A4619464068FFF72ABAB8
:1050BC0000231A4619464068FFF72CBA002281F0EB
:1050CC0001014068FFF72EBA00224068FFF73ABA98
:1050DC00002211464068FFF73DBA00221146406895
:1050EC00FFF728BA2DE9F043002495B016460D467B
:1050FC000746FFF743FD214620220CA8009400F040
:10510C00AEFF40230C9321466B460CAA3046FFF7AA
:10511C0075F80446002844D1024601216868FFF75F
:10512C00E9F90221804622466868FFF7E3F9009E00
:10513C0081462146002E34D0002932D17368022BCF
:10514C0002D00A2B09D02AE0B8F1000F27D07169E0
:10515C0038460431FFF73FFD20E0B9F1000F1ED0B7
:10516C007469112201A800F07AFF06238DF814301F
:10517C0001AD04F108031834186859682A4603C2B3
:10518C000833A3421546F7D101A906A807ADFFF7CE
:10519C0003FD0FCD3C1D0FC42B6823700121F66954
:1051AC00C8E70098FFF722F8384615B0BDE8F08341
:1051BC00024B034A1A6000225A6070471CE7032016
:1051CC0084630D0070B5184E316811F0010504466A
:1051DC000AD13046FEF75DFF30B129461348FFF780
:1051EC001FFA3046FEF75AFF1048FFF723FA28B192
:1051FC00A4F10B03022B01D8002070BD00F086F83F
:10520C00FFF73CFE08B1012CF6D9FFF7D3FDFFF7F1
:10521C00CDFD18B1A4F10903012BEDD9232C8CBFC2
:10522C000020012070BD00BF24E7032028E70320E5
:10523C00232838B504460D460AD8FF2908D0FFF7B5
:10524C00C1FF28B129462046BDE83840FEF7EEBF25
:10525C0038BD38B504460D46FEF7F0FFFF2810D0D8
:10526C00062804D84D2323FA00F0C30709D420469E
:10527C00FFF7A8FF28B129462046BDE83840FEF7C5
:10528C00E5BF38BD10B50446FEF7D8FF0438C0B2F0
:10529C00012808D92046FFF795FF20B12046BDE82C
:1052AC001040FEF7DBBF002010BD0D2810B50446E2
:1052BC009CBF0E34A4B22046FFF784FF50B10321EB
:1052CC002046FEF7ABFF032804D12046BDE8104072
:1052DC00FEF7CCBF002010BD70B5044614252A463D
:1052EC00094E002100F0BBFE258020253146A5602B
:1052FC002561284600F040F831466060284600F0F1
:10530C003BF8E060204670BDB0630D0030B50E4D2B
:10531C00296811F0010487B013D12846FEF7B9FEB5
:10532C0078B101A8FFF7D8FF01AA21460748FFF77B
:10533C0093FD2846FEF7B2FE054A0649034800F0E5
:10534C000BF8024807B030BD34E7032038E70320E0
:10535C00CCE303200D4E0D000B460146184600F021
:10536C0065BE0000024B1868BFF35F8F704700BF2B
:10537C004CE70320FEF789BE00F000B810B50028FA
:10538C0014BF044601242046FFF7F4F820B9FFF7B8
:10539C00E9FF08B18047F6E710BD0000184B1A680A
:1053AC00D1075CBF01221A60164B1A68D2075CBF8A
:1053BC0001221A60144B1A68D0075CBF01221A60D4
:1053CC00124B1A68D1075CBF01221A60104B1A6885
:1053DC00D2075CBF01221A600E4B1A68D0075CBF63
:1053EC0001221A600C4B1A68D1075CBF01221A60AB
:1053FC000A4B1A68D2075CBF01221A60704700BFC3
:10540C006CE7032068E7032064E7032060E70320D0
:10541C005CE7032058E7032054E7032050E7032000
:10542C00244B1A68D0075CBF01221A60224B1A6801
:10543C00D1075CBF01221A60204B1A68D2075CBFEF
:10544C0001221A601E4B1A68D0075CBF01221A6039
:10545C001C4B1A68D1075CBF01221A601A4B1A68E0
:10546C00D2075CBF01221A60184B1A68D0075CBFC8
:10547C0001221A60164B1A68D1075CBF01221A6010
:10548C00144B1A68D2075CBF01221A60124B1A68BF
:10549C00D0075CBF01221A60104B1A68D1075CBFA1
:1054AC0001221A600E4B1A68D2075CBF01221A60E7
:1054BC00704700BF9CE7032098E7032094E7032084
:1054CC0090E703208CE7032088E7032084E7032080
:1054DC0080E703207CE7032078E7032074E70320B0
:1054EC0070E70320244B1A68D0075CBF01221A60B6
:1054FC00224B1A68D1075CBF01221A60204B1A6834
:10550C00D2075CBF01221A601E4B1A68D0075CBF21
:10551C0001221A601C4B1A68D1075CBF01221A6069
:10552C001A4B1A68D2075CBF01221A60184B1A6812
:10553C00D0075CBF01221A60164B1A68D1075CBFFA
:10554C0001221A60144B1A68D2075CBF01221A6040
:10555C00124B1A68D0075CBF01221A60104B1A68F4
:10556C00D1075CBF01221A600E4B1A68D2075CBFD0
:10557C0001221A60704700BFCCE70320C8E7032064
:10558C00C4E70320C0E70320BCE70320B8E70320EF
:10559C00B4E70320B0E70320ACE70320A8E703201F
:1055AC00A4E70320A0E70320184B1A68D1075CBFBF
:1055BC0001221A60164B1A68D2075CBF01221A60CE
:1055CC00144B1A68D0075CBF01221A60124B1A6880
:1055DC00D1075CBF01221A60104B1A68D2075CBF5E
:1055EC0001221A600E4B1A68D0075CBF01221A60A8
:1055FC000C4B1A68D1075CBF01221A600A4B1A685F
:10560C00D2075CBF01221A60704700BFECE7032091
:10561C00E8E70320E4E70320E0E70320DCE70320CE
:10562C00D8E70320D4E70320D0E7032081F0004122
:10563C0002E000BF83F0004330B54FEA41044FEA6B
:10564C00430594EA050F08BF90EA020F1FBF54EA06
:10565C00000C55EA020C7FEA645C7FEA655C00F0A2
:10566C00E2804FEA5454D4EB5555B8BF6D420CDD73
:10567C002C4480EA020281EA030382EA000083EAF6
:10568C00010180EA020281EA0303362D88BF30BD96
:10569C0011F0004F4FEA01314FF4801C4CEA1131EC
:1056AC0002D0404261EB410113F0004F4FEA03334B
:1056BC004CEA133302D0524263EB430394EA050FD6
:1056CC0000F0A780A4F10104D5F1200E0DDB02FA45
:1056DC000EFC22FA05F2801841F1000103FA0EF2D9
:1056EC00801843FA05F359410EE0A5F120050EF19F
:1056FC00200E012A03FA0EFC28BF4CF0020C43FAD0
:10570C0005F3C01851EBE37101F0004507D54FF0DC
:10571C00000EDCF1000C7EEB00006EEB0101B1F52C
:10572C00801F1BD3B1F5001F0CD349085FEA300072
:10573C004FEA3C0C04F101044FEA445212F5800F7D
:10574C0080F09A80BCF1004F08BF5FEA500C50F11A
:10575C00000041EB045141EA050130BD5FEA4C0CFD
:10576C00404141EB010111F4801FA4F10104E9D186
:10577C0091F0000F04BF01460020B1FA81F308BF7D
:10578C002033A3F10B03B3F120020CDA0C3208DD49
:10579C0002F1140CC2F10C0201FA0CF021FA02F124
:1057AC000CE002F11402D8BFC2F1200C01FA02F194
:1057BC0020FA0CFCDCBF41EA0C019040E41AA2BFB9
:1057CC0001EB0451294330BD6FEA04041F3C1CDA81
:1057DC000C340EDC04F11404C4F1200220FA04F0A1
:1057EC0001FA02F340EA030021FA04F345EA03014B
:1057FC0030BDC4F10C04C4F1200220FA02F001FA0D
:10580C0004F340EA0300294630BD21FA04F029468E
:10581C0030BD94F0000F83F4801306BF81F4801127
:10582C000134013D4EE77FEA645C18BF7FEA655C9A
:10583C0029D094EA050F08BF90EA020F05D054EA6C
:10584C00000C04BF1946104630BD91EA030F1EBF71
:10585C000021002030BD5FEA545C05D14000494175
:10586C0028BF41F0004130BD14F580043CBF01F568
:10587C00801130BD01F0004545F0FE4141F470014E
:10588C004FF0000030BD7FEA645C1ABF1946104629
:10589C007FEA655C1CBF0B46024650EA013406BF2A
:1058AC0052EA033591EA030F41F4002130BD00BFE9
:1058BC0090F0000F04BF0021704730B54FF48064A6
:1058CC0004F132044FF000054FF0000150E700BF27
:1058DC0090F0000F04BF0021704730B54FF4806486
:1058EC0004F1320410F0004548BF40424FF0000173
:1058FC003EE700BF42004FEAE2014FEA31014FEAB6
:10590C0002701FBF12F07F4393F07F4F81F0605104
:10591C00704792F0000F14BF93F07F4F704730B573
:10592C004FF4607401F0004521F0004120E700BF06
:10593C0050EA010208BF704730B54FF000050AE08D
:10594C0050EA010208BF704730B511F0004502D58E
:10595C00404261EB41014FF4806404F132045FEA90
:10596C00915C3FF4DCAE4FF003025FEADC0C18BF35
:10597C0003325FEADC0C18BF033202EBDC02C2F12B
:10598C00200300FA03FC20FA02F001FA03FE40EABD
:10599C000E0021FA02F11444C1E600BF70B54FF0BD
:1059AC00FF0C4CF4E06C1CEA11541DBF1CEA13559F
:1059BC0094EA0C0F95EA0C0F00F0DEF82C4481EA07
:1059CC00030621EA4C5123EA4C5350EA013518BF27
:1059DC0052EA033541F4801143F4801338D0A0FB14
:1059EC0002CE4FF00005E1FB02E506F00042E0FBC1
:1059FC0003E54FF00006E1FB03569CF0000F18BFC7
:105A0C004EF0010EA4F1FF04B6F5007F64F540746E
:105A1C0004D25FEA4E0E6D4146EB060642EAC62101
:105A2C0041EA55514FEAC52040EA5E504FEACE2E6E
:105A3C00B4F1FD0C88BFBCF5E06F1ED8BEF1004F71
:105A4C0008BF5FEA500E50F1000041EB045170BDED
:105A5C0006F0004646EA010140EA020081EA030131
:105A6C00B4EB5C04C2BFD4EB0C0541EA045170BD2D
:105A7C0041F480114FF0000E013C00F3AB8014F1A7
:105A8C00360FDEBF002001F0004170BDC4F10004F0
:105A9C00203C35DA0C341BDC04F11404C4F1200571
:105AAC0000FA05F320FA04F001FA05F240EA0200CC
:105ABC0001F0004221F0004110EBD37021FA04F602
:105ACC0042EB06015EEA430E08BF20EAD37070BDBC
:105ADC00C4F10C04C4F1200500FA04F320FA05F01B
:105AEC0001FA04F240EA020001F0004110EBD3701D
:105AFC0041F100015EEA430E08BF20EAD37070BD8D
:105B0C00C4F1200500FA05F24EEA020E20FA04F365
:105B1C0001FA05F243EA020321FA04F001F0004114
:105B2C0021FA04F220EA020000EBD3705EEA430E85
:105B3C0008BF20EAD37070BD94F0000F0FD101F0B4
:105B4C000046400041EB010111F4801F08BF013CED
:105B5C00F7D041EA060195F0000F18BF704703F02B
:105B6C000046520043EB030313F4801F08BF013DB2
:105B7C00F7D043EA0603704794EA0C0F0CEA13556E
:105B8C0018BF95EA0C0F0CD050EA410618BF52EA28
:105B9C004306D1D181EA030101F000414FF000002E
:105BAC0070BD50EA410606BF1046194652EA43063C
:105BBC0019D094EA0C0F02D150EA013613D195EAB0
:105BCC000C0F05D152EA03361CBF104619460AD1F8
:105BDC0081EA030101F0004141F0FE4141F4700102
:105BEC004FF0000070BD41F0FE4141F4780170BDF2
:105BFC0070B54FF0FF0C4CF4E06C1CEA11541DBF57
:105C0C001CEA135594EA0C0F95EA0C0F00F0A7F858
:105C1C00A4EB050481EA030E52EA03354FEA013185
:105C2C0000F088804FEA03334FF0805545EA131398
:105C3C0043EA12634FEA022245EA111545EA106560
:105C4C004FEA00260EF000419D4208BF964244F1F7
:105C5C00FD0404F5407402D25B084FEA3202B61A16
:105C6C0065EB03055B084FEA32024FF480104FF4EA
:105C7C00002CB6EB020E75EB030E22BFB61A75465E
:105C8C0040EA0C005B084FEA3202B6EB020E75EBF1
:105C9C00030E22BFB61A754640EA5C005B084FEA59
:105CAC003202B6EB020E75EB030E22BFB61A754626
:105CBC0040EA9C005B084FEA3202B6EB020E75EB31
:105CCC00030E22BFB61A754640EADC0055EA060EF2
:105CDC0018D04FEA051545EA16754FEA06164FEA35
:105CEC00C30343EA52734FEAC2025FEA1C1CC0D1E1
:105CFC0011F4801F0BD141EA00014FF000004FF06E
:105D0C00004CB6E711F4801F04BF01430020B4F12E
:105D1C00FD0C88BFBCF5E06F3FF6AFAEB5EB030CE6
:105D2C0004BFB6EB020C5FEA500C50F1000041EBE3
:105D3C00045170BD0EF0004E4EEA113114EB5C04B0
:105D4C00C2BFD4EB0C0541EA045170BD41F4801183
:105D5C004FF0000E013C90E645EA060E8DE60CEA8B
:105D6C00135594EA0C0F08BF95EA0C0F3FF43BAFA8
:105D7C0094EA0C0F0AD150EA01347FF434AF95EA5F
:105D8C000C0F7FF425AF104619462CE795EA0C0F43
:105D9C0006D152EA03353FF4FDAE1046194622E710
:105DAC0050EA410618BF52EA43067FF4C5AE50EAEA
:105DBC0041047FF40DAF52EA43057FF4EBAE12E7DA
:105DCC004FF0FF3C06E000BF4FF0010C02E000BFBB
:105DDC004FF0010C4DF804CD4FEA410C7FEA6C5C9E
:105DEC004FEA430C18BF7FEA6C5C1BD001B050EA41
:105DFC00410C0CBF52EA430C91EA030F02BF90EA2C
:105E0C00020F0020704710F1000F91EA030F58BFEA
:105E1C00994208BF90422CBFD8176FEAE37040F04C
:105E2C00010070474FEA410C7FEA6C5C02D150EAEA
:105E3C00013C07D14FEA430C7FEA6C5CD6D152EAA5
:105E4C00033CD3D05DF8040B704700BF844610466A
:105E5C0062468C461946634600E000BF01B5FFF769
:105E6C00B7FF002848BF10F1000F01BD4DF808ED39
:105E7C00FFF7F4FF0CBF012000205DF808FB00BF0A
:105E8C004DF808EDFFF7EAFF34BF012000205DF864
:105E9C0008FB00BF4DF808EDFFF7E0FF94BF0120B1
:105EAC0000205DF808FB00BF4DF808EDFFF7CEFFB2
:105EBC0094BF012000205DF808FB00BF4DF808EDF1
:105ECC00FFF7C4FF34BF012000205DF808FB00BFC2
:105EDC004FEA410C7FEA6C5C02D150EA013C0AD1DA
:105EEC004FEA430C7FEA6C5C02D152EA033C02D1CC
:105EFC004FF0000070474FF0010070474FEA41022D
:105F0C0012F5001215D211D56FF47873B3EB6252FF
:105F1C0012D94FEAC12343F0004343EA505311F026
:105F2C00004F23FA02F018BF404270474FF00000B8
:105F3C00704750EA013005D111F0004008BF6FF0F6
:105F4C00004070474FF00000704700BF4A0011D26C
:105F5C0012F5001211D20DD56FF47873B3EB6252B7
:105F6C000ED44FEAC12343F0004343EA505323FAC3
:105F7C0002F070474FF00000704750EA013002D138
:105F8C004FF0FF3070474FF0000070474FEA41026E
:105F9C00B2F1E04324BFB3F5001CDCF1FE5C0DD97B
:105FAC0001F0004C4FEAC0024CEA5070B2F1004FC5
:105FBC0040EB830008BF20F00100704711F0804FC8
:105FCC0021D113F13872BCBF01F00040704741F48D
:105FDC0080114FEA5252C2F11802C2F1200C10FA91
:105FEC000CF320FA02F018BF40F001004FEAC12375
:105FFC004FEAD32303FA0CFC40EA0C0023FA02F319
:10600C004FEA4303CCE77FEA625307D150EA0133EE
:10601C001EBF4FF0FE4040F44000704701F00040BE
:10602C0040F0FE4040F40000704700BF10B5054C36
:10603C0013462CB10A4601460220AFF3008010BD76
:10604C00204610BD0000000010B5431E0A449142CA
:10605C0004D011F8014B03F8014FF8E710BD0244CE
:10606C000346934202D003F8011BFAE77047000085
:10607C0038B5124B1C68A36B0546D3B91820FEF734
:10608C0079FA43F20E33A06303804AF6CD33438092
:10609C0041F2342383804EF26D63C3804DF6EC6382
:1060AC000381052343810B23838101220023C0E953
:1060BC000423A36B00221D615A6138BDC8E3032081
:1060CC00034613F8012B002AFBD1181A013870472C
:1060DC001D400D0059400D0085400D0089400D00FC
:1060EC000000000073656E736F725F766F6C7420C6
:1060FC003D2025302E3266200A0052535F726174A7
:10610C00696F203D2025302E3266200A0072732FD5
:10611C005230203D2025302E3266200A000000002F
:10612C0000000000000000000F460D0005460D00A9
:10613C00FB450D00F1450D00E5450D00D9450D0061
:10614C00CD450D00C5450D00BB450D00B1450D00FD
:10615C00F1500D006E616E006F7666002E00696E58
:10616C006600626175640053657269616C00536509
:10617C007269616C31007479706500706172616D67
:10618C0000636D6400696400686E64007374726D02
:10619C000066696C74006C766C0061646448616EB6
:1061AC00646C65720072656D6F766548616E646CC7
:1061BC00657200656E756D48616E646C6572730016
:1061CC004A534F4E53747265616D4C6F6748616EE4
:1061DC00646C657200617070002530313075200080
:1061EC005D20002564002C200028293A2000205B2B
:1061FC0000636F6465203D2000256900646574614F
:10620C00696C73203D20000D0A006C6E00666E00F8
:10621C00636F64650064657461696C006E6F6E65B4
:10622C0000747261636500696E666F007761726EEF
:10623C00006572726F720070616E696300616C6CE4
:10624C00005A00252B3033643A253032750025591D
:10625C002D256D2D25645425483A254D3A25532579
:10626C007A0061736374696D6500000000000000C2
:10627C0000000000254B0D00154B0D00174B0D00B9
:10628C000000000000000000FD4B0D004D4C0D0007
:10629C005B4C0D00D1460D00394C0D00FF4B0D0031
:1062AC00154C0D00474C0D002B4C0D00F94B0D00FF
:1062BC000000000000000000094D0D00594D0D00BC
:1062CC00674D0D00D1460D001D4D0D003F4D0D00CD
:1062DC002B4D0D00534D0D000B4D0D000F4D0D00B2
:1062EC0000000000000000000D4E0D00574E0D0088
:1062FC002F4E0D000F4E0D00374E0D003F4E0D0072
:10630C00474E0D004F4E0D00000000000000000035
:10631C00EF4E0D00E54E0D00DB4E0D00D14E0D0085
:10632C00C54E0D00B94E0D00AD4E0D00A54E0D0025
:10633C009B4E0D00914E0D00F1500D000000000021
:10634C00000000006B500D0061500D0057500D0007
:10635C000D500D004B500D003F500D0033500D00F3
:10636C002B500D0021500D0017500D00F1500D0059
:10637C00000000000000000089500D0093500D003B
:10638C009D500D00A7500D00B1500D00BD500D00DB
:10639C00C9500D00D5500D00DD500D00E7500D001B
:1063AC00F1500D0000000000000000000000000093
:1063BC0000000000000000000000000000000000D1
:1063CC0000000000000000000000000000000000C1
:1063DC0000000000000000000000000000000000B1
:1063EC0000000000000000000000000000000000A1
:1063FC000000000000000000000000000000000091
:10640C00000000000000000043000000F5410D00FA
:10641C0019460D0065460D00A9460D00A1490D0059
:10642C00B1490D00E9490D00BD4F0D0075500D002F
:10643C00BD510D00A9530D002D540D00F1540D004C
:04644C00B5550D0035
:046450000000000048
:10645400070000006E620D0000000000B4630D0030
:10646400D4630D00F4630D00000000000000000080
:10647400000000000000000014640D000000000093
:106484000000000000000000000000000000000008
:1064940000000000000000000000000000000000F8
:1064A40000000000000000000000000000000000E8
:0C64B400000000000000000068E303206E
:1064C000FFFFFFFF00000102030405060708090A99
:1064D0000B0C0D0E0F101112131415161718191A94
:0864E0001B1C1D1E1F202800DB
:0464E800785634129C
:04000003D000401CCD
:00000001FF
