:02000002D0002C
:1040000000400D00F8560D00000006000C000501F0
:084010000401E80500000000B6
:0440180030530D0014
:10401C0009480A49884208B505D0094A824202D0AB
:10402C00121A01F03BF90748074A0021121A01F055
:10403C0040F9014808BD00BF5CE3032064560D0045
:10404C00C8E30320C8E30320F0E7032070B500F0B9
:10405C0085FB074C074BE41AA40800251E46A54215
:10406C0004D056F8253098470135F8E770BD00BFED
:10407C005C560D0024560D0000F014B808B500F085
:10408C0025F8BDE8084000F02BBB00F0EDB900F0BE
:10409C00EBB90078B0FA80F0400970470123037047
:1040AC007047000008B5084B0021188800F016FF77
:1040BC000121072000F012FF00F050FC4FF41651C4
:1040CC00BDE8084000F03EBC5CE3032038B50D4B66
:1040DC000D4C188800F013FF206000F03FFC2468A2
:1040EC00002C054604DA2D2100F07CFA614200E038
:1040FC00214628460A2200F084FA2846BDE83840BA
:10410C0000F073BA5CE30320CCE3032000F010B89A
:10411C0008B5024B1B689B68019308BD680203003D
:10412C0008B5024B1B68DB68019308BD68020300ED
:10413C0008B5024B1B681B68019308BD2C020300D9
:10414C0008B5024B1B685B68019308BD2C02030089
:10415C0008B5024B1B689B68019308BD2C02030039
:10416C0008B5024B1B681B6B019308BD2C020300A6
:10417C0008B5024B1B68DB69019308BD30020300D4
:10418C0008B5024B1B681B6A019308BD3002030083
:10419C0008B5024B1B685B68019308BD180203004D
:1041AC0008B5024B1B685B69019308BD180203003C
:1041BC0008B5024B1B689B68019308BD48020300BD
:1041CC0008B5024B1B681B69019308BD480203002C
:1041DC0008B5024B1B685B69019308BD48020300DC
:1041EC0008B5024B1B685B6C019308BD48020300C9
:1041FC0008B5024B1B689B6C019308BD4802030079
:10420C0008B5024B1B685B69019308BD640203008F
:10421C0008B5024B1B681B68019308BD3C020300E8
:10422C0008B5024B1B68DB68019308BD3C02030018
:10423C0008B5024B1B681B69019308BD3C020300C7
:10424C0008B5024B1B685B69019308BD3C02030077
:10425C0008B5024B1B689B69019308BD3C02030027
:10426C0008B5024B1B68DB69019308BD3C020300D7
:10427C0008B5024B1B681B6A019308BD3C02030086
:10428C0008B5024B1B689B6A019308BD3C020300F6
:10429C0008B5024B1B681B6A019308BD280203007A
:1042AC0008B5024B1B685B6A019308BD280203002A
:1042BC0008B5024B1B689B6A019308BD28020300DA
:1042CC0008B5024B1B68DB6A019308BD280203008A
:1042DC0008B5024B1B681B6B019308BD2802030039
:1042EC0008B5024B1B685B6B019308BD28020300E9
:1042FC0008B5024B1B681B6C019308BD2802030018
:10430C0008B5024B1B681B68019308BD4C020300E7
:10431C0008B5024B1B685B68019308BD4C02030097
:10432C0008B5024B1B681B69019308BD4C020300C6
:10433C0008B5024B1B685B69019308BD4C02030076
:10434C0008B5024B1B689B69019308BD4C02030026
:10435C0008B5024B1B68DB69019308BD4C020300D6
:10436C0008B5024B1B681B6A019308BD4C02030085
:10437C0008B5024B1B685B68019308BD2002030063
:10438C0008B5034B1B68D3F88830019308BD0000B7
:10439C002002030008B5034B1B68D3F8943001933B
:1043AC0008BD00002002030008B5024B1B685B68C7
:1043BC00019308BD4002030008B5024B1B689B68C3
:1043CC00019308BD4002030008B5024B1B68DB6873
:1043DC00019308BD4002030008B5024B1B681B6922
:1043EC00019308BD4002030008B5024B1B685B69D2
:1043FC00019308BD4002030008B5024B1B689B6982
:10440C00019308BD4002030008B5024B1B68DB6931
:10441C00019308BD4002030008B5024B1B681B6AE0
:10442C00019308BD4002030008B5024B1B681B6BCF
:10443C00019308BD4002030008B5024B1B685B6B7F
:10444C00019308BD4002030008B5024B1B68DB6BEF
:10445C00019308BD4402030008B5024B1B681B689E
:10446C00019308BD1C02030008B5024B1B685B6876
:10447C00019308BD1C020300002211464068FFF79F
:10448C00CBBF002211464068FFF7D6BF0022406820
:10449C00FFF7CABF002281F001014068FFF7B4BFEB
:1044AC0000231A4619464068FFF7A6BF00231A4698
:1044BC0019464068FFF798BF002211464068FFF785
:1044CC008BBF002211464068FFF776BF0022022105
:1044DC004068FFF779BF00231A464068FFF764BFB6
:1044EC00024B03225A60024A1A607047D0E3032041
:1044FC004C530D0010B5044601700846FFF738FE0A
:10450C0000236360204610BD0078FFF739BE10B55C
:10451C000446006818B1FFF7A7FF0023236010BD05
:10452C0010B50446FFF7F3FF204610BD10B5094C3B
:10453C0000204FF6FF732060A080A0712081638162
:10454C00FFF716FF2046044A0449BDE8104000F06E
:10455C002DBD00BFD8E30320C8E303202D450D007B
:10456C0010B50446006808B1FFF742FE204610BDA6
:10457C0010B5064C002320462360FFF731FE204681
:10458C00034A0449BDE8104000F010BDE4E30320E9
:10459C00C8E303206D450D00F8B506460D468F188F
:1045AC000024BD420CD0336815F8011B9B683046C3
:1045BC009847002801DB0444F3E7002C08BF0446AD
:1045CC002046F8BD70B505460C46084649B100F0CA
:1045DC00A1FE2B68024621462846DB68BDE87040E8
:1045EC00184770BD03689B68184738B50D21054600
:1045FC00FFF7F8FF0A2104462846FFF7F3FF204493
:10460C0038BD30B58BB00B4600218DF82410012A33
:10461C0098BF0A220DF12304B3FBF2F505FB12330C
:10462C0003F0FF03092B94BF30333733DBB2214641
:10463C0004F801392B46002DEED1FFF7C3FF0BB068
:10464C0030BD0000014B024A1A607047E8E30320BA
:10465C00EB530D00024B1A68024B1A60704700BFF7
:10466C0060E30320ECE3032010B58368044613B128
:10467C00032201469847204610BD10B50446FFF7AB
:10468C00F3FF204610BD00000348044A04490023F0
:10469C00836000F08BBC00BFF0E30320C8E3032071
:1046AC0087460D0008B50C4B33B100F057F9036881
:1046BC001B699847002809DC084B63B100F0D0F95E
:1046CC0003681B699847002803DC08BDAFF3008022
:1046DC00F2E7AFF3008008BD00000000000000000E
:1046EC0008B5FFF7DFFFFFF75BFD014B186008BD56
:1046FC0030E703200248034A0349121A00F0CEBDEA
:10470C0000F4032004F4032060560D0007B50023C9
:10471C0000931A466FF07701FFF73CFE03B05DF88B
:10472C0004FB000007B543880A2B08D0502B09D195
:10473C00094B1B683BB103B05DF804EB1847FFF75E
:10474C00E5FF06E0002300931A466FF07701FFF7B0
:10475C0021FE03B05DF804FB00E4032038B5104CD7
:10476C00104D2368AB42104B0CBF012200221A7073
:10477C0002D0FFF7BFFF2560FFF70AFD044600F0EB
:10478C00A1FD0A4B13B12046AFF30080002107486E
:10479C00FFF75AFE00210648BDE83840FFF7F0BD90
:1047AC0000F403201E1C279A04E4032000000000E0
:1047BC0031470D00704710B51821044600F004FC79
:1047CC00204610BDF0B5037D062B8DB00E4600F1D2
:1047DC0004074FF0000402D000F1080518E00CADFE
:1047EC00394605F8304D2F232A460A20FFF708FDDD
:1047FC00284600F08FFD33680246DB6829463046B8
:10480C0098470FE024B12E213046FFF7EBFE04440D
:10481C0015F8011D0A223046FFF7F3FEBD42044491
:10482C00F0D120460DB0F0BD10B5054B0446112259
:10483C0040F8043B002100F03CFD204610BD00BFB9
:10484C008C540D000346074A10B543F8042B01F1B4
:10485C00100251F8044B43F8044B9142F9D10A78F9
:10486C001A7010BD8C540D0010B59DF8084044EA28
:10487C00032343EA024242EA0161042341600375C7
:10488C0010BD37B50D788B784A78C97800912946D8
:10489C00FFF7EAFF03B030BD41747047704708B5AD
:1048AC000021007CFFF74CFD30EA200028BF4FF0C0
:1048BC00FF3008BD08B50121007CFFF741FD30EA4F
:1048CC00200028BF4FF0FF3008BD08B5007CFFF773
:1048DC002FFD20EAE07008BD08B5007CFFF720FD35
:1048EC0020EAE07008BD007CFFF73ABD10B514213A
:1048FC00044600F069FB204610BD38B50446007C28
:10490C000D46FFF715FD002801DC607C28B1294617
:10491C00207CFFF71DFD20EAE07038BD10B5044681
:10492C00002363604FF47A73A360054B236001236B
:10493C000846217463741146FFF7E2FC204610BD53
:10494C00A0540D000022007CFFF7E2BC10B514222D
:10495C000446002100F0ADFC204610BD30B50E4DD4
:10496C0087B001A8FFF7F2FF296811F0010410D1FC
:10497C002846FFF78EFB60B101AA21460748FFF7D6
:10498C00CDFF2846FFF78AFB054A0649034800F08D
:10499C000DFB024807B030BD08E403200CE40320F3
:1049AC00C8E30320A9480D0070474174704708B54F
:1049BC00007CFFF765FC20EAE07008BD08B5007CC0
:1049CC00FFF736FC20EAE07008BD08B5007CFFF765
:1049DC003FFC30EA200028BF4FF0FF3008BD08B57F
:1049EC00007CFFF72DFC30EA200028BF4FF0FF3091
:1049FC0008BD007CFFF734BC10B51421044600F050
:104A0C00E3FA204610BD70B5457C04460E4625B928
:104A1C00007CFFF735FC002805DD3146207CBDE825
:104A2C007040FFF7FDBB284670BD000010B5044672
:104A3C0008461146002262604FF47A72A260054A61
:104A4C0022600122207462741A46FFF7E1FB2046B3
:104A5C0010BD00BFD0540D00007CFFF709BC000056
:104A6C0038B50C4D296811F0010411D12846FFF717
:104A7C0010FB68B1084A094B09482146FFF7D6FFDD
:104A8C002846FFF70BFB074A0749054800F08EFA4A
:104A9C00034838BDB8E40320BCE4032034E403200D
:104AAC0020E40320C8E30320B5490D007047F8B596
:104ABC00064615460C468F18BC4206D0336814F8CF
:104ACC00011B9B6830469847F6E72846F8BD002244
:104ADC00007CFFF7DDBB0021007CFFF7E1BB002170
:104AEC00007CFFF7E5BB0021007CFFF7E9BB002150
:104AFC00007CFFF7EDBB10B51421044600F064FAFE
:104B0C00204610BD10B50446002363604FF47A7341
:104B1C00A360044B2174084623601146FFF7E8FBA1
:104B2C00204610BD00550D000021007CFFF7D8BBBE
:104B3C00002211464068FFF76FBC00221146406806
:104B4C00FFF77ABC00224068FFF76EBC002281F0B0
:104B5C0001014068FFF758BC00231A460121406848
:104B6C00FFF74ABC00231A4619464068FFF73CBCC5
:104B7C00002211464068FFF72FBC00221146406806
:104B8C00FFF71ABC002202214068FFF71DBC00236E
:104B9C001A464068FFF708BC38B5054688B104686A
:104BAC004CB1A3681BB10322214620469847102123
:104BBC00204600F009FA28461421BDE8384000F0E0
:104BCC0003BA38BD10B103685B681847704710B55D
:104BDC0003680446BBB15868FFF7EAFA78B9236852
:104BEC005A7C12B95868FFF7EBFA23685868FFF73C
:104BFC00EFFA20680023236028B1FFF7CDFF20686F
:104C0C0008B1FFF7C9FF204610BD38B50446D0F8EF
:104C1C00C40108B1FFF73BFAD4F8C00108B1FFF7A3
:104C2C00E7FAD4F8BC5135B12846FFF7D0FF042180
:104C3C00284600F0C9F9206808B1FFF7C3FF2046E9
:104C4C0038BD000010B5044B044640F8083BFFF794
:104C5C00DCFF204610BD00BF28550D0038B50E4CAA
:104C6C000E4B23600025022304F5E4706360A560FD
:104C7C00C4F8C451C4F8C851FFF7B2FA084BC4F8D1
:104C8C00CC5184F8D05123602046064A0649BDE831
:104C9C00384000F08BB900BF40E5032090550D0063
:104CAC0028550D00C8E30320514C0D00002211467D
:104CBC004068FFF791BB002211464068FFF7ACBB80
:104CCC00002211464068FFF7B7BB00224068FFF78F
:104CDC00ABBB002281F001014068FFF795BB0023BC
:104CEC001A4619464068FFF787BB00231A46194637
:104CFC004068FFF779BB002211464068FFF75CBBA8
:104D0C00002202214068FFF75FBB00231A4640686F
:104D1C00FFF74ABB024B04225A60024A1A607047E2
:104D2C0014E703205C550D0000231A464068FFF77A
:104D3C003BBB002202214068FFF746BB0022114614
:104D4C004068FFF739BB002211464068FFF744BBAF
:104D5C0000231A4619464068FFF746BB00231A4643
:104D6C0019464068FFF748BB002281F001014068FA
:104D7C00FFF74ABB00224068FFF756BB00221146E2
:104D8C004068FFF759BB002211464068FFF744BB4F
:104D9C002DE9F043002495B016460D460746FFF763
:104DAC0043FD214620220CA8009400F082FA4023F7
:104DBC000C9321466B460CAA3046FFF7B1F904461A
:104DCC00002844D1024601216868FFF705FB022147
:104DDC00804622466868FFF7FFFA009E814621460E
:104DEC00002E34D0002932D17368022B02D00A2B4A
:104DFC0009D02AE0B8F1000F27D071693846043188
:104E0C00FFF73FFD20E0B9F1000F1ED074691122AD
:104E1C0001A800F04EFA06238DF8143001AD04F110
:104E2C0008031834186859682A4603C20833A34289
:104E3C001546F7D101A906A807ADFFF703FD0FCD65
:104E4C003C1D0FC42B6823700121F669C8E700983C
:104E5C00FFF75EF9384615B0BDE8F083024B034A04
:104E6C001A6000225A6070471CE7032090550D0011
:104E7C0070B5184E316811F0010504460AD1304660
:104E8C00FFF707F930B129461348FFF733FB3046DB
:104E9C00FFF704F91048FFF737FB28B1A4F10B0317
:104EAC00022B01D8002070BD00F05AF8FFF73CFE31
:104EBC0008B1012CF6D9FFF7D3FDFFF7CDFD18B1E2
:104ECC00A4F10903012BEDD9232C8CBF0020012068
:104EDC0070BD00BF24E7032028E70320232838B542
:104EEC0004460D460AD8FF2908D0FFF7C1FF28B1A8
:104EFC0029462046BDE83840FFF72AB938BD0D28B1
:104F0C0010B504469CBF0E34A4B22046FFF7B0FF88
:104F1C0050B103212046FFF713F9032804D1204692
:104F2C00BDE81040FFF71CB9002010BD70B5044659
:104F3C0014252A46094E002100F0BBF925802025B6
:104F4C003146A5602561284600F040F83146606086
:104F5C00284600F03BF8E060204670BDBC550D00C3
:104F6C0030B50E4D296811F0010487B013D12846D5
:104F7C00FFF78FF878B101A8FFF7D8FF01AA2146F7
:104F8C000748FFF7BFFD2846FFF788F8054A064992
:104F9C00034800F00BF8024807B030BD34E703209B
:104FAC0038E70320C8E30320B94A0D000B4601463D
:104FBC00184600F065B90000024B1868BFF35F8F0C
:104FCC00704700BF4CE70320FFF75FB800F000B854
:104FDC0010B5002814BF044601242046FFF73CFA04
:104FEC0020B9FFF7E9FF08B18047F6E710BD0000D4
:104FFC00184B1A68D1075CBF01221A60164B1A684D
:10500C00D2075CBF01221A60144B1A68D0075CBF30
:10501C0001221A60124B1A68D1075CBF01221A6078
:10502C00104B1A68D2075CBF01221A600E4B1A682B
:10503C00D0075CBF01221A600C4B1A68D1075CBF09
:10504C0001221A600A4B1A68D2075CBF01221A604F
:10505C00704700BF6CE7032068E7032064E7032078
:10506C0060E703205CE7032058E7032054E70320A4
:10507C0050E70320244B1A68D0075CBF01221A604A
:10508C00224B1A68D1075CBF01221A60204B1A68A8
:10509C00D2075CBF01221A601E4B1A68D0075CBF96
:1050AC0001221A601C4B1A68D1075CBF01221A60DE
:1050BC001A4B1A68D2075CBF01221A60184B1A6887
:1050CC00D0075CBF01221A60164B1A68D1075CBF6F
:1050DC0001221A60144B1A68D2075CBF01221A60B5
:1050EC00124B1A68D0075CBF01221A60104B1A6869
:1050FC00D1075CBF01221A600E4B1A68D2075CBF45
:10510C0001221A60704700BF9CE7032098E7032038
:10511C0094E7032090E703208CE7032088E7032023
:10512C0084E7032080E703207CE7032078E7032053
:10513C0074E7032070E70320244B1A68D0075CBF88
:10514C0001221A60224B1A68D1075CBF01221A6037
:10515C00204B1A68D2075CBF01221A601E4B1A68DA
:10516C00D0075CBF01221A601C4B1A68D1075CBFC8
:10517C0001221A601A4B1A68D2075CBF01221A600E
:10518C00184B1A68D0075CBF01221A60164B1A68BC
:10519C00D1075CBF01221A60144B1A68D2075CBF9E
:1051AC0001221A60124B1A68D0075CBF01221A60E8
:1051BC00104B1A68D1075CBF01221A600E4B1A689B
:1051CC00D2075CBF01221A60704700BFCCE70320F6
:1051DC00C8E70320C4E70320C0E70320BCE7032093
:1051EC00B8E70320B4E70320B0E70320ACE70320C3
:1051FC00A8E70320A4E70320A0E70320184B1A68B4
:10520C00D1075CBF01221A60164B1A68D2075CBF2B
:10521C0001221A60144B1A68D0075CBF01221A6075
:10522C00124B1A68D1075CBF01221A60104B1A6826
:10523C00D2075CBF01221A600E4B1A68D0075CBF04
:10524C0001221A600C4B1A68D1075CBF01221A604C
:10525C000A4B1A68D2075CBF01221A60704700BF64
:10526C00ECE70320E8E70320E4E70320E0E7032072
:10527C00DCE70320D8E70320D4E70320D0E70320A2
:10528C0010B5054C13462CB10A4601460220AFF36B
:10529C00008010BD204610BD0000000010B5431E5C
:1052AC000A44914204D011F8014B03F8014FF8E77E
:1052BC0010BD02440346934202D003F8011BFAE7E7
:1052CC007047000038B5124B1C68A36B0546D3B968
:1052DC001820FFF7C1F843F20E33A06303804AF69F
:1052EC00CD33438041F2342383804EF26D63C3800F
:1052FC004DF6EC630381052343810B23838101224B
:10530C000023C0E90423A36B00221D615A6138BD40
:10531C00C4E30320034613F8012B002AFBD1181A0F
:10532C00013870471D400D0059400D0085400D009F
:10533C0089400D000000000000000000000000008B
:10534C00E3440D00D9440D00CF440D00C5440D00BD
:10535C00B9440D00AD440D00A1440D0099440D005D
:10536C008F440D0085440D009D4D0D0062617564E8
:10537C000053657269616C0053657269616C310030
:10538C007479706500706172616D00636D640069A1
:10539C006400686E64007374726D0066696C7400EE
:1053AC006C766C0061646448616E646C657200724A
:1053BC00656D6F766548616E646C657200656E75BF
:1053CC006D48616E646C657273004A534F4E537432
:1053DC007265616D4C6F6748616E646C65720061DB
:1053EC00707000253031307520005D200025640080
:1053FC002C200028293A2000205B00636F64652074
:10540C003D200025690064657461696C73203D2042
:10541C00000D0A0066006C6E00666E00636F6465BA
:10542C000064657461696C006E6F6E650074726106
:10543C00636500696E666F007761726E00657272EB
:10544C006F720070616E696300616C6C005A0025AC
:10545C002B3033643A253032750025592D256D2DAE
:10546C0025645425483A254D3A2553257A00617315
:10547C006374696D6500000000000000000000000E
:10548C00D1470D00C1470D00C3470D0000000000BF
:10549C0000000000A9480D00F9480D0007490D0057
:1054AC00A5450D00E5480D00AB480D00C1480D00A9
:1054BC00F3480D00D7480D00A5480D000000000072
:1054CC0000000000B5490D00054A0D00134A0D00FF
:1054DC00A5450D00C9490D00EB490D00D7490D003C
:1054EC00FF490D00B7490D00BB490D00000000003D
:1054FC0000000000B94A0D00034B0D00DB4A0D0003
:10550C00BB4A0D00E34A0D00EB4A0D00F34A0D00B7
:10551C00FB4A0D0000000000000000009B4B0D003A
:10552C00914B0D00874B0D007D4B0D00714B0D0009
:10553C00654B0D00594B0D00514B0D00474B0D00A9
:10554C003D4B0D009D4D0D000000000000000000C3
:10555C00174D0D000D4D0D00034D0D00B94C0D00F8
:10556C00F74C0D00EB4C0D00DF4C0D00D74C0D0033
:10557C00CD4C0D00C34C0D009D4D0D0000000000E6
:10558C0000000000354D0D003F4D0D00494D0D0044
:10559C00534D0D005D4D0D00694D0D00754D0D0009
:1055AC00814D0D00894D0D00934D0D009D4D0D004D
:1055BC0000000000000000000000000000000000DF
:1055CC0000000000000000000000000000000000CF
:1055DC0000000000000000000000000000000000BF
:1055EC0000000000000000000000000000000000AF
:1055FC00000000000000000000000000000000009F
:10560C00000000000000000000000000000000008E
:10561C00000000004300000019410D00ED440D0096
:10562C0039450D007D450D0051460D0061460D00BC
:10563C0095460D00694C0D00214D0D00694E0D0075
:10564C00FD4F0D0081500D0045510D0009520D000C
:04565C00000000004A
:045660000000000046
:10566400120000007A540D0000000000C0550D0027
:10567400E0550D0000560D00000000000000000081
:10568400000000000000000020560D000000000093
:105694000000000000000000000000000000000006
:1056A40000000000000000000000000000000000F6
:1056B40000000000000000000000000000000000E6
:0C56C400000000000000000064E3032070
:1056D000FFFFFFFF00000102030405060708090A97
:1056E0000B0C0D0E0F101112131415161718191A92
:0856F0001B1C1D1E1F202800D9
:0456F800785634129A
:04000003D000401CCD
:00000001FF
