:02000002D0002C
:1040000000400D00286C0D00000006000C000501AA
:084010000401E80500000000B6
:0440180028670D0008
:10401C0009480A49884208B505D0094A824202D0AB
:10402C00121A02F037FB0748074A0021121A02F055
:10403C003CFB014808BD00BF48DE0320946B0D001B
:10404C00B4DE0320B4DE0320F0E7032070B501F0EA
:10405C006BFD074C074BE41AA40800251E46A5422D
:10406C0004D056F8253098470135F8E770BD00BFED
:10407C00906B0D00106B0D0000F084B808B500F0CB
:10408C00ABF8BDE8084001F011BD01F0F7BA01F042
:10409C00F5BA0078B0FA80F040097047012303703C
:1040AC007047037C03F00803024603F0FF002BB1BA
:1040BC00D36A506A181A48BF6FF0004070477047B7
:1040CC00103000F0D5BC00007FB5024608461379CD
:1040DC00956833B13DB90C4904B0BDE8704001F0AE
:1040EC001DBC0A4B00E00A4B167B0A4C0A49527B5A
:1040FC000292012E08BF214601910095074A00212A
:10410C0001F049FC04B070BD8B670D000B690D000C
:10411C007A670D0083670D0087670D00A1670D009E
:10412C0010B53421044602F04BF9204610BD103076
:10413C0000F068BC103000F008BC07B501220DF18E
:10414C000701103000F04EFB01280CBF9DF8070052
:10415C004FF0FF3003B05DF804FB10B50446006867
:10416C0008B101F08BFA204610BD07B502AB012255
:10417C0003F8011D1030194600F07AFC03B05DF80D
:10418C0004FB000010B501F0CFFD0F4C4FF416519D
:10419C0001F0BEFD642001F04BFC204600F00BF951
:1041AC00204600F03FF9094B0321188802F07CF8F7
:1041BC0001F0BAFD064901F0C4FB01F0B5FD05495B
:1041CC00BDE8104001F0BDBBB4E3032048DE032082
:1041DC00BF670D00CD670D0038B5164B164C18880F
:1041EC0002F08CF8154B002814BF012200221A7023
:1041FC000AD023680133042B01DC236004E0012383
:10420C006420236001F014FC01F08EFD2468002C66
:10421C00054604DA2D2101F085FB614200E02146C0
:10422C0028460A2201F097FB2846BDE8384001F0E9
:10423C007CBB00BF48DE0320C4DE0320C8E30320A0
:10424C0070B5374D374E002401F01CF84FF6FF7354
:10425C006B812C60AC80AC712C81022001F082F956
:10426C00314A3249284602F09DF80223194612229F
:10427C002F4800F0C5F82C4A2E492D4802F092F830
:10428C002D4B3168DC71642283F860242B4AC3F80F
:10429C007024012211EA020583F83C4483F83D4462
:1042AC0083F86A44C3F8784483F87C4483F87D44EB
:1042BC0083F874241C460AD13046FFF7EAFE30B16D
:1042CC0029461F4801F02EFA3046FFF7E7FE1D483D
:1042DC001B4BC4F86C3400244FF47A738360124A7D
:1042EC00194B1A49047444744460036002F05AF880
:1042FC00174B4FF4FA729A60164A83F820401168F3
:10430C00C3F8161051681289DA830222C3F81A1006
:10431C0083F8212083F8264083F8274070BD00BF26
:10432C0074E30320B8DE0320B4DE032067410D00E4
:10433C00B4E303206D430D00C8DE032044670D0079
:10434C00BCDE032080E3032050670D00CB400D0042
:10435C004CE3032070670D0001F014B801F00AB8AB
:10436C0010B50446C06808B101F088F923781BB178
:10437C000021E07901F098FF204610BD38B50446C5
:10438C00C0680D4608B101F079F9A379062B0CBF72
:10439C000420032010FB05F080B2A08001F066F928
:1043AC00E06028B1A288002102F07FF9658038BD59
:1043BC00A080608038BD10B504460121C07901F0A1
:1043CC0073FF0021E07901F080FF0123237010BD01
:1043DC0038B5037805460C461BB10021C07901F0B5
:1043EC0063FF2B78EC7153B1A4B22046012101F08C
:1043FC005BFF20460021BDE8384001F066BF38BDA8
:10440C0070B5002504461646837105700572C560AB
:10441C000561FFF7B3FF20463146FFF7D9FF204671
:10442C0070BD0000C368002B00F08B812DE9F04FAC
:10443C008379023BDBB2042B9CBFC44A52F8234065
:10444C0087B0054688BF3224FFF786FF2B69C01A58
:10445C00A042F9D3BE4AAB8807CA06AC04E90700F0
:10446C00039C1B01D4F800250433019322B9D4F822
:10447C006035002BC0F25581049CD4F8003523B96B
:10448C00D4F86035002BC0F23C81059CD4F8003583
:10449C001BB9D4F86035002B6EDBAE4BEA791E6885
:1044AC00AD4CAE49E0681201B31840F080705B78F7
:1044BC00B75CE0600A6803F01F0343EA4713012767
:1044CC003A430A600C46A888D5F80C90D4F804A09E
:1044DC009F408846002844D0CC4600224FF0A04193
:1044EC001CF801EB0820802663689B1A462BFBD92D
:1044FC00D8F80420D1F808351EEA060F43EA070362
:10450C00C1F808352FD063689B1A282BFBD9D1F83A
:10451C000C35013843EA07034FEA5606C1F80C354F
:10452C00E2D1C9EB0C03A8889BB29842D8D84FF4BF
:10453C00307303FB00F063689B1A462BFBD9D8F849
:10454C000430CAEB030A8245C0F0D5804FF4967054
:10455C00FFF704FFA888D5F80C90D4F804A0002825
:10456C00BAD10246E7E763689B1A112BCFD8636870
:10457C009B1A112BF7D9CAE7D4F86435002B8CDAC7
:10458C00D4F86835002B88DAD4F86C35002B84DA33
:10459C00019801F06BF800283FF47FAFAB88002B3B
:1045AC0000F0D08000273B466D4E6E4900E013466C
:1045BC00EA68D25D03F1010E12F0800F14BFB04611
:1045CC0088461FFA8EFE12F0400F14BFB146894682
:1045DC0012F0200F20F8138018BFB24620F81E905E
:1045EC0008BF8A4603F1020812F0100F03F1030E04
:1045FC0014BFB4468C461FFA88F812F0080F1FFA45
:10460C008EFE03F104091FFA89F914BFB3468B46D9
:10461C0012F0040F20F818A020F81EC014BFB246E8
:10462C008A4603F1050812F0020F03F1060C03F1A0
:10463C00070E20F819B01FFA8EFE14BFB14689463A
:10464C001FFA88F812F0010F1FFA8CFC14BF3246C7
:10465C000A4620F818A020F81C9020F81E200137DC
:10466C00B5F804E0BFB203F10802BE4592B29ED881
:10467C0003F109020A3392B29BB252005B0001991A
:10468C004FF4004686524908C65200221423C4F83F
:10469C000425304EC4F80C25C4F80835C4F814258C
:1046AC00C4F81025C4F82005C4F82415C4F828252E
:1046BC00C4F82C25EB7931681B01CE18C95C7378D2
:1046CC0003F01F0343EA41130121C4F86035C4F819
:1046DC000015C4F81021A160D4F81031002BFBD0C8
:1046EC0000234FF0FF32C4F81031C4F80035C4F881
:1046FC00602500F0C3FFFFF72FFE286107B0BDE86F
:10470C00F08FD4F86435002BBFF6BFAED4F8683503
:10471C00002BBFF6BAAED4F86C35002BBFF6B5AE95
:10472C0036E7D4F86435002BBFF6A6AED4F868355E
:10473C00002BBFF6A1AED4F86C35002BBFF69CAEA7
:10474C0026E770470423022299E700BF14680D0086
:10475C0008680D00CCE30320F0ED00E0001000E051
:10476C000D80FFFF0680FFFF08B500F08BFD00F009
:10477C0089FD014B186008BDCCE3032000F082BD1D
:10478C0000F080BD00F07EBD10B50446243000F072
:10479C0051FA28B104F50C70BDE8104000F04ABA8B
:1047AC0010BD00F06FBD00F06DBD00F06BBD00F0F2
:1047BC0069BD8378016943F00403837000F1100232
:1047CC00806800F0EDBA10B5044680680A462430C3
:1047DC00A16900F056FA20B1A38803F00F0300EB97
:1047EC00431010BD2DE9F74F037804468946154652
:1047FC004BB18278D10706D50CE05A46216900F0FE
:10480C006AFA00283DDA637843F0020363704FF0D4
:10481C00FF3097E01A0703D5E36962699B1A07E03A
:10482C009A0608D5A3681A896369C3EB42139BB235
:10483C009D4228BF1D462E464FF0000804F1100B78
:10484C00002E35D022786369A06812F0200FC3F3D4
:10485C00080A4FEA532102D0036A19441DE090F86C
:10486C00058001EA0808BAF1000F10D1B8F1000F69
:10487C000DD1002BC1D153064CBF036A236A2361AF
:10488C0005E004D1237813F0700F11D1BBE7216937
:10489C00A06800F01AFA08EB0001A068BAF1000F4A
:1048AC0035D1B6F5007F32D3C36A994202D12EE0DE
:1048BC00A81B47E0B6F5806F1BD3227897064FEA0A
:1048CC00562A06D40279C8EB0202D2B2924528BF0E
:1048DC00924699424FEA4A2707D2A06853464A4665
:1048EC00006800F0A8FB60B98DE75344994221D3CE
:1048FC00F3E74A46006800F056FB002883D04FF4DB
:10490C00007763693B44B9446361F61B98E7002266
:10491C00243000F0B6F900283FF475AFCAF50077E3
:10492C00B74228BF374600EB0A013A46484601F029
:10493C00B1FEE6E72430019100F07CF901990028E2
:10494C00CBD160E703B0BDE8F08F73B501220DF158
:10495C000701044646690569FFF744FF012805BFB6
:10496C009DF8070066614FF0FF30256102B070BD05
:10497C002DE9F0410E46017807690446002939D02B
:10498C004569B5423AD00EB9066131E00B0703D543
:10499C00C3699E422ED807E0880605D5A3681B89FB
:1049AC00B6EB431F26D823E0D4F808E09EF8063077
:1049BC006A1E03F10900731EC240C3409A4200D81C
:1049CC004DB94A064CBFDEF82020226A22611D46F2
:1049DC0004F110080AE09B1AF9E742462169A06825
:1049EC0000F079F9002805F1FF3503DD002DF4D135
:1049FC00666103E027610020BDE8F0810120BDE87D
:104A0C00F081000038B5037804460BB9012038BD9D
:104A1C0083785A0723D50121FFF7D5FE054628B91F
:104A2C00637843F001036370002038BD0378E52BF5
:104A3C00F6D023781B0744BFE369C361238C4383FF
:104A4C00638C8382094B1B682BB100F11601183063
:104A5C0098472B8B6B82A37823F00403A370A06878
:104A6C00FFF792FE0028DBD0D0E700BFD0E3032095
:104A7C002DE9F0470378894619070446904608D576
:104A8C0083789A0705D51B070BD5E169FFF770FFF3
:104A9C0038B9637843F0010363704FF0FF30BDE821
:104AAC00F0876369DB439845F3D846464FF0000A1C
:104ABC006369002E00F08180A068427912EA5325C8
:104ACC00C3F308071CD1DFB9216971B104F11002DD
:104ADC0000F001F90028DCDB40F08E802046FFF767
:104AEC0068FE002840F08880D3E7236A3BB9204653
:104AFC00FFF75FFE0028CCD02369236200E023611E
:104B0C002169A06800F0E1F8291817B9B6F5007F03
:104B1C0021D2C7F50075B54228BF354637B9636950
:104B2C00E269934234BF0122052200E00122A06811
:104B3C00243000F0A6F80028ABD038442A46494669
:104B4C002F4401F0A7FDB7F5007F30D1A0682430C9
:104B5C0000F070F817E0B6F5806FA06815D30279F5
:104B6C00521B730AD2B2934228BF1346C26A9142B7
:104B7C004FEA432502D31A44914237D3A7684A46D9
:104B8C00386800F00CFB90B983E7C36A994202BF06
:104B9C004FF0FF3380F824A0C362A3684A4618681C
:104BAC0000F08BFA00283FF474AF4FF40075636982
:104BBC002B446361A944761B7AE7E269934201D9DD
:104BCC00E36102E00F4B1B681BB1A37843F00403B5
:104BDC00A37094F90230002B02DB4046BDE8F0874D
:104BEC002046FFF70FFF0028F7D152E74FF0FF32B6
:104BFC0080F824A0C262C1E72169A06800F065F8C2
:104C0C00014683E7D0E3032000F03CBB70B50546BA
:104C1C000C46084649B101F079FD2B680246214645
:104C2C002846DB68BDE87040184770BD00F02ABB11
:104C3C0000F028BB70B50378DA0704461ED543682C
:104C4C00816800F10C063246186800F036FA054609
:104C5C0008B9002513E023789B0704D4237823F0AC
:104C6C00010323700BE06368A068196932460144A4
:104C7C00186800F022FA0028F0D1EAE7012528464E
:104C8C0070BD70B583688B4204460E46154614D031
:104C9C00FFF7D0FF08B9002070BD6B0703D50023C8
:104CAC002370A66009E0636804F10C0231461868B1
:104CBC0000F079F90028F2D1EDE72378204605F0D1
:104CCC0003051D4300F80C5B70BD83794069023904
:104CDC00994008447047012970B505460C461646A4
:104CEC0002D84FF0FF3070BDC3699942F9D8C3792F
:104CFC00202B10D18169022201EBD41100F50C702C
:104D0C00FFF7BFFF0028ECD004F07F0450F82430EC
:104D1C0023F070430FE0102BE3D18369C1F307211B
:104D2C000222194400F50C70FFF7ABFF0028D8D015
:104D3C00E4B230F81430EA6993429ABF3360012030
:104D4C00002070BD012938B50C46154601D800204D
:104D5C0038BDC3699942FAD8C379202B0ED1816929
:104D6C00032201EBD41100F50C70FFF78AFF002829
:104D7C00EDD004F07F0440F824500FE0102BE6D166
:104D8C008369C1F307210322194400F50C70FFF766
:104D9C0078FF0028DBD0E4B220F81450012038BD95
:104DAC002DE9F341C4688C4205460E46904607D265
:104DBC000C460027EB6901349C4203D9CFB9EC684F
:104DCC000127F7E7A64214D001AA21462846FFF78F
:104DDC0082FF00280DDBEDD0019B002BEAD107B13F
:104DEC00EC606FF0704221462846FFF7ABFF074698
:104DFC0008B900270BE016B9C8F8004007E02246B6
:104E0C0031462846FFF79EFF0028F5D1F1E73846DA
:104E1C0002B0BDE8F08100F035BA00F033BA00F012
:104E2C0031BA000070B50E4C0E46154600F0AAFAC9
:104E3C002368C01A0B4B984208D900F0ABFA0A4B06
:104E4C00186000F003FC00F09DFA206000F0A2FA5C
:104E5C0080B2801BA842D4BF0020012070BD00BFCF
:104E6C00D4E30320A086010030E7032038B5057A8F
:104E7C0004464DB9406800F0B9F963682946187DBD
:104E8C0001F023FA0123237238BD10B5037A0446CE
:104E9C006BB143680121187D01F017FAFF2160689E
:104EAC0000F0C6F9606800F0A5F90023237210BD6C
:104EBC00F8B504460D46164600F06CFA87B26068E9
:104ECC0000F09BF9FF28607209D14FF47A723946D1
:104EDC002046FFF7A7FF0028F1D055230BE0FE2852
:104EEC0001D0502307E032462946606800F08AF969
:104EFC00607230B1602320462370FFF7C6FF00209C
:104F0C00F8BD606800F079F9606800F076F901206E
:104F1C00F8BD70B504460E4600F03CFA85B2324638
:104F2C0029462046FFF77EFF30B9606800F065F92E
:104F3C00FF28F4D1012070BD002070BDF7B5037AB5
:104F4C00019204460D460BB9FFF790FF25B14FF4C3
:104F5C0096712046FFF7DDFF45F04001606800F0D8
:104F6C0067F90DF107060DF1030716F801196068D2
:104F7C0000F05EF9BE42F8D1002D0CBF95218721BF
:104F8C00606800F055F9606800F037F90B2560682F
:104F9C0000F033F90306607203D5013D15F0FF05EF
:104FAC00F5D103B0F0BD38B5837A032B18BF490295
:104FBC0015460A4611210446FFF7C0FF10B13023F5
:104FCC0023700BE029464FF400722046FFF770FF68
:104FDC00054618B12046FFF758FF03E02046FFF7BF
:104FEC0054FF0025284638BD10B5837A032B0A469A
:104FFC0018BF4A0212210446FFF7A0FF30B131233B
:10500C0020462370FFF741FF002010BD012010BD8A
:10501C0010B500220C210446FFF790FF30B1282375
:10502C0020462370FFF731FF002010BD2046FFF70C
:10503C002CFF012010BDF8B5054616461F46FFF79C
:10504C00D3FF98B10024A3B29F4206EB442108D9A8
:10505C004FF400722846FFF72BFF01340028F2D1E1
:10506C0004E02846BDE8F840FFF7D2BF0020F8BDA9
:10507C0038B504461546406800F0DAF84FF4007273
:10508C002946606800F0D8F8FF21606800F0D0F87D
:10509C00FF21606800F0CCF8606800F0AEF8607238
:1050AC0000F01F00052806D0572320462370FFF779
:1050BC00ECFE002038BD012038BD70B5837A032B7F
:1050CC0018BF490215460A4618210446FFF736FF59
:1050DC00064608B132231DE02A46FE212046FFF782
:1050EC00C7FFC0B14FF4FA612046FFF712FF054627
:1050FC0008B95A230EE032460D212046FFF71EFF59
:10510C0038B9606800F079F818B92046FFF7BDFE91
:10511C0005E0292323702046FFF7B7FE002528461B
:10512C0070BD38B50D464FF4FA610446FFF7F1FE39
:10513C0010B95B23237005E02A46FC212046FFF7BB
:10514C0097FF18B92046FFF7A0FE002038BD10B518
:10515C00837A032B0A4618BF4A0219210446FFF72B
:10516C00EDFE30B1332320462370FFF78EFE002076
:10517C0010BD012010BD38B54FF4FA610446FFF79D
:10518C00C8FE054620B1FD21606800F051F801E031
:10519C00562323702046FFF778FE284638BDF8B515
:1051AC00054616461F46FFF7D2FF70B10024BC42DD
:1051BC0006EB4421284604D0FFF7B3FF28B1013495
:1051CC00F5E7BDE8F840FFF7D6BF2846FFF75DFED0
:1051DC000020F8BD00F056B800F054B800F052B8FA
:1051EC00014B01221A707047D8E30320011D00689F
:1051FC0000F0BCBA006800F09FBAFF21006800F014
:10520C0025BB000037B5084B00930025074C006800
:10521C00257013460A46294600F01EFB2378002B06
:10522C00FCD0002003B030BDED510D00D8E30320BD
:10523C00006800F00BBB000037B5074B009300254E
:10524C00064C0068257013462A4600F005FB2378AF
:10525C00002BFCD003B030BDED510D00D8E3032082
:10526C0000F010B808B5024B1B689B68019308BD91
:10527C006802030008B5024B1B68DB68019308BD8C
:10528C006802030008B5024B1B681B68019308BD3C
:10529C002C02030008B5024B1B689B68019308BDE8
:1052AC002C02030008B5024B1B68DB68019308BD98
:1052BC002C02030008B5024B1B681B69019308BD47
:1052CC002C02030008B5024B1B685B69019308BDF7
:1052DC002C02030008B5024B1B685B69019308BDE7
:1052EC003002030008B5024B1B68DB69019308BD53
:1052FC003002030008B5024B1B681B6A019308BD02
:10530C003002030008B5024B1B685B6A019308BDB1
:10531C003002030008B5024B1B689B6A019308BD61
:10532C003002030008B5024B1B689B6B019308BD50
:10533C003002030008B5024B1B68DB6B019308BD00
:10534C003002030008B5024B1B681B6C019308BDAF
:10535C003002030008B5024B1B685B6C019308BD5F
:10536C003002030008B5024B1B685B68019308BD53
:10537C001802030008B5024B1B68DB68019308BDDB
:10538C001802030008B5024B1B681B69019308BD8A
:10539C001802030008B5024B1B685B69019308BD3A
:1053AC001802030008B5024B1B689B68019308BDEB
:1053BC004802030008B5024B1B681B69019308BD2A
:1053CC004802030008B5024B1B685B69019308BDDA
:1053DC004802030008B5024B1B685B6C019308BDC7
:1053EC004802030008B5024B1B689B6C019308BD77
:1053FC004802030008B5024B1B685B69019308BDAA
:10540C006402030008B5024B1B681B68019308BDBE
:10541C003C02030008B5024B1B68DB68019308BD16
:10542C003C02030008B5024B1B681B69019308BDC5
:10543C003C02030008B5024B1B685B69019308BD75
:10544C003C02030008B5024B1B689B69019308BD25
:10545C003C02030008B5024B1B68DB69019308BDD5
:10546C003C02030008B5024B1B681B6A019308BD84
:10547C003C02030008B5024B1B689B6A019308BDF4
:10548C003C02030008B5024B1B681B6A019308BD64
:10549C002802030008B5024B1B685B6A019308BD28
:1054AC002802030008B5024B1B689B6A019308BDD8
:1054BC002802030008B5024B1B68DB6A019308BD88
:1054CC002802030008B5024B1B681B6B019308BD37
:1054DC002802030008B5024B1B685B6B019308BDE7
:1054EC002802030008B5024B1B681B6C019308BD16
:1054FC002802030008B5024B1B681B68019308BD0A
:10550C004C02030008B5024B1B685B68019308BD95
:10551C004C02030008B5024B1B681B69019308BDC4
:10552C004C02030008B5024B1B685B69019308BD74
:10553C004C02030008B5024B1B689B69019308BD24
:10554C004C02030008B5024B1B68DB69019308BDD4
:10555C004C02030008B5024B1B681B6A019308BD83
:10556C004C02030008B5024B1B685B68019308BD35
:10557C002002030008B5024B1B685B69019308BD50
:10558C002002030008B5034B1B68D3F88830019345
:10559C0008BD00002002030008B5034B1B68D3F8BC
:1055AC009430019308BD00002002030008B5024BA3
:1055BC001B685B68019308BD4002030008B5024BF1
:1055CC001B689B68019308BD4002030008B5024BA1
:1055DC001B68DB68019308BD4002030008B5024B51
:1055EC001B681B69019308BD4002030008B5024B00
:1055FC001B685B69019308BD4002030008B5024BB0
:10560C001B689B69019308BD4002030008B5024B5F
:10561C001B68DB69019308BD4002030008B5024B0F
:10562C001B681B6A019308BD4002030008B5024BBE
:10563C001B681B6B019308BD4002030008B5024BAD
:10564C001B685B6B019308BD4002030008B5024B5D
:10565C001B689B68019308BD4402030008B5024B0C
:10566C001B68DB6B019308BD4402030008B5024BB9
:10567C001B681B68019308BD1C02030008B5024B94
:10568C001B685B68019308BD1C02030008B5024B44
:10569C001B685B6A019308BD1C02030000221146C3
:1056AC004068FFF7BBBF002211464068FFF7C6BF3A
:1056BC0000224068FFF7BABF002281F00101406868
:1056CC00FFF7A4BF00231A4619464068FFF796BFA0
:1056DC0000231A4619464068FFF788BF002211467E
:1056EC004068FFF77BBF002211464068FFF766BF9A
:1056FC00002202214068FFF769BF00231A46406868
:10570C00FFF754BF024B03225A60024A1A607047DB
:10571C00DCE3032030680D000021FFF713BE0021ED
:10572C00FFF718BE10B5044601700846FFF7DAFD06
:10573C0000236360204610BD0078FFF7F0BF000027
:10574C00400830B51860002418688842E5B206D9C4
:10575C000134082C02D040081860F5E70725024BED
:10576C005B5D137030BD00BF5C680D002DE9F0432C
:10577C0007468FB000780E46FFF7CEFF002862DB9D
:10578C003C781422002109A800F08FFF0B2320463F
:10579C00002209A9ADF82430FFF7B4FD9DF82D4087
:1057AC0054B19DF82C5035B9DDF830809DF834900B
:1057BC009DF8354003E00024A146A046012533792D
:1057CC0005B1BBB99D420BD1B268424508D18DF8E9
:1057DC0020908DF82140BDF82010B289914209D05B
:1057EC0053B10024387801940094234622460121B9
:1057FC00FFF7A0FD002026E08DF80F30B1680A9865
:10580C0004AB0DF10F02FFF79BFF317905B1B1B974
:10581C00A94208D0002438780194747B337B9DF81E
:10582C000F200094E4E7B3684345F3D38DF8209040
:10583C008DF82140BDF82020B3899A42EAD1049B0F
:10584C004345E7D1D6E70FB0BDE8F08308B5007843
:10585C00FFF740FDC0B208BD30B587B004460A9DC5
:10586C0000780095FFF756FD3DB902A92078FFF7A7
:10587C0059FD9DF81430DB07F7D407B030BD007824
:10588C00FFF738BD10B5094C00204FF6FF732060B0
:10589C00A080A07120816381FFF764FE2046044A3A
:1058AC000449BDE8104000F07DBD00BFE4E30320D7
:1058BC00B4DE032067410D0010B50446006808B142
:1058CC00FFF790FD204610BD10B5064C0023204676
:1058DC002360FFF77FFD2046034A0449BDE81040D2
:1058EC0000F060BDF0E30320B4DE0320C5580D00CA
:1058FC00F8B506460D468F180024BD420CD033680F
:10590C0015F8011B9B6830469847002801DB0444BE
:10591C00F3E7002C08BF04462046F8BD08B5FFF796
:10592C0075F908BD03689B68184738B50D21054605
:10593C00FFF7F8FF0A2104462846FFF7F3FF20443F
:10594C0038BD38B50546FFF761F904462846FFF720
:10595C00ECFF204438BD30B58BB00B4600218DF8E0
:10596C002410012A98BF0A220DF12304B3FBF2F58F
:10597C0005FB123303F0FF03092B94BF303337338D
:10598C00DBB2214604F801392B46002DEED1FFF78E
:10599C003DF90BB030BD0CB42DE9F04387B000AF2E
:1059AC0007F13804054654F8049B3C600E46234628
:1059BC004A461421381DFFF769FE132805D8391DF6
:1059CC002846FFF723F9044613E000F1080323F0FF
:1059DC000703E846ADEB030D411C23464A466846D7
:1059EC003C60FFF753FE69462846FFF70FF9044663
:1059FC00C5461EB12846FFF798FF044420461C37C5
:105A0C00BD46BDE8F04302B070470000014B024AAE
:105A1C001A607047F4E30320D7680D00024B1A6834
:105A2C00024B1A60704700BF4CDE0320F8E30320E2
:105A3C000021FFF79FBD10B58368044613B1032204
:105A4C0001469847204610BD10B50446FFF7F3FFFA
:105A5C00204610BD0348044A04490023836000F02B
:105A6C00A1BC00BFFCE30320B4DE0320555A0D009B
:105A7C0008B50C4B33B100F057F903681B69984714
:105A8C00002809DC084B63B100F0D0F903681B69EE
:105A9C009847002803DC08BDAFF30080F2E7AFF3B2
:105AAC00008008BD000000000000000008B5FFF7F2
:105ABC00DFFFFFF76FFC014B186008BD30E70320D8
:105ACC000248034A0349121A00F0E4BD00F4032013
:105ADC0004F40320906B0D0007B5002300931A46C5
:105AEC006FF07701FFF758FD03B05DF804FB000081
:105AFC0007B543880A2B08D0502B09D1094B1B68DA
:105B0C003BB103B05DF804EB1847FFF7E5FF06E087
:105B1C00002300931A466FF07701FFF73DFD03B0A9
:105B2C005DF804FB0CE4032038B5104C104D2368D1
:105B3C00AB42104B0CBF012200221A7002D0FFF7AF
:105B4C00BFFF2560FFF70EFC044600F0B7FD0A4BC3
:105B5C0013B12046AFF3008000210748FFF77EFD0C
:105B6C0000210648BDE83840FFF70CBD00F40320C7
:105B7C001E1C279A10E4032000000000FD5A0D00A3
:105B8C00704710B51821044600F01AFC204610BDD1
:105B9C00F0B5037D062B8DB00E4600F104074FF0D7
:105BAC00000402D000F1080518E00CAD394605F8E8
:105BBC00304D2F232A460A20FFF71CFC284600F004
:105BCC00A5FD33680246DB682946304698470FE04E
:105BDC0024B12E213046FFF7A5FE044415F8011D13
:105BEC000A223046FFF7B7FEBD420444F0D12046EE
:105BFC000DB0F0BD10B5054B0446112240F8043B26
:105C0C00002100F052FD204610BD00BF78690D0048
:105C1C000346074A10B543F8042B01F1100251F862
:105C2C00044B43F8044B9142F9D10A781A7010BD19
:105C3C0078690D0010B59DF8084044EA032343EA47
:105C4C00024242EA016104234160037510BD37B57D
:105C5C000D788B784A78C97800912946FFF7EAFFCE
:105C6C0003B030BD41747047704708B50021007C0B
:105C7C00FFF760FC30EA200028BF4FF0FF3008BD72
:105C8C0008B50121007CFFF755FC30EA200028BF45
:105C9C004FF0FF3008BD08B5007CFFF743FC20EA4D
:105CAC00E07008BD08B5007CFFF734FC20EAE0701A
:105CBC0008BD007CFFF74EBC10B51421044600F063
:105CCC007FFB204610BD38B50446007C0D46FFF71F
:105CDC0029FC002801DC607C28B12946207CFFF7D8
:105CEC0031FC20EAE07038BD10B504460023636037
:105CFC004FF47A73A360054B23600123084621748B
:105D0C0063741146FFF7F6FB204610BD8C690D003D
:105D1C000022007CFFF7F6BB10B5142204460021CC
:105D2C0000F0C3FC204610BD30B50E4D87B001A865
:105D3C00FFF7F2FF296811F0010410D12846FEF795
:105D4C00A8F960B101AA21460748FFF7CDFF284604
:105D5C00FEF7A4F9054A0649034800F023FB024864
:105D6C0007B030BD14E4032018E40320B4DE032094
:105D7C00755C0D0070474174704708B5007CFFF7E7
:105D8C0079FB20EAE07008BD08B5007CFFF74AFB00
:105D9C0020EAE07008BD08B5007CFFF753FB30EA41
:105DAC00200028BF4FF0FF3008BD08B5007CFFF77E
:105DBC0041FB30EA200028BF4FF0FF3008BD007CCB
:105DCC00FFF748BB10B51421044600F0F9FA204641
:105DDC0010BD70B5457C04460E4625B9007CFFF716
:105DEC0049FB002805DD3146207CBDE87040FFF7FB
:105DFC0011BB284670BD000010B50446084611467C
:105E0C00002262604FF47A72A260054A226001227D
:105E1C00207462741A46FFF7F5FA204610BD00BFD5
:105E2C00BC690D00007CFFF71DBB000038B50C4DA4
:105E3C00296811F0010411D12846FEF72AF968B13E
:105E4C00084A094B09482146FFF7D6FF2846FEF7BA
:105E5C0025F9074A0749054800F0A4FA034838BD5C
:105E6C00C4E40320C8E4032040E403202CE4032012
:105E7C00B4DE0320815D0D007047F8B5064615466B
:105E8C000C468F18BC4206D0336814F8011B9B6873
:105E9C0030469847F6E72846F8BD0022007CFFF70D
:105EAC00F1BA0021007CFFF7F5BA0021007CFFF766
:105EBC00F9BA0021007CFFF7FDBA0021007CFFF746
:105ECC0001BB10B51421044600F07AFA204610BD2F
:105EDC0010B50446002363604FF47A73A360044B3F
:105EEC002174084623601146FFF7FCFA204610BDCA
:105EFC00EC690D000021007CFFF7ECBA0022114682
:105F0C004068FFF78BBB002211464068FFF796BB39
:105F1C0000224068FFF78ABB002281F00101406833
:105F2C00FFF774BB00231A4601214068FFF766BBDC
:105F3C0000231A4619464068FFF758BB0022114649
:105F4C004068FFF74BBB002211464068FFF736BB99
:105F5C00002202214068FFF739BB00231A46406833
:105F6C00FFF724BB38B5054688B104684CB1A3686B
:105F7C001BB103222146204698471021204600F0F1
:105F8C001FFA28461421BDE8384000F019BA38BD74
:105F9C0010B103685B681847704710B50368044676
:105FAC00BBB15868FFF7FEF978B923685A7C12B96F
:105FBC005868FFF7FFF923685868FFF703FA206861
:105FCC000023236028B1FFF7CDFF206808B1FFF74D
:105FDC00C9FF204610BD38B50446D0F8C40108B13D
:105FEC00FEF755F8D4F8C00108B1FFF7FBF9D4F867
:105FFC00BC5135B12846FFF7D0FF0421284600F0EC
:10600C00DFF9206808B1FFF7C3FF204638BD000058
:10601C0010B5044B044640F8083BFFF7DCFF204664
:10602C0010BD00BF146A0D0038B50E4C0E4B23602A
:10603C000025022304F5E4706360A560C4F8C45124
:10604C00C4F8C851FFF7C6F9084BC4F8CC5184F812
:10605C00D05123602046064A0649BDE8384000F07E
:10606C00A1B900BF4CE503207C6A0D00146A0D0039
:10607C00B4DE03201D600D00002211464068FFF7BE
:10608C00ADBA002211464068FFF7C8BA002211468B
:10609C004068FFF7D3BA00224068FFF7C7BA002266
:1060AC0081F001014068FFF7B1BA00231A46194686
:1060BC004068FFF7A3BA00231A4619464068FFF759
:1060CC0095BA002211464068FFF778BA00220221E7
:1060DC004068FFF77BBA00231A464068FFF766BAA0
:1060EC00024B04225A60024A1A60704720E70320D0
:1060FC00486A0D0000231A464068FFF757BA002281
:10610C0002214068FFF762BA002211464068FFF78F
:10611C0055BA002211464068FFF760BA00231A46B0
:10612C0019464068FFF762BA00231A4619464068C0
:10613C00FFF764BA002281F001014068FFF766BAEC
:10614C0000224068FFF772BA002211464068FFF740
:10615C0075BA002211464068FFF760BA2DE9F0438A
:10616C00002495B016460D460746FFF743FD214621
:10617C0020220CA8009400F098FA40230C9321469E
:10618C006B460CAA3046FFF775F80446002844D13C
:10619C00024601216868FFF721FA02218046224657
:1061AC006868FFF71BFA009E81462146002E34D00A
:1061BC00002932D17368022B02D00A2B09D02AE0B5
:1061CC00B8F1000F27D0716938460431FFF73FFD55
:1061DC0020E0B9F1000F1ED07469112201A800F063
:1061EC0064FA06238DF8143001AD04F10803183459
:1061FC00186859682A4603C20833A3421546F7D1DA
:10620C0001A906A807ADFFF703FD0FCD3C1D0FC478
:10621C002B6823700121F669C8E70098FFF722F874
:10622C00384615B0BDE8F083024B034A1A600022D1
:10623C005A60704728E703207C6A0D0070B5184E31
:10624C00316811F0010504460AD13046FDF721FFF3
:10625C0030B129461348FFF765FA3046FDF71EFFAB
:10626C001048FFF70CFB28B1A4F10B03022B01D84B
:10627C00002070BD00F070F8FFF73CFE08B1012C57
:10628C00F6D9FFF7D3FDFFF7CDFD18B1A4F1090343
:10629C00012BEDD9232C8CBF0020012070BD00BF39
:1062AC00B8DE0320BCDE0320232838B504460D4697
:1062BC000AD8FF2908D0FFF7C1FF28B1294620468C
:1062CC00BDE83840FEF7E6BF38BD38B504460D468C
:1062DC00FEF7E8FFFF2810D0062804D84D2323FA38
:1062EC0000F0C30709D42046FFF7A8FF28B12946C0
:1062FC002046BDE83840FEF7DDBF38BD10B504467A
:10630C00FEF7D0FF0438C0B2012808D92046FFF7A9
:10631C0095FF20B12046BDE81040FEF7D3BF00200A
:10632C0010BD000070B5044614252A46094E002104
:10633C0000F0BBF9258020253146A5602561284653
:10634C0000F040F831466060284600F03BF8E06011
:10635C00204670BDA86A0D0030B50E4D296811F0AD
:10636C00010487B013D12846FDF793FE78B101A83C
:10637C00FFF7D8FF01AA21460748FFF7A9FD2846D9
:10638C00FDF78CFE054A0649034800F00BF802485D
:10639C0007B030BD34E7032038E70320B4DE032018
:1063AC00855E0D000B460146184600F065B90000ED
:1063BC00024B1868BFF35F8F704700BF4CE7032098
:1063CC00FDF763BE00F000B810B5002814BF0446FA
:1063DC0001242046FFF74AF920B9FFF7E9FF08B17D
:1063EC008047F6E710BD0000184B1A68D1075CBF58
:1063FC0001221A60164B1A68D2075CBF01221A6080
:10640C00144B1A68D0075CBF01221A60124B1A6831
:10641C00D1075CBF01221A60104B1A68D2075CBF0F
:10642C0001221A600E4B1A68D0075CBF01221A6059
:10643C000C4B1A68D1075CBF01221A600A4B1A6810
:10644C00D2075CBF01221A60704700BF6CE70320C3
:10645C0068E7032064E7032060E703205CE7032080
:10646C0058E7032054E7032050E70320244B1A6815
:10647C00D0075CBF01221A60224B1A68D1075CBF9F
:10648C0001221A60204B1A68D2075CBF01221A60E5
:10649C001E4B1A68D0075CBF01221A601C4B1A688D
:1064AC00D1075CBF01221A601A4B1A68D2075CBF75
:1064BC0001221A60184B1A68D0075CBF01221A60BF
:1064CC00164B1A68D1075CBF01221A60144B1A686C
:1064DC00D2075CBF01221A60124B1A68D0075CBF4E
:1064EC0001221A60104B1A68D1075CBF01221A6096
:1064FC000E4B1A68D2075CBF01221A60704700BFAE
:10650C009CE7032098E7032094E7032090E70320FF
:10651C008CE7032088E7032084E7032080E703202F
:10652C007CE7032078E7032074E7032070E703205F
:10653C00244B1A68D0075CBF01221A60224B1A68E0
:10654C00D1075CBF01221A60204B1A68D2075CBFCE
:10655C0001221A601E4B1A68D0075CBF01221A6018
:10656C001C4B1A68D1075CBF01221A601A4B1A68BF
:10657C00D2075CBF01221A60184B1A68D0075CBFA7
:10658C0001221A60164B1A68D1075CBF01221A60EF
:10659C00144B1A68D2075CBF01221A60124B1A689E
:1065AC00D0075CBF01221A60104B1A68D1075CBF80
:1065BC0001221A600E4B1A68D2075CBF01221A60C6
:1065CC00704700BFCCE70320C8E70320C4E70320D3
:1065DC00C0E70320BCE70320B8E70320B4E703209F
:1065EC00B0E70320ACE70320A8E70320A4E70320CF
:1065FC00A0E70320184B1A68D1075CBF01221A6070
:10660C00164B1A68D2075CBF01221A60144B1A6829
:10661C00D0075CBF01221A60124B1A68D1075CBF0D
:10662C0001221A60104B1A68D2075CBF01221A6053
:10663C000E4B1A68D0075CBF01221A600C4B1A680B
:10664C00D1075CBF01221A600A4B1A68D2075CBFE3
:10665C0001221A60704700BFECE70320E8E7032033
:10666C00E4E70320E0E70320DCE70320D8E703207E
:10667C00D4E70320D0E7032010B5054C13462CB10A
:10668C000A4601460220AFF3008010BD204610BD23
:10669C000000000010B5431E0A44914204D011F8CA
:1066AC00014B03F8014FF8E710BD02440346934237
:1066BC0002D003F8011BFAE77047000038B5124B03
:1066CC001C68A36B0546D3B91820FEF7CFFF43F225
:1066DC000E33A06303804AF6CD33438041F234235A
:1066EC0083804EF26D63C3804DF6EC63038105230A
:1066FC0043810B23838101220023C0E90423A36B74
:10670C0000221D615A6138BDB0DE0320034613F828
:10671C00012B002AFBD1181A013870471D400D00BF
:10672C0059400D0085400D0089400D00000000000F
:10673C000000000000000000D5400D00000000002B
:10674C0000000000CB400D002D410D0077410D00E5
:10675C00CD400D00AF400D0047410D0041410D00F3
:10676C003B410D007EFF06000100000000EF646558
:10677C006661756C7420004D5342004C5342003CD2
:10678C0053504953657474696E6773206465666110
:10679C00756C743E003C53504953657474696E6754
:1067AC0073202573256C75202573204D4F4445258A
:1067BC00643E004446506C6179657220696E697460
:1067CC0000496E697469616C697A6174696F6E20D5
:1067DC0066696E697368656400706978656C2062BF
:1067EC0072696768746E6573733A202569200A00B4
:1067FC0074696D657374616D703A200000C001405E
:10680C0000100240002002402C0100001800000083
:10681C00F40100002C0100005000000000000000FA
:10682C000000000007570D00FD560D00F3560D003B
:10683C00E9560D00DD560D00D1560D00C5560D0064
:10684C00BD560D00B3560D00A9560D0069610D0023
:10685C000008101820283038626175640053657286
:10686C0069616C0053657269616C31007479706593
:10687C0000706172616D00636D6400696400686E24
:10688C0064007374726D0066696C74006C766C00D5
:10689C0061646448616E646C65720072656D6F76DC
:1068AC006548616E646C657200656E756D48616EED
:1068BC00646C657273004A534F4E53747265616D0C
:1068CC004C6F6748616E646C657200617070002576
:1068DC003031307520005D20002564002C2000280C
:1068EC00293A2000205B00636F6465203D20002561
:1068FC00690064657461696C73203D20000D0A00A9
:10690C0066006C6E00666E00636F6465006465748F
:10691C0061696C006E6F6E6500747261636500690D
:10692C006E666F007761726E006572726F720070C6
:10693C00616E696300616C6C005A00252B30336406
:10694C003A253032750025592D256D2D2564542599
:10695C00483A254D3A2553257A0061736374696D65
:10696C006500000000000000000000009D5B0D00B1
:10697C008D5B0D008F5B0D0000000000000000001F
:10698C00755C0D00C55C0D00D35C0D00FD580D0051
:10699C00B15C0D00775C0D008D5C0D00BF5C0D00D3
:1069AC00A35C0D00715C0D000000000000000000F5
:1069BC00815D0D00D15D0D00DF5D0D00FD580D00FA
:1069CC00955D0D00B75D0D00A35D0D00CB5D0D0059
:1069DC00835D0D00875D0D000000000000000000CD
:1069EC00855E0D00CF5E0D00A75E0D00875E0D006D
:1069FC00AF5E0D00B75E0D00BF5E0D00C75E0D00F3
:106A0C000000000000000000675F0D005D5F0D00DE
:106A1C00535F0D00495F0D003D5F0D00315F0D00B0
:106A2C00255F0D001D5F0D00135F0D00095F0D004C
:106A3C0069610D000000000000000000E3600D0023
:106A4C00D9600D00CF600D0085600D00C3600D0096
:106A5C00B7600D00AB600D00A3600D0099600D00D8
:106A6C008F600D0069610D00000000000000000047
:106A7C0001610D000B610D0015610D001F610D0012
:106A8C0029610D0035610D0041610D004D610D0056
:106A9C0055610D005F610D0069610D000000000083
:106AAC0000000000000000000000000000000000DA
:106ABC0000000000000000000000000000000000CA
:106ACC0000000000000000000000000000000000BA
:106ADC0000000000000000000000000000000000AA
:106AEC00000000000000000000000000000000009A
:106AFC00000000000000000000000000000000008A
:106B0C00430000004D420D0075470D0089470D00F4
:106B1C008D470D0091470D00AF470D00B3470D0099
:106B2C00B7470D00BB470D00154C0D00394C0D003F
:106B3C003D4C0D00234E0D00274E0D002B4E0D002D
:106B4C00E1510D00E5510D00E9510D006D520D00A4
:106B5C0011570D0091580D00D5580D00195A0D0004
:106B6C00295A0D00615A0D0035600D00ED600D00C5
:106B7C0035620D00F5630D0079640D003D650D0067
:046B8C0001660D0091
:046B90000000000001
:106B94000300000066690D0000000000AC6A0D00EF
:106BA400CC6A0D00EC6A0D0000000000000000003B
:106BB40000000000000000000C6B0D00000000004D
:106BC40000000000000000000000000000000000C1
:106BD40000000000000000000000000000000000B1
:106BE40000000000000000000000000000000000A1
:0C6BF400000000000000000050DE032044
:106C0000FFFFFFFF00000102030405060708090A51
:106C10000B0C0D0E0F101112131415161718191A4C
:086C20001B1C1D1E1F20280093
:046C28007856341254
:04000003D000401CCD
:00000001FF
