:02000002D0002C
:1040000000400D0024890D00000006000C00050191
:084010000401E80500000000B6
:0440180018810D00FE
:10401C0009480A49884208B505D0094A824202D0AB
:10402C00121A03F05CFC0748074A0021121A03F02D
:10403C0061FC014808BD00BFB0DD032044880D00C1
:10404C0068DE032068DE0320F0E7032070B502F081
:10405C0049FD074C074BE41AA40800251E46A5424F
:10406C0004D056F8253098470135F8E770BD00BFED
:10407C0034880D00B4870D0000F088B808B500F046
:10408C008BF9BDE8084002F0EFBC02F06DB902F00C
:10409C006BB90078B0FA80F04009704701230370C7
:1040AC007047037C03F00803024603F0FF002BB1BA
:1040BC00D36A506A181A48BF6FF0004070477047B7
:1040CC00103001F061BA103001F076B907B5012259
:1040DC000DF10701103001F0BCF801280CBF9DF860
:1040EC0007004FF0FF3003B05DF804FB103001F017
:1040FC00D7BA07B502AB012203F8011D10301946DF
:10410C0001F0CEFA03B05DF804FB10B5342104467F
:10411C0003F038F9204610BD7FB5024608461379E6
:10412C00956833B13DB90C4904B0BDE8704002F05C
:10413C0053BB0A4B00E00A4B167B0A4C0A49527BD4
:10414C000292012E08BF214601910095074A0021D9
:10415C0002F07FFB04B070BD7B810D00C3830D00AA
:10416C006A810D0073810D0077810D0091810D0026
:10417C0008B5002002F0E0F828B102F0CDF880F08C
:10418C000100C0B208BD012008BD000010B502F04E
:10419C00A9FD084C4FF4165102F098FD642002F072
:1041AC0025FC204600F06BFA2046BDE8104000F0DC
:1041BC009DBA00BF68E3032007B5112003F07CF81B
:1041CC00FF23009340F6B8320A23282102F002FCA8
:1041DC00024B186003B05DF804FB00BF98E30320AA
:1041EC0010B50F4C204600F094FC20464FF40042D2
:1041FC00002100F01DFC4FF400422046012100F08C
:10420C0017FC084B2046197800F05DFC204600F0A6
:10421C006DFA02F067FD0449BDE8104002F0EFBAF8
:10422C0068E3032098E30320AF810D0038B50C4CF4
:10423C000C4D204600F06DFC2A462046002100F073
:10424C00F7FB2A462046012100F0F2FB064B2046E4
:10425C00197800F038FC2046BDE8384000F046BA2A
:10426C0068E3032000FFFF0098E3032038B50C4CF3
:10427C000C4D204600F04DFC2A462046002100F053
:10428C00D7FB2A462046012100F0D2FB064B2046E4
:10429C00197800F018FC2046BDE8384000F026BA2A
:1042AC0068E3032000A5FF0098E3032010B50D4C34
:1042BC00204600F02EFC20464FF47F02002100F037
:1042CC00B7FB20464FF47F02012100F0B1FB064BF7
:1042DC002046197800F0F7FB2046BDE8104000F0AE
:1042EC0005BA00BF68E3032098E3032000B58DB046
:1042FC002449684602F0CDF9224904A802F0C9F914
:10430C00B9EE080A02F0F6FA02F006F810B1002035
:10431C0002F00AF8FFF72CFF10B901F0F5FFF9E7EE
:10432C00FFF726FF02F045FB014608A802F0FEFA53
:10433C0008A9684602F0DDF908A802F063F9132316
:10434C000B22694608A802F0F5F908A904A802F0A6
:10435C00D0F908A802F056F96846002319220A4938
:10436C0002F0CFF900230922084904A802F0C9F988
:10437C0004A802F047F9684602F044F90DB05DF864
:10438C0004FB00BFC3830D007CE3032078DE032015
:10439C000A46002102F05DBA70B58EB0FFF7A6FF99
:1043AC00FFF70AFF00238DF814308DF815300293B7
:1043BC004FF47A7303934B4B01934B4A4B494C4D3F
:1043CC0044F2022305A805AC01F01BF90FCC05F152
:1043DC0010060FC60FCC0FC623683360029B6B60B0
:1043EC00039BAB60049BEB60424B1B68013B2C4670
:1043FC00032B74D8DFE803F0021F3C58FFF7F0FEE4
:10440C002B7C7BB102F06EFC3B49FFF7C1FF3B49B3
:10441C00374802F0F4F93A49354802F0DDF93948E9
:10442C0001F0E8F8237C002B59D102F05BFC3649F3
:10443C0002F0E5F953E0FFF7F9FE2B7C7BB102F0BB
:10444C0051FC3249FFF7A4FF31492948FFF7A0FF7F
:10445C002B49274802F0C0F92A4801F0CBF8237CFD
:10446C00002B3CD102F03EFC2A4902F0C8F936E0A0
:10447C00FFF7FCFE2B7C7BB102F034FC2649FFF7E6
:10448C0087FF26491A48FFF783FF1D49184802F099
:10449C00A3F91C4801F0AEF8237C03BB02F022FC0C
:1044AC001F4902F0ACF91AE0FFF700FF2B7C7BB13F
:1044BC0002F018FC1B49FFF76BFF1B490C48FFF778
:1044CC0067FF0F490A4802F087F90E4801F092F88D
:1044DC00237C23B902F006FC144902F090F90EB0CB
:1044EC0070BD00BF40810D00BD810D00E8E20320CE
:1044FC0030E3032064E30320C9810D00D8810D0053
:10450C007CE3032040E30320FC810D001A820D00A4
:10451C002F820D0041820D0056820D0064820D0029
:10452C006F820D0086820D0097820D00A4820D0013
:10453C0070B501F0DDFC0223194613222C482D4ED8
:10454C0000F0C2F82C4A2D49294802F00DFF2C4BE3
:10455C00642183F860142B49C3F87014012183F88B
:10456C0074143168002211F00105DA7183F83C24CF
:10457C0083F83D2483F86A24C3F8782483F87C24D8
:10458C0083F87D241C460AD13046FFF782FD30B1FA
:10459C0029461D4801F05CFF3046FFF77FFD1B48A4
:1045AC00194BC4F86C3400244FF47A738360124AAC
:1045BC00174B1849047444744460036002F0D4FE31
:1045CC00154B4FF4FA729A60144A83F82040116824
:1045DC00C3F8161051681289DA830222C3F81A1034
:1045EC0083F8212083F8264083F8274070BD00BF54
:1045FC0068E303206CDE032068DE032035460D00E3
:10460C00ACDE032034810D0070DE032030E3032088
:10461C0040810D00CB400D0084DE032060810D0035
:10462C0001F0EEBC01F0E4BC10B50446C06808B162
:10463C0001F09AFE23781BB10021E07902F012FE02
:10464C00204610BD38B50446C0680D4608B101F0CF
:10465C008BFEA379062B0CBF0420032010FB05F066
:10466C0080B2A08001F078FEE06028B1A288002121
:10467C0003F040F9658038BDA080608038BD10B56E
:10468C0004460121C07902F0EDFD0021E07902F031
:10469C00FAFD0123237010BD38B5037805460C468E
:1046AC001BB10021C07902F0DDFD2B78EC7153B108
:1046BC00A4B22046012102F0D5FD20460021BDE820
:1046CC00384002F0E0BD38BD70B5002504461646F2
:1046DC00837105700572C5600561FFF7B3FF204655
:1046EC003146FFF7D9FF204670BD0000C368002B90
:1046FC0000F08B812DE9F04F8379023BDBB2042B68
:10470C009CBFC44A52F8234087B0054688BF322468
:10471C00FFF786FF2B69C01AA042F9D3BE4AAB88BB
:10472C0007CA06AC04E90700039C1B01D4F800255A
:10473C000433019322B9D4F86035002BC0F25581B3
:10474C00049CD4F8003523B9D4F86035002BC0F2A2
:10475C003C81059CD4F800351BB9D4F86035002B8E
:10476C006EDBAE4BEA791E68AD4CAE49E0681201C7
:10477C00B31840F080705B78B75CE0600A6803F0B7
:10478C001F0343EA471301273A430A600C46A888E3
:10479C00D5F80C90D4F804A09F408846002844D04B
:1047AC00CC4600224FF0A0411CF801EB08208026DB
:1047BC0063689B1A462BFBD9D8F80420D1F808352E
:1047CC001EEA060F43EA0703C1F808352FD06368C9
:1047DC009B1A282BFBD9D1F80C35013843EA070377
:1047EC004FEA5606C1F80C35E2D1C9EB0C03A88888
:1047FC009BB29842D8D84FF4307303FB00F0636837
:10480C009B1A462BFBD9D8F80430CAEB030A824515
:10481C00C0F0D5804FF49670FFF704FFA888D5F848
:10482C000C90D4F804A00028BAD10246E7E76368DC
:10483C009B1A112BCFD863689B1A112BF7D9CAE797
:10484C00D4F86435002B8CDAD4F86835002B88DA70
:10485C00D4F86C35002B84DA019801F07DFD00282A
:10486C003FF47FAFAB88002B00F0D08000273B4695
:10487C006D4E6E4900E01346EA68D25D03F1010EFD
:10488C0012F0800F14BFB04688461FFA8EFE12F04D
:10489C00400F14BFB146894612F0200F20F8138048
:1048AC0018BFB24620F81E9008BF8A4603F10208D2
:1048BC0012F0100F03F1030E14BFB4468C461FFA0E
:1048CC0088F812F0080F1FFA8EFE03F104091FFA84
:1048DC0089F914BFB3468B4612F0040F20F818A0C8
:1048EC0020F81EC014BFB2468A4603F1050812F028
:1048FC00020F03F1060C03F1070E20F819B01FFA92
:10490C008EFE14BFB14689461FFA88F812F0010FCB
:10491C001FFA8CFC14BF32460A4620F818A020F867
:10492C001C9020F81E200137B5F804E0BFB203F14B
:10493C000802BE4592B29ED803F109020A3392B224
:10494C009BB252005B0001994FF400468652490815
:10495C00C65200221423C4F80425304EC4F80C258A
:10496C00C4F80835C4F81425C4F81025C4F820057B
:10497C00C4F82415C4F82825C4F82C25EB79316823
:10498C001B01CE18C95C737803F01F0343EA411373
:10499C000121C4F86035C4F80015C4F81021A160D9
:1049AC00D4F81031002BFBD000234FF0FF32C4F8A9
:1049BC001031C4F80035C4F8602501F0D5FCFFF7C0
:1049CC002FFE286107B0BDE8F08FD4F86435002BBA
:1049DC00BFF6BFAED4F86835002BBFF6BAAED4F82C
:1049EC006C35002BBFF6B5AE36E7D4F86435002B2A
:1049FC00BFF6A6AED4F86835002BBFF6A1AED4F83E
:104A0C006C35002BBFF69CAE26E7704704230222C0
:104A1C0099E700BFCC820D00C0820D009CE30320FF
:104A2C00F0ED00E0001000E00D80FFFF0680FFFFBE
:104A3C0043888B42F0B545D9057AC2F30743C2F3DC
:104A4C000724D6B245B16B436C436E43C3F30723C3
:104A5C00C4F30724C6F3072690F806C0C768BCF158
:104A6C00060F0CBF042503256943BCF1080F07EBA7
:104A7C00010524D84FF0010E0EFA0CFE1EF4D27F65
:104A8C000CD11EF0400F0DD11EF0100F17D0FF2BC4
:104A9C0008BFFE237B546E70AC70F0BD7C546B7001
:104AAC00AE70F0BD7B546C70AE70037A120E0BB905
:104ABC00D2B202E05A43C2F30722EA70F0BD7B5433
:104ACC006C70AE70F0BD4A1C037AD2B29A4270B5CB
:104ADC001ED0013B13F0FF03C4680CD0FF291FBF8D
:104AEC00110201F1FF3191FBF3F39BB204BF4FF6BE
:104AFC00FF7191FBF3F32546291B868889B28E4200
:104B0C0005D929785943091205F8011BF4E70272FB
:104B1C0070BD8288C068002102F0ECBE08B501F0BF
:104B2C00E7F901F0E5F9014B186008BD9CE303209F
:104B3C0001F0DEB901F0DCB901F0DAB910B50446C8
:104B4C00243000F08FFE28B104F50C70BDE8104045
:104B5C0000F088BE10BD411E00F10A02002043087F
:104B6C0043EAC01011F8013F53FA80F08A42C0B2F8
:104B7C00F5D170472DE9F0470378202B00F10104A3
:104B8C0001D12046F8E7704F886005462C1A2E4656
:104B9C0015F8013B0BB32F2B01D1031917E05C2B3C
:104BAC0002D10020BDE8F087A3F12204E4B21D2C51
:104BBC0003D827FA04F4E407F3D403F0BF043C2C25
:104BCC00EFD0203B5E2BE1D9EBE72F2D05D11E4614
:104BDC0013F8015B202DF8D1F9E716600319984200
:104BEC00C0EB030809D013F8012D2E2AF7D0202A88
:104BFC00F5D0B8F1FF0FD4DC01E04FF00008C1F89C
:104C0C00048001F10C0301F11702202403F8014F79
:104C1C009342FBD103461A1A13F8014B2E2CFAD0EF
:104C2C00202CF8D0B2FA82F4640908F1FF36731C18
:104C3C0007D100274FF0070E3D46BA464FF0080942
:104C4C0009E0835D2E2BF4D0013EF0E7835C202B32
:104C5C0004D1002401324245F8DB4BE02E2B02D16B
:104C6C00B242F6D103E0222B17D07C2B15D0A3F146
:104C7C002A0CBCF1050F01D82D2B0ED1A3F13A0C47
:104C8C00BCF1050F09D9A3F15B0CBCF1020F04D9DF
:104C9C00A3F1210CBCF15D0F02D9B2420ED149E057
:104CAC00B24247D0754521D8A3F1610CBCF1190F64
:104CBC0008D8203BDBB249EA07070AE0754515D84E
:104CCC0000245F23A3F1410CBCF1190F98BF49EAF2
:104CDC000A0A05F1010C5FFA8CFC0D44BCF1060FBD
:104CEC006B7301D881F80CC06546B3E7BEF10A0FAF
:104CFC0017D100244B7B202B3FF453AF3CB11AEA65
:104D0C00070F18BF02270F700120BDE8F0870B7B3F
:104D1C000120087019447E234B7331238B73BDE83B
:104D2C00F087B242E5DC32464FF00A0E08254FF010
:104D3C0010098EE7BEF10A0FDBD032464FF00A0E97
:104D4C0008254FF0100985E7010100312DE9F843E2
:104D5C0091F80C9006460D4602247E2701F10D08B1
:104D6C006968AA6863189BB21144914206D012F884
:104D7C00010B03EB431343409BB2F6E7B9F1030F6E
:104D8C0028BF4FF0030909F10402D2B203F00F015E
:104D9C00A818013A0929D2B294BF30313731914564
:104DAC0041734FEA1313F1D305EB090300215F7331
:104DBC00304600F031FB0121304600F010FB01467B
:104DCC0028B97078B0FA80F04009BDE8F883037810
:104DDC004BB1C37A1B07EED40B22404602F070FD98
:104DEC000028E8D102E00120BDE8F8830134A4B228
:104DFC00642CB5D1BDE8F8832DE9F04F9B460B78B8
:104E0C0089B013F0700F05900E46914601D1002029
:104E1C00A0E1059B1B78002BF9D153680293137802
:104E2C009B0700F08D81029B0D270C33B3FBF7F72A
:104E3C000137FFB20021304600F0EEFA4FF00008C7
:104E4C0009F10D02CDF80C80434644464546CDF899
:104E5C00108006927269079301213046C2F34F1AF3
:104E6C0000F0BDFA079B20B97378002B00F09080FE
:104E7C00CDE70278E52A00D042B9002C08BFD04615
:104E8C00BC423CBF0134E4B222B981E0BC4238BF21
:104E9C00002403E0E52A01D10025DBE72E2AFBD014
:104EAC00C17A0F2952D13DB95106D3D5437B039317
:104EBC0002F01F052B4607E0013BDBB29A42EBD117
:104ECC00427B03999142E7D15A1E4FF00D0C0CFB1B
:104EDC0002FC029A6245DFD94FF0000EBEF1040FBE
:104EEC005FFA8EF204D800EB4E02B2F801200CE00F
:104EFC000A2A95BF0EF1FF320EF1010200EB4202BD
:104F0C0000EB420294BFD28892880299614503D18A
:104F1C00002A18BF00259DE7FF2ABDD8D2B2A2F106
:104F2C0041011929D9F8081011F80C1098BF20323A
:104F3C000CF1010AA1F1410C98BFD2B2BCF1190FCE
:104F4C009CBF2031C9B29142A6D1FBE00907A3D482
:104F5C004DB1012B7FF45BAFFFF7FDFD039B83424B
:104F6C007FF455AF0FE00B220699079302F0A8FCD3
:104F7C00079B00287FF46EAF99F80020D20702D56A
:104F8C000122049266E71BF4006F00F0D1803EE72B
:104F9C001BF4007F3FF43BAF0BF00303013B012BF1
:104FAC003FF635AF002C08BFD046BC4202D3049B61
:104FBC00CBB91FE00021304600F011FA10B973781C
:104FCC005BB124E70134E4B2EFE7B3681B79012B42
:104FDC00EDD81034E4B2A742E9D9304600F0D2F84B
:104FEC000028F2D113E749463046FFF7AFFE002800
:104FFC003FF40DAF4FEA4811304600F00DFA00288F
:10500C003FF405AF7D1EEDB22C464FF0000A4FF079
:10501C000F0841E00021304600F0E1F90746002876
:10502C003FF4F5AEB26892F82430AC4243F0010381
:10503C0082F824300CBF44F040022246027080F803
:10504C000B8080F80CA009F10D000392FFF783FD93
:10505C00039A787387F81AA087F81BA002F01F0236
:10506C000D23013AD9F808E05A43002302999142E2
:10507C0015D91EF80210042B5FFA83FC03F1010012
:10508C0013D807EB4303A3F801100D2802F101021A
:10509C000346EBD1013CE4B2002CBBD10EE014BFB3
:1050AC004FF0FF31002189B2E5E7BCF10A0F94BF44
:1050BC0007EB430307EB40039980E6E7736921464E
:1050CC003046C3F34F1A00F08AF9074600283FF424
:1050DC009EAE2022214602F00DFC4B4653F80D2FBC
:1050EC003A605A687A601A893A819B7ABB7299F84D
:1050FC00003003F018033B73184B1B682BB107F1FE
:10510C000E0107F11000984706E021233B74282379
:10511C007B740823BC73FB733B8A7B823B83FB89C8
:10512C00FB82B26892F8243043F0010382F82430F9
:10513C0000955B4652463146059800F0B6F909E0F9
:10514C00012777E60EF1010EBEF10D0F3FF482AE92
:10515C00D446C3E609B0BDE8F08F00BFA0E303203E
:10516C0000F0C6BE00F0C4BE00F0C2BE00F0C0BE6F
:10517C008378016943F00403837000F110028068A6
:10518C0000F026BC2DE9F041037803F0200304461F
:10519C0003F0FF050BB100262EE04269184B9A4232
:1051AC00F9D8FFF7E5FF06460028F4D02169A0687E
:1051BC0000F0A3FB0746A06805223946243000F016
:1051CC0078FB80460028E6D029464FF4007202F0A6
:1051DC0091FB0125A3681A79AA4209D94246E9191B
:1051EC00186800F0A0FD0028D5D00135EDB2F1E72C
:1051FC00636903EB422363613046BDE8F08100BF75
:10520C00FFFD1F0010B5044680680A462430A169D2
:10521C0000F04FFB20B1A38803F00F0300EB431009
:10522C0010BD70B5047805460E4684B9242221467B
:10523C0002F060FBAE60F379102B03D0202B06D16B
:10524C00402300E0202301202B70A87070BD0020AB
:10525C0070BD2DE9F74F03780446894615464BB1CE
:10526C008278D10706D50CE05A46216900F04BFB39
:10527C0000283DDA637843F0020363704FF0FF308F
:10528C0097E01A0703D5E36962699B1A07E09A064F
:10529C0008D5A3681A896369C3EB42139BB29D427C
:1052AC0028BF1D462E464FF0000804F1100B002EAF
:1052BC0035D022786369A06812F0200FC3F3080A76
:1052CC004FEA532102D0036A19441DE090F805807F
:1052DC0001EA0808BAF1000F10D1B8F1000F0DD196
:1052EC00002BC1D153064CBF036A236A236105E02E
:1052FC0004D1237813F0700F11D1BBE72169A0689A
:10530C0000F0FBFA08EB0001A068BAF1000F35D1F0
:10531C00B6F5007F32D3C36A994202D12EE0A81BA6
:10532C0047E0B6F5806F1BD3227897064FEA562AD2
:10533C0006D40279C8EB0202D2B2924528BF92463B
:10534C0099424FEA4A2707D2A06853464A4600685A
:10535C0000F0A7FC60B98DE75344994221D3F3E7E1
:10536C004A46006800F055FC002883D04FF40077C3
:10537C0063693B44B9446361F61B98E7002224300F
:10538C0000F097FA00283FF475AFCAF50077B742E2
:10539C0028BF374600EB0A013A46484602F09FFA0E
:1053AC00E6E72430019100F05DFA01990028CBD199
:1053BC0060E703B0BDE8F08F73B501220DF1070172
:1053CC00044646690569FFF744FF012805BF9DF8AF
:1053DC00070066614FF0FF30256102B070BD37B534
:1053EC004369C3F34315044605B169B901220DF1B4
:1053FC0007012046FFF72DFF40B2012801D0002005
:10540C0008E063691F3300E02033A068636130302B
:10541C0000EB451003B030BD2DE9F0410E4601788C
:10542C0007690446002939D04569B5423AD00EB90E
:10543C00066131E00B0703D5C3699E422ED807E005
:10544C00880605D5A3681B89B6EB431F26D823E035
:10545C00D4F808E09EF806306A1E03F10900731EAA
:10546C00C240C3409A4200D84DB94A064CBFDEF840
:10547C002020226A22611D4604F110080AE09B1AC2
:10548C00F9E742462169A06800F03DFA002805F1D1
:10549C00FF3503DD002DF4D1666103E027610020A8
:1054AC00BDE8F0810120BDE8F081F8B50F46154646
:1054BC000021242204461E4602F01CFAB868A060A3
:1054CC0005F00F02A58000F1300152013B6AE36048
:1054DC001144CB7A1D074CD4831893F83B3003F05E
:1054EC0017032370C97A11F0180F04BF43F0080397
:1054FC0023709DF81830E37006F00303012B09D0DC
:10550C00022B05D0002B34D1710532D4012302E0DB
:10551C00032300E00223A370A1788B0703D5237823
:10552C0013F0110F25D14BB216F4005F06F00801F1
:10553C0014BF6FF07F07002719433943A170C36A6A
:10554C00A36102447505B2F84410B2F84A3043EA3C
:10555C00014104D581B100F076FA68B909E0216205
:10556C00D36CE36173040CD5E1692046FFF754FF5B
:10557C0038B900202070F8BDA37843F00403A37061
:10558C00F0E70120F8BD000038B5037804460BB9EC
:10559C00012038BD83785A0723D50121FFF732FE4D
:1055AC00054628B9637843F001036370002038BDC9
:1055BC000378E52BF6D023781B0744BFE369C3615E
:1055CC00238C4383638C8382094B1B682BB100F1C2
:1055DC001601183098472B8B6B82A37823F00403A9
:1055EC00A370A068FFF7AAFA0028DBD0D0E700BFB1
:1055FC00A0E3032010B50446FFF7C6FF0023237079
:10560C0010BDF0B593B01F4600238DF824308DF8F3
:10561C0025300378019206460C460BB100203DE084
:10562C000B7813F0700FF9D013782F2B12D1019B3C
:10563C001A782F2A02D101330193F8E7A1681AB91D
:10564C003046FFF7EEFD29E009A8FFF7EAFD002838
:10565C00E4D009AC01AA03A90198FFF78BFA002842
:10566C00DCD0019B1B789BB1002303AA214630465A
:10567C00FFF7C2FB0028D1D035460FCD09AC0FC4C3
:10568C000FCD0FC42B6823603046FFF7B3FFE0E764
:10569C003B4603AA21463046FFF7AEFB13B0F0BDE4
:1056AC002DE9F0470378894619070446904608D53A
:1056BC0083789A0705D51B070BD5E169FFF7ACFE7C
:1056CC0038B9637843F0010363704FF0FF30BDE8E5
:1056DC00F0876369DB439845F3D846464FF0000AE0
:1056EC006369002E00F08180A068427912EA53258C
:1056FC00C3F308071CD1DFB9216971B104F11002A1
:10570C0000F001F90028DCDB40F08E802046FFF72A
:10571C002FFD002840F08880D3E7236A3BB9204650
:10572C00FFF726FD0028CCD02369236200E023611B
:10573C002169A06800F0E1F8291817B9B6F5007FC7
:10574C0021D2C7F50075B54228BF354637B9636914
:10575C00E269934234BF0122052200E00122A068D5
:10576C00243000F0A6F80028ABD038442A4649462D
:10577C002F4402F0B4F8B7F5007F30D1A068243084
:10578C0000F070F817E0B6F5806FA06815D30279B9
:10579C00521B730AD2B2934228BF1346C26A91427B
:1057AC004FEA432502D31A44914237D3A7684A469D
:1057BC00386800F02AFB90B983E7C36A994202BFAC
:1057CC004FF0FF3380F824A0C362A3684A461868E0
:1057DC0000F0A9FA00283FF474AF4FF40075636928
:1057EC002B446361A944761B7AE7E269934201D9A1
:1057FC00E36102E00F4B1B681BB1A37843F0040379
:10580C00A37094F90230002B02DB4046BDE8F08710
:10581C002046FFF7B9FE0028F7D152E74FF0FF32D0
:10582C0080F824A0C262C1E72169A06800F065F885
:10583C00014683E7A0E3032000F05ABB70B5054690
:10584C000C46084649B102F097F82B6802462146EF
:10585C002846DB68BDE87040184770BD00F048BBB7
:10586C0000F046BB70B50378DA0704461ED54368D2
:10587C00816800F10C063246186800F054FA0546AF
:10588C0008B9002513E023789B0704D4237823F070
:10589C00010323700BE06368A06819693246014468
:1058AC00186800F040FA0028F0D1EAE701252846F4
:1058BC0070BD70B583688B4204460E46154614D0F5
:1058CC00FFF7D0FF08B9002070BD6B0703D500238C
:1058DC002370A66009E0636804F10C023146186875
:1058EC0000F097F90028F2D1EDE72378204605F077
:1058FC0003051D4300F80C5B70BD837940690239C8
:10590C00994008447047012970B505460C46164667
:10591C0002D84FF0FF3070BDC3699942F9D8C379F2
:10592C00202B10D18169022201EBD41100F50C70EF
:10593C00FFF7BFFF0028ECD004F07F0450F82430B0
:10594C0023F070430FE0102BE3D18369C1F30721DF
:10595C000222194400F50C70FFF7ABFF0028D8D0D9
:10596C00E4B230F81430EA6993429ABF33600120F4
:10597C00002070BD012938B50C46154601D8002011
:10598C0038BDC3699942FAD8C379202B0ED18169ED
:10599C00032201EBD41100F50C70FFF78AFF0028ED
:1059AC00EDD004F07F0440F824500FE0102BE6D12A
:1059BC008369C1F307210322194400F50C70FFF72A
:1059CC0078FF0028DBD0E4B220F81450012038BD59
:1059DC002DE9F341C4688C4205460E46904607D229
:1059EC000C460027EB6901349C4203D9CFB9EC6813
:1059FC000127F7E7A64214D001AA21462846FFF753
:105A0C0082FF00280DDBEDD0019B002BEAD107B102
:105A1C00EC606FF0704221462846FFF7ABFF07465B
:105A2C0008B900270BE016B9C8F8004007E0224679
:105A3C0031462846FFF79EFF0028F5D1F1E738469E
:105A4C0002B0BDE8F08173B505460C4601AA2146AB
:105A5C002846FFF758FF061E01DA00200FE000224F
:105A6C0021462846FFF786FF0028F6D0EB689C42BB
:105A7C009CBF04F1FF34EC60019C002EE6D102B017
:105A8C0070BD00F035BA00F033BA00F031BA000046
:105A9C0070B50E4C0E46154600F0B2FA2368C01ACB
:105AAC000B4B984208D900F0B3FA0A4B186000F07F
:105ABC002BFC00F0A5FA206000F0AAFA80B2801B43
:105ACC00A842D4BF0020012070BD00BFA4E3032076
:105ADC00A086010008E7032038B5057A04464DB9C5
:105AEC00406800F0B9F963682946187D01F0CBFBDA
:105AFC000123237238BD10B5037A04466BB1436899
:105B0C000121187D01F0BFFBFF21606800F0C6F990
:105B1C00606800F0A5F90023237210BDF8B50446A7
:105B2C000D46164600F074FA87B2606800F09BF9D7
:105B3C00FF28607209D14FF47A7239462046FFF77C
:105B4C00A7FF0028F1D055230BE0FE2801D05023ED
:105B5C0007E032462946606800F08AF9607230B17D
:105B6C00602320462370FFF7C6FF0020F8BD606855
:105B7C0000F079F9606800F076F90120F8BD70B595
:105B8C0004460E4600F044FA85B2324629462046B9
:105B9C00FFF77EFF30B9606800F065F9FF28F4D19B
:105BAC00012070BD002070BDF7B5037A0192044648
:105BBC000D460BB9FFF790FF25B14FF496712046B7
:105BCC00FFF7DDFF45F04001606800F067F90DF16B
:105BDC0007060DF1030716F80119606800F05EF96D
:105BEC00BE42F8D1002D0CBF95218721606800F0D2
:105BFC0055F9606800F037F90B25606800F033F94F
:105C0C000306607203D5013D15F0FF05F5D103B015
:105C1C00F0BD38B5837A032B18BF490215460A46E6
:105C2C0011210446FFF7C0FF10B1302323700BE0A5
:105C3C0029464FF400722046FFF770FF054618B155
:105C4C002046FFF758FF03E02046FFF754FF0025DE
:105C5C00284638BD10B5837A032B0A4618BF4A0272
:105C6C0012210446FFF7A0FF30B1312320462370E8
:105C7C00FFF741FF002010BD012010BD10B5002220
:105C8C000C210446FFF790FF30B1282320462370E7
:105C9C00FFF731FF002010BD2046FFF72CFF01203D
:105CAC0010BDF8B5054616461F46FFF7D3FF98B151
:105CBC000024A3B29F4206EB442108D94FF4007292
:105CCC002846FFF72BFF01340028F2D104E02846C8
:105CDC00BDE8F840FFF7D2BF0020F8BD38B5044648
:105CEC001546406800F0DAF84FF4007229466068F7
:105CFC0000F0D8F8FF21606800F0D0F8FF21606850
:105D0C0000F0CCF8606800F0AEF8607200F01F0094
:105D1C00052806D0572320462370FFF7ECFE002001
:105D2C0038BD012038BD70B5837A032B18BF4902EA
:105D3C0015460A4618210446FFF736FF064608B1F9
:105D4C0032231DE02A46FE212046FFF7C7FFC0B1D3
:105D5C004FF4FA612046FFF712FF054608B95A23A3
:105D6C000EE032460D212046FFF71EFF38B9606861
:105D7C0000F079F818B92046FFF7BDFE05E029239D
:105D8C0023702046FFF7B7FE0025284670BD38B5B6
:105D9C000D464FF4FA610446FFF7F1FE10B95B2390
:105DAC00237005E02A46FC212046FFF797FF18B91F
:105DBC002046FFF7A0FE002038BD10B5837A032BD8
:105DCC000A4618BF4A0219210446FFF7EDFE30B10E
:105DDC00332320462370FFF78EFE002010BD0120D8
:105DEC0010BD38B54FF4FA610446FFF7C8FE0546FE
:105DFC0020B1FD21606800F051F801E056232370BA
:105E0C002046FFF778FE284638BDF8B505461646FD
:105E1C001F46FFF7D2FF70B10024BC4206EB4421B1
:105E2C00284604D0FFF7B3FF28B10134F5E7BDE8ED
:105E3C00F840FFF7D6BF2846FFF75DFE0020F8BDFF
:105E4C0000F056B800F054B800F052B8014B0122E3
:105E5C001A707047A8E30320011D006800F01CBBFA
:105E6C00006800F0FFBAFF21006800F085BB00005D
:105E7C0037B5084B00930025074C00682570134676
:105E8C000A46294600F07EFB2378002BFCD000202C
:105E9C0003B030BD595E0D00A8E30320006800F08C
:105EAC006BBB000037B5074B00930025064C006810
:105EBC00257013462A4600F065FB2378002BFCD096
:105ECC0003B030BD595E0D00A8E3032000F010B8FC
:105EDC0008B5024B1B689B68019308BD6802030060
:105EEC0008B5024B1B68DB68019308BD6802030010
:105EFC0008B5024B1B681B68019308BD2C020300FC
:105F0C0008B5024B1B685B68019308BD2C020300AB
:105F1C0008B5024B1B689B68019308BD2C0203005B
:105F2C0008B5024B1B68DB68019308BD2C0203000B
:105F3C0008B5024B1B681B69019308BD2C020300BA
:105F4C0008B5024B1B681B6B019308BD2C020300A8
:105F5C0008B5024B1B685B69019308BD3002030056
:105F6C0008B5024B1B68DB69019308BD30020300C6
:105F7C0008B5024B1B681B6A019308BD3002030075
:105F8C0008B5024B1B685B6A019308BD3002030025
:105F9C0008B5024B1B689B6A019308BD30020300D5
:105FAC0008B5024B1B689B6B019308BD30020300C4
:105FBC0008B5024B1B68DB6B019308BD3002030074
:105FCC0008B5024B1B681B6C019308BD3002030023
:105FDC0008B5024B1B685B6C019308BD30020300D3
:105FEC0008B5024B1B685B68019308BD18020300DF
:105FFC0008B5024B1B68DB68019308BD180203004F
:10600C0008B5024B1B681B69019308BD18020300FD
:10601C0008B5024B1B685B69019308BD18020300AD
:10602C0008B5024B1B68DB69019308BD180203001D
:10603C0008B5024B1B689B6D019308BD1802030049
:10604C0008B5024B1B689B68019308BD480203000E
:10605C0008B5024B1B681B69019308BD480203007D
:10606C0008B5024B1B685B69019308BD480203002D
:10607C0008B5024B1B685B6C019308BD480203001A
:10608C0008B5024B1B689B6C019308BD48020300CA
:10609C0008B5024B1B685B69019308BD64020300E1
:1060AC0008B5024B1B681B68019308BD3C0203003A
:1060BC0008B5024B1B68DB68019308BD3C0203006A
:1060CC0008B5024B1B681B69019308BD3C02030019
:1060DC0008B5024B1B685B69019308BD3C020300C9
:1060EC0008B5024B1B689B69019308BD3C02030079
:1060FC0008B5024B1B68DB69019308BD3C02030029
:10610C0008B5024B1B681B6A019308BD3C020300D7
:10611C0008B5024B1B689B6A019308BD3C02030047
:10612C0008B5024B1B681B6A019308BD28020300CB
:10613C0008B5024B1B685B6A019308BD280203007B
:10614C0008B5024B1B689B6A019308BD280203002B
:10615C0008B5024B1B68DB6A019308BD28020300DB
:10616C0008B5024B1B681B6B019308BD280203008A
:10617C0008B5024B1B685B6B019308BD280203003A
:10618C0008B5024B1B681B6C019308BD2802030069
:10619C0008B5024B1B681B68019308BD4C02030039
:1061AC0008B5024B1B685B68019308BD4C020300E9
:1061BC0008B5024B1B681B69019308BD4C02030018
:1061CC0008B5024B1B685B69019308BD4C020300C8
:1061DC0008B5024B1B689B69019308BD4C02030078
:1061EC0008B5024B1B68DB69019308BD4C02030028
:1061FC0008B5024B1B681B6A019308BD4C020300D7
:10620C0008B5024B1B681B68019308BD20020300F4
:10621C0008B5024B1B685B68019308BD20020300A4
:10622C0008B5024B1B685B69019308BD2002030093
:10623C0008B5024B1B689B6D019308BD200203003F
:10624C0008B5034B1B68D3F88830019308BD0000D8
:10625C002002030008B5034B1B68D3F8943001935C
:10626C0008BD00002002030008B5024B1B685B68E8
:10627C00019308BD4002030008B5024B1B689B68E4
:10628C00019308BD4002030008B5024B1B68DB6894
:10629C00019308BD4002030008B5024B1B681B6943
:1062AC00019308BD4002030008B5024B1B685B69F3
:1062BC00019308BD4002030008B5024B1B689B69A3
:1062CC00019308BD4002030008B5024B1B68DB6953
:1062DC00019308BD4002030008B5024B1B681B6A02
:1062EC00019308BD4002030008B5024B1B681B6BF1
:1062FC00019308BD4002030008B5024B1B685B6BA1
:10630C00019308BD4002030008B5024B1B689B6853
:10631C00019308BD4402030008B5024B1B685B697E
:10632C00019308BD4402030008B5024B1B68DB6AED
:10633C00019308BD4402030008B5024B1B681B6B9C
:10634C00019308BD4402030008B5024B1B68DB6BCC
:10635C00019308BD4402030008B5024B1B681B687F
:10636C00019308BD1C02030008B5024B1B685B6857
:10637C00019308BD1C02030008B5024B1B689B6807
:10638C00019308BD1C02030008B5024B1B681B6976
:10639C00019308BD1C02030008B5024B1B689B69E6
:1063AC00019308BD1C02030008B5024B1B685B6A15
:1063BC00019308BD1C02030008B5024B1B681B6B44
:1063CC00019308BD1C020300002211464068FFF730
:1063DC0083BF002211464068FFF78EBF0022406841
:1063EC00FFF782BF002281F001014068FFF76CBF0C
:1063FC0000231A4619464068FFF75EBF00231A4671
:10640C0019464068FFF750BF002211464068FFF75D
:10641C0043BF002211464068FFF72EBF0022022125
:10642C004068FFF731BF00231A464068FFF71CBFD6
:10643C00024B03225A60024A1A607047ACE30320F5
:10644C00E8820D000021FFF7BBBD0021FFF7C0BDA6
:10645C0010B5044601700846FFF782FD0023636007
:10646C00204610BD0078FFF7F0BF0000400830B5A3
:10647C001860002418688842E5B206D90134082C4B
:10648C0002D040081860F5E70725024B5B5D1370DE
:10649C0030BD00BF14830D002DE9F04307468FB0CB
:1064AC0000780E46FFF7CEFF002862DB3C78142202
:1064BC00002109A801F01EFA0B232046002209A98D
:1064CC00ADF82430FFF75CFD9DF82D4054B19DF8DC
:1064DC002C5035B9DDF830809DF834909DF835405E
:1064EC0003E00024A146A0460125337905B1BBB9D0
:1064FC009D420BD1B268424508D18DF820908DF8A1
:10650C002140BDF82010B289914209D053B100242A
:10651C00387801940094234622460121FFF748FD68
:10652C00002026E08DF80F30B1680A9804AB0DF10D
:10653C000F02FFF79BFF317905B1B1B9A94208D021
:10654C00002438780194747B337B9DF80F200094E1
:10655C00E4E7B3684345F3D38DF820908DF82140E0
:10656C00BDF82020B3899A42EAD1049B4345E7D178
:10657C00D6E70FB0BDE8F08308B50078FFF7E8FC6C
:10658C00C0B208BD30B587B004460A9D00780095AE
:10659C00FFF7FEFC3DB902A92078FFF701FD9DF83D
:1065AC001430DB07F7D407B030BD0078FFF7E0BC40
:1065BC0010B50446006818B1FFF7D6FE002323601F
:1065CC0010BD10B50446FFF7F3FF204610BD0000C8
:1065DC0010B5094C00204FF6FF732060A080A0710D
:1065EC0020816381FFF714FE2046044A0449BDE86C
:1065FC00104000F0B9BE00BFB4E3032068DE0320F6
:10660C00CF650D0010B504460068FFF7ADFE2046BF
:10661C0010BD10B50446006808B1FFF7A5FE0023B5
:10662C002360A360636010BD38B504460D46006856
:10663C000131FFF7A1FE10B184E82100012038BD23
:10664C0010B50368044613B143688B4207D2204649
:10665C00FFF7EAFF20B1A3680BB922681370012081
:10666C0010BD70B50E46114604461546FFF7E8FFFF
:10667C0018B92046FFF7CDFF09E02A463146A56040
:10668C00206801F02CF92268A3680021D15420461F
:10669C0070BD38B500230446036043608360037308
:1066AC000D4639B1084601F067F9294602462046E5
:1066BC00FFF7D7FF204638BD38B5054600680C46B5
:1066CC0060B16A688B689A4206D3096801F04CF98C
:1066DC00A368AB6000230AE0FFF746FE23682B603B
:1066EC0063686B60A368AB60002323606360A36086
:1066FC0038BD884210B5044601D0FFF7DDFF2046B7
:10670C0010BD70B50E469AB191B185689D4202D804
:10671C0000230B7070BD541EED1A0168AC4228BFEB
:10672C002C4619442246304601F043F900233355D8
:10673C0070BD0000F8B59A420F461D460C4988BF43
:10674C0013461446064684BF2C461D46FFF7A1FF90
:10675C00BA6894420AD83968954294BFC4EB0502D2
:10676C00C4EB020221443046FFF77BFF3046F8BDF4
:10677C00C3830D0010B50446006808B1FFF780FC18
:10678C00204610BD10B5064C002320462360FFF7B1
:10679C006FFC2046034A0449BDE8104000F0E4BDFC
:1067AC00C0E3032068DE032081670D00F8B50646C0
:1067BC000D468F180024BD420CD0336815F8011B10
:1067CC009B6830469847002801DB0444F3E7002C13
:1067DC0008BF04462046F8BD08B5FFF72FF808BDE2
:1067EC0003689B68184738B50D210546FFF7F8FF7D
:1067FC000A2104462846FFF7F3FF204438BD38B57C
:10680C000546FFF71BF804462846FFF7ECFF20442B
:10681C0038BD30B58BB00B4600218DF82410012A01
:10682C0098BF0A220DF12304B3FBF2F505FB1233DA
:10683C0003F0FF03092B94BF30333733DBB221460F
:10684C0004F801392B46002DEED1FEF7F7FF0BB003
:10685C0030BD0CB42DE9F04387B000AF07F138041C
:10686C00054654F8049B3C600E4623464A461421C8
:10687C00381DFFF799FD132805D8391D2846FEF75A
:10688C00DDFF044613E000F1080323F00703E8469C
:10689C00ADEB030D411C23464A4668463C60FFF7AE
:1068AC0083FD69462846FEF7C9FF0446C5461EB15E
:1068BC002846FFF798FF044420461C37BD46BDE828
:1068CC00F04302B070470000014B024A1A60704757
:1068DC00C4E303208F830D0008B50020FFF72CFDC7
:1068EC0028B1FFF719FD80F00100C0B208BD0120EE
:1068FC0008BD0000FAEE087AB4EEE70AF1EE10FAE1
:10690C000FD4F2EE0C7AB4EEE70AF1EE10FA08DCD2
:10691C00DFED047A044B20EE270ABDEEC00A83EDAE
:10692C00000A704700006145D0E3032037B50E4BD9
:10693C001B6819440D4B1B68044602A8194440F807
:10694C00041D00F0C5FE00F079FE054601F014F8B8
:10695C002844002300F8013C29462046FFF799FE05
:10696C00204603B030BD00BFD0E30320CCE30320AE
:10697C0010B50020FFF75CFB044668B9FFF740FC3C
:10698C0001280BD12046FFF753FC38B9FFF7A4FFC1
:10699C0030B9FFF7B9FCF9E7012010BD002010BD9C
:1069AC00FFF79AFF0020FFF743FB003018BF0120D0
:1069BC0010BD08B5FFF7DCFFBDE80840FFF730BBA2
:1069CC00024B1A68024B1A60704700BFB0DD0320FF
:1069DC00C8E303208A4230B507D0039D441AED1A50
:1069EC006C43521A94FBF2F4E01830BD0021FFF70F
:1069FC0017BC10B58368044613B1032201469847AF
:106A0C00204610BD10B50446FFF7F3FF204610BD1D
:106A1C000348044A04490023836000F0A5BC00BF6E
:106A2C00D4E3032068DE0320116A0D0008B50C4B7B
:106A3C0033B100F057F903681B699847002809DC4B
:106A4C00084B63B100F0D0F903681B699847002824
:106A5C0003DC08BDAFF30080F2E7AFF3008008BDA4
:106A6C00000000000000000008B5FFF7DFFFFFF793
:106A7C00CFFA014B186008BD08E703200248034A0F
:106A8C000349121A00F02BBF00F4032004F4032076
:106A9C0040880D0007B5002300931A466FF077016C
:106AAC00FFF7D8FB03B05DF804FB000007B5438883
:106ABC000A2B08D0502B09D1094B1B683BB103B0F2
:106ACC005DF804EB1847FFF7E5FF06E000230093A1
:106ADC001A466FF07701FFF7BDFB03B05DF804FBBE
:106AEC00E4E3032038B5104C104D2368AB42104B37
:106AFC000CBF012200221A7002D0FFF7BFFF2560E5
:106B0C00FFF76EFA044600F0FDFE0A4B13B1204667
:106B1C00AFF3008000210748FFF716FC0021064860
:106B2C00BDE83840FFF78CBB00F403201E1C279AED
:106B3C00E8E3032000000000B96A0D00704710B5AF
:106B4C001821044600F01EFC204610BDF0B5037D54
:106B5C00062B8DB00E4600F104074FF0000402D056
:106B6C0000F1080518E00CAD394605F8304D2F231F
:106B7C002A460A20FFF78CFA284600F0FDFE3368FF
:106B8C000246DB682946304698470FE024B12E2197
:106B9C003046FFF725FE044415F8011D0A22304645
:106BAC00FFF737FEBD420444F0D120460DB0F0BDD6
:106BBC0010B5054B0446112240F8043B002100F0AF
:106BCC0099FE204610BD00BF28840D000346074ADD
:106BDC0010B543F8042B01F1100251F8044B43F8A3
:106BEC00044B9142F9D10A781A7010BD28840D001B
:106BFC0010B59DF8084044EA032343EA024242EAF6
:106C0C00016104234160037510BD37B50D788B7895
:106C1C004A78C97800912946FFF7EAFF03B030BDE6
:106C2C0041747047704708B50021007CFFF7D0FA1B
:106C3C0030EA200028BF4FF0FF3008BD08B5012115
:106C4C00007CFFF7C5FA30EA200028BF4FF0FF3078
:106C5C0008BD08B5007CFFF7B3FA20EAE07008BD68
:106C6C0008B5007CFFF7A4FA20EAE07008BD007CB0
:106C7C00FFF7BEBA10B51421044600F083FB204682
:106C8C0010BD38B50446007C0D46FFF799FA002874
:106C9C0001DC607C28B12946207CFFF7A1FA20EAB0
:106CAC00E07038BD10B50446002363604FF47A736E
:106CBC00A360054B236001230846217463741146BD
:106CCC00FFF766FA204610BD3C840D000022007CC4
:106CDC00FFF766BA10B514220446002100F00AFE34
:106CEC00204610BD30B50E4D87B001A8FFF7F2FF5E
:106CFC00296811F0010410D12846FDF7CAF960B1DA
:106D0C0001AA21460748FFF7CDFF2846FDF7C6F933
:106D1C00054A0649034800F027FB024807B030BD7E
:106D2C00ECE30320F0E3032068DE0320316C0D005C
:106D3C0070474174704708B5007CFFF7E9F920EA09
:106D4C00E07008BD08B5007CFFF7BAF920EAE070E6
:106D5C0008BD08B5007CFFF7C3F930EA200028BF56
:106D6C004FF0FF3008BD08B5007CFFF7B1F930EAF1
:106D7C00200028BF4FF0FF3008BD007CFFF7B8B9EA
:106D8C0010B51421044600F0FDFA204610BD70B574
:106D9C00457C04460E4625B9007CFFF7B9F900285E
:106DAC0005DD3146207CBDE87040FFF781B92846EF
:106DBC0070BD000010B50446084611460022626002
:106DCC004FF47A72A260054A226001222074627428
:106DDC001A46FFF765F9204610BD00BF6C840D0004
:106DEC00007CFFF78DB9000038B50C4D296811F007
:106DFC00010411D12846FDF74CF968B1084A094B3A
:106E0C0009482146FFF7D6FF2846FDF747F9074A00
:106E1C000749054800F0A8FA034838BD9CE4032054
:106E2C00A0E4032018E4032004E4032068DE03201C
:106E3C003D6D0D007047F8B5064615460C468F188B
:106E4C00BC4206D0336814F8011B9B683046984747
:106E5C00F6E72846F8BD0022007CFFF761B9002157
:106E6C00007CFFF765B90021007CFFF769B90021B0
:106E7C00007CFFF76DB90021007CFFF771B910B5EC
:106E8C001421044600F07EFA204610BD10B50446CD
:106E9C00002363604FF47A73A360044B217408469B
:106EAC0023601146FFF76CF9204610BD9C840D0041
:106EBC000021007CFFF75CB9002211464068FFF707
:106ECC000BBA002211464068FFF716BA0022406840
:106EDC00FFF70ABA002281F001014068FFF7F4B90C
:106EEC0000231A4601214068FFF7E6B900231A4631
:106EFC0019464068FFF7D8B9002211464068FFF7E1
:106F0C00CBB9002211464068FFF7B6B90022022126
:106F1C004068FFF7B9B900231A464068FFF7A4B9D7
:106F2C0038B5054688B104684CB1A3681BB103227F
:106F3C002146204698471021204600F023FA284687
:106F4C001421BDE8384000F01DBA38BD10B10368FB
:106F5C005B681847704710B503680446BBB15868A6
:106F6C00FFF76EF878B923685A7C12B95868FFF7A6
:106F7C006FF823685868FFF773F8206800232360C4
:106F8C0028B1FFF7CDFF206808B1FFF7C9FF2046F5
:106F9C0010BD38B50446D0F8C40108B1FDF777F838
:106FAC00D4F8C00108B1FFF76BF8D4F8BC5135B177
:106FBC002846FFF7D0FF0421284600F0E3F92068AB
:106FCC0008B1FFF7C3FF204638BD000010B5044BD5
:106FDC00044640F8083BFFF7DCFF204610BD00BF1D
:106FEC00C4840D0038B50E4C0E4B236000250223D3
:106FFC0004F5E4706360A560C4F8C451C4F8C851CA
:10700C00FFF736F8084BC4F8CC5184F8D051236004
:10701C002046064A0649BDE8384000F0A5B900BF35
:10702C0024E503202C850D00C4840D0068DE0320AC
:10703C00D96F0D00002211464068FFF72DB90022D0
:10704C0011464068FFF748B9002211464068FFF727
:10705C0053B900224068FFF747B9002281F00101C3
:10706C004068FFF731B900231A4619464068FFF70C
:10707C0023B900231A4619464068FFF715B90022B8
:10708C0011464068FFF7F8B8002202214068FFF76C
:10709C00FBB800231A464068FFF7E6B8024B0422FF
:1070AC005A60024A1A607047F8E60320F8840D0013
:1070BC0000231A464068FFF7D7B800220221406827
:1070CC00FFF7E2B8002211464068FFF7D5B800225E
:1070DC0011464068FFF7E0B800231A46194640688D
:1070EC00FFF7E2B800231A4619464068FFF7E4B8E8
:1070FC00002281F001014068FFF7E6B800224068E9
:10710C00FFF7F2B8002211464068FFF7F5B80022ED
:10711C0011464068FFF7E0B82DE9F043002495B024
:10712C0016460D460746FFF743FD214620220CA8C4
:10713C00009400F0DFFB40230C9321466B460CAA15
:10714C003046FEF7CDFE0446002844D1024601210C
:10715C006868FFF7A1F80221804622466868FFF7AD
:10716C009BF8009E81462146002E34D0002932D156
:10717C007368022B02D00A2B09D02AE0B8F1000F59
:10718C0027D0716938460431FFF73FFD20E0B9F193
:10719C00000F1ED07469112201A800F0ABFB06236E
:1071AC008DF8143001AD04F10803183418685968CF
:1071BC002A4603C20833A3421546F7D101A906A8F3
:1071CC0007ADFFF703FD0FCD3C1D0FC42B682370DB
:1071DC000121F669C8E70098FEF77AFE384615B02B
:1071EC00BDE8F083024B034A1A6000225A607047D4
:1071FC0000E703202C850D0070B5184E316811F096
:10720C00010504460AD13046FCF743FF30B129464C
:10721C001348FFF71DF93046FCF740FF1048FFF705
:10722C00C4F928B1A4F10B03022B01D8002070BDC6
:10723C0000F074F8FFF73CFE08B1012CF6D9FFF70B
:10724C00D3FDFFF7CDFD18B1A4F10903012BEDD946
:10725C00232C8CBF0020012070BD00BF6CDE0320EE
:10726C0070DE0320232838B504460D460AD8FF29C2
:10727C0008D0FFF7C1FF28B129462046BDE83840A9
:10728C00FEF746BE38BD38B504460D46FEF748FE3F
:10729C00FF2810D0062804D84D2323FA00F0C3078A
:1072AC0009D42046FFF7A8FF28B129462046BDE89F
:1072BC003840FEF73DBE38BD0D2810B504469CBFC6
:1072CC000E34A4B22046FFF797FF50B1032120469D
:1072DC00FEF716FE032804D12046BDE81040FEF749
:1072EC002FBE002010BD000070B5044614252A46A0
:1072FC00094E002100F0FEFA258020253146A560BC
:10730C002561284600F040F831466060284600F0C0
:10731C003BF8E060204670BD58850D0030B50E4D31
:10732C00296811F0010487B013D12846FCF7B1FE8F
:10733C0078B101A8FFF7D8FF01AA21460748FFF74B
:10734C00A5FD2846FCF7AAFE054A0649034800F0AD
:10735C000BF8024807B030BD0CE7032010E7032000
:10736C0068DE0320416E0D000B460146184600F006
:10737C00A1B90000024B1868BFF35F8F704700BFC4
:10738C0024E70320FCF781BE00F000B810B50028FC
:10739C0014BF044601242046FEF7DEFF20B9FFF798
:1073AC00E9FF08B18047F6E710BD0000184B1A68DA
:1073BC00D1075CBF01221A60164B1A68D2075CBF5A
:1073CC0001221A60144B1A68D0075CBF01221A60A4
:1073DC00124B1A68D1075CBF01221A60104B1A6855
:1073EC00D2075CBF01221A600E4B1A68D0075CBF33
:1073FC0001221A600C4B1A68D1075CBF01221A607B
:10740C000A4B1A68D2075CBF01221A60704700BF92
:10741C0044E7032040E703203CE7032038E7032040
:10742C0034E7032030E703202CE7032028E7032070
:10743C00244B1A68D0075CBF01221A60224B1A68D1
:10744C00D1075CBF01221A60204B1A68D2075CBFBF
:10745C0001221A601E4B1A68D0075CBF01221A6009
:10746C001C4B1A68D1075CBF01221A601A4B1A68B0
:10747C00D2075CBF01221A60184B1A68D0075CBF98
:10748C0001221A60164B1A68D1075CBF01221A60E0
:10749C00144B1A68D2075CBF01221A60124B1A688F
:1074AC00D0075CBF01221A60104B1A68D1075CBF71
:1074BC0001221A600E4B1A68D2075CBF01221A60B7
:1074CC00704700BF74E7032070E703206CE70320CC
:1074DC0068E7032064E7032060E703205CE70320F0
:1074EC0058E7032054E7032050E703204CE7032020
:1074FC0048E70320244B1A68D0075CBF01221A60AE
:10750C00224B1A68D1075CBF01221A60204B1A6803
:10751C00D2075CBF01221A601E4B1A68D0075CBFF1
:10752C0001221A601C4B1A68D1075CBF01221A6039
:10753C001A4B1A68D2075CBF01221A60184B1A68E2
:10754C00D0075CBF01221A60164B1A68D1075CBFCA
:10755C0001221A60144B1A68D2075CBF01221A6010
:10756C00124B1A68D0075CBF01221A60104B1A68C4
:10757C00D1075CBF01221A600E4B1A68D2075CBFA0
:10758C0001221A60704700BFA4E70320A0E7032084
:10759C009CE7032098E7032094E7032090E703205F
:1075AC008CE7032088E7032084E7032080E703208F
:1075BC007CE7032078E70320184B1A68D1075CBFDF
:1075CC0001221A60164B1A68D2075CBF01221A609E
:1075DC00144B1A68D0075CBF01221A60124B1A6850
:1075EC00D1075CBF01221A60104B1A68D2075CBF2E
:1075FC0001221A600E4B1A68D0075CBF01221A6078
:10760C000C4B1A68D1075CBF01221A600A4B1A682E
:10761C00D2075CBF01221A60704700BFC4E7032089
:10762C00C0E70320BCE70320B8E70320B4E703203E
:10763C00B0E70320ACE70320A8E70320094B70B5A3
:10764C001C68256C06463DB91A20FEF785FE1A22E9
:10765C002064294600F04EF9216C3046BDE870409C
:10766C0000F002B818DE032010B50C46416903691E
:10767C00826986B001F26C710491016803914168D2
:10768C00029181680191C1680091074903EB4303A2
:10769C000B44064902EB42020A4420460449FEF719
:1076AC0073FE204606B010BD6E850D0059850D0089
:1076BC0092850D0010B5054C13462CB10A460146B7
:1076CC000220AFF3008010BD204610BD000000006A
:1076DC0038B5074B1C68E36B05461BB92420FEF735
:1076EC003BFEE063E16B2846BDE8384000F002B891
:1076FC0018DE03202DE9F0410C46804600F068FCB2
:10770C0021460746404600F067FC466906F26C7657
:10771C00B307044605D1642296FBF2F302FB136314
:10772C004BB94FF4C87596FBF5F305FB1365B5FA29
:10773C0085F35B0900E001235F4A302505FB032537
:10774C0000F07AFA00F07AFA5C4B1B68F3B17B68B4
:10775C009E4205D13968D8F80030FA6941B90AE07F
:10776C00304600F0C1F90028F4D14FF0FF330DE0A2
:10777C00934208DB01E0934207DABA6B9342ACBF49
:10778C000023012302E0002300E001232362236A8B
:10779C00012B0CBFF96B396A4FF461633C2091FBF0
:1077AC00F3F603FB1613616893FBF0F200FB123047
:1077BC002368891AA26861601B1A921B3B2B2360F9
:1077CC00A26003DD013161603C3B04E0002B03DA75
:1077DC00013961603C33236063683B2B03DD01326C
:1077EC00A2603C3B04E0002B03DA013AA2603C337C
:1077FC006360A368172B22DDE2690132E261A269A2
:10780C000132062AC8BF0022A261E268183B01328D
:10781C00A3602369E26055F823108A4246DD0133E8
:10782C000C2B0CBF63692361A2EB0102E26001BF68
:10783C00013300222261636108BFE26136E0002B54
:10784C0034DAE269013AE261A269013A48BF0622E0
:10785C00A261E2681833013AE260A36032BB23698B
:10786C00013B01D423611DE00B23236163695A1E84
:10787C0012F0030F626103F26B7305D1642193FB69
:10788C00F1F201FB12324AB94FF4C87193FBF1F2D9
:10789C0001FB1233B3FA83F35B0900E0012303F518
:1078AC00B673E361236955F82330E36000F0C5F942
:1078BC002046BDE8F08100BF18870D00E4E70320E7
:1078CC0010B501390244904207D010F8013B11F871
:1078DC00014FA342F7D0181B10BD002010BD10B5EE
:1078EC00431E0A44914204D011F8014B03F8014F96
:1078FC00F8E710BD02440346934202D003F8011B83
:10790C00FAE7704738B5124B1C68A36B0546D3B920
:10791C001820FEF721FD43F20E33A06303804AF6D4
:10792C00CD33438041F2342383804EF26D63C380A8
:10793C004DF6EC630381052343810B2383810122E4
:10794C000023C0E90423A36B00221D615A6138BDDA
:10795C0018DE032010F8012B11F8013B012A28BF77
:10796C009A42F7D0D01A7047034611F8012B03F84E
:10797C00012B002AF9D17047034613F8012B002A7A
:10798C00FBD1181A0138704730B582B1451E013948
:10799C0015F8013F11F8014FA34206D1EC431444F2
:1079AC00E04201D0002BF3D11C46181B30BD104611
:1079BC0030BD10B5034642B111F8014B03F8014B31
:1079CC00013A002CF7D11A4400E010BD934202D0CA
:1079DC0003F8014BFAE710BD2DE9F04780463C480F
:1079EC00D0F800900E46354615F8014B09EB040013
:1079FC00407800F0080000F0FF0708B12E46F2E7CF
:107A0C002D2C03D1B51C7478012703E02B2C04BF5B
:107A1C007478B51C13B1102B0AD153E0302C4FD114
:107A2C00287800F0DF00582845D16C7810230235F7
:107A3C004FF0FF3C0026BCFBF3FC03FB0CFA6FEA97
:107A4C000A0A304609EB040E9EF801E01EF0040F02
:107A5C0001D0303C0BE01EF0030E1AD0BEF1010F2A
:107A6C000CBF4FF0370E4FF0570ECEEB0404A34271
:107A7C000FDD002E08DB604506D801D1544503DC30
:107A8C0003FB0040012601E04FF0FF3615F8014BD7
:107A9C00D8E7002E07DA2223C8F800304FF0FF3069
:107AAC002AB9BDE8F08707B1404272B106B1691E30
:107ABC001160BDE8F0873024002BB9D10823B7E75B
:107ACC000A23B5E7302CABD0B2E7BDE8F08700BF96
:107ADC00B4DD032013460A46014602480068FFF74E
:107AEC007BBF00BF18DE03202DE9F74F044600F0E2
:107AFC006FFA40F2B1739C4240F396806FF4F663D8
:107B0C00E318A4F2B2729B1040F26D1505FB02351E
:107B1C00A4F26D726FF0630392FBF3F36FF4C8621F
:107B2C002B44A5184FF4C87295FBF2F51D44642341
:107B3C0094FBF2F794FBF3F602FB174703FB164694
:107B4C0000F13803B7FA87FE019304F00303446095
:107B5C004FEA5E1E014600934FF0070C0B7A4A2B3E
:107B6C000ED14B69009AEC1802B906B927B93B2B18
:107B7C00D4BF0023012300E000232344013B3FE05A
:107B8C00442B02D14B692B443AE0009B2BB9002EBD
:107B9C000CBFF0464FF0010800E0F046244BCC68D7
:107BAC00302202FB0838A8F1040AA9460123A3429B
:107BBC0004DA5AF804BF0133D944F8E709F1040395
:107BCC0093FBFCFBCBEBCB0A012CCAEB030A4B69F6
:107BDC00B8BF012404F18044B3EB0A0A0B6904F129
:107BEC00FF3403F1FF3348BF0AF1070AC3EBC303A9
:107BFC0058F824405344A34201DB073BFBE74B44BA
:107C0C008C690C4A02FB03430C6A234441F81C3F69
:107C1C00019B9942A2D1C369826B9342ACBF0023F2
:107C2C0001230360012000E0002003B0BDE8F08FC9
:107C3C0018870D008051010070477047014B186880
:107C4C0000F002B818DE03202DE9F04F8DB0074686
:107C5C0000F0BEF9B049B14E0446384600F0B0F918
:107C6C00054660B9AE4BAF4A1860AF4B1860AF4BCE
:107C7C0030681A605A60FEF777FB356048E131686E
:107C8C0079B93068FEF770FB2846FFF775FE411C8A
:107C9C003846FEF791FB306048B12946FFF764FE89
:107CAC0005E0FFF757FE002800F03281E9E72B785A
:107CBC009F4AA0493A2B08BF01350AAE33462846E5
:107CCC00FEF76AFB002840F323810A9BEF18EB5C5C
:107CDC002D2B03D101374FF0FF3503E02B2B08BFC1
:107CEC00013701250DF1200A0DF11E0B4FF0000894
:107CFC000396CDF808A00196CDF800B0334607AA3C
:107D0C008D49ADF81E803846ADF82080FEF744FB57
:107D1C00404540F3FD80BDF81E20BDF82030DFF853
:107D2C0024923C2101FB0233BDF81C204FF461610D
:107D3C0001FB02335D4325627C4D7D4B2B600A9B1E
:107D4C007C491F444A4633463846FEF725FB4045DE
:107D5C0008DC2B686B60724B226A1A60724BC3F89A
:107D6C000080D5E00A9BC5F80490FD18FB5C2D2B18
:107D7C0003D101354FF0FF3703E02B2B08BF013542
:107D8C0001270023ADF81C30ADF81E30ADF82030C3
:107D9C000A930396CDF808A00196CDF800B03346AF
:107DAC0007AA65492846FEF7F7FA002804DC236A7F
:107DBC00A3F56163E3630EE0BDF81E20BDF820302F
:107DCC003C2101FB0233BDF81C204FF4616101FB27
:107DDC0002335F43E7630A9B27461D444FF00009BB
:107DEC002B782C2B08BF013595F80080B8F14D0F7E
:107DFC0026D10DF12603029309AB0093039601964D
:107E0C0033460DF122024D492846FEF7C5FA0328E8
:107E1C007ED1BDF822104B1E0B2B79D8BDF8242037
:107E2C00531E042B74D8BDF82630062B70D887F857
:107E3C000880F9603A617B610A9B05EB03082AE034
:107E4C00B8F14A0F06BF0135434644230A220BA959
:107E5C0028460593FFF73EFEDDF82C80ADF8260092
:107E6C004545059B14D14D23B9F1000F07D1237261
:107E7C000323E36002232361C4F814900BE084F81D
:107E8C0024300B23A3620123E3620023236302E06B
:107E9C0080B23B7278610223ADF81C300023ADF840
:107EAC001E30ADF820300A9398F800302F2B0BD1F0
:107EBC000396CDF808A00196CDF800B0334607AA7A
:107ECC001F494046FEF768FABDF81E20BDF8203069
:107EDC003C2101FB0233BDF81C204FF4616101FB16
:107EEC000233BB610A9D09F10109B9F1020F454446
:107EFC0007F11C077FF474AF6068FFF7F5FD084BC2
:107F0C00226A1A60E36B9B1A074A18BF012313609D
:107F1C000DB0BDE8F08F00BF78870D00E0E70320BF
:107F2C00E8E703207B870D00E4E703201CDE032039
:107F3C00D3E703207F870D00A2870D008E870D00ED
:107F4C00A1870D00C8E703202DE9F84F07468B46A3
:107F5C00904600F0D9F8194B1D689A463DB15C4625
:107F6C00234613F8012B42B13D2A1C46F8D1384662
:107F7C0000F0CBF80020BDE8F88FCBEB0404A94649
:107F8C0059F8040B0028F2D022465946FFF7FCFCA6
:107F9C0088B959F8043C1E191B5D3D2B0BD1DAF83E
:107FAC000030ED1AAD103846C8F8005000F0ADF8AE
:107FBC00701CBDE8F88F4D46E1E700BF64DE03207E
:107FCC0007B501AAFFF7C0FF03B05DF804FB000082
:107FDC000048704724DE03200268474BF0B592FB43
:107FEC00F3F403FB1422002ABCBF02F5A83202F5FD
:107FFC00C0724FF4616004F52F2492FBF0F300FB88
:10800C0013224FF03C00ACBF04F66C2404F66B2436
:10801C008B6092FBF0F300FB13224B600A6007238A
:10802C00E21C92FBF3F3C3EBC303D31A8B61334B08
:10803C00334D94FBF5F503FB054448F6AC62B4FBF9
:10804C00F2F2224440F2B457B4FBF7F3D21A2D48A3
:10805C00B4FBF0F048F69466131AB3FBF6F634440E
:10806C0040F26D12B3FBF2F0B3FBF7F3E31A02FB31
:10807C001033992403EB83020232B2FBF4F20A2A86
:10808C0004FB02F404F102064FF00504B6FBF4F411
:10809C0034BF02266FF0090616444FF4C87202FB77
:1080AC0005055F1C012E98BF0135B3F5997FA7EB31
:1080BC00040702D3A3F5997214E0820705D1642456
:1080CC00B0FBF4F204FB12024AB94FF4C872B0FBD5
:1080DC00F2F402FB1400B0FA80F2520900E0012223
:1080EC003B331A44A5F26C750023CA614D610E61D5
:1080FC00CF600B620846F0BD805101004FC5FDFFFB
:10810C00B13A0200B03A0200704770471D400D00B2
:10811C0059400D0085400D0089400D000000000005
:10812C00000000000000000025410D0000000000D0
:10813C0000000000CB400D0017410D00FF400D006A
:10814C00F9400D00AF400D00D9400D00D3400D009B
:10815C00CD400D007EFF06000100000000EF6465BD
:10816C006661756C7420004D5342004C5342003CC8
:10817C0053504953657474696E6773206465666106
:10818C00756C743E003C53504953657474696E674A
:10819C0073202573256C75202573204D4F44452580
:1081AC00643E00706978656C20776F726B696E67DE
:1081BC0000446174614C6F672E637376006E6F6D53
:1081CC00696E616C2072656164732E006E6F6D69EF
:1081DC006E616C2072656164696E67732E206E6FC0
:1081EC007468696E6720746F207265636F726400C7
:1081FC006E6F6D696E616C2072656164696E677318
:10820C00207772697465206572726F722E004169F5
:10821C0072205175616C697479207761726E696E28
:10822C00672E00416972205175616C697479206107
:10823C006C65727400415120616C657274207772A8
:10824C00697465206572726F72004D512D392077FB
:10825C0061726E696E672E004D512D3920616C650F
:10826C007274004D512D3920616C657274207772D7
:10827C00697465206572726F720044414E474552B5
:10828C0020494D4D494E414E542E00486967682097
:10829C0044616E6765722E00486967682064616E80
:1082AC00676572207772697465206572726F722EC1
:1082BC000000000000C001400010024000200240FD
:1082CC002C01000018000000F40100002C0100003B
:1082DC0050000000000000000000000033640D009E
:1082EC0029640D001F640D0015640D0009640D0058
:1082FC00FD630D00F1630D00E9630D00DF630D00FC
:10830C00D5630D0025710D00000810182028303899
:10831C00626175640053657269616C0053657269C2
:10832C00616C31007479706500706172616D00630D
:10833C006D6400696400686E64007374726D00662D
:10834C00696C74006C766C0061646448616E646C7A
:10835C0065720072656D6F766548616E646C6572EE
:10836C0000656E756D48616E646C657273004A537E
:10837C004F4E53747265616D4C6F6748616E646CDF
:10838C0065720061707000253031307520005D2001
:10839C00002564002C200028293A2000205B006373
:1083AC006F6465203D200025690064657461696C0B
:1083BC0073203D20000D0A0066006C6E00666E0096
:1083CC00636F64650064657461696C006E6F6E65E3
:1083DC0000747261636500696E666F007761726E1E
:1083EC000070616E696300616C6C00252B30336426
:1083FC003A253032750025592D256D2D25645425CF
:10840C00483A254D3A2553257A0061736374696D9A
:10841C00650000000000000000000000596B0D001A
:10842C00496B0D004B6B0D000000000000000000BC
:10843C00316C0D00816C0D008F6C0D00B9670D0057
:10844C006D6C0D00336C0D00496C0D007B6C0D00D8
:10845C005F6C0D002D6C0D00000000000000000092
:10846C003D6D0D008D6D0D009B6D0D00B9670D0000
:10847C00516D0D00736D0D005F6D0D00876D0D005E
:10848C003F6D0D00436D0D0000000000000000006A
:10849C00416E0D008B6E0D00636E0D00436E0D0072
:1084AC006B6E0D00736E0D007B6E0D00836E0D00F8
:1084BC000000000000000000236F0D00196F0D007C
:1084CC000F6F0D00056F0D00F96E0D00ED6E0D00B8
:1084DC00E16E0D00D96E0D00CF6E0D00C56E0D0056
:1084EC0025710D0000000000000000009F700D00C1
:1084FC0095700D008B700D0041700D007F700D009C
:10850C0073700D0067700D005F700D0055700D00DD
:10851C004B700D0025710D000000000000000000E4
:10852C00BD700D00C7700D00D1700D00DB700D001B
:10853C00E5700D00F1700D00FD700D0009710D005E
:10854C0011710D001B710D0025710D000053756E1E
:10855C004D6F6E54756557656454687546726953F2
:10856C0061744A616E4665624D61724170724D6113
:10857C00794A756E4A756C4175675365704F6374B3
:10858C004E6F76446563252E337320252E33732569
:10859C00336420252E32643A252E32643A252E324D
:1085AC00642025640A000020202020202020202088
:1085BC002828282828202020202020202020202087
:1085CC0020202020202020881010101010101010B7
:1085DC0010101010101010040404040404040404FB
:1085EC000410101010101010414141414141010183
:1085FC00010101010101010101010101010101015F
:10860C00010110101010101042424242424202026C
:10861C00020202020202020202020202020202022E
:10862C0002021010101020000000000000000000DA
:10863C00000000000000000000000000000000002E
:10864C00000000000000000000000000000000001E
:10865C00000000000000000000000000000000000E
:10866C0000000000000000000000000000000000FE
:10867C0000000000000000000000000000000000EE
:10868C0000000000000000000000000000000000DE
:10869C0000000000000000000000000000000000CE
:1086AC0000000000000000000000000000000000BE
:1086BC0000000000000000000000000000000000AE
:1086CC00000000000000000000000000000000009E
:1086DC00000000000000000000000000000000008E
:1086EC00000000000000000000000000000000007E
:1086FC00000000000000000000000000000000006E
:10870C000000000000000000430000001F000000FB
:10871C001C0000001F0000001E0000001F000000D5
:10872C001E0000001F0000001F0000001E000000C3
:10873C001F0000001E0000001F0000001F000000B2
:10874C001D0000001F0000001E0000001F000000A4
:10875C001E0000001F0000001F0000001E00000093
:10876C001F0000001E0000001F000000545A0047AC
:10877C004D54002531305B5E302D392C2B2D5D2571
:10878C006E004D256875256E2E256875256E2E2577
:10879C006875256E002F256875256E3A2568752538
:1087AC006E3A256875256E003D450D00294B0D0070
:1087BC003D4B0D00414B0D00454B0D006D510D0017
:1087CC0071510D0075510D0079510D0045580D007A
:1087DC0069580D006D580D008F5A0D00935A0D00FD
:1087EC00975A0D004D5E0D00515E0D00555E0D004B
:1087FC00D95E0D003D640D00DD650D0091670D0027
:10880C00D5680D00CD690D001D6A0D00F16F0D00CE
:10881C00A9700D00F1710D00B9730D003D740D00C0
:10882C0001750D00C5750D00000000000000000072
:04883C000000000038
:048840000000000034
:1088440016840D00B2850D0000000000B4860D00F2
:10885400D4860D00F4860D00000000000000000026
:10886400000000000000000014870D00000000005C
:1088740000000000000000000000000000000000F4
:1088840000000000000000000000000000000000E4
:1088940000000000000000000000000000000000D4
:1088A4000000000000000000B8DD03207B870D00FD
:1088B4007B870D0001000000000000004A0000005A
:1088C40000000000000000000000000000000000A4
:1088D40000000000000000004A000000000000004A
:1088E4000000000000000000000000000000000084
:0888F40000000000ECE7032086
:1088FC00FFFFFFFF00000102030405060708090A39
:10890C000B0C0D0E0F101112131415161718191A33
:08891C001B1C1D1E1F2028007A
:04892400785634123B
:04000003D000401CCD
:00000001FF
