:02000002D0002C
:1040000000400D0010B40D00000006000C0005017A
:084010000401E80500000000B6
:04401800E8A10D000E
:1040200009480A49884208B505D0094A824202D0A7
:10403000121A06F08DF80748074A0021121A06F0F6
:1040400092F8014808BD00BFC8D803206CAF0D002E
:1040500044DD032044DD0320F0E7032070B502F0C7
:10406000A3FE074C074BE41AA40800251E46A542F0
:1040700004D056F8253098470135F8E770BD00BFE9
:1040800060AF0D00CCAE0D0000F08AB808B500F0AE
:10409000F1F8BDE8084002F049BE02F091BB02F021
:1040A00097BB02F095BB000008B5034A00210C2025
:1040B00002F0F2FAFEE700BFE9630D000078B0FA03
:1040C00080F04009704701230370704770477047C4
:1040D000704700007FB5024608461379956833B1F2
:1040E0003DB90C4904B0BDE8704002F061BD0A4B17
:1040F00000E00A4B167B0A4C0A49527B0292012EC1
:1041000008BF214601910095074A002102F083FD76
:1041100004B070BD31A20D0075A90D0020A20D00E4
:1041200029A20D002DA20D0047A20D0010B52C21D3
:10413000044603F0E1FD204610BD083001F0C2BC8A
:1041400007B502AB012203F8011D0830194601F042
:10415000B9FC03B05DF804FB38B584690A4B036011
:1041600005467CB16368013B63605BB92368204608
:104170009B689847A368013BA3601BB9236820464E
:10418000DB689847284638BD88AD0D0010B5044659
:10419000FFF7E2FF20461C2103F0AEFD204610BDD4
:1041A00010B502F017FF4FF4165102F007FF0F4C45
:1041B000642002F07DFD03F06BFD02F0F1FF3C2274
:1041C0000221204601F004F8204601F0D3F82046F1
:1041D00000F0AEFF204601F0CDF87621044800F053
:1041E000B9FD0448BDE8104002F027B8A0DE032066
:1041F00064DD032080DE032010B5164C204600F05D
:10420000F5F9F2EE027A20EE270AB1EE047AC0EE5A
:10421000077A114B20469FED117A77EE877AC3ED2E
:10422000007A00F093FB0E4B204683ED000A00F06D
:104230000BFADFED0C7A0C4B80EE270A204683ED5B
:10424000000A9FED0A0A00F0DFFA094B83ED000A2D
:1042500010BD00BF64DD032060DD032000000042CC
:104260007CDE03200000C842C8E3032000507D44E8
:104270009CDE032010B588B0FFF7BEFF02F0AAFE57
:10428000124B0446186805F02FF9CDE90601104BD2
:10429000186805F029F9CDE904010E4B186805F0FE
:1042A00023F9CDE902010C4B186805F01DF90B4A02
:1042B000CDE900010021204602F0ADFC41F288303A
:1042C00008B0BDE8104002F0F3BC00BF7CDE032064
:1042D000C8E303209CDE032060DD0320B5A20D00AF
:1042E00010B5D421044603F007FD204610BD10B5DB
:1042F0002421044603F000FD204610BD73B501F0F3
:10430000C3FF394B394E642183F860143849C3F830
:104310007014012183F874143168002211F0010532
:10432000DA7183F83C2483F83D2483F86A24C3F8C7
:10433000782483F87C2483F87D241C460AD13046F7
:10434000FFF7BCFE30B129462A4802F09DFA3046FC
:10435000FFF7B9FE2848294E264BC4F86C340025D7
:10436000274B284A2849057245724560036003F0CF
:10437000B5FC3046254C03F0C3FA224A24493046A6
:1043800003F0ACFC234B009340F22972224B2349EB
:10439000204601F0AFFA224B1A4A224923602046F8
:1043A000C4F8D06003F09AFC2B4621461E4A1F48F1
:1043B00001F0C7FA2B461E4A1E48214601F0BCFAFE
:1043C0001D4800F041F813211C4800F09BFE0D4AE7
:1043D0001B491A4803F082FC1A48112102B0BDE8BB
:1043E000704001F025BF00BF44DF032048DD0320FB
:1043F00004A20D004CDD0320E0DE0320C4DE032018
:1044000010A20D0044DD0320CD400D00A8DD0320E7
:1044100059410D006FA30D0053A30D005FA30D00C4
:1044200028A90D00CF400D008AA30D000CDF03204A
:104430009EA30D0054DD032064DD0320A0DE0320D5
:10444000D1400D0080DE0320FF220274427482748A
:10445000C274704738B5094D296811F001040AD1BA
:104460002846FFF72BFE30B12146054802F00CFA32
:104470002846FFF728FE024838BD00BF48DD03206C
:104480004CDD03202DE9F04190F91330013305464E
:104490000F4606D1FFF7DEFF3946BDE8F04102F0D6
:1044A0000FBB072600244FF0010895F913000021E7
:1044B00080B203F06CFB95F9110008FA06F139405F
:1044C00080B203F064FB95F91300012180B203F080
:1044D0005EFB95F91200640080B2E4B203F070FB59
:1044E00008B144F0010416F1FF36DED22046BDE8E3
:1044F000F08108B5FFF7AEFFBDE8084002F001BA51
:1045000010B50446FFF7A6FF2146BDE8104002F0B3
:1045100011BA000030B590F91030013385B004466F
:104520000D4621D10179006802F071FE2068036810
:1045300029469B689847206802F074FE032221797F
:10454000206802F061FE206803685B6998470502F5
:10455000206803685B699847284305022068036860
:104560005B699847054339E090F9133001330ED168
:104570001C4B1D4A009302920023012268468DF8CD
:1045800004308DF80C208DF80D30FFF7B9FF94F949
:104590001000002180B203F0FAFA45F080012046B5
:1045A000FFF770FF00212046FFF76CFF0021050296
:1045B0002046FFF767FF2843050200212046FFF74A
:1045C00061FF054394F91000012180B203F0DFFA86
:1045D00094F91330013301D1FFF78BFF284605B062
:1045E00030BD00BF04A20D0020A1070010B5FA21C4
:1045F0000446FFF78FFFB0F5000F1ED0A28A9FED93
:10460000107AC2EB20235200C2EBE010B4F916205E
:104610005B435043B4F918201B1353439B1303EB24
:10462000E020E06000EB80008030001207EE900A8E
:10463000F8EEE77A87EE870A10BD9FED020A10BDFB
:104640000000C8420000C07F2DE9F84F0646FFF782
:10465000CDFFF7213046FFF75DFFB0F5000F0746AD
:1046600000F0C180F468B6F91C20E517B4F5FA34FF
:1046700045F1FF35A4FB048904FB05F309EB43096D
:1046800002FB05F1D31704FB0311A2FB04230B4427
:10469000190341EA12511003B6F91E20D31702FB89
:1046A00009FE08FB03EEA2FB082373444FEA122A1B
:1046B0004AEA036A1AEB000A728B4FEA232B4BEB90
:1046C000010B1AF100004BF50041A0FB02AB02FB0D
:1046D00001BB4FEA6B024FEAEB7352EA030100F0B1
:1046E0008680B6F924A04FEAEA7B0AFB09F108FBB1
:1046F0000B11AAFB0889B6F922A089444FEAEA7B8C
:104700000AFB05F104FB0B11AAFB04450D444FEA1B
:10471000454B4FEA444A38111AEB080AC0F580109D
:104720004BEAD43B4BEB090B4FEAE0794FEAC975F2
:1047300045EA5005C407B6F920004FF0000818EB11
:104740000A084FEAC00949EB0B0940F63547B4EBBC
:10475000080465EB0905A4FB070107FB051105F03B
:1047600025FBB6F92A204C13450B45EAC14502FB4F
:1047700004F7D31705FB0377A2FB05233B445443FF
:1047800005FB0344A2FB05232344540E44EAC3144F
:10479000B6F9282024184FEA63654D41D3175143D9
:1047A00000FB0313A2FB00011944C20C42EA413290
:1047B0001219B6F926404FEAE1436B41100AE5179A
:1047C000220140EA036019122B0143EA1473801896
:1047D000594105F0ADFA9FED080A07EE900A27EE61
:1047E000800ABDE8F88F9FED050ABDE8F88F9FEDC0
:1047F000040ABDE8F88F00BF0000803B0000C07FC6
:10480000000000000000000008B52DED028BB0EEA6
:10481000408AFFF719FFDFED167A80EE270AC0EE17
:10482000087A17EE900A04F05FFE9FED0D1B41EC35
:10483000100B03F0BDFB002053EC102B0D4904F0CE
:10484000F3FC09A3D3E9002304F0A2FE05F050F91C
:10485000BDEC028B00EE100A08BD00BFAFF3008074
:10486000EBE2361AC05BC83F0000000040A5E540FF
:104870000000C8420000F03F30B590F9103001331D
:1048800085B004460D461DD10179006802F0BFFCD9
:104890002068036829469B689847206802F0C2FC9C
:1048A00002222179206802F0AFFC206803685B696E
:1048B00098470546206803685B69984740EA0520E9
:1048C00085B235E090F9133001330ED11A4B1B4AF3
:1048D000009302920023012268468DF804308DF87F
:1048E0000C208DF80D30FFF70BFE94F9100000211D
:1048F00080B203F04CF945F080012046FFF7C2FD7D
:1049000000212046FFF7BEFD002105462046FFF7A7
:10491000B9FD40EA052085B294F91000012180B26A
:1049200003F035F994F91330013301D1FFF7E1FDBC
:10493000284605B030BD00BF04A20D0020A107002D
:1049400008B5FFF799FF40BA80B208BD10B504461C
:10495000FFF74CFEFD212046FFF78EFFB0F5004F1C
:1049600038D0B4F93230E268B4F934101B05A2F53E
:104970009632C3EB803302FB113303F58043D91326
:1049800094F8303094F936005343DB1242439212CC
:1049900003F5004353439B12B4F92E2003F5001393
:1049A000534303F500539B134B43DA1394F82C1035
:1049B0005243D2114A43A3EB221323EAE373B3F128
:1049C000C85FA8BF4FF0C8531B1300EE103ABAEEF1
:1049D000CB0A10BD9FED010A10BD00BF0000C07FD3
:1049E00030B590F91030013385B004460D4616D12C
:1049F0000179006802F00BFC2068036829469B6877
:104A00009847206802F00EFC01222179206802F00C
:104A1000FBFB206803685B699847C5B22EE090F9FC
:104A2000133001330ED1174B174A00930292002323
:104A3000012268468DF804308DF80C208DF80D3079
:104A4000FFF75EFD94F91000002180B203F09FF89B
:104A500045F080012046FFF715FD00212046FFF7B5
:104A600011FD054694F91000012180B203F08FF882
:104A700094F91330013301D1FFF73BFD284605B00F
:104A800030BD00BF04A20D0020A1070008B5F3212E
:104A9000FFF7A6FF00F0010008BD38B588210446E5
:104AA000FFF74EFF8A21A0822046FFF749FF8C21A5
:104AB000E0822046FFF744FF8E2120832046FFF747
:104AC0003FFF902160832046FFF73AFF9221A083A9
:104AD0002046FFF735FF9421E0832046FFF730FFA3
:104AE000962120842046FFF72BFF982160842046E2
:104AF000FFF726FF9A21A0842046FFF721FF9C2183
:104B0000E0842046FFF71CFF9E2120852046FFF70A
:104B100017FFA12160852046FFF762FFE12184F89D
:104B20002C002046FFF70CFFE321E0852046FFF72D
:104B300057FFE42184F830002046FFF751FFE521BC
:104B400005462046FFF74CFF00F00F0040EA051035
:104B50006086E6212046FFF743FFE5210546204613
:104B6000FFF73EFF001140EA0510A086E72120462E
:104B7000FFF736FF84F8360038BD00007FB590F9A6
:104B80001030013304460E46154611D101790068F4
:104B900002F03DFB2068036831469B689847206817
:104BA000036829469B689847206802F03BFB2DE08C
:104BB00090F9133001330ED1154B164A009302922F
:104BC0000023012268468DF804308DF80C208DF802
:104BD0000D30FFF795FC94F91000002180B202F02F
:104BE000D6FF06F07F012046FFF74CFC2946204601
:104BF000FFF748FC94F91000012180B202F0C7FFD2
:104C000094F91330013301D1FFF773FC04B070BD88
:104C100004A20D0020A10700F8B590F83C509DF8C3
:104C200018609DF81CE09DF8207061F3871562F311
:104C3000020563F3C50590F8403080F83C5066F3F8
:104C4000471380F8403090F838306EF3C5030446BF
:104C500067F3020380F8383006F00702F221FFF70D
:104C60008DFF94F83820C2F3C20302F007019B00C5
:104C700043EA411343EAD2122046F521FFF77EFFB3
:104C800094F83C20C2F3C20302F007019B0043EA00
:104C9000411343EA92122046F421BDE8F840FFF7A1
:104CA0006DBF30B5044690F91000421C85B003D1A9
:104CB000206802F075FA22E0012180B202F067FF5D
:104CC00094F91000012180B202F050FF94F9130012
:104CD000431C04D1FFF7BEFB01F0E0FD0FE0012112
:104CE00080B202F043FF94F91100012180B202F07A
:104CF0003DFF94F91200002180B202F037FFD0216D
:104D00002046FFF76DFE6028A06020D12046B62225
:104D1000E021FFF733FF4FF4967001F0C9FF204602
:104D2000FFF7B4FE054608B16420F6E72046FFF71A
:104D3000B4FE052300931A460321204602950195EF
:104D4000FFF76AFF642001F0B3FF012000E00020BC
:104D500005B030BD10B50171044602F099FF206026
:104D60002046BDE81040FFF79CBF01F08DBA00005F
:104D700008B501F089FA01F087FA014B186008BD07
:104D8000CCE30320F0B5447EBDF81450022C08D0CB
:104D9000032C0FD0012C70D10489013CA21A12B24D
:104DA0000CE04489013CA21A0489E41A611A12B287
:104DB00009B262E04489E41A611A09B2002A5BDB95
:104DC000B0F90840944240F390800029BEBF5B18C0
:104DD0001BB20021B0F90A00CC188442C4BF431AA8
:104DE0001BB2002B40F38180C9B2C8083F4F02EBD1
:104DF000C01211F00701DBB207EB020417D0C1F1BA
:104E00000801C8B23A4983420E5C3FBFC3EB000EB3
:104E1000FF2141FA0EF10E40B95C012D0CBF314368
:104E2000B1438342B95460D3181AC3B28034072BFC
:104E300017D9012D0CBFFF20002004F180011A4674
:104E4000083AD2B2072A01F8800C01F18001F7D8A4
:104E5000A3F10802C2F3C402013204EBC21403F04E
:104E60000703002B41D0234AD25C2378012D0CBFCD
:104E7000134393432370F0BDF0BD002A35DBB0F936
:104E80000A40944231DD0029BCBFC9180BB2B0F909
:104E90000870B8BF0021CE18BE42C4BF631A1BB24F
:104EA000002B22DDD01001EBC011104802F00702E8
:104EB0000144012000FA02F28542D2B209D1013B3D
:104EC0001BB25C1C11D011F8010B104301F8010C4E
:104ED000F5E7D243D2B2013B1BB2581C05D011F802
:104EE000010B104001F8010CF5E7F0BDD8D8032004
:104EF000D0D80320C8D80320F0B5447EBDF81450A4
:104F0000022C08D0032C0FD0012C12D10489E41AF2
:104F1000A21A12B26DE00489013C611A4489E41AB4
:104F2000A21A09B212B204E04489013C611A09B222
:104F30005FE000295CDBB0F908408C4240F39180CF
:104F4000002ABCBFD21813B2B0F90A00B8BF0022C1
:104F5000D4188442C4BF831A1BB2002B40F3818053
:104F6000D4B2404EDAB2E30801EBC31114F00704E7
:104F700006EB010317D0C4F10804E0B23A4C8242B8
:104F8000275C3FBFC2EB000EFF2444FA0EF427401B
:104F9000745C012D0CBF3C43BC438242745460D30B
:104FA000101AC2B28033072A17D9012D0CBFFF2473
:104FB000002403F1800011460839C9B2072900F81E
:104FC000804C00F18000F7D8A2F10801C1F3C401C0
:104FD000013103EBC11302F00702002A41D023493B
:104FE000895C1A78012D0CBF0A438A431A70F0BD00
:104FF000F0BD002935DBB0F90A408C4231DD002AD2
:10500000BCBFD21813B2B0F90870B8BF0022D618CE
:10501000BE42C4BFA31A1BB2002B22DDC81002EB94
:10502000C012104801F007011044012202FA01F1F8
:105030009542C9B209D15A1E13B25C1C11D010F8A6
:10504000012B0A4300F8012CF5E7C943C9B25A1EE7
:1050500013B25A1C05D010F8012B0A4000F8012C9D
:10506000F5E7F0BDD8D80320D0D80320C8D8032056
:10507000F8B50D1E064614461F463FDB00F0B1FB97
:1050800085423BDA002C39DB304600F0ADFB844230
:1050900034DA304600F0A3FB022827D13189708929
:1050A00001390138491B001B0DB204B206E001288A
:1050B00004D13389013B1B1B2C461DB20820012F54
:1050C00094FBF0F000B20E4B04F0070205EBC011A8
:1050D00004D197405A5C17435F54F8BD585C0127D0
:1050E00007FA02F220EA02025A54F8BD0328DED180
:1050F0007389013B5B1B25461CB2DFE7F8BD00BF8F
:10510000D8D8032038B5402204460D46802100F04F
:1051100087FA064B2360FF23637784F82130E37717
:10512000A37784F82050204638BD00BFBCA30D00F3
:105130004FF480620021014805F015B8D8D803204B
:1051400038B590F91D30013304460D4628D090F94A
:105150002100012180B202F01AFD94F91F00002104
:1051600080B202F014FD94F92100002180B202F017
:105170000EFD94F822302BB1FFF76CF9294601F0AF
:105180009FFC05E02B460122A17F607F02F042FDDB
:1051900094F92100012180B2BDE8384002F0F7BC4B
:1051A00002F076FD94F91B1002F035F802F070FD64
:1051B000036800219B68984702F06AFD036829464E
:1051C0009B68984702F064FDBDE8384002F02AB8B9
:1051D00038B504460D46217790F91D30C27601336B
:1051E00037D090F91F00012180B202F0BFFC94F982
:1051F0002100012180B202F0B9FC94F822305BB9A1
:1052000094F91D00012180B202F0B0FC94F91E0057
:10521000012180B202F0AAFC94F82230EBB194F99B
:105220002100012180B202F0B2FCFFF713F9012145
:1052300001F045FBFFF70EF9102101F01DFCFFF70F
:1052400009F9002101F04CFBFFF704F901F026FBFE
:1052500003E002F01DFD01F0A3FF94F920000121FD
:1052600080B202F083FC94F92000012180B202F0A8
:105270008EFC012001F01CFD94F92000002180B279
:1052800002F085FC0A2001F013FD94F920000121B1
:1052900080B202F07CFC2046AE21FFF751FF204691
:1052A000D521FFF74DFF20468021FFF749FF20461B
:1052B000A821FFF745FF20463F21FFF741FF204689
:1052C000D321FFF73DFF20460021FFF739FF20469D
:1052D0004021FFF735FF8D212046FFF731FF012DDB
:1052E0000CBF102114212046FFF72AFF2046202161
:1052F000FFF726FF20460021FFF722FF2046A121CD
:10530000FFF71EFF2046C821FFF71AFF2046DA21CB
:10531000FFF716FF20461221FFF712FF81212046DA
:10532000FFF70EFF012D0CBF9F21CF212046FFF775
:1053300007FFD9212046FFF703FF012D0CBF2221D3
:10534000F1212046FFF7FCFE2046DB21FFF7F8FEA7
:1053500020464021FFF7F4FE2046A421FFF7F0FE8F
:105360002046A621FFF7ECFE2046AF21BDE83840DD
:10537000FFF7E6BE2DE9F04121210446FFF7E0FEEC
:1053800000212046FFF7DCFE7F212046FFF7D8FEF4
:1053900022212046FFF7D4FE00212046FFF7D0FE51
:1053A00007212046FFF7CCFE94F91D30DFF8BC80C2
:1053B000013335D094F92100012180B202F0E7FBDE
:1053C00094F91F00012180B202F0E1FB94F9210061
:1053D000002180B202F0DBFB012001F005F800257E
:1053E00094F8223018F805602BB1FFF733F83146F6
:1053F00001F066FB05E033460122A17F607F02F0E9
:1054000009FC0135B5F5806FEAD1012000F0ECFF11
:1054100094F92100012180B2BDE8F04102F0B7BB50
:10542000002502F035FC94F91B1001F0F4FE02F0A7
:105430002FFC036840219B689847002602F028FC57
:10544000AF190368BFB29B6818F807100136984778
:10545000102EF3D1103502F01BFCADB201F0E2FECC
:10546000B5F5806FDDD1BDE8F08100BFD8D803204D
:1054700000F00ABF2DE9F04F85B01E46BDF9383067
:10548000BDF83CA015469A1A002AB8BF52420092B5
:10549000721A002AB8BF524201920C46009A019932
:1054A0008A42814605DD32461E46134622462C4678
:1054B0001546B44205DD2A461D46134622463446AB
:1054C00016465A1B002AB8BF5242C4EB06089D423A
:1054D000B4BF01234FF0FF331FFA88F80293039201
:1054E0000FFA88F7022297FBF2F7B4421FDC019A09
:1054F000009B9342D9F80030C8BF2246D3F810B0C1
:10550000C8BF29465346DCBF2A4621464846D847ED
:10551000039BFF1ABBB21FB2002F05DA029A08EBF9
:10552000030715442DB23FB2013424B2DDE705B0C4
:10553000BDE8F08F2DE9F347BDF82C600768BDF991
:1055400028A000960446FF6991460D469846B84744
:10555000236800960AF1FF324A44DF692946434630
:10556000204612B2B847236800969F694A465346C0
:1055700029462046B84723680A9608F1FF31294496
:105580009D694A46534609B22046AC4602B0BDE882
:10559000F047604737B5013B13440468BDF8185025
:1055A00001951BB2009364690B46A04703B030BD60
:1055B00037B5BDF8185004688DE82400013B0B4452
:1055C00064691BB2A04703B030BD2DE9F347BDF9B4
:1055D0002880BDF82C90054617460C4601EB030ABF
:1055E00054450BDA2B68CDF800909E69214643465E
:1055F0003A4628460134B04724B2F1E702B0BDE88C
:10560000F08713B5B0F90E200468019100920022D2
:10561000B0F90C30646A1146A04702B010BD704763
:1056200030B501810024084D42818181C2814FF64D
:10563000FF71012244600560447604824482027650
:10564000C1828182827630BDF4A30D002DE9F04F36
:105650008FB005460691BDF860100791BDF8641043
:105660000891B0F90C1006989DF8688081427CDDA5
:10567000B5F90E10914278DD062111FB08000028D3
:1056800073DD02EBC80000286FDD03EB830396B2E5
:105690000C9306F108039BB2099100240D93052C8D
:1056A0001CBF334B0C9A059616BF1B194FF000090F
:1056B00013F8029004961FFA88F30393039ABDF837
:1056C000183004FB023213FA84F312B21BB20A92AE
:1056D00037460FFA88FA0B9319F0010F11D0B8F181
:1056E000010F2B6803D1D3F810B0079B14E0079A81
:1056F0000192CDF800A0D3F824B0BDF91020534694
:1057000018E0079B089A934217D0B8F1010F2B6855
:1057100007D1D3F810B013463AB20B992846D847B0
:105720000BE0089A0192CDF800A0BDF91420D3F83F
:1057300024B053460A992846D847049B039A134439
:105740009BB20493059B13449BB2013705930D9BB9
:10575000BFB29F424FEA5909BED1099B013B0134B8
:1057600013F0FF0364B2099399D10FB0BDE8F08F35
:1057700024A40D0030B50A2985B004460B4604D197
:10578000027E438A03EBC20323E00D2924D0057E69
:10579000B0F91220B0F910100295C58A0195858ADA
:1057A0000095FFF753FF227E238A91B201EB41005F
:1057B00003EB4003A07E1BB2238268B1B4F90C0056
:1057C0006FF0050505FB0202934205DD638A03EBDA
:1057D000C103638200232382012005B030BD407ED7
:1057E0007047B0F90C007047B0F90E00704700F038
:1057F0004BBD08B5D0F8D00003681B6B984700304C
:1058000018BF012008BDF8B506460F461446C4B1BE
:10581000D6F8D00003681B6B984708B90020F8BD84
:10582000D6F8D000FA2C03682546A8BFFA25DB6815
:105830002A463946984780B2241A8542A4B2E6D057
:10584000ECE70120F8BD2DE9F8430646884691466D
:105850001F461D460024D6F8D00003681B6B9847EE
:10586000D0B1002D18DBD6F8D00003681B6998472B
:1058700060B1D6F8D00003685B69984708F8040067
:105880000134A4B24C4507D03D46ECE70A3D0A205E
:105890002DB201F00DFADEE72046BDE8F88370B5C1
:1058A000044600F1220596220021284604F05BFC04
:1058B0006168284604F088FCD4F8D0002289036887
:1058C00029465E6A0023B047003018BF012070BD32
:1058D00010B50446D0F8D00003681B6B984720B180
:1058E000D4F8D0000368DB6A9847012010BD00F0AF
:1058F000CBBC000030B50361039B0D4D02814361B9
:105900000C4A056000234160C260C0F8BC30C0F89A
:10591000C030C0F8C430C0F8C830C0F8CC308361A3
:10592000C36180F8203080F82130A0F8B83030BD55
:105930004CA90D0075A90D0010B580E80600037292
:1059400010BD10B503710023416302604383C3613E
:10595000436203628362C362036310BD00F094BCC0
:1059600000F092BC00F090BC10B50446243000F06A
:105970008BF928B104F50C70BDE8104000F084B933
:1059800010BD00F081BC00F07FBC00F07DBC00F0D9
:105990007BBC8378016943F00403837000F110023B
:1059A000806800F027BA10B5044680680A462430A3
:1059B000A16900F090F920B1A38803F00F0300EB78
:1059C000431010BD2DE9F0410E46017807690446E9
:1059D000002939D04569B5423AD00EB9066131E0A7
:1059E0000B0703D5C3699E422ED807E0880605D56C
:1059F000A3681B89B6EB431F26D823E0D4F808E040
:105A00009EF806306A1E03F10900731EC240C340AF
:105A10009A4200D84DB94A064CBFDEF82020226ACF
:105A200022611D4604F110080AE09B1AF9E742467C
:105A30002169A06800F079F9002805F1FF3503DD40
:105A4000002DF4D1666103E027610020BDE8F081FC
:105A50000120BDE8F081000038B5037804460BB999
:105A6000012038BD83785A0723D50121FFF79BFF1A
:105A7000054628B9637843F001036370002038BD00
:105A80000378E52BF6D023781B0744BFE369C36195
:105A9000238C4383638C8382094B1B682BB100F1F9
:105AA0001601183098472B8B6B82A37823F00403E0
:105AB000A370A068FFF758FF0028DBD0D0E700BF35
:105AC000D0E303202DE9F0470378894619070446FF
:105AD000904608D583789A0705D51B070BD5E16951
:105AE000FFF770FF38B9637843F0010363704FF03C
:105AF000FF30BDE8F0876369DB439845F3D846463D
:105B00004FF0000A6369002E00F08180A06842799E
:105B100012EA5325C3F308071CD1DFB9216971B11B
:105B200004F1100200F001F90028DCDB40F08E8067
:105B30002046FFF72EFF002840F08880D3E7236A35
:105B40003BB92046FFF725FF0028CCD0236923620C
:105B500000E023612169A06800F0E1F8291817B975
:105B6000B6F5007F21D2C7F50075B54228BF35468E
:105B700037B96369E269934234BF0122052200E02C
:105B80000122A068243000F0A6F80028ABD03844E9
:105B90002A4649462F4404F0DBFAB7F5007F30D19E
:105BA000A068243000F070F817E0B6F5806FA068A8
:105BB00015D30279521B730AD2B2934228BF1346FF
:105BC000C26A91424FEA432502D31A44914237D325
:105BD000A7684A46386800F0C8FA90B983E7C36AF4
:105BE000994202BF4FF0FF3380F824A0C362A3683C
:105BF0004A46186800F047FA00283FF474AF4FF4A3
:105C0000007563692B446361A944761B7AE7E269F6
:105C1000934201D9E36102E00F4B1B681BB1A378EB
:105C200043F00403A37094F90230002B02DB4046DA
:105C3000BDE8F0872046FFF70FFF0028F7D152E7B5
:105C40004FF0FF3280F824A0C262C1E72169A0684A
:105C500000F065F8014683E7D0E3032000F014BBB1
:105C600070B505460C46084649B104F0B5FA2B68F4
:105C7000024621462846DB68BDE87040184770BDE3
:105C800000F002BB00F000BB70B50378DA070446F1
:105C90001ED54368816800F10C063246186800F092
:105CA000F2F9054608B9002513E023789B0704D4D0
:105CB000237823F0010323700BE06368A06819695F
:105CC00032460144186800F0DEF90028F0D1EAE716
:105CD0000125284670BD70B583688B4204460E4688
:105CE000154614D0FFF7D0FF08B9002070BD6B0730
:105CF00003D500232370A66009E0636804F10C0259
:105D00003146186800F079F90028F2D1EDE72378E0
:105D1000204605F003051D4300F80C5B70BD837938
:105D200040690239994008447047012970B5054619
:105D30000C46164602D84FF0FF3070BDC369994239
:105D4000F9D8C379202B10D18169022201EBD4113B
:105D500000F50C70FFF7BFFF0028ECD004F07F04C3
:105D600050F8243023F070430FE0102BE3D1836907
:105D7000C1F307210222194400F50C70FFF7ABFFB5
:105D80000028D8D0E4B230F81430EA6993429ABFC0
:105D900033600120002070BD012938B50C4615463E
:105DA00001D8002038BDC3699942FAD8C379202BA5
:105DB0000ED18169032201EBD41100F50C70FFF7BD
:105DC0008AFF0028EDD004F07F0440F824500FE053
:105DD000102BE6D18369C1F307210322194400F592
:105DE0000C70FFF778FF0028DBD0E4B220F81450E5
:105DF000012038BD2DE9F341C4688C4205460E46AA
:105E0000904607D20C460027EB6901349C4203D927
:105E1000CFB9EC680127F7E7A64214D001AA2146C2
:105E20002846FFF782FF00280DDBEDD0019B002BF9
:105E3000EAD107B1EC606FF0704221462846FFF7C7
:105E4000ABFF074608B900270BE016B9C8F80040B9
:105E500007E0224631462846FFF79EFF0028F5D18D
:105E6000F1E7384602B0BDE8F08100F00DBA00F06D
:105E70000BBA00F009BA000070B50E4C0E4615467C
:105E800000F0BAFA2368C01A0B4B984208D900F008
:105E9000BBFA0A4B186000F083FC00F0ADFA2060FA
:105EA00000F0B2FA80B2801BA842D4BF00200120CB
:105EB00070BD00BFD4E30320A086010030E70320BB
:105EC00038B5057A04464DB9406800F075F9636845
:105ED0002946187D01F05BFE0123237238BD10B501
:105EE000037A04466BB143680121187D01F04FFE2F
:105EF000FF21606800F082F9606800F061F900231A
:105F0000237210BDF8B504460D46164600F07CFA23
:105F100087B2606800F057F9FF28607209D14FF42A
:105F20007A7239462046FFF7A7FF0028F1D05523A3
:105F30000BE0FE2801D0502307E032462946606876
:105F400000F046F9607230B1602320462370FFF7FD
:105F5000C6FF0020F8BD606800F035F9606800F009
:105F600032F90120F8BD70B504460E4600F04CFA37
:105F700085B2324629462046FFF77EFF30B9606879
:105F800000F021F9FF28F4D1012070BD002070BD80
:105F9000F7B5037A019204460D460BB9FFF790FF5F
:105FA00025B14FF496712046FFF7DDFF45F0400123
:105FB000606800F023F90DF107060DF1030716F8EC
:105FC0000119606800F01AF9BE42F8D1002D0CBF2B
:105FD00095218721606800F011F9606800F0F3F8FE
:105FE0000B25606800F0EFF80306607203D5013DF1
:105FF00015F0FF05F5D103B0F0BD38B5837A032B5A
:1060000018BF490215460A4611210446FFF7C0FF92
:1060100010B1302323700BE029464FF40072204664
:10602000FFF770FF054618B12046FFF758FF03E061
:106030002046FFF754FF0025284638BD38B50446F2
:106040001546406800F0DAF84FF40072294660689F
:1060500000F0D8F8FF21606800F0D0F8FF216068F8
:1060600000F0CCF8606800F0AEF8607200F01F003D
:10607000052806D0572320462370FFF730FF002065
:1060800038BD012038BD70B5837A032B18BF490293
:1060900015460A4618210446FFF77AFF064608B15E
:1060A00032231DE02A46FE212046FFF7C7FFC0B17C
:1060B0004FF4FA612046FFF756FF054608B95A2308
:1060C0000EE032460D212046FFF762FF38B96068C6
:1060D00000F079F818B92046FFF701FF05E0292301
:1060E00023702046FFF7FBFE0025284670BD38B51B
:1060F0000D464FF4FA610446FFF735FF10B95B23F4
:10610000237005E02A46FC212046FFF797FF18B9C7
:106110002046FFF7E4FE002038BD10B5837A032B3C
:106120000A4618BF4A0219210446FFF731FF30B171
:10613000332320462370FFF7D2FE002010BD01203C
:1061400010BD38B54FF4FA610446FFF70CFF054661
:1061500020B1FD21606800F051F801E05623237062
:106160002046FFF7BCFE284638BDF8B50546164662
:106170001F46FFF7D2FF70B10024BC4206EB44215A
:10618000284604D0FFF7B3FF28B10134F5E7BDE896
:10619000F840FFF7D6BF2846FFF7A1FE0020F8BD64
:1061A00000F072B800F070B800F06EB8014B012238
:1061B0001A707047D8E30320011D006800F0BABBD5
:1061C000006800F09EBBFF21006800F079BC000071
:1061D00037B5084B00930025074C0068257013461F
:1061E0000A46294600F072FC2378002BFCD00020E0
:1061F00003B030BDAD610D00D8E30320006800F0AE
:106200005FBC000037B5074B00930025064C0068C3
:10621000257013462A4600F059FC2378002BFCD049
:1062200003B030BDAD610D00D8E3032000F02CB801
:106230000022016002614261704710B50446008887
:1062400001F0D1FC40F21233A0F10B029A4207D8C0
:10625000A0606060E06000F0D7F8A061012010BD90
:10626000002010BD00F010B808B5024B1B689B68F9
:10627000019308BD6802030008B5024B1B68DB6888
:10628000019308BD6802030008B5024B1B681B6838
:10629000019308BD2C02030008B5024B1B685B6824
:1062A000019308BD2C02030008B5024B1B689B68D4
:1062B000019308BD2C02030008B5024B1B68DB6884
:1062C000019308BD2C02030008B5024B1B681B6933
:1062D000019308BD2C02030008B5024B1B685B69E3
:1062E000019308BD2C02030008B5024B1B681B6B11
:1062F000019308BD2C02030008B5024B1B681B6804
:10630000019308BD3002030008B5024B1B689B686F
:10631000019308BD3002030008B5024B1B68DB681F
:10632000019308BD3002030008B5024B1B681B69CE
:10633000019308BD3002030008B5024B1B685B697E
:10634000019308BD3002030008B5024B1B68DB69EE
:10635000019308BD3002030008B5024B1B681B6A9D
:10636000019308BD3002030008B5024B1B685B6A4D
:10637000019308BD3002030008B5024B1B689B6AFD
:10638000019308BD3002030008B5024B1B689B6BEC
:10639000019308BD3002030008B5024B1B68DB6B9C
:1063A000019308BD3002030008B5024B1B681B6C4B
:1063B000019308BD3002030008B5024B1B685B6CFB
:1063C000019308BD3002030008B5024B1B685B69EE
:1063D000019308BD6C02030008B5024B1B685B68A3
:1063E000019308BD1802030008B5024B1B68DB6867
:1063F000019308BD1802030008B5024B1B681B6916
:10640000019308BD1802030008B5024B1B685B69C5
:10641000019308BD1802030008B5024B1B689B6876
:10642000019308BD4802030008B5024B1B681B69B5
:10643000019308BD4802030008B5024B1B685B6965
:10644000019308BD4802030008B5024B1B685B6C52
:10645000019308BD4802030008B5024B1B689B6C02
:10646000019308BD4802030008B5024B1B685B6935
:10647000019308BD6402030008B5024B1B681B6A48
:10648000019308BD6402030008B5024B1B689B6AB8
:10649000019308BD6402030008B5024B1B681B682A
:1064A000019308BD3C02030008B5024B1B68DB6882
:1064B000019308BD3C02030008B5024B1B681B6931
:1064C000019308BD3C02030008B5024B1B685B69E1
:1064D000019308BD3C02030008B5024B1B689B6991
:1064E000019308BD3C02030008B5024B1B68DB6941
:1064F000019308BD3C02030008B5024B1B681B6AF0
:10650000019308BD3C02030008B5024B1B689B6A5F
:10651000019308BD3C02030008B5024B1B68DB6811
:10652000019308BD2802030008B5024B1B689B6954
:10653000019308BD2802030008B5024B1B68DB6904
:10654000019308BD2802030008B5024B1B681B6AB3
:10655000019308BD2802030008B5024B1B685B6A63
:10656000019308BD2802030008B5024B1B689B6A13
:10657000019308BD2802030008B5024B1B68DB6AC3
:10658000019308BD2802030008B5024B1B681B6B72
:10659000019308BD2802030008B5024B1B685B6B22
:1065A000019308BD2802030008B5024B1B681B6C51
:1065B000019308BD2802030008B5024B1B681B6D40
:1065C000019308BD2802030008B5024B1B689B69B4
:1065D000019308BD3802030008B5024B1B68DB6954
:1065E000019308BD3802030008B5024B1B681B6A03
:1065F000019308BD3802030008B5024B1B689B6A73
:10660000019308BD3802030008B5024B1B681B6BE1
:10661000019308BD3802030008B5024B1B689B6B51
:10662000019308BD3802030008B5024B1B681B68C4
:10663000019308BD4C02030008B5024B1B685B6860
:10664000019308BD4C02030008B5024B1B681B698F
:10665000019308BD4C02030008B5024B1B685B693F
:10666000019308BD4C02030008B5024B1B689B69EF
:10667000019308BD4C02030008B5024B1B68DB699F
:10668000019308BD4C02030008B5024B1B681B6A4E
:10669000019308BD4C02030008B5024B1B685B6BFD
:1066A000019308BD6002030008B5024B1B681B6D17
:1066B000019308BD6002030008B5024B1B685B68CC
:1066C000019308BD2002030008B5024B1B685B69FB
:1066D000019308BD2002030008B5034B1B68D3F8E3
:1066E0008830019308BD00002002030008B5034B69
:1066F0001B68D3F89430019308BD0000200203000A
:1067000008B5024B1B685B68019308BD400203009B
:1067100008B5024B1B689B68019308BD400203004B
:1067200008B5024B1B68DB68019308BD40020300FB
:1067300008B5024B1B681B69019308BD40020300AA
:1067400008B5024B1B685B69019308BD400203005A
:1067500008B5024B1B689B69019308BD400203000A
:1067600008B5024B1B68DB69019308BD40020300BA
:1067700008B5024B1B681B6A019308BD4002030069
:1067800008B5024B1B681B6B019308BD4002030058
:1067900008B5024B1B685B6B019308BD4002030008
:1067A00008B5024B1B689B68019308BD44020300B7
:1067B00008B5024B1B68DB6B019308BD4402030064
:1067C00008B5024B1B681B68019308BD1C0203003F
:1067D00008B5024B1B685B68019308BD1C020300EF
:1067E00008B5024B1B685B6A019308BD1C020300DD
:1067F00008B5024B1B68DB6B019308BD1C0203004C
:10680000002211464068FFF7B3BF002211464068DE
:10681000FFF7BEBF00224068FFF7B2BF002281F041
:1068200001014068FFF79CBF00231A4619464068E3
:10683000FFF78EBF00231A4619464068FFF780BF56
:10684000002211464068FFF773BF002211464068DE
:10685000FFF75EBF002202214068FFF761BF0023FF
:106860001A464068FFF74CBF024B03225A60024AA7
:106870001A607047DCE3032064AB0D000021FFF7D2
:1068800093BD0021FFF798BD10B50446017008467E
:10689000FFF75AFD00236360204610BD10B5044683
:1068A0000078FFF7EBFF48B920784FF6FF71FFF74C
:1068B00023FD2078BDE81040FFF7E3BF10BD38B5D9
:1068C000044600780D46FFF7D9FF40B920782946E5
:1068D000FFF71AFD2078BDE83840FFF7D2BF38BD7A
:1068E00038B5044600780D46FFF7C8FF40B9207858
:1068F0002946FFF711FD2078BDE83840FFF7C1BFFA
:1069000038BD0078FFF7BDBF400830B518600024DF
:1069100018688842E5B206D90134082C02D0400834
:106920001860F5E70725024B5B5D137030BD00BFB3
:1069300090AB0D002DE9F04307468FB000780E466E
:10694000FFF79CFF002862DB3C781422002109A895
:1069500003F009FC0B232046002209A9ADF82430DE
:10696000FFF702FD9DF82D4054B19DF82C5035B92C
:10697000DDF830809DF834909DF8354003E0002428
:10698000A146A0460125337905B1BBB99D420BD183
:10699000B268424508D18DF820908DF82140BDF8AD
:1069A0002010B289914209D053B100243878019463
:1069B0000094234622460121FFF7EEFC002026E04A
:1069C0008DF80F30B1680A9804AB0DF10F02FFF794
:1069D0009BFF317905B1B1B9A94208D000243878BC
:1069E0000194747B337B9DF80F200094E4E7B36837
:1069F0004345F3D38DF820908DF82140BDF8202039
:106A0000B3899A42EAD1049B4345E7D1D6E70FB058
:106A1000BDE8F0832DE9F04188B0002304460078FA
:106A200002930E461746FFF729FF054600BB94F870
:106A300000800146142203A803F095FB0B232A468D
:106A400003A94046ADF80C30FFF78EFC02AB0DF108
:106A5000070207FB06F104988DF80750FFF754FF73
:106A600020789DF80710FFF75FFC2078FFF709FFFB
:106A7000029808B0BDE8F08138B5044600780D46AC
:106A8000FFF7FCFEC8B9616871B10C4BC25CAA4249
:106A900002D001300828F9D10130C0B2C140012232
:106AA0002046FFF7B7FF03E029462078FFF73CFCBC
:106AB0002078BDE83840FFF7E4BE38BD90AB0D004C
:106AC00008B50078FFF738FCC0B208BD30B587B014
:106AD00004460A9D00780095FFF74EFC3DB902A9D7
:106AE0002078FFF751FC9DF81430DB07F7D407B08E
:106AF00030BD0078FFF730BC10B50446006818B10F
:106B0000FFF766FE0023236010BD10B50446FFF7B3
:106B1000F3FF204610BD000010B5094C00204FF6D1
:106B2000FF732060A080A07120816381FFF7C4FD06
:106B30002046044A0449BDE8104001F0CFB800BF28
:106B4000E4E3032044DD03200B6B0D0010B5044685
:106B5000006808B1FFF780FC204610BD10B5064C58
:106B6000002320462360FFF76FFC2046034A0449B8
:106B7000BDE8104001F0B2B8F0E3032044DD03208B
:106B80004D6B0D00F8B506460D468F180024BD422A
:106B90000CD0336815F8011B9B68304698470028D5
:106BA00001DB0444F3E7002C08BF04462046F8BD8F
:106BB00008B5FFF755F808BD03689B68184738B556
:106BC0000D210546FFF7F8FF0A2104462846FFF786
:106BD000F3FF204438BD30B58BB00B4600218DF853
:106BE0002410012A98BF0A220DF12304B3FBF2F509
:106BF00005FB123303F0FF03092B94BF3033373307
:106C0000DBB2214604F801392B46002DEED1FFF707
:106C100027F80BB030BD0CB42DE9F04387B000AFBE
:106C200007F13804054654F8049B3C600E462346A1
:106C30004A461421381DFFF7D3FD132805D8391D06
:106C40002846FFF70DF8044613E000F1080323F08F
:106C50000703E846ADEB030D411C23464A46684650
:106C60003C60FFF7BDFD69462846FEF7F9FF044684
:106C7000C5461EB12846FFF7A2FF044420461C3734
:106C8000BD46BDE8F04302B070470000014B024A28
:106C90001A607047F4E303200BAC0D00024B1A6836
:106CA000024B1A60704700BFD8DC0320F8E30320D2
:106CB0000021FFF709BD10B58368044613B1032214
:106CC00001469847204610BD10B50446FFF7F3FF74
:106CD000204610BD0348044A04490023836000F0A5
:106CE000FDBF00BFFCE3032044DD0320C96C0D00A1
:106CF00008B50C4B33B100F06DF903681B69984778
:106D0000002809DC084B63B100F0E6F903681B6951
:106D10009847002803DC08BDAFF30080F2E7AFF32B
:106D2000008008BD000000000000000008B5FFF76B
:106D3000DFFFFFF769FB014B186008BD30E7032058
:106D40000248034A0349121A03F002BA00F403206E
:106D500004F4032068AF0D0007B5002300931A4622
:106D60006FF07701FFF7C2FC03B05DF804FB000091
:106D700007B543880A2B08D0502B09D1094B1B6853
:106D80003BB103B05DF804EB1847FFF7E5FF06E001
:106D9000002300931A466FF07701FFF7A7FC03B0BA
:106DA0005DF804FB0CE4032038B5104C104D23684B
:106DB000AB42104B0CBF012200221A7002D0FFF729
:106DC000BFFF2560FFF708FB044603F0D5F90A4B27
:106DD00013B12046AFF3008000210748FFF7E8FC1D
:106DE00000210648BDE83840FFF776BC00F40320D8
:106DF0001E1C279A10E4032000000000716D0D0096
:106E0000704710B51821044600F076FF204610BDEB
:106E1000F0B5037D062B8DB00E4600F104074FF050
:106E2000000402D000F1080518E00CAD394605F861
:106E3000304D2F232A460A20FFF716FB284603F081
:106E4000CBF933680246DB682946304698470FE0A5
:106E500024B12E213046FFF7AFFE044415F8011D82
:106E60000A223046FFF7B7FEBD420444F0D1204667
:106E70000DB0F0BD10B5054B0446112240F8043B9F
:106E8000002103F070F9204610BD00BF9CAC0D003E
:106E90000346074A10B543F8042B01F1100251F8DC
:106EA000044B43F8044B9142F9D10A781A7010BD93
:106EB0009CAC0D00037D042B01D1406808E0062B3B
:106EC0000AD1436853B9836843B9C36833B90069C9
:106ED000003018BF01207047002070470120704724
:106EE00010B59DF8084044EA032343EA024242EA0F
:106EF000016104234160037510BD37B50D788B78AF
:106F00004A78C97800912946FFF7EAFF03B030BDFF
:106F100041747047704708B50021007CFFF7A4FB5F
:106F200030EA200028BF4FF0FF3008BD08B501212E
:106F3000007CFFF799FB30EA200028BF4FF0FF30BC
:106F400008BD08B5007CFFF787FB20EAE07008BDAC
:106F500008B5007CFFF778FB20EAE07008BD007CF4
:106F6000FFF792BB10B51421044600F0C5FE204681
:106F700010BD38B50446007C0D46FFF76DFB0028B8
:106F800001DC607C28B12946207CFFF775FB20EAF4
:106F9000E07038BD10B50446002363604FF47A7387
:106FA000A360054B236001230846217463741146D6
:106FB000FFF73AFB204610BDB0AC0D000022007C6C
:106FC000FFF73ABB10B514220446002103F0CBF8BA
:106FD000204610BD30B50E4D87B001A8FFF7F2FF77
:106FE000296811F0010410D12846FDF767F860B157
:106FF00001AA21460748FFF7CDFF2846FDF763F8B1
:10700000054A0649034800F069FE024807B030BD52
:1070100014E4032018E4032044DD0320156F0D0061
:1070200070474174704708B5007CFFF76DFA20EA9D
:10703000E07008BD08B5007CFFF73EFA20EAE0707A
:1070400008BD08B5007CFFF747FA30EA200028BFEA
:107050004FF0FF3008BD08B5007CFFF735FA30EA85
:10706000200028BF4FF0FF3008BD007CFFF73CBA7E
:1070700010B51421044600F03FFE204610BD70B547
:10708000457C04460E4625B9007CFFF73DFA0028F2
:1070900005DD3146207CBDE87040FFF705BA284683
:1070A00070BD000010B5044608461146002262601B
:1070B0004FF47A72A260054A226001222074627441
:1070C0001A46FFF7E9F9204610BD00BFE0AC0D00FD
:1070D000007CFFF711BA000038B50C4D296811F09B
:1070E000010411D12846FCF7E9FF68B1084A094BB1
:1070F00009482146FFF7D6FF2846FCF7E4FF074A78
:107100000749054800F0EAFD034838BDC4E4032000
:10711000C8E4032040E403202CE4032044DD0320E2
:1071200021700D007047F8B5064615460C468F18BD
:10713000BC4206D0336814F8011B9B683046984760
:10714000F6E72846F8BD0022007CFFF7FDB90021D4
:10715000007CFFF701BA0021007CFFF705BA00218F
:10716000007CFFF709BA0021007CFFF70DBA10B5CB
:107170001421044600F0C0FD204610BD10B50446A1
:10718000002363604FF47A73A360044B21740846B4
:1071900023601146FFF708FA204610BD10AD0D0020
:1071A00000231A461946007CFFF7B6B970B50C46A5
:1071B00086B0142506462A46002101A802F0D3FF16
:1071C00023788DF8083063680393E3680493002202
:1071D000237A307CADF8045001A90593FFF7ECF950
:1071E00006B070BD1FB500338DF800104FF064017C
:1071F000039118BF0123694601928DF80830FFF70B
:10720000D5FF05B05DF804FB0123FFF7EBBF0022BB
:10721000007CFFF789B9C9B2FFF7F9BF0022007CF3
:10722000FFF78AB90121FFF7F9BF0021007CFFF7C2
:10723000B3B9002211464068FFF79ABA00221146FE
:107240004068FFF7A5BA00224068FFF799BA00220C
:1072500081F001014068FFF783BA00231A4601213B
:107260004068FFF775BA00231A4619464068FFF7D1
:1072700067BA002211464068FFF75ABA0022114649
:107280004068FFF745BA002202214068FFF748BA7C
:1072900000231A464068FFF733BA38B5054688B16F
:1072A00004684CB1A3681BB10322214620469847CD
:1072B0001021204600F020FD28461421BDE838406A
:1072C00000F01ABD38BD10B103685B6818477047FD
:1072D00010B503680446BBB15868FFF79DF878B94C
:1072E00023685A7C12B95868FFF79EF823685868DB
:1072F000FFF7A2F820680023236028B1FFF7CDFF35
:10730000206808B1FFF7C9FF204610BD38B5044614
:10731000D0F8C40108B1FCF7C4FED4F8C00108B12C
:10732000FFF79AF8D4F8BC5135B12846FFF7D0FFE3
:107330000421284600F0E0FC206808B1FFF7C3FFF5
:10734000204638BD10B5044B044640F8083BFFF713
:10735000DDFF204610BD00BF38AD0D0038B50E4C26
:107360000E4B23600025022304F5E4706360A560E2
:10737000C4F8C451C4F8C851FFF766F8084BC4F804
:10738000CC5184F8D05123602046064A0649BDE816
:10739000384000F0A3BC00BF4CE5032020AE0D0038
:1073A00038AD0D0044DD032045730D0037B502AC48
:1073B000036804F8011DDD6B01224FF0FF33214605
:1073C000A84703B030BD10B40368DC6B4FF0FF3347
:1073D000A4465DF8044B604737B502AC036804F877
:1073E000011DDD6B214613460122A84703B030BDC5
:1073F000704738B543691A68002A044605DAB3F8BD
:107400008620B3F884309A4201D001250BE003684E
:107410001B699847002814BF0125002503D1236864
:107420002046DB6A9847284638BD43691868C04340
:10743000C00F704770470020704710B514210446F4
:1074400000F05AFC204610BDFCF729BE7FB5164659
:1074500000224260029203925A1C04460D4608D054
:107460004FF47A72B3FBF2F1029102FB11314A43FD
:10747000039260690823009341F205026B4440F6D1
:10748000FF710068FFF7A0F8002808DB606900239F
:10749000324629460068FFF7B7F8002804DAFFF7FC
:1074A000A7F903686360002004B070BD10B50368DD
:1074B00004469B689847A368013BA3602BB92368E7
:1074C0002046DB68BDE81040184710BD70B5044683
:1074D0004D69054B44F8043B8C3506460FCD0FC46F
:1074E0002B682370304670BD9CAC0D0010B543690D
:1074F000B3F88620B3F884309A42044605D0626916
:10750000B2F884301344187910BD03681B6998479A
:107510000028F4D14FF0FF3010BD10B54369B3F827
:107520008620B3F884309A42044608D06269B2F8E3
:107530008430591C1344A2F88410187910BD0368D4
:107540001B6998470028F1D14FF0FF3010BDF8B506
:1075500043691746B3F88620B3F884309A4205464B
:107560000E4606D103681B69984710B94FF0FF34E7
:1075700014E06969B1F88430B1F88640E41ABC427D
:1075800028BF3C46194422460431304602F0E0FD53
:107590006A69B2F884302344A2F884302046F8BDEA
:1075A0002DE9F0439846036893B0DB6A0D46064622
:1075B0001746984712AB002443F8484D224621460F
:1075C0002846FEF759FE814600283DD1009B002B3E
:1075D00056D05B69002B53D006A8FFF74BFC009BED
:1075E0005C696378022B01D1211D13E00A2B14D1B1
:1075F0001122494601A802F0B6FDA36833BBE36837
:1076000023BB4FF6FF702569FEF736FF85421DD17B
:1076100004F1140106A8FFF770FC06A8FFF74AFC66
:1076200000282DD0336807ADD3F82090184B0C9369
:107630000FCD0DAC0FC42B6823703A4643460CA9FE
:107640003046C84781461BE0A14619E004F1080313
:1076500001AD1834186859682A4603C20833A3429A
:107660001546F7D1062301A90CA80DAD8DF81430ED
:10767000FFF70EFC0FCD07AC0FC42B682370CCE7CF
:107680000098FEF7F1FD484613B0BDE8F08300BF57
:107690009CAC0D0042690023A2F884304269A2F834
:1076A000863070472DE9F0411E4603680C468AB0CB
:1076B000DB6A054617469847237DD5F81480042BCE
:1076C0000CBF02200A2006220121FEF7A5FFC8F800
:1076D00000006B691B68002B18DB2846FFF7DAFFF8
:1076E000D6B1002303A9F0B20393ADF81030FEF732
:1076F0006BFE58B968690623009341F20B0203AB95
:1077000040F6FF710068FEF75FFF28B12B6828463E
:10771000DB6A002498473BE01C263246002103A880
:1077200002F021FD237D8DF80C60042B0CD1022387
:1077300038468DF80D30FEF7A7FEADF80E006068F4
:10774000FEF79AFE049013E00A2338468DF80D30B8
:10775000FEF79AFE05AEADF80E00231D04F11407E6
:1077600018685968324603C20833BB421646F7D13F
:107770006B691C2203A91868FEF736FF0028C5D1E3
:1077800004340FCC6D698C350FC523682B70012430
:1077900020460AB0BDE8F08110B543690446186878
:1077A000002801DBFEF718FF63694FF0FF321A6013
:1077B0006069112200218C3002F0D5FC2046BDE822
:1077C0001040FFF767BF000030B54269B2F886305D
:1077D0008BB004461BB1B2F884209A4240D0636952
:1077E000186800283FDBB3F886507F2D3BD8191D61
:1077F000C5F1800208232944FEF7FEFE00280CDDB7
:107800006369B3F886200AB9A3F884206269B2F8E4
:1078100086301844A2F8860025E0FEF7E9FF0368E9
:107820000B2B20D0FEF7E4FF03680B2B1BD020238B
:10783000002502930395FEF7DBFF036801930E4BCF
:10784000009302AA2B460D493220FEF72DFF6369F3
:107850001868FEF7C1FE63694FF0FF321A6002E05C
:10786000FFF718FFBBE76269B2F88630B2F8840010
:10787000181A0BB030BD00BFD3AD0D00CCAD0D005C
:1078800010B5002304460160A0F88430A0F88630CB
:107890008830FFF7EFFA204610BD00004FF47A72EF
:1078A00070B500238260144A4360026043618361C3
:1078B0000446A0200E46FCF7F0FB054610B1314609
:1078C000FFF7DEFF1420FCF7E8FB034628B1012296
:1078D00042608260094A02600561A0696561A36136
:1078E00028B14368013B43600BB9FFF7DFFD204639
:1078F000FFF7D0FE204670BD88AD0D006CAD0D00C9
:1079000010B54FF0FF310446FFF7C8FF204610BD09
:1079100010B504460068002801DBFEF75DFE204636
:1079200010BD10B504692046FFF7F2FF24B12046D0
:10793000BDE81040FCF7B3BB10BD00221146406803
:10794000FEF7F6BE002211464068FEF711BF002286
:1079500011464068FEF71CBF00224068FEF710BFCA
:10796000002281F001014068FEF7FABE00231A46AA
:1079700019464068FEF7ECBE00231A4619464068D7
:10798000FEF7DEBE002211464068FEF7C1BE0022AF
:1079900002214068FEF7C4BE00231A464068FEF785
:1079A000AFBE0000024B04225A60024A1A607047C0
:1079B00020E70320ECAD0D0000231A464068FEF7D7
:1079C0009FBE002202214068FEF7AABE0022114697
:1079D0004068FEF79DBE002211464068FEF7A8BE33
:1079E00000231A4619464068FEF7AABE00231A462D
:1079F00019464068FEF7ACBE002281F001014068E4
:107A0000FEF7AEBE00224068FEF7BABE0022114665
:107A10004068FEF7BDBE002211464068FEF7A8BED2
:107A20002DE9F043002495B016460D460746FFF7B2
:107A300021FA214620220CA8009402F094FB402356
:107A40000C9321466B460CAA3046FEF715FC044603
:107A5000002844D1024601216868FEF769FE022130
:107A6000804622466868FEF763FE009E81462146F6
:107A7000002E34D0002932D17368022B02D00A2B99
:107A800009D02AE0B8F1000F27D0716938460431D7
:107A9000FFF733FA20E0B9F1000F1ED0746911220C
:107AA00001A802F060FB06238DF8143001AD04F14B
:107AB00008031834186859682A4603C20833A342D9
:107AC0001546F7D101A906A807ADFFF7E1F90FCDDB
:107AD0003C1D0FC42B6823700121F669C8E700988C
:107AE000FEF7C2FB384615B0BDE8F083024B034AEF
:107AF0001A6000225A60704728E7032020AE0D006C
:107B000070B5184E316811F0010504460AD13046AF
:107B1000FCF7D4FA30B129461348FEF7B5FE3046DB
:107B2000FCF7D1FA1048FEF7E4FF28B1A4F10B03EB
:107B3000022B01D8002070BD00F0AAF8FFF775FBFA
:107B400008B1012CF6D9FFF7C7FAFFF7C1FA18B14F
:107B5000A4F10903012BEDD9232C8CBF00200120B7
:107B600070BD00BF48DD03204CDD0320232838B55D
:107B700004460D460AD8FF2908D0FFF7C1FF28B1F7
:107B800029462046BDE83840FEF78EBB38BD38B5E3
:107B900004460D46FEF790FBFF2810D0062804D8B7
:107BA0004D2323FA00F0C30709D42046FFF7A8FFAE
:107BB00028B129462046BDE83840FEF785BB38BDD0
:107BC00010B50446FEF778FB0438C0B2012808D986
:107BD0002046FFF795FF20B12046BDE81040FEF794
:107BE0007BBB002010BD0D2810B504469CBF0E3491
:107BF000A4B22046FFF784FF50B103212046FEF7D0
:107C00004BFB032804D12046BDE81040FEF76CBBB7
:107C1000002010BD2DE9F04190461E46072407467E
:107C20000D46B8F1000F04D1C4F1070146FA01F185
:107C300001E046FA04F101F001013846FFF7A7FF21
:107C400001212846FFF7A3FF00212846FFF79FFFE9
:107C500014F1FF34E5D2BDE8F081000070B50446B0
:107C600014252A46094E002102F07DFA25802025A0
:107C70003146A5602561284600F040F83146606035
:107C8000284600F03BF8E060204670BD4CAE0D0089
:107C900030B50E4D296811F0010487B013D1284684
:107CA000FCF70CFA78B101A8FFF7D8FF01AA21462A
:107CB0000748FFF763FA2846FCF705FA054A064924
:107CC000034800F00BF8024807B030BD34E703204A
:107CD00038E7032044DD032025710D000B460146E3
:107CE000184602F027BA0000024B1868BFF35F8FF6
:107CF000704700BF4CE70320FCF7D1B900F000B893
:107D000010B5002814BF044601242046FEF758FD94
:107D100020B9FFF7E9FF08B18047F6E710BD000082
:107D2000184B1A68D1075CBF01221A60164B1A68FB
:107D3000D2075CBF01221A60144B1A68D0075CBFDF
:107D400001221A60124B1A68D1075CBF01221A6027
:107D5000104B1A68D2075CBF01221A600E4B1A68DA
:107D6000D0075CBF01221A600C4B1A68D1075CBFB8
:107D700001221A600A4B1A68D2075CBF01221A60FE
:107D8000704700BF6CE7032068E7032064E7032027
:107D900060E703205CE7032058E7032054E7032053
:107DA00050E70320244B1A68D0075CBF01221A60F9
:107DB000224B1A68D1075CBF01221A60204B1A6857
:107DC000D2075CBF01221A601E4B1A68D0075CBF45
:107DD00001221A601C4B1A68D1075CBF01221A608D
:107DE0001A4B1A68D2075CBF01221A60184B1A6836
:107DF000D0075CBF01221A60164B1A68D1075CBF1E
:107E000001221A60144B1A68D2075CBF01221A6063
:107E1000124B1A68D0075CBF01221A60104B1A6817
:107E2000D1075CBF01221A600E4B1A68D2075CBFF3
:107E300001221A60704700BF9CE7032098E70320E7
:107E400094E7032090E703208CE7032088E70320D2
:107E500084E7032080E703207CE7032078E7032002
:107E600074E7032070E70320244B1A68D0075CBF37
:107E700001221A60224B1A68D1075CBF01221A60E6
:107E8000204B1A68D2075CBF01221A601E4B1A6889
:107E9000D0075CBF01221A601C4B1A68D1075CBF77
:107EA00001221A601A4B1A68D2075CBF01221A60BD
:107EB000184B1A68D0075CBF01221A60164B1A686B
:107EC000D1075CBF01221A60144B1A68D2075CBF4D
:107ED00001221A60124B1A68D0075CBF01221A6097
:107EE000104B1A68D1075CBF01221A600E4B1A684A
:107EF000D2075CBF01221A60704700BFCCE70320A5
:107F0000C8E70320C4E70320C0E70320BCE7032041
:107F1000B8E70320B4E70320B0E70320ACE7032071
:107F2000A8E70320A4E70320A0E70320184B1A6862
:107F3000D1075CBF01221A60164B1A68D2075CBFDA
:107F400001221A60144B1A68D0075CBF01221A6024
:107F5000124B1A68D1075CBF01221A60104B1A68D5
:107F6000D2075CBF01221A600E4B1A68D0075CBFB3
:107F700001221A600C4B1A68D1075CBF01221A60FB
:107F80000A4B1A68D2075CBF01221A60704700BF13
:107F9000ECE70320E8E70320E4E70320E0E7032021
:107FA000DCE70320D8E70320D4E70320D0E7032051
:107FB0002DE9F04F2DED028BDFF824A38BB057ECA9
:107FC000106B55EC114B00F08FF99AF90080B0EE70
:107FD000408AF0EE608AB8F1FF3F48D022462B4637
:107FE0002046294601F06EFD834600283FD13246E7
:107FF0003B463046394601F065FD8146002840F099
:108000009080304639460022002301F029FD0028E7
:1080100036D0002200232046294601F021FD834668
:10802000B8B19FEDA57B0122A94BCDF8209000921D
:10803000CDE90267CDE904458DED067B0193B8F1EA
:10804000000F5BD09FED9E0B0BB0BDEC028BBDE82B
:10805000F08F45EC104B00F0A7FF40B10022002349
:108060002046294601F006FD002840F0C580B0EE0C
:10807000480AF0EE680A0BB0BDEC028BBDE8F08F49
:10808000B0EE480AF0EE680A00F08EFF8046002845
:1080900061D04FF000084FF0000951EC180B424638
:1080A0004B4601F0DDFC0028E1D047EC106B00F0FE
:1080B0007BFF0028DBD045EC104B00F075FF00285B
:1080C000D5D09AF90030824A019204210022022B75
:1080D000CDE90267CDE90445CDE906890091089212
:1080E00003D0684600F068FF70B9FEF781FB2223D9
:1080F000036009E09FED707B8DED067B684600F024
:108100005BFF002800F08E80089B1BB1FEF770FB20
:10811000089B03609DED060B0BB0BDEC028BBDE828
:10812000F08F002200232046294601F099FC002808
:108130009DD09FED630B664BCDF820B00122B8F1C6
:10814000020FCDE90267CDE904458DED060B8DE800
:108150000C00D3D18FE747EC106B00F025FF00280F
:1081600097D045EC104B00F01FFF002891D053EC46
:10817000182B18EE100A194601F0A4FC00287CD137
:1081800003239AF900800093514B0890CDE90267D0
:10819000CDE904450193B8F1000F48D1DFF84491CF
:1081A0004FF060480022002330463946CDE9068969
:1081B00001F060FC002894D00022464B204629465E
:1081C00001F0E6F904460D4645EC104B00F000FFC7
:1081D000204653EC102B294601F042FC002849D1DF
:1081E0003D4B9AF900804FF06042CDE90623B8F18B
:1081F000020F7FF476AF78E7354A9AF90030CDF870
:1082000020B00121CDE90267CDE904458DE80600E3
:10821000002B3FF46FAF31490020022BCDE906015E
:108220007FF46CAFFEF7E4FA212303606CE79FED67
:10823000267B00220023304639468DED067B01F077
:1082400019FC0028D3D00022224B2046294601F0F9
:108250009FF904460D4645EC104B00F0B9FE204650
:1082600053EC102B294601F0FBFB18B91B4B0022E5
:10827000CDE906239AF90080B9E7154B9AF90090E9
:10828000CDF820800122CDE90267CDE904458DE8D3
:108290000C00B9F1000F3FF42DAF0022002310466F
:1082A000194601F09FFAB9F1020FCDE90601B9D0E4
:1082B00024E700BFAFF300800000000000000000D2
:1082C000000000000000F03F000000000000F07F10
:1082D00050AE0D000000E03FFFFFEFC70000F0FFD1
:1082E000DCDC0320FFFFEF472DE9F04F51EC110BD1
:1082F00021F0004858EA000493B03CD053EC102B16
:108300006D4E23F00044B44210EE10AA1D462BDC43
:10831000894611EE10EA26D0B04525DC664EB04500
:1083200077D0002D16461F46CDE9000175DB4FF0D2
:10833000000BBEF1000F2DD15F4B984500F08980F6
:108340005E4B98455ED0B9F1804F00F0DE835C4B08
:1083500099451FD1002D1DDB47EC106B13B0BDE814
:10836000F04F00F049BD5AB104F1404404F58014C7
:1083700054EA0A0306D19FED4A0B13B0BDE8F08F13
:10838000A045CBDD4F4813B0BDE8F04F00F018BE5C
:108390004FF0000B47EC106B00F0FEFD51EC100BA2
:1083A000BAF1000F1ED0ED0F05F1FF3A5BEA0A03A8
:1083B00063D0454B984540F38D8003F10473984595
:1083C00040F33884414B9C4262DDB9F1000F62DD1D
:1083D00035A3D3E900231046194601F0D9F841EC42
:1083E000100BCAE724B1354B25F040429A42DAD14E
:1083F000B9F1000FC0F2CB83002DC0F2748341ECC1
:10840000100BBAE7B9F1000FC0F27A8447EC106B99
:10841000B3E7BEF1000F84D0A6E72D4B984529DCC9
:10842000A3F15473984582DD4FEA2853A3F2FF333A
:10843000142B40F37F84C3F134032EFA03F202FAC3
:1084400003F39E457FF473AF02F00102C2F1020B09
:108450006FE704F1404303F5801353EA0A038AD01F
:108460001A4B9C4240F38583B9F1000F13DB9DED5D
:10847000000B82E74FF0020B5BE732463B461046AB
:10848000194600F0D1FE02460B4601F0ABF9B6E703
:10849000B9F1000F9CDB9FED060B6EE7AFF3008098
:1084A000000000000000F03F9C7500883CE4377E2F
:1084B00000000000000000000000F07F0000F03F1E
:1084C0000000E03F54AE0D000000E041FFFFEF3F31
:1084D000FFFF3F43B4F5801F4FF0000205DAD64B93
:1084E00001F056F86FF034020C462315D34EC4F356
:1084F0001304A3F2FF33134444F07F55B4421A46E9
:108500000D9345F4401540F34983CD4B9C4240F315
:108510002D849FEDB37B8DED087B8DED0E7B9FED64
:10852000B27B13468DED067B01330D93A5F58015C7
:108530004FF00008DDE906232946CDE90A0100F0E5
:1085400073FEDDE9062306460F46DDE90A0100F069
:108550006DFE02460B460020BA4901F043F903467E
:108560000C46CDE9103402460B463046394601F040
:108570000FF86B1043F0005303F5002303EB0805DD
:108580000A4600230146CDE902120293DDE9028981
:108590000024CDE904122B4622464046494600F00D
:1085A000F7FF02460B463046394600F03DFEDDE956
:1085B000062306460F462046294600F035FE0246B1
:1085C0000B46DDE90A0100F02FFE42464B4600F063
:1085D000DFFF02460B463046394600F025FEDDE956
:1085E000102300F0D5FFDDE90445CDE90601224660
:1085F0002B462046294600F0CBFF7DA3D3E900237C
:1086000004460D4600F0C4FF7BA3D3E9002300F02D
:108610000DFE22462B4600F0BBFF79A3D3E90023D1
:1086200000F004FE22462B4600F0B2FF76A3D3E909
:10863000002300F0FBFD22462B4600F0A9FF74A3A7
:10864000D3E9002300F0F2FD22462B4600F0A0FF04
:1086500071A3D3E9002300F0E9FD224606460F4648
:108660002B462046294600F093FF02460B46304633
:10867000394600F08DFF424604460D464B46DDE983
:10868000040100F0D3FDDDE9062300F081FF22465E
:108690002B4600F0CBFD424606460F464B46404671
:1086A000494600F075FF0022674BCDE90A0100F052
:1086B000BDFD32463B4600F0B9FD02980D4604462A
:1086C00022462B464046494600F062FF0022804683
:1086D00089465D4B2046294600F0A6FDDDE90A23C8
:1086E00000F0A2FD02460B463046394600F09CFDE4
:1086F000DDE9042300F04CFF224606460F462B46D8
:10870000DDE9060100F044FF02460B4630463946DB
:1087100000F08CFD06460F4602460B464046494691
:10872000CDE9048900F082FD02983DA3D3E900233E
:1087300004460D4600F02CFFDDE9042380468946FF
:108740002046294600F070FD02460B463046394669
:1087500000F06AFD34A3D3E9002300F019FF34A32D
:10876000D3E9002306460F462046294600F010FFB5
:1087700002460B463046394600F058FDDDE90E232F
:1087800000F054FD06460D980F4600F09BFE324661
:1087900004460D463B464046494600F047FDDDE9AC
:1087A000082300F043FD22462B4600F03FFD0298CF
:1087B00022462B46CDE9020100F036FDDDE9082313
:1087C00000F032FD42464B4600F02EFD02460B46BD
:1087D0003046394600F028FD8046894636E000BF25
:1087E0000000000000000000000000000000F03F5A
:1087F000EF4E454A287ECA3F65DBC9934A86CD3F86
:1088000001411DA96074D13F4D268F515555D53F6B
:10881000FFAB6FDBB66DDB3F033333333333E33F03
:10882000000000E009C7EE3FFD033ADC09C7EE3F58
:10883000F5015B14E02F3EBE000040438E9803001C
:1088400079B60B000000F03F000008400BF1FF3349
:1088500053EA0A0300F088819FEDD77B8DED067BFC
:10886000DDE900AB53465C46CDE9003400230093BC
:10887000DDE90045504622462B46594600F0D4FC1F
:10888000DDE9022300F084FE524606460F465B46B1
:108890004046494600F07CFE02460B4630463946CB
:1088A00000F0C4FC2246804689462B46DDE90201E1
:1088B000CDE9048900F06CFE0B46024606460F46E1
:1088C0004046494600F0B2FCD54B994204460D465D
:1088D0008A4640F3238101F13F4303F5E00303435C
:1088E00040F01882B6A3D3E90023DDE9040100F0CB
:1088F0009DFC3246804689463B462046294600F08C
:1089000093FC02460B464046494601F0D1F8002848
:1089100040F00082A8464FEA28534FF48012A3F299
:10892000FE3342FA03F35344C3F30A52BD4DA2F29D
:10893000FF321541C3F3130B0020C2F1140423EAE4
:1089400005014BF4801BBAF1000F02460B464BFAAF
:1089500004FB30463946B8BFCBF1000B00F064FC95
:1089600002460B4606460F46DDE9040100F05EFCB8
:108970004FEA0B5A002494A3D3E9002320460D4666
:1089800000F006FE3246804689463B462046294690
:1089900000F04AFC02460B46DDE9040100F044FC0D
:1089A0008BA3D3E9002300F0F3FD8BA3D3E90023CD
:1089B00006460F462046294600F0EAFD02460B46D1
:1089C0003046394600F032FC06460F4602460B465A
:1089D0004046494600F02AFC42464B4604460D46B6
:1089E00000F022FC02460B463046394600F01CFCE3
:1089F0002246804689462B462046294600F0C8FD7F
:108A000077A3D3E9002306460F4600F0C1FD76A305
:108A1000D3E9002300F008FC32463B4600F0B8FDE5
:108A200073A3D3E9002300F001FC32463B4600F07B
:108A3000AFFD71A3D3E9002300F0F6FB32463B46BD
:108A400000F0A6FD6EA3D3E9002300F0EFFB324651
:108A50003B4600F09DFD02460B462046294600F0AD
:108A6000E3FB06460F4602460B462046294600F029
:108A70008FFD0022CDE900014FF08043304639469A
:108A800000F0D2FB02460B46DDE9000100F0AAFE31
:108A9000424606460F464B462046294600F078FDE2
:108AA00042464B4600F0C2FB02460B463046394672
:108AB00000F0BAFB22462B4600F0B6FB02460B46FE
:108AC0000020594900F0B0FB8A44BAF5801F0246E5
:108AD0000B46C0F25B815146DDE9062300F058FDEC
:108AE00041EC100B49E404F1404404F5801454EACD
:108AF0000B0300F03781BBF1010F7FF480AC02461D
:108B000001F1004343EC102B37E432463B4630463C
:108B1000394600F03DFD41EC100B2EE4434B21F0B3
:108B20000048984540F31581414B0B4403430CD159
:108B300032463B4600F078FB02460B46DDE9040175
:108B400000F0A2FF00283FF4E6AE2FA3D3E90023F4
:108B5000DDE9060100F01CFD2BA3D3E9002300F0A2
:108B600017FD41EC100B08E49FED297B8DED067B92
:108B700076E6B9F1000FBFF68EACDDE9003400EE09
:108B8000103A04F1004300EE903AFFF7F6BB0246BC
:108B90000B460020244900F025FE2DE49FED1E7BAE
:108BA0008DED087B8DED0E7B9FED037B4FF0000874
:108BB0008DED067BBEE400BF000000000000F03F2A
:108BC000FE822B654715973C00000000432EE63FD0
:108BD000EF39FAFE422EE63F396CA80C615C20BEEC
:108BE000D0A4BE726937663EF16BD2C541BDBB3EB3
:108BF0002CDE25AF6A56113F93BDBE166CC1663F91
:108C00003E5555555555C53F59F3F8C21F6EA50140
:108C1000000000000000F0BF0000000000000000A5
:108C2000FFFF8F40FFFF0F000000F03FFFCB9040A1
:108C300000346F3F6C4B9C427FF72AAC6B4B9C42DD
:108C40003FF7C3AB0022694B00F0EEFA56A3D3E91D
:108C5000002304460D4600F09BFC55A3D3E90023F6
:108C6000804689462046294600F092FC0022CDE944
:108C700002015F4B2046294600F08AFC02460B4663
:108C80004DA1D1E9000100F0CFFA22462B4600F0B9
:108C90007FFC02460B460020564900F0C5FA2246EA
:108CA0002B4606460F462046294600F071FC024638
:108CB0000B463046394600F06BFC41A3D3E9002354
:108CC00000F066FC02460B46DDE9020100F0ACFA5A
:108CD00002460B4604460D464046494600F0A6FAB9
:108CE00042464B460020CDE9020100F09DFA0246C3
:108CF0000B462046294600F097FA80468946A5E5AE
:108D000032463B460020394900F06CFD41EC100B27
:108D1000FFF733BB2CA3D3E90023DDE9060100F004
:108D200037FC29A3D3E9002300F032FC41EC100BFF
:108D3000FFF723BBBEF1000F7FF42AABC3F114038E
:108D400048FA03F202FA03F3984527D0F346FFF7F7
:108D5000F7BA284B98453FF7DEADDDE900349A4677
:108D60009B4607E602460B46FFF789BB9FED187B43
:108D70008DED087B9FED187B8DED0E7B9FED187BB5
:108D80004FF480288DED067BFFF7D4BB584643ECAB
:108D9000102B00F0B1F951EC100B9DE602F001022E
:108DA000C2F1020BFFF7CCBA000000604715F73F95
:108DB00044DF5DF80BAE543E555555555555D53FDE
:108DC000FE822B654715F73F9C7500883CE4377E93
:108DD0000000004003B8E23F06D0CF43EBFD4C3E1D
:108DE000000000000000F83FFEFFEF3F0000F03FF2
:108DF0000000D03F0000E03F2DE9F041654955EC0F
:108E0000104B0E462940B14200F09780002D2B46B2
:108E100010EE102A74DD2F157FD0A7F2FF37C3F3B1
:108E20001303F90743F4801365D403EBD2710026D2
:108E30000B447F105200B64616204FF400110EEB83
:108E400001049C424FEAD2754FEA420203DC1B1B2D
:108E500004EB010E0E44013805EB43034FEA5101C8
:108E6000EDD1844620244FF0004109E020D003EBEF
:108E7000D275013C4FEA51012B444FEA420220D007
:108E80009E4501EB0C05F1DA002D05EB010C09DB29
:108E9000F0469542CEEB030300D9013B521B084438
:108EA000C646E4E7BCF1000FF2DB0EF10108F0E783
:108EB00095421ED8002D05EB010C50DB984600238F
:108EC000ECE7134304D0421C4DD000F001031844DA
:108ED00040087110F30701F17F5101F5001148BFFF
:108EE00040F0004001EB0753024643EC102BBDE875
:108EF000F0817346BBE75B0003EBD273520094E74B
:108F000025F00041214328D0ADBB2F46D30A153FA1
:108F10005205002BFAD0DD0228D4002100E00146E2
:108F20005B00DC0201F10100F9D5C0F1200422FA56
:108F300004F423437F1A82406FE710EE102A2B4679
:108F400010EE100A294600F023FB22462B4600F0C3
:108F50006DF941EC100BBDE8F081BDE8F081BCF18A
:108F6000000FA2DAAAE701362046B2E720244FF02C
:108F7000FF310020DBE710EE102A2B462046294661
:108F800000F052F902460B4600F02CFC41EC100BAD
:108F9000BDE8F0810000F07F53EC102B23F000437C
:108FA00043EC102B704700BF10EE903A43F00040A6
:108FB00000F58010C00F70470020704700000000CF
:108FC0009FED010B704700BF000000000000F87F1C
:108FD000F0B553EC102BC3F30A56A6F2FF3013285A
:108FE00083B019464FEAD37410EE105A2FDC0028D4
:108FF00049DB3F4E064103EA060717432CD07608AB
:1090000033401D430CD04FF48023132821EA060679
:1090100043FA00F141EA06010CBF4FF0004500257C
:10902000344800EBC4042A46D4E9004510462B46D8
:10903000224600F0FBF8CDE9000122462B46DDE98F
:10904000000100F0F1F841EC100B03B0F0BD332843
:1090500006DDB0F5806F42D043EC102B03B0F0BDBD
:10906000A6F213464FF0FF30F0400242F4D0400821
:109070000242D5D04FF0804325EA000043FA06F6BD
:1090800046EA0005CCE723F00040104310EE107ACA
:10909000E2D0C3F313000743784207431548590C45
:1090A0003F0B490407F4002700EBC40047EA010323
:1090B000D0E90067194610463B46324600F0B6F844
:1090C000CDE900013B463246DDE9000100F0ACF895
:1090D00021F0004343EAC47141EC100BBEE710EEEF
:1090E000100A194600F0A2F841EC100BB6E700BFD9
:1090F000FFFF0F0058AE0D0053EC102B70B5C3F3FB
:109100000A541946054614BB23F0004111432AD0E6
:1091100019460022384B394E10EE100A00F038FA8A
:10912000B54202460B461FDBC1F30A54363C2C44C1
:1091300040F2FE7084421FDC002C2DDD21F0FF4147
:1091400021F4E00141EA045343EC102B70BD40F2DE
:10915000FF708442EBD110EE100A194600F066F859
:1091600041EC100B70BD70BD1FA3D3E9002300F0CC
:109170000FFA41EC100B70BD43EC112B9FED1C0B53
:1091800000F040F81AA3D3E9002351EC100B00F0D3
:10919000FFF941EC100B70BD14F1350F13DA4CF2EE
:1091A00050318D4243EC112BE8DC9FED0F0B00F0AA
:1091B00029F80DA3D3E9002351EC100B00F0E8F9D6
:1091C00041EC100B70BD21F0FF4121F4E001363479
:1091D00041EA0453104619460022094B00F0D8F921
:1091E00041EC100B70BD00BF59F3F8C21F6EA50112
:1091F0009C7500883CE4377E00005043B03CFFFF84
:109200000000903C53EC102B11EE900A23F000412B
:1092100000F0004041EA000343EC102B704700BF10
:1092200081F0004102E000BF83F0004330B54FEA17
:1092300041044FEA430594EA050F08BF90EA020F84
:109240001FBF54EA000C55EA020C7FEA645C7FEA17
:10925000655C00F0E2804FEA5454D4EB5555B8BF3A
:109260006D420CDD2C4480EA020281EA030382EAAB
:10927000000083EA010180EA020281EA0303362D3D
:1092800088BF30BD11F0004F4FEA01314FF4801C10
:109290004CEA113102D0404261EB410113F0004F22
:1092A0004FEA03334CEA133302D0524263EB4303D9
:1092B00094EA050F00F0A780A4F10104D5F1200E77
:1092C0000DDB02FA0EFC22FA05F2801841F10001D2
:1092D00003FA0EF2801843FA05F359410EE0A5F1A6
:1092E00020050EF1200E012A03FA0EFC28BF4CF0D7
:1092F000020C43FA05F3C01851EBE37101F000458D
:1093000007D54FF0000EDCF1000C7EEB00006EEB99
:109310000101B1F5801F1BD3B1F5001F0CD3490823
:109320005FEA30004FEA3C0C04F101044FEA44527A
:1093300012F5800F80F09A80BCF1004F08BF5FEA01
:10934000500C50F1000041EB045141EA050130BDE1
:109350005FEA4C0C404141EB010111F4801FA4F184
:109360000104E9D191F0000F04BF01460020B1FAD9
:1093700081F308BF2033A3F10B03B3F120020CDA11
:109380000C3208DD02F1140CC2F10C0201FA0CF0EF
:1093900021FA02F10CE002F11402D8BFC2F1200C54
:1093A00001FA02F120FA0CFCDCBF41EA0C0190400A
:1093B000E41AA2BF01EB0451294330BD6FEA040453
:1093C0001F3C1CDA0C340EDC04F11404C4F120023E
:1093D00020FA04F001FA02F340EA030021FA04F350
:1093E00045EA030130BDC4F10C04C4F1200220FAA7
:1093F00002F001FA04F340EA0300294630BD21FAE5
:1094000004F0294630BD94F0000F83F4801306BFAA
:1094100081F480110134013D4EE77FEA645C18BF9E
:109420007FEA655C29D094EA050F08BF90EA020F35
:1094300005D054EA000C04BF1946104630BD91EA2D
:10944000030F1EBF0021002030BD5FEA545C05D130
:109450004000494128BF41F0004130BD14F580046F
:109460003CBF01F5801130BD01F0004545F0FE41E3
:1094700041F470014FF0000030BD7FEA645C1ABF18
:10948000194610467FEA655C1CBF0B46024650EA4F
:10949000013406BF52EA033591EA030F41F400217B
:1094A00030BD00BF90F0000F04BF0021704730B501
:1094B0004FF4806404F132044FF000054FF00001D6
:1094C00050E700BF90F0000F04BF0021704730B597
:1094D0004FF4806404F1320410F0004548BF40426C
:1094E0004FF000013EE700BF42004FEAE2014FEAC1
:1094F00031014FEA02701FBF12F07F4393F07F4F9C
:1095000081F06051704792F0000F14BF93F07F4FCD
:10951000704730B54FF4607401F0004521F0004110
:1095200020E700BF50EA010208BF704730B54FF096
:1095300000050AE050EA010208BF704730B511F09B
:10954000004502D5404261EB41014FF4806404F1D3
:1095500032045FEA915C3FF4DCAE4FF003025FEA55
:10956000DC0C18BF03325FEADC0C18BF033202EBDD
:10957000DC02C2F1200300FA03FC20FA02F001FA37
:1095800003FE40EA0E0021FA02F11444C1E600BFD6
:1095900070B54FF0FF0C4CF4E06C1CEA11541DBF89
:1095A0001CEA135594EA0C0F95EA0C0F00F0DEF854
:1095B0002C4481EA030621EA4C5123EA4C5350EA39
:1095C000013518BF52EA033541F4801143F480138A
:1095D00038D0A0FB02CE4FF00005E1FB02E506F01B
:1095E0000042E0FB03E54FF00006E1FB03569CF070
:1095F000000F18BF4EF0010EA4F1FF04B6F5007F76
:1096000064F5407404D25FEA4E0E6D4146EB0606E7
:1096100042EAC62141EA55514FEAC52040EA5E5070
:109620004FEACE2EB4F1FD0C88BFBCF5E06F1ED81A
:10963000BEF1004F08BF5FEA500E50F1000041EB51
:10964000045170BD06F0004646EA010140EA0200FE
:1096500081EA0301B4EB5C04C2BFD4EB0C0541EA20
:10966000045170BD41F480114FF0000E013C00F335
:10967000AB8014F1360FDEBF002001F0004170BD59
:10968000C4F10004203C35DA0C341BDC04F1140472
:10969000C4F1200500FA05F320FA04F001FA05F2FE
:1096A00040EA020001F0004221F0004110EBD370CB
:1096B00021FA04F642EB06015EEA430E08BF20EAF7
:1096C000D37070BDC4F10C04C4F1200500FA04F39A
:1096D00020FA05F001FA04F240EA020001F000412C
:1096E00010EBD37041F100015EEA430E08BF20EA9F
:1096F000D37070BDC4F1200500FA05F24EEA020EE7
:1097000020FA04F301FA05F243EA020321FA04F015
:1097100001F0004121FA04F220EA020000EBD370CC
:109720005EEA430E08BF20EAD37070BD94F0000FCC
:109730000FD101F00046400041EB010111F4801F00
:1097400008BF013CF7D041EA060195F0000F18BFB1
:10975000704703F00046520043EB030313F4801FED
:1097600008BF013DF7D043EA0603704794EA0C0FA7
:109770000CEA135518BF95EA0C0F0CD050EA4106BD
:1097800018BF52EA4306D1D181EA030101F000413A
:109790004FF0000070BD50EA410606BF1046194662
:1097A00052EA430619D094EA0C0F02D150EA01366E
:1097B00013D195EA0C0F05D152EA03361CBF1046AF
:1097C00019460AD181EA030101F0004141F0FE414E
:1097D00041F470014FF0000070BD41F0FE4141F4D2
:1097E000780170BD70B54FF0FF0C4CF4E06C1CEAD2
:1097F00011541DBF1CEA135594EA0C0F95EA0C0F87
:1098000000F0A7F8A4EB050481EA030E52EA033541
:109810004FEA013100F088804FEA03334FF0805562
:1098200045EA131343EA12634FEA022245EA11158F
:1098300045EA10654FEA00260EF000419D4208BF40
:10984000964244F1FD0404F5407402D25B084FEAED
:109850003202B61A65EB03055B084FEA32024FF499
:1098600080104FF4002CB6EB020E75EB030E22BFF6
:10987000B61A754640EA0C005B084FEA3202B6EBB6
:10988000020E75EB030E22BFB61A754640EA5C0065
:109890005B084FEA3202B6EB020E75EB030E22BFF5
:1098A000B61A754640EA9C005B084FEA3202B6EBF6
:1098B000020E75EB030E22BFB61A754640EADC00B5
:1098C00055EA060E18D04FEA051545EA16754FEA17
:1098D00006164FEAC30343EA52734FEAC2025FEA35
:1098E0001C1CC0D111F4801F0BD141EA00014FF0C4
:1098F00000004FF0004CB6E711F4801F04BF014395
:109900000020B4F1FD0C88BFBCF5E06F3FF6AFAEB0
:10991000B5EB030C04BFB6EB020C5FEA500C50F140
:10992000000041EB045170BD0EF0004E4EEA1131C3
:1099300014EB5C04C2BFD4EB0C0541EA045170BDCA
:1099400041F480114FF0000E013C90E645EA060E0E
:109950008DE60CEA135594EA0C0F08BF95EA0C0F3C
:109960003FF43BAF94EA0C0F0AD150EA01347FF484
:1099700034AF95EA0C0F7FF425AF104619462CE75B
:1099800095EA0C0F06D152EA03353FF4FDAE1046BE
:10999000194622E750EA410618BF52EA43067FF40F
:1099A000C5AE50EA41047FF40DAF52EA43057FF49F
:1099B000EBAE12E74FF0FF3C06E000BF4FF0010CAA
:1099C00002E000BF4FF0010C4DF804CD4FEA410C0E
:1099D0007FEA6C5C4FEA430C18BF7FEA6C5C1BD0DB
:1099E00001B050EA410C0CBF52EA430C91EA030F5C
:1099F00002BF90EA020F0020704710F1000F91EAB9
:109A0000030F58BF994208BF90422CBFD8176FEA86
:109A1000E37040F0010070474FEA410C7FEA6C5C54
:109A200002D150EA013C07D14FEA430C7FEA6C5C5B
:109A3000D6D152EA033CD3D05DF8040B704700BF87
:109A40008446104662468C461946634600E000BFD5
:109A500001B5FFF7B7FF002848BF10F1000F01BDA7
:109A60004DF808EDFFF7F4FF0CBF012000205DF872
:109A700008FB00BF4DF808EDFFF7EAFF34BF0120F7
:109A800000205DF808FB00BF4DF808EDFFF7E0FF90
:109A900094BF012000205DF808FB00BF4DF808EDE1
:109AA000FFF7CEFF94BF012000205DF808FB00BF48
:109AB0004DF808EDFFF7C4FF34BF012000205DF82A
:109AC00008FB00BF4FEA410C7FEA6C5C02D150EA10
:109AD000013C0AD14FEA430C7FEA6C5C02D152EAA6
