:02000002D0002C
:1040000000400D0034990D00000006000C00050171
:084010000401E80500000000B6
:04401800D8850D003A
:10401C0009480A49884208B505D0094A824202D0AB
:10402C00121A04F087FA0748074A0021121A04F002
:10403C008CFA014808BD00BF80D8032094940D0071
:10404C00F8DC0320F8DC0320F0E7032070B503F064
:10405C0059F9074C074BE41AA40800251E46A54243
:10406C0004D056F8253098470135F8E770BD00BFED
:10407C0084940D00EC930D0000F0AEB808B500F080
:10408C0007F9BDE8084003F0FFB802F03DBE02F0AE
:10409C0043BE02F041BE000008B5034A00210C20CB
:1040AC0002F09EFDFEE700BF2D690D000078B0FA0E
:1040BC0080F040097047012303707047037C03F0C4
:1040CC000803024603F0FF002BB1D36A506A181A9A
:1040DC0048BF6FF000407047704770477047103012
:1040EC0001F0B8BD103001F058BD07B501220DF13B
:1040FC000701103001F09EFC01280CBF9DF8070051
:10410C004FF0FF3003B05DF804FB103001F0D8BD68
:10411C0007B502AB012203F8011D1030194601F05E
:10412C00CFFD03B05DF804FB10B53421044604F058
:10413C0097F8204610BD00007FB50246084613795B
:10414C00956833B13DB90C4904B0BDE8704002F03C
:10415C00D3BF0A4B00E00A4B167B0A4C0A49527B30
:10416C000292012E08BF214601910095074A0021B9
:10417C0002F0FFFF04B070BD3B860D00AD8E0D004C
:10418C002A860D0033860D0037860D0051860D00F2
:10419C0038B584690A4B036005467CB16368013B02
:1041AC0063605BB9236820469B689847A368013B12
:1041BC00A3601BB923682046DB689847284638BDA6
:1041CC00C0920D0010B50446FFF7E2FF20461C21FB
:1041DC0004F046F8204610BD08B503F0A9F94FF4D9
:1041EC00165103F099F9642003F010F803F028FA43
:1041FC004FF4165103F01EFA642003F007F803F095
:10420C00FBFF03F081FA3C220221194801F018F857
:10421C00174801F0E7F8164800F0C2FF144801F007
:10422C00E1F8144800F004FC124800F037FC762149
:10423C00114800F0C1FB114802F041F903F078F984
:10424C000F4902F06CFF03F0FBF9012201460D4807
:10425C0002F07AFA28B903F06BF90B4902F05FFF10
:10426C00FEE703F065F90949BDE8084002F057BFC5
:10427C0020E3032094E3032040DD0320DCE2032051
:10428C006F860D00F8E2032077860D008C860D00FA
:10429C0008B501220B21074802F07BFA03F048F91C
:1042AC00054902F03CFF41F28830BDE8084002F0BD
:1042BC00ADBF00BFF8E203209A860D0010B5D421E3
:1042CC00044603F0CDFF204610BD10B52421044652
:1042DC0003F0C6FF204610BD73B502F071FA514BC6
:1042EC00514E4FF4FA729A60504A1168C3F8161086
:1042FC0051681289C3F81A10DA830221002283F85C
:10430C00211083F8202083F8262083F82720484B9F
:10431C00642183F860144749C3F87014012183F8B1
:10432C0074143168DA7111F0010583F83C2483F8B8
:10433C003D2483F86A24C3F8782483F87C2483F81A
:10434C007D241C460AD13046FFF7B0FE30B1294619
:10435C00394802F03DFD3046FFF7ADFE3748364B8D
:10436C00374EC4F86C3400254FF47A73354A36490D
:10437C000574457445608360344B036003F062FF41
:10438C003046334C03F070FD2E4A3249304603F070
:10439C0059FF314B009340F22972304B3049204683
:1043AC0001F0E0FA2F4B274A2F4923602046C4F82E
:1043BC00D06003F047FF2B4621462C4A2C4801F0D5
:1043CC00F8FA2B4621462B4A2B4801F0EDFA2B46E6
:1043DC0021462A4A2A4801F0E7FA2B46294A2A485C
:1043EC00214601F0E1FA294800F05CF81321284835
:1043FC0000F0C0FE134A2749254803F023FF112182
:10440C00254802F057F8022319461322234800F0DE
:10441C0034FB0C4A2249214802B0BDE8704003F03D
:10442C0011BF00BFF8E20320FCDC032020860D0046
:10443C0058DE0320F4850D0000DD032060E303202B
:10444C0044E30320F8DC0320E5400D0000860D005A
:10445C0084DD03209D410D0029880D000D880D0081
:10446C0019880D00608E0D00E7400D0044880D008A
:10447C0008DD032058880D00A8E303207B880D007D
:10448C00B4E303209F880D00C0E3032040DD03202C
:10449C0020E30320E9400D00DCE2032094E3032039
:1044AC00E7490D00FF22027442748274C274704793
:1044BC0038B5094D296811F001040AD12846FFF7D7
:1044CC00F5FD30B12146054802F082FC2846FFF785
:1044DC00F2FD024838BD00BFFCDC032000DD0320E8
:1044EC002DE9F04190F91330013305460F4606D102
:1044FC00FFF7DEFF3946BDE8F04102F085BD072627
:10450C0000244FF0010895F91300002180B203F04C
:10451C00F2FD95F9110008FA06F1394080B203F06A
:10452C00EAFD95F91300012180B203F0E4FD95F941
:10453C001200640080B2E4B203F0F6FD08B144F05E
:10454C00010416F1FF36DED22046BDE8F08108B535
:10455C00FFF7AEFFBDE8084002F077BC10B504468B
:10456C00FFF7A6FF2146BDE8104002F087BC000013
:10457C0030B590F91030013385B004460D461DD18D
:10458C000179006803F0F7F82068036829469B68F6
:10459C009847206803F0FAF802222179206803F08A
:1045AC00E7F8206803685B6998470546206803684C
:1045BC005B69984740EA052085B235E090F91330E5
:1045CC0001330ED11A4B1B4A009302920023012295
:1045DC0068468DF804308DF80C208DF80D30FFF7FF
:1045EC00BDFF94F91000002180B203F084FD45F06A
:1045FC0080012046FFF774FF00212046FFF770FF73
:10460C00002105462046FFF76BFF40EA052085B2E6
:10461C0094F91000012180B203F06DFD94F9133070
:10462C00013301D1FFF793FF284605B030BD00BF21
:10463C00F4850D0020A1070008B5FFF799FF40BADB
:10464C0080B208BD30B590F91030013385B0044606
:10465C000D4616D10179006803F08DF820680368C7
:10466C0029469B689847206803F090F8012221792D
:10467C00206803F07DF8206803685B699847C5B231
:10468C002EE090F9133001330ED1174B174A0093DB
:10469C0002920023012268468DF804308DF80C201C
:1046AC008DF80D30FFF75AFF94F91000002180B2FD
:1046BC0003F021FD45F080012046FFF711FF00219A
:1046CC002046FFF70DFF054694F91000012180B23A
:1046DC0003F011FD94F91330013301D1FFF737FFCB
:1046EC00284605B030BD00BFF4850D0020A10700A1
:1046FC0008B5F321FFF7A6FF00F0010008BD38B59F
:10470C0088210446FFF798FF8A21A0822046FFF7F4
:10471C0093FF8C21E0822046FFF78EFF8E212083B1
:10472C002046FFF789FF902160832046FFF784FF26
:10473C009221A0832046FFF77FFF9421E08320463F
:10474C00FFF77AFF962120842046FFF775FF98210A
:10475C0060842046FFF770FF9A21A0842046FFF763
:10476C006BFF9C21E0842046FFF766FF9E2120858D
:10477C002046FFF761FFA12160852046FFF762FF0D
:10478C00E12184F82C002046FFF756FFE321E08559
:10479C002046FFF757FFE42184F830002046FFF74E
:1047AC0051FFE52105462046FFF74CFF00F00F00B6
:1047BC0040EA05106086E6212046FFF743FFE5211D
:1047CC0005462046FFF73EFF001140EA0510A08683
:1047DC00E7212046FFF736FF84F8360038BD00008D
:1047EC007FB590F91030013304460E46154611D1B1
:1047FC000179006802F0BFFF2068036831469B68AE
:10480C0098472068036829469B689847206802F0FF
:10481C00BDFF2DE090F9133001330ED1154B164A24
:10482C00009302920023012268468DF804308DF823
:10483C000C208DF80D30FFF791FE94F9100000213B
:10484C0080B203F058FC06F07F012046FFF748FECB
:10485C0029462046FFF744FE94F91000012180B24E
:10486C0003F049FC94F91330013301D1FFF76FFECB
:10487C0004B070BDF4850D0020A10700F8B590F8C8
:10488C003C509DF818609DF81CE09DF8207061F379
:10489C00871562F3020563F3C50590F8403080F884
:1048AC003C5066F3471380F8403090F838306EF384
:1048BC00C503044667F3020380F8383006F007029C
:1048CC00F221FFF78DFF94F83820C2F3C20302F0F7
:1048DC0007019B0043EA411343EAD2122046F5211B
:1048EC00FFF77EFF94F83C20C2F3C20302F00701ED
:1048FC009B0043EA411343EA92122046F421BDE89F
:10490C00F840FFF76DBF30B5044690F91000421C1B
:10491C0085B003D1206802F0F7FE22E0012180B2BD
:10492C0003F0E9FB94F91000012180B203F0D2FBF3
:10493C0094F91300431C04D1FFF7BAFD02F052FAAC
:10494C000FE0012180B203F0C5FB94F911000121A5
:10495C0080B203F0BFFB94F91200002180B203F087
:10496C00B9FBD0212046FFF76DFE6028A06020D156
:10497C002046B622E021FFF733FF4FF4967002F089
:10498C0045FC2046FFF7B4FE054608B16420F6E767
:10499C002046FFF7B4FE052300931A460321204658
:1049AC0002950195FFF76AFF642002F02FFC0120AD
:1049BC0000E0002005B030BD10B50171044603F0D5
:1049CC001BFC20602046BDE81040FFF79CBF01F0A7
:1049DC00F7BE01F0ADBF01F0A3BF10B50446C0682F
:1049EC0008B102F099F923781BB10021E07903F0AA
:1049FC0071FB204610BD38B50446C0680D4608B1A1
:104A0C0002F08AF9A379062B0CBF0420032010FBBB
:104A1C0005F080B2A08002F077F9E06028B1A2889E
:104A2C00002103F092FD658038BDA080608038BD08
:104A3C0010B504460121C07903F04CFB0021E0794C
:104A4C0003F059FB0123237010BD38B503780546DC
:104A5C000C461BB10021C07903F03CFB2B78EC71A8
:104A6C0053B1A4B22046012103F034FB20460021AF
:104A7C00BDE8384003F03FBB38BD70B50025044697
:104A8C001646837105700572C5600561FFF7B3FFAB
:104A9C0020463146FFF7D9FF204670BDC368002B76
:104AAC0000F08B812DE9F04F8379023BDBB2042BB4
:104ABC009CBFC44A52F8234087B0054688BF3224B5
:104ACC00FFF787FF2B69C01AA042F9D3BE4AAB8807
:104ADC0007CA06AC04E90700039C1B01D4F80025A7
:104AEC000433019322B9D4F86035002BC0F2558100
:104AFC00049CD4F8003523B9D4F86035002BC0F2EF
:104B0C003C81059CD4F800351BB9D4F86035002BDA
:104B1C006EDBAE4BEA791E68AD4CAE49E068120113
:104B2C00B31840F080705B78B75CE0600A6803F003
:104B3C001F0343EA471301273A430A600C46A8882F
:104B4C00D5F80C90D4F804A09F408846002844D097
:104B5C00CC4600224FF0A0411CF801EB0820802627
:104B6C0063689B1A462BFBD9D8F80420D1F808357A
:104B7C001EEA060F43EA0703C1F808352FD0636815
:104B8C009B1A282BFBD9D1F80C35013843EA0703C3
:104B9C004FEA5606C1F80C35E2D1C9EB0C03A888D4
:104BAC009BB29842D8D84FF4307303FB00F0636883
:104BBC009B1A462BFBD9D8F80430CAEB030A824562
:104BCC00C0F0D5804FF49670FFF705FFA888D5F894
:104BDC000C90D4F804A00028BAD10246E7E7636829
:104BEC009B1A112BCFD863689B1A112BF7D9CAE7E4
:104BFC00D4F86435002B8CDAD4F86835002B88DABD
:104C0C00D4F86C35002B84DA019802F07DF800287A
:104C1C003FF47FAFAB88002B00F0D08000273B46E1
:104C2C006D4E6E4900E01346EA68D25D03F1010E49
:104C3C0012F0800F14BFB04688461FFA8EFE12F099
:104C4C00400F14BFB146894612F0200F20F8138094
:104C5C0018BFB24620F81E9008BF8A4603F102081E
:104C6C0012F0100F03F1030E14BFB4468C461FFA5A
:104C7C0088F812F0080F1FFA8EFE03F104091FFAD0
:104C8C0089F914BFB3468B4612F0040F20F818A014
:104C9C0020F81EC014BFB2468A4603F1050812F074
:104CAC00020F03F1060C03F1070E20F819B01FFADE
:104CBC008EFE14BFB14689461FFA88F812F0010F18
:104CCC001FFA8CFC14BF32460A4620F818A020F8B4
:104CDC001C9020F81E200137B5F804E0BFB203F198
:104CEC000802BE4592B29ED803F109020A3392B271
:104CFC009BB252005B0001994FF400468652490862
:104D0C00C65200221423C4F80425304EC4F80C25D6
:104D1C00C4F80835C4F81425C4F81025C4F82005C7
:104D2C00C4F82415C4F82825C4F82C25EB7931686F
:104D3C001B01CE18C95C737803F01F0343EA4113BF
:104D4C000121C4F86035C4F80015C4F81021A16025
:104D5C00D4F81031002BFBD000234FF0FF32C4F8F5
:104D6C001031C4F80035C4F8602501F0D5FFFFF709
:104D7C0030FE286107B0BDE8F08FD4F86435002B05
:104D8C00BFF6BFAED4F86835002BBFF6BAAED4F878
:104D9C006C35002BBFF6B5AE36E7D4F86435002B76
:104DAC00BFF6A6AED4F86835002BBFF6A1AED4F88A
:104DBC006C35002BBFF69CAE26E77047042302220D
:104DCC0099E700BFD8880D00CC880D00CCE30320F8
:104DDC00F0ED00E0001000E00D80FFFF0680FFFF0B
:104DEC0008B501F0EDFC01F0EBFC014B186008BDBF
:104DFC00CCE30320F0B5447EBDF81450022C08D04F
:104E0C00032C0FD0012C70D10489013CA21A12B2D0
:104E1C000CE04489013CA21A0489E41A611A12B20A
:104E2C0009B262E04489E41A611A09B2002A5BDB18
:104E3C00B0F90840944240F390800029BEBF5B1843
:104E4C001BB20021B0F90A00CC188442C4BF431A2B
:104E5C001BB2002B40F38180C9B2C8083F4F02EB54
:104E6C00C01211F00701DBB207EB020417D0C1F13D
:104E7C000801C8B23A4983420E5C3FBFC3EB000E37
:104E8C00FF2141FA0EF10E40B95C012D0CBF3143EC
:104E9C00B1438342B95460D3181AC3B28034072B80
:104EAC0017D9012D0CBFFF20002004F180011A46F8
:104EBC00083AD2B2072A01F8800C01F18001F7D828
:104ECC00A3F10802C2F3C402013204EBC21403F0D2
:104EDC000703002B41D0234AD25C2378012D0CBF51
:104EEC00134393432370F0BDF0BD002A35DBB0F9BA
:104EFC000A40944231DD0029BCBFC9180BB2B0F98D
:104F0C000870B8BF0021CE18BE42C4BF631A1BB2D2
:104F1C00002B22DDD01001EBC011104802F007026B
:104F2C000144012000FA02F28542D2B209D1013BC0
:104F3C001BB25C1C11D011F8010B104301F8010CD1
:104F4C00F5E7D243D2B2013B1BB2581C05D011F885
:104F5C00010B104001F8010CF5E7F0BD90D80320CF
:104F6C0088D8032080D80320F0B5447EBDF81450B7
:104F7C00022C08D0032C0FD0012C12D10489E41A76
:104F8C00A21A12B26DE00489013C611A4489E41A38
:104F9C00A21A09B212B204E04489013C611A09B2A6
:104FAC005FE000295CDBB0F908408C4240F3918053
:104FBC00002ABCBFD21813B2B0F90A00B8BF002245
:104FCC00D4188442C4BF831A1BB2002B40F38180D7
:104FDC00D4B2404EDAB2E30801EBC31114F007046B
:104FEC0006EB010317D0C4F10804E0B23A4C82423C
:104FFC00275C3FBFC2EB000EFF2444FA0EF427409F
:10500C00745C012D0CBF3C43BC438242745460D38E
:10501C00101AC2B28033072A17D9012D0CBFFF24F6
:10502C00002403F1800011460839C9B2072900F8A1
:10503C00804C00F18000F7D8A2F10801C1F3C40143
:10504C00013103EBC11302F00702002A41D02349BE
:10505C00895C1A78012D0CBF0A438A431A70F0BD83
:10506C00F0BD002935DBB0F90A408C4231DD002A55
:10507C00BCBFD21813B2B0F90870B8BF0022D61852
:10508C00BE42C4BFA31A1BB2002B22DDC81002EB18
:10509C00C012104801F007011044012202FA01F17C
:1050AC009542C9B209D15A1E13B25C1C11D010F82A
:1050BC00012B0A4300F8012CF5E7C943C9B25A1E6B
:1050CC0013B25A1C05D010F8012B0A4000F8012C21
:1050DC00F5E7F0BD90D8032088D8032080D80320B2
:1050EC00F8B50D1E064614461F463FDB00F0B1FB1B
:1050FC0085423BDA002C39DB304600F0ADFB8442B4
:10510C0034DA304600F0A3FB022827D131897089AC
:10511C0001390138491B001B0DB204B206E001280D
:10512C0004D13389013B1B1B2C461DB20820012FD7
:10513C0094FBF0F000B20E4B04F0070205EBC0112B
:10514C0004D197405A5C17435F54F8BD585C012753
:10515C0007FA02F220EA02025A54F8BD0328DED103
:10516C007389013B5B1B25461CB2DFE7F8BD00BF12
:10517C0090D8032038B5402204460D46802100F01B
:10518C0087FA064B2360FF23637784F82130E3779B
:10519C00A37784F82050204638BD00BFF4880D005A
:1051AC004FF480620021014803F0CFB990D803205E
:1051BC0038B590F91D30013304460D4628D090F9CE
:1051CC002100012180B202F096FF94F91F0000210A
:1051DC0080B202F090FF94F92100002180B202F01D
:1051EC008AFF94F822302BB1FFF762F9294601F0BF
:1051FC000BFF05E02B460122A17F607F02F0BEFF72
:10520C0094F92100012180B2BDE8384002F073BF4F
:10521C0002F0F2FF94F91B1002F0B1FA02F0ECFF6D
:10522C00036800219B68984702F0E6FF0368294653
:10523C009B68984702F0E0FFBDE8384002F0A6BA40
:10524C0038B504460D46217790F91D30C2760133EE
:10525C0037D090F91F00012180B202F03BFF94F986
:10526C002100012180B202F035FF94F822305BB9A5
:10527C0094F91D00012180B202F02CFF94F91E005C
:10528C00012180B202F026FF94F82230EBB194F9A0
:10529C002100012180B202F02EFFFFF709F9012154
:1052AC0001F0B1FDFFF704F9102101F089FEFFF7C1
:1052BC00FFF8002101F0B8FDFFF7FAF801F092FDBC
:1052CC0003E002F099FF02F01FFA94F9200001218B
:1052DC0080B202F0FFFE94F92000012180B202F0AE
:1052EC000AFF012001F092FF94F92000002180B206
:1052FC0002F001FF0A2001F089FF94F9200001213E
:10530C0080B202F0F8FE2046AE21FFF751FF204696
:10531C00D521FFF74DFF20468021FFF749FF20469E
:10532C00A821FFF745FF20463F21FFF741FF20460C
:10533C00D321FFF73DFF20460021FFF739FF204620
:10534C004021FFF735FF8D212046FFF731FF012D5E
:10535C000CBF102114212046FFF72AFF20462021E4
:10536C00FFF726FF20460021FFF722FF2046A12150
:10537C00FFF71EFF2046C821FFF71AFF2046DA214F
:10538C00FFF716FF20461221FFF712FF812120465E
:10539C00FFF70EFF012D0CBF9F21CF212046FFF7F9
:1053AC0007FFD9212046FFF703FF012D0CBF222157
:1053BC00F1212046FFF7FCFE2046DB21FFF7F8FE2B
:1053CC0020464021FFF7F4FE2046A421FFF7F0FE13
:1053DC002046A621FFF7ECFE2046AF21BDE8384061
:1053EC00FFF7E6BE2DE9F04121210446FFF7E0FE70
:1053FC0000212046FFF7DCFE7F212046FFF7D8FE78
:10540C0022212046FFF7D4FE00212046FFF7D0FED4
:10541C0007212046FFF7CCFE94F91D30DFF8BC8045
:10542C00013335D094F92100012180B202F063FEE2
:10543C0094F91F00012180B202F05DFE94F9210065
:10544C00002180B202F057FE012001F069FA00251C
:10545C0094F8223018F805602BB1FFF729F8314683
:10546C0001F0D2FD05E033460122A17F607F02F0FE
:10547C0085FE0135B5F5806FEAD1012001F050FAB7
:10548C0094F92100012180B2BDE8F04102F033BE55
:10549C00002502F0B1FE94F91B1002F070F902F035
:1054AC00ABFE036840219B689847002602F0A4FEDF
:1054BC00AF190368BFB29B6818F8071001369847FC
:1054CC00102EF3D1103502F097FEADB202F05EF95A
:1054DC00B5F5806FDDD1BDE8F08100BF90D8032019
:1054EC0001F06EB92DE9F04F85B01E46BDF938308C
:1054FC00BDF83CA015469A1A002AB8BF5242009239
:10550C00721A002AB8BF524201920C46009A0199B5
:10551C008A42814605DD32461E46134622462C46FB
:10552C001546B44205DD2A461D461346224634462E
:10553C0016465A1B002AB8BF5242C4EB06089D42BD
:10554C00B4BF01234FF0FF331FFA88F80293039284
:10555C000FFA88F7022297FBF2F7B4421FDC019A8C
:10556C00009B9342D9F80030C8BF2246D3F810B044
:10557C00C8BF29465346DCBF2A4621464846D84771
:10558C00039BFF1ABBB21FB2002F05DA029A08EB7D
:10559C00030715442DB23FB2013424B2DDE705B048
:1055AC00BDE8F08F2DE9F347BDF82C600768BDF915
:1055BC0028A000960446FF6991460D469846B847C8
:1055CC00236800960AF1FF324A44DF6929464346B4
:1055DC00204612B2B847236800969F694A46534644
:1055EC0029462046B84723680A9608F1FF3129441A
:1055FC009D694A46534609B22046AC4602B0BDE806
:10560C00F047604737B5013B13440468BDF81850A8
:10561C0001951BB2009364690B46A04703B030BDE3
:10562C0037B5BDF8185004688DE82400013B0B44D5
:10563C0064691BB2A04703B030BD2DE9F347BDF937
:10564C002880BDF82C90054617460C4601EB030A42
:10565C0054450BDA2B68CDF800909E6921464346E1
:10566C003A4628460134B04724B2F1E702B0BDE80F
:10567C00F08713B5B0F90E20046801910092002256
:10568C00B0F90C30646A1146A04702B010BD7047E7
:10569C0030B501810024084D42818181C2814FF6D1
:1056AC00FF710122446005604476048244820276D4
:1056BC00C1828182827630BD2C890D002DE9F04F9C
:1056CC008FB005460691BDF860100791BDF86410C7
:1056DC000891B0F90C1006989DF8688081427CDD29
:1056EC00B5F90E10914278DD062111FB0800002857
:1056FC0073DD02EBC80000286FDD03EB830396B269
:10570C000C9306F108039BB2099100240D93052C10
:10571C001CBF334B0C9A059616BF1B194FF0000992
:10572C0013F8029004961FFA88F30393039ABDF8BA
:10573C00183004FB023213FA84F312B21BB20A9231
:10574C0037460FFA88FA0B9319F0010F11D0B8F104
:10575C00010F2B6803D1D3F810B0079B14E0079A04
:10576C000192CDF800A0D3F824B0BDF91020534617
:10577C0018E0079B089A934217D0B8F1010F2B68D9
:10578C0007D1D3F810B013463AB20B992846D84734
:10579C000BE0089A0192CDF800A0BDF91420D3F8C3
:1057AC0024B053460A992846D847049B039A1344BD
:1057BC009BB20493059B13449BB2013705930D9B3D
:1057CC00BFB29F424FEA5909BED1099B013B01343C
:1057DC0013F0FF0364B2099399D10FB0BDE8F08FB9
:1057EC005C890D0030B50A2985B004460B4604D1FE
:1057FC00027E438A03EBC20323E00D2924D0057EED
:10580C00B0F91220B0F910100295C58A0195858A5D
:10581C000095FFF753FF227E238A91B201EB4100E2
:10582C0003EB4003A07E1BB2238268B1B4F90C00D9
:10583C006FF0050505FB0202934205DD638A03EB5D
:10584C00C103638200232382012005B030BD407E5A
:10585C007047B0F90C007047B0F90E00704700F0BB
:10586C00AFBF08B5D0F8D00003681B6B9847003069
:10587C0018BF012008BDF8B506460F461446C4B142
:10588C00D6F8D00003681B6B984708B90020F8BD08
:10589C00D6F8D000FA2C03682546A8BFFA25DB6899
:1058AC002A463946984780B2241A8542A4B2E6D0DB
:1058BC00ECE70120F8BD2DE9F843064688469146F1
:1058CC001F461D460024D6F8D00003681B6B984772
:1058DC00D0B1002D18DBD6F8D00003681B699847AF
:1058EC0060B1D6F8D00003685B69984708F80400EB
:1058FC000134A4B24C4507D03D46ECE70A3D0A20E2
:10590C002DB201F083FCDEE72046BDE8F88370B5CC
:10591C00044600F1220596220021284602F015FECD
:10592C006168284602F042FED4F8D0002289036850
:10593C0029465E6A0023B047003018BF012070BDB5
:10594C0010B50446D0F8D00003681B6B984720B103
:10595C00D4F8D0000368DB6A9847012010BD00F032
:10596C002FBF000030B50361039B0D4D02814361D5
:10597C000C4A056000234160C260C0F8BC30C0F81E
:10598C00C030C0F8C430C0F8C830C0F8CC30836127
:10599C00C36180F8203080F82130A0F8B83030BDD9
:1059AC00848E0D00AD8E0D0010B580E806000372DC
:1059BC0010BD10B503710023416302604383C361C2
:1059CC00436203628362C362036310BD00F0F8BEDE
:1059DC0000F0F6BE00F0F4BE10B50446243000F022
:1059EC0051FA28B104F50C70BDE8104000F04ABA29
:1059FC0010BD00F0E5BE00F0E3BE00F0E1BE00F02B
:105A0C00DFBE8378016943F00403837000F1100258
:105A1C00806800F0EDBA10B5044680680A46243060
:105A2C00A16900F056FA20B1A38803F00F0300EB34
:105A3C00431010BD2DE9F74F0378044689461546EF
:105A4C004BB18278D10706D50CE05A46216900F09B
:105A5C006AFA00283DDA637843F0020363704FF072
:105A6C00FF3097E01A0703D5E36962699B1A07E0D8
:105A7C009A0608D5A3681A896369C3EB42139BB2D3
:105A8C009D4228BF1D462E464FF0000804F1100B16
:105A9C00002E35D022786369A06812F0200FC3F372
:105AAC00080A4FEA532102D0036A19441DE090F80A
:105ABC00058001EA0808BAF1000F10D1B8F1000F07
:105ACC000DD1002BC1D153064CBF036A236A23614D
:105ADC0005E004D1237813F0700F11D1BBE72169D5
:105AEC00A06800F01AFA08EB0001A068BAF1000FE8
:105AFC0035D1B6F5007F32D3C36A994202D12EE07C
:105B0C00A81B47E0B6F5806F1BD3227897064FEAA7
:105B1C00562A06D40279C8EB0202D2B2924528BFAB
:105B2C00924699424FEA4A2707D2A06853464A4602
:105B3C00006800F0A8FB60B98DE75344994221D36B
:105B4C00F3E74A46006800F056FB002883D04FF478
:105B5C00007763693B44B9446361F61B98E7002204
:105B6C00243000F0B6F900283FF475AFCAF5007781
:105B7C00B74228BF374600EB0A013A46484602F0C6
:105B8C00D9FCE6E72430019100F07CF9019900285A
:105B9C00CBD160E703B0BDE8F08F73B501220DF1F6
:105BAC000701044646690569FFF744FF012805BF54
:105BBC009DF8070066614FF0FF30256102B070BDA3
:105BCC002DE9F0410E46017807690446002939D0C9
:105BDC004569B5423AD00EB9066131E00B0703D5E1
:105BEC00C3699E422ED807E0880605D5A3681B8999
:105BFC00B6EB431F26D823E0D4F808E09EF8063015
:105C0C006A1E03F10900731EC240C3409A4200D8B9
:105C1C004DB94A064CBFDEF82020226A22611D468F
:105C2C0004F110080AE09B1AF9E742462169A068C2
:105C3C0000F079F9002805F1FF3503DD002DF4D1D2
:105C4C00666103E027610020BDE8F0810120BDE81A
:105C5C00F081000038B5037804460BB9012038BD3B
:105C6C0083785A0723D50121FFF7D5FE054628B9BD
:105C7C00637843F001036370002038BD0378E52B93
:105C8C00F6D023781B0744BFE369C361238C43839D
:105C9C00638C8382094B1B682BB100F11601183001
:105CAC0098472B8B6B82A37823F00403A370A06816
:105CBC00FFF792FE0028DBD0D0E700BFD0E3032033
:105CCC002DE9F0470378894619070446904608D514
:105CDC0083789A0705D51B070BD5E169FFF770FF91
:105CEC0038B9637843F0010363704FF0FF30BDE8BF
:105CFC00F0876369DB439845F3D846464FF0000ABA
:105D0C006369002E00F08180A068427912EA532565
:105D1C00C3F308071CD1DFB9216971B104F110027A
:105D2C0000F001F90028DCDB40F08E802046FFF704
:105D3C0068FE002840F08880D3E7236A3BB92046F0
:105D4C00FFF75FFE0028CCD02369236200E02361BB
:105D5C002169A06800F0E1F8291817B9B6F5007FA1
:105D6C0021D2C7F50075B54228BF354637B96369EE
:105D7C00E269934234BF0122052200E00122A068AF
:105D8C00243000F0A6F80028ABD038442A46494607
:105D9C002F4402F0CFFBB7F5007F30D1A068243040
:105DAC0000F070F817E0B6F5806FA06815D3027993
:105DBC00521B730AD2B2934228BF1346C26A914255
:105DCC004FEA432502D31A44914237D3A7684A4677
:105DDC00386800F00CFB90B983E7C36A994202BFA4
:105DEC004FF0FF3380F824A0C362A3684A461868BA
:105DFC0000F08BFA00283FF474AF4FF40075636920
:105E0C002B446361A944761B7AE7E269934201D97A
:105E1C00E36102E00F4B1B681BB1A37843F0040352
:105E2C00A37094F90230002B02DB4046BDE8F087EA
:105E3C002046FFF70FFF0028F7D152E74FF0FF3253
:105E4C0080F824A0C262C1E72169A06800F065F85F
:105E5C00014683E7D0E3032000F0B2BC70B50546E1
:105E6C000C46084649B102F0A9FB2B6802462146B4
:105E7C002846DB68BDE87040184770BD00F0A0BC38
:105E8C0000F09EBC70B50378DA0704461ED5436853
:105E9C00816800F10C063246186800F036FA0546A7
:105EAC0008B9002513E023789B0704D4237823F04A
:105EBC00010323700BE06368A06819693246014442
:105ECC00186800F022FA0028F0D1EAE701252846EC
:105EDC0070BD70B583688B4204460E46154614D0CF
:105EEC00FFF7D0FF08B9002070BD6B0703D5002366
:105EFC002370A66009E0636804F10C02314618684F
:105F0C0000F079F90028F2D1EDE72378204605F06E
:105F1C0003051D4300F80C5B70BD837940690239A1
:105F2C00994008447047012970B505460C46164641
:105F3C0002D84FF0FF3070BDC3699942F9D8C379CC
:105F4C00202B10D18169022201EBD41100F50C70C9
:105F5C00FFF7BFFF0028ECD004F07F0450F824308A
:105F6C0023F070430FE0102BE3D18369C1F30721B9
:105F7C000222194400F50C70FFF7ABFF0028D8D0B3
:105F8C00E4B230F81430EA6993429ABF33600120CE
:105F9C00002070BD012938B50C46154601D80020EB
:105FAC0038BDC3699942FAD8C379202B0ED18169C7
:105FBC00032201EBD41100F50C70FFF78AFF0028C7
:105FCC00EDD004F07F0440F824500FE0102BE6D104
:105FDC008369C1F307210322194400F50C70FFF704
:105FEC0078FF0028DBD0E4B220F81450012038BD33
:105FFC002DE9F341C4688C4205460E46904607D203
:10600C000C460027EB6901349C4203D9CFB9EC68EC
:10601C000127F7E7A64214D001AA21462846FFF72C
:10602C0082FF00280DDBEDD0019B002BEAD107B1DC
:10603C00EC606FF0704221462846FFF7ABFF074635
:10604C0008B900270BE016B9C8F8004007E0224653
:10605C0031462846FFF79EFF0028F5D1F1E7384678
:10606C0002B0BDE8F08100F0ABBB00F0A9BB00F0C2
:10607C00A7BB000070B50E4C0E46154600F058FC40
:10608C002368C01A0B4B984208D900F059FC0A4BF4
:10609C00186000F029FE00F04BFC206000F050FC72
:1060AC0080B2801BA842D4BF0020012070BD00BF6D
:1060BC00D4E30320A086010030E7032038B5057A2D
:1060CC0004464DB9406800F0B9F963682946187D5B
:1060DC0002F011F80123237238BD10B5037A04467F
:1060EC006BB143680121187D02F005F8FF2160684F
:1060FC0000F0C6F9606800F0A5F90023237210BD0A
:10610C00F8B504460D46164600F01AFC87B26068D6
:10611C0000F09BF9FF28607209D14FF47A7239466E
:10612C002046FFF7A7FF0028F1D055230BE0FE28EF
:10613C0001D0502307E032462946606800F08AF906
:10614C00607230B1602320462370FFF7C6FF002039
:10615C00F8BD606800F079F9606800F076F901200C
:10616C00F8BD70B504460E4600F0EAFB85B2324627
:10617C0029462046FFF77EFF30B9606800F065F9CC
:10618C00FF28F4D1012070BD002070BDF7B5037A53
:10619C00019204460D460BB9FFF790FF25B14FF461
:1061AC0096712046FFF7DDFF45F04001606800F076
:1061BC0067F90DF107060DF1030716F80119606870
:1061CC0000F05EF9BE42F8D1002D0CBF952187215D
:1061DC00606800F055F9606800F037F90B256068CD
:1061EC0000F033F90306607203D5013D15F0FF058D
:1061FC00F5D103B0F0BD38B5837A032B18BF490233
:10620C0015460A4611210446FFF7C0FF10B1302392
:10621C0023700BE029464FF400722046FFF770FF05
:10622C00054618B12046FFF758FF03E02046FFF75C
:10623C0054FF0025284638BD10B5837A032B0A4637
:10624C0018BF4A0212210446FFF7A0FF30B13123D8
:10625C0020462370FFF741FF002010BD012010BD28
:10626C0010B500220C210446FFF790FF30B1282313
:10627C0020462370FFF731FF002010BD2046FFF7AA
:10628C002CFF012010BDF8B5054616461F46FFF73A
:10629C00D3FF98B10024A3B29F4206EB442108D946
:1062AC004FF400722846FFF72BFF01340028F2D17F
:1062BC0004E02846BDE8F840FFF7D2BF0020F8BD47
:1062CC0038B504461546406800F0DAF84FF4007211
:1062DC002946606800F0D8F8FF21606800F0D0F81B
:1062EC00FF21606800F0CCF8606800F0AEF86072D6
:1062FC0000F01F00052806D0572320462370FFF717
:10630C00ECFE002038BD012038BD70B5837A032B1C
:10631C0018BF490215460A4618210446FFF736FFF6
:10632C00064608B132231DE02A46FE212046FFF71F
:10633C00C7FFC0B14FF4FA612046FFF712FF0546C4
:10634C0008B95A230EE032460D212046FFF71EFFF6
:10635C0038B9606800F079F818B92046FFF7BDFE2F
:10636C0005E0292323702046FFF7B7FE00252846B9
:10637C0070BD38B50D464FF4FA610446FFF7F1FED7
:10638C0010B95B23237005E02A46FC212046FFF759
:10639C0097FF18B92046FFF7A0FE002038BD10B5B6
:1063AC00837A032B0A4618BF4A0219210446FFF7C9
:1063BC00EDFE30B1332320462370FFF78EFE002014
:1063CC0010BD012010BD38B54FF4FA610446FFF73B
:1063DC00C8FE054620B1FD21606800F051F801E0CF
:1063EC00562323702046FFF778FE284638BDF8B5B3
:1063FC00054616461F46FFF7D2FF70B10024BC427B
:10640C0006EB4421284604D0FFF7B3FF28B1013432
:10641C00F5E7BDE8F840FFF7D6BF2846FFF75DFE6D
:10642C000020F8BD00F0CCB900F0CAB900F0C8B932
:10643C00014B01221A707047D8E30320011D00683C
:10644C0000F01CBD006800F000BDFF21006800F0EA
:10645C00DBBD000037B5084B00930025074C0068E6
:10646C00257013460A46294600F0D4FD2378002BEC
:10647C00FCD0002003B030BD3D640D00D8E30320F8
:10648C00006800F0C1BD000037B5074B0093002534
:10649C00064C0068257013462A4600F0BBFD237895
:1064AC00002BFCD003B030BD3D640D00D8E30320BD
:1064BC0000F086B90022016002614261704710B59C
:1064CC000446008801F043FE40F21233A0F10B02A7
:1064DC009A4207D8A0606060E06000F031FAA061D9
:1064EC00012010BD002010BD00F06AB98B1D0020EA
:1064FC0011F8012F10448B4280B2F9D1404280B286
:10650C007047417C837CC27B80F8232003EB012302
:10651C009BB23A3A8384152A33D8DFE802F0171E6F
:10652C002E0B2E10252C2E2E2E2E2E2E2E2E322EC7
:10653C002E2E2E2E002380F82030052318E09907EC
:10654C002AD5002380F82030042311E09A0723D5A4
:10655C00002380F8203002230AE09B071CD500237F
:10656C0080F82030032303E0002380F8203006233A
:10657C0080F8223001E000230CE0012380F8263063
:10658C0070470023012280F8203080F82220838479
:10659C0080F8262080F82730704710B5044600F1AB
:1065AC000C01FFF7A3FFE27C237D03EB02239BB2DC
:1065BC001B1A5842584110BD70B504462068036838
:1065CC001B699847054600285AD0206894F820503B
:1065DC0003685B694DB99847C0B27E282073EDD132
:1065EC0084F8265094F8203046E0984725442873C8
:1065FC0094F82030022B11D0092B13D0012B3BD156
:10660C00627BFF2A38D0002284F8202084F82230C4
:10661C00A28484F8263084F8272048E0A27B062A3E
:10662C002AD002E0637DEF2B09D00023012284F8ED
:10663C00203084F82220A38484F826200EE0204603
:10664C00FFF7ABFF68B1002384F820302046FFF73A
:10665C0058FF94F8266056B3A37E43BB84F82730CA
:10666C0025E0012384F8200084F82230A08484F8EB
:10667C00263084F827001AE0013384F820309DE797
:10668C0094F827308BB100F05BF96368C01AA368EB
:10669C0098420AD3012384F8205084F82250A58410
:1066AC0084F8263084F8275001E094F826603046B0
:1066BC0070BD10B5837E044633B194F8273033B1E6
:1066CC002046FFF779FFF8E70A2000F09FFD2146EE
:1066DC000A2251F8160B0368DB68984700F030F972
:1066EC00A37E6060003318BF012384F8273010BDEF
:1066FC00131210B54176C376027700F116010446E9
:10670C00FFF7F4FE0312A07763772046BDE8104034
:10671C00FFF7CFBF0022FFF7EBBF43EA0222FFF7E0
:10672C00E7BF012310B5044680F827302046FFF759
:10673C0043FF0028FAD094F82200003018BF012043
:10674C0010BD0C21FFF7E6BF38B50446154612B153
:10675C000123837600E0A276A368216003F6B833A8
:10676C00A3602046FFF7EDFF2046FFF7DAFFA36892
:10677C00A3F6B833C820A36000F048FD002384F8CA
:10678C00263094F82230042B14BF85F00100012030
:10679C0038BD13460A460F21FFF7BFBF00F010B8F3
:1067AC0008B5024B1B689B68019308BD6802030087
:1067BC0008B5024B1B68DB68019308BD6802030037
:1067CC0008B5024B1B681B68019308BD2C02030023
:1067DC0008B5024B1B685B68019308BD2C020300D3
:1067EC0008B5024B1B689B68019308BD2C02030083
:1067FC0008B5024B1B68DB68019308BD2C02030033
:10680C0008B5024B1B681B69019308BD2C020300E1
:10681C0008B5024B1B685B69019308BD2C02030091
:10682C0008B5024B1B681B6B019308BD2C020300BF
:10683C0008B5024B1B681B68019308BD30020300AE
:10684C0008B5024B1B689B68019308BD300203001E
:10685C0008B5024B1B68DB68019308BD30020300CE
:10686C0008B5024B1B681B69019308BD300203007D
:10687C0008B5024B1B685B69019308BD300203002D
:10688C0008B5024B1B68DB69019308BD300203009D
:10689C0008B5024B1B681B6A019308BD300203004C
:1068AC0008B5024B1B685B6A019308BD30020300FC
:1068BC0008B5024B1B689B6A019308BD30020300AC
:1068CC0008B5024B1B689B6B019308BD300203009B
:1068DC0008B5024B1B68DB6B019308BD300203004B
:1068EC0008B5024B1B681B6C019308BD30020300FA
:1068FC0008B5024B1B685B6C019308BD30020300AA
:10690C0008B5024B1B685B69019308BD6C02030060
:10691C0008B5024B1B685B68019308BD18020300A5
:10692C0008B5024B1B68DB68019308BD1802030015
:10693C0008B5024B1B681B69019308BD18020300C4
:10694C0008B5024B1B685B69019308BD1802030074
:10695C0008B5024B1B689B68019308BD48020300F5
:10696C0008B5024B1B681B69019308BD4802030064
:10697C0008B5024B1B685B69019308BD4802030014
:10698C0008B5024B1B685B6C019308BD4802030001
:10699C0008B5024B1B689B6C019308BD48020300B1
:1069AC0008B5024B1B685B69019308BD64020300C8
:1069BC0008B5024B1B681B6A019308BD64020300F7
:1069CC0008B5024B1B689B6A019308BD6402030067
:1069DC0008B5024B1B681B68019308BD3C02030001
:1069EC0008B5024B1B68DB68019308BD3C02030031
:1069FC0008B5024B1B681B69019308BD3C020300E0
:106A0C0008B5024B1B685B69019308BD3C0203008F
:106A1C0008B5024B1B689B69019308BD3C0203003F
:106A2C0008B5024B1B68DB69019308BD3C020300EF
:106A3C0008B5024B1B681B6A019308BD3C0203009E
:106A4C0008B5024B1B689B6A019308BD3C0203000E
:106A5C0008B5024B1B68DB6A019308BD3C020300BE
:106A6C0008B5024B1B68DB68019308BD28020300C4
:106A7C0008B5024B1B689B69019308BD28020300F3
:106A8C0008B5024B1B68DB69019308BD28020300A3
:106A9C0008B5024B1B681B6A019308BD2802030052
:106AAC0008B5024B1B685B6A019308BD2802030002
:106ABC0008B5024B1B689B6A019308BD28020300B2
:106ACC0008B5024B1B68DB6A019308BD2802030062
:106ADC0008B5024B1B681B6B019308BD2802030011
:106AEC0008B5024B1B685B6B019308BD28020300C1
:106AFC0008B5024B1B681B6C019308BD28020300F0
:106B0C0008B5024B1B681B6D019308BD28020300DE
:106B1C0008B5024B1B689B69019308BD3802030042
:106B2C0008B5024B1B68DB69019308BD38020300F2
:106B3C0008B5024B1B681B6A019308BD38020300A1
:106B4C0008B5024B1B689B6A019308BD3802030011
:106B5C0008B5024B1B681B6B019308BD3802030080
:106B6C0008B5024B1B689B6B019308BD38020300F0
:106B7C0008B5024B1B681B68019308BD4C0203004F
:106B8C0008B5024B1B685B68019308BD4C020300FF
:106B9C0008B5024B1B681B69019308BD4C0203002E
:106BAC0008B5024B1B685B69019308BD4C020300DE
:106BBC0008B5024B1B689B69019308BD4C0203008E
:106BCC0008B5024B1B68DB69019308BD4C0203003E
:106BDC0008B5024B1B681B6A019308BD4C020300ED
:106BEC0008B5024B1B685B6B019308BD6002030088
:106BFC0008B5024B1B681B6D019308BD60020300B6
:106C0C0008B5024B1B685B68019308BD20020300AA
:106C1C0008B5024B1B685B69019308BD2002030099
:106C2C0008B5034B1B68D3F88830019308BD0000EE
:106C3C002002030008B5034B1B68D3F89430019372
:106C4C0008BD00002002030008B5024B1B685B68FE
:106C5C00019308BD4002030008B5024B1B689B68FA
:106C6C00019308BD4002030008B5024B1B68DB68AA
:106C7C00019308BD4002030008B5024B1B681B6959
:106C8C00019308BD4002030008B5024B1B685B6909
:106C9C00019308BD4002030008B5024B1B689B69B9
:106CAC00019308BD4002030008B5024B1B68DB6969
:106CBC00019308BD4002030008B5024B1B681B6A18
:106CCC00019308BD4002030008B5024B1B681B6B07
:106CDC00019308BD4002030008B5024B1B685B6BB7
:106CEC00019308BD4002030008B5024B1B689B686A
:106CFC00019308BD4402030008B5024B1B68DB6B13
:106D0C00019308BD4402030008B5024B1B681B68C5
:106D1C00019308BD1C02030008B5024B1B685B689D
:106D2C00019308BD1C02030008B5024B1B685B6A8B
:106D3C00019308BD1C02030008B5024B1B68DB6BFA
:106D4C00019308BD1C020300002211464068FFF7A6
:106D5C00B3BF002211464068FFF7BEBF0022406857
:106D6C00FFF7B2BF002281F001014068FFF79CBF22
:106D7C0000231A4619464068FFF78EBF00231A46B7
:106D8C0019464068FFF780BF002211464068FFF7A4
:106D9C0073BF002211464068FFF75EBF002202213C
:106DAC004068FFF761BF00231A464068FFF74CBFED
:106DBC00024B03225A60024A1A607047DCE303203C
:106DCC009C900D000021FFF78BBD0021FFF790BDBB
:106DDC0010B5044601700846FFF752FD00236360AE
:106DEC00204610BD10B504460078FFF7EBFF48B9FC
:106DFC0020784FF6FF71FFF71BFD2078BDE810409F
:106E0C00FFF7E3BF10BD38B5044600780D46FFF719
:106E1C00D9FF40B920782946FFF712FD2078BDE84C
:106E2C003840FFF7D2BF38BD38B5044600780D4660
:106E3C00FFF7C8FF40B920782946FFF709FD2078F5
:106E4C00BDE83840FFF7C1BF38BD0078FFF7BDBFC4
:106E5C00400830B51860002418688842E5B206D99D
:106E6C000134082C02D040081860F5E70725024BC6
:106E7C005B5D137030BD00BFC8900D002DE9F04371
:106E8C0007468FB000780E46FFF79CFF002862DBA8
:106E9C003C781422002109A801F057FB0B23204653
:106EAC00002209A9ADF82430FFF7FAFC9DF82D401B
:106EBC0054B19DF82C5035B9DDF830809DF83490E4
:106ECC009DF8354003E00024A146A0460125337906
:106EDC0005B1BBB99D420BD1B268424508D18DF8C2
:106EEC0020908DF82140BDF82010B289914209D034
:106EFC0053B1002438780194009423462246012192
:106F0C00FFF7E6FC002026E08DF80F30B1680A98F8
:106F1C0004AB0DF10F02FFF79BFF317905B1B1B94D
:106F2C00A94208D0002438780194747B337B9DF8F7
:106F3C000F200094E4E7B3684345F3D38DF8209019
:106F4C008DF82140BDF82020B3899A42EAD1049BE8
:106F5C004345E7D1D6E70FB0BDE8F0832DE9F0410A
:106F6C0088B000230446007802930E461746FFF7BC
:106F7C0029FF054600BB94F800800146142203A8A3
:106F8C0001F0E3FA0B232A4603A94046ADF80C3076
:106F9C00FFF786FC02AB0DF1070207FB06F1049824
:106FAC008DF80750FFF754FF20789DF80710FFF776
:106FBC0057FC2078FFF709FF029808B0BDE8F08174
:106FCC0038B5044600780D46FFF7FCFEC8B9616879
:106FDC0071B10C4BC25CAA4202D001300828F9D125
:106FEC000130C0B2C14001222046FFF7B7FF03E0D9
:106FFC0029462078FFF734FC2078BDE83840FFF7AD
:10700C00E4BE38BDC8900D0008B50078FFF730FC21
:10701C00C0B208BD30B587B004460A9D0078009513
:10702C00FFF746FC3DB902A92078FFF749FC9DF813
:10703C001430DB07F7D407B030BD0078FFF728BC5D
:10704C0010B50446006818B1FFF766FE00232360F4
:10705C0010BD10B50446FFF7F3FF204610BD00002D
:10706C0010B5094C00204FF6FF732060A080A07172
:10707C0020816381FFF7C4FD2046044A0449BDE822
:10708C00104001F0DFB800BFE4E30320F8DC03207C
:10709C005F700D0010B50446006808B1FFF778FC6E
:1070AC00204610BD10B5064C002320462360FFF788
:1070BC0067FC2046034A0449BDE8104001F0C2B801
:1070CC00F0E30320F8DC0320A1700D00F8B50646B0
:1070DC000D468F180024BD420CD0336815F8011BE7
:1070EC009B6830469847002801DB0444F3E7002CEA
:1070FC0008BF04462046F8BD08B5FEF7AFFE08BD34
:10710C0003689B68184738B50D210546FFF7F8FF53
:10711C000A2104462846FFF7F3FF204438BD38B552
:10712C000546FEF79BFE04462846FFF7ECFF20447D
:10713C0038BD30B58BB00B4600218DF82410012AD8
:10714C0098BF0A220DF12304B3FBF2F505FB1233B1
:10715C0003F0FF03092B94BF30333733DBB22146E6
:10716C0004F801392B46002DEED1FEF777FE0BB05B
:10717C0030BD0CB42DE9F04387B000AF07F13804F3
:10718C00054654F8049B3C600E4623464A4614219F
:10719C00381DFFF7C9FD132805D8391D2846FEF701
:1071AC005DFE044613E000F1080323F00703E846F4
:1071BC00ADEB030D411C23464A4668463C60FFF785
:1071CC00B3FD69462846FEF749FE0446C5461EB186
:1071DC002846FFF798FF044420461C37BD46BDE8FF
:1071EC00F04302B070470000014B024A1A6070472E
:1071FC00F4E3032043910D00024B1A68024B1A6012
:10720C00704700BF90DC0320F8E303200021FFF758
:10721C00FFBC10B58368044613B10322014698479E
:10722C00204610BD10B50446FFF7F3FF204610BDF5
:10723C000348044A04490023836001F003B800BFEB
:10724C00FCE30320F8DC032031720D0008B50C4B75
:10725C0033B100F06DF903681B699847002809DC0D
:10726C00084B63B100F0ECF903681B6998470028E0
:10727C0003DC08BDAFF30080F2E7AFF3008008BD7C
:10728C00000000000000000008B5FFF7DFFFFFF76B
:10729C0057FB014B186008BD30E703200248034A36
:1072AC000349121A01F046B900F4032004F4032038
:1072BC0090940D0007B5002300931A466FF07701E8
:1072CC00FFF7B8FC03B05DF804FB000007B543887A
:1072DC000A2B08D0502B09D1094B1B683BB103B0CA
:1072EC005DF804EB1847FFF7E5FF06E00023009379
:1072FC001A466FF07701FFF79DFC03B05DF804FBB5
:10730C000CE4032038B5104C104D2368AB42104BE5
:10731C000CBF012200221A7002D0FFF7BFFF2560BC
:10732C00FFF7F6FA044601F019F90A4B13B120469F
:10733C00AFF3008000210748FFF7DEFC0021064870
:10734C00BDE83840FFF76CBC00F403201E1C279AE4
:10735C0010E4032000000000D9720D00704710B536
:10736C001821044600F07CFF204610BDF0B5037DCB
:10737C00062B8DB00E4600F104074FF0000402D02E
:10738C0000F1080518E00CAD394605F8304D2F23F7
:10739C002A460A20FFF704FB284601F00FF9336850
:1073AC000246DB682946304698470FE024B12E216F
:1073BC003046FFF7A5FE044415F8011D0A2230469D
:1073CC00FFF7B7FEBD420444F0D120460DB0F0BD2E
:1073DC0010B5054B0446112240F8043B002101F086
:1073EC00B4F8204610BD00BFD4910D000346074AE7
:1073FC0010B543F8042B01F1100251F8044B43F87B
:10740C00044B9142F9D10A781A7010BDD4910D0039
:10741C00037D042B01D1406808E0062B0AD1436898
:10742C0053B9836843B9C36833B90069003018BFD6
:10743C0001207047002070470120704710B59DF85F
:10744C00084044EA032343EA024242EA016104236E
:10745C004160037510BD37B50D788B784A78C978C3
:10746C0000912946FFF7EAFF03B030BD4174704725
:10747C00704708B50021007CFFF79AFB30EA20002A
:10748C0028BF4FF0FF3008BD08B50121007CFFF785
:10749C008FFB30EA200028BF4FF0FF3008BD08B545
:1074AC00007CFFF77DFB20EAE07008BD08B5007C8E
:1074BC00FFF76EFB20EAE07008BD007CFFF788BB8D
:1074CC0010B51421044600F0CBFE204610BD38B593
:1074DC000446007C0D46FFF763FB002801DC607C52
:1074EC0028B12946207CFFF76BFB20EAE07038BD01
:1074FC0010B50446002363604FF47A73A360054B08
:10750C00236001230846217463741146FFF730FB96
:10751C00204610BDE8910D000022007CFFF730BB27
:10752C0010B514220446002101F00FF8204610BDBE
:10753C0030B50E4D87B001A8FFF7F2FF296811F0A6
:10754C00010410D12846FCF7B1FD60B101AA214617
:10755C000748FFF7CDFF2846FCF7ADFD054A064965
:10756C00034800F06FFE024807B030BD14E403205E
:10757C0018E40320F8DC03207D740D00704741747F
:10758C00704708B5007CFFF75BFA20EAE07008BD95
:10759C0008B5007CFFF72CFA20EAE07008BD08B5AE
:1075AC00007CFFF735FA30EA200028BF4FF0FF309F
:1075BC0008BD08B5007CFFF723FA30EA200028BF8D
:1075CC004FF0FF3008BD007CFFF72ABA10B514212C
:1075DC00044600F045FE204610BD70B5457C0446BF
:1075EC000E4625B9007CFFF72BFA002805DD314645
:1075FC00207CBDE87040FFF7F3B9284670BD000051
:10760C0010B5044608461146002262604FF47A72A7
:10761C00A260054A22600122207462741A46FFF7A8
:10762C00D7F9204610BD00BF18920D000023007C36
:10763C00FFF70EBA0022FFF7F9BF007CFFF7F8B98D
:10764C0038B50C4D296811F0010411D12846FCF70E
:10765C002DFD68B1084A094B09482146FFF7D0FFB8
:10766C002846FCF728FD074A0749054800F0EAFDC3
:10767C00034838BDC4E40320C8E4032040E40320DD
:10768C002CE40320F8DC032089750D007047F8B555
:10769C00064615460C468F18BC4206D0336814F8C3
:1076AC00011B9B6830469847F6E72846F8BD002238
:1076BC00007CFFF7EDB90021007CFFF7F1B9002148
:1076CC00007CFFF7F5B90021007CFFF7F9B9002128
:1076DC00007CFFF7FDB910B51421044600F0C0FD85
:1076EC00204610BD10B50446002363604FF47A7336
:1076FC00A360044B2174084623601146FFF7F8F988
:10770C00204610BD48920D0000231A461946007CF5
:10771C00FFF7A6B970B50C4686B0142506462A4666
:10772C00002101A800F011FF23788DF80830636860
:10773C000393E36804930022237A307CADF8045061
:10774C0001A90593FFF7DCF906B070BD1FB5003336
:10775C008DF800104FF06401039118BF01236946A6
:10776C0001928DF80830FFF7D5FF05B05DF804FBEA
:10777C000123FFF7EBBF0022007CFFF779B9C9B2F8
:10778C00FFF7F9BF0022007CFFF77AB90121FFF760
:10779C00F9BF0021007CFFF7A3B900221146406815
:1077AC00FFF78ABA002211464068FFF795BA00220B
:1077BC004068FFF789BA002281F001014068FFF7A9
:1077CC0073BA00231A4601214068FFF765BA0023FB
:1077DC001A4619464068FFF757BA0022114640680E
:1077EC00FFF74ABA002211464068FFF735BA00226B
:1077FC0002214068FFF738BA00231A464068FFF7A9
:10780C0023BA38B5054688B104684CB1A3681BB1DE
:10781C0003222146204698471021204600F020FDE7
:10782C0028461421BDE8384000F01ABD38BD10B10F
:10783C0003685B681847704710B503680446BBB112
:10784C005868FFF785F878B923685A7C12B95868DC
:10785C00FFF786F823685868FFF78AF8206800233A
:10786C00236028B1FFF7CDFF206808B1FFF7C9FFEF
:10787C00204610BD38B50446D0F8C40108B1FCF759
:10788C0008FCD4F8C00108B1FFF782F8D4F8BC5159
:10789C0035B12846FFF7D0FF0421284600F0E0FC64
:1078AC00206808B1FFF7C3FF204638BD10B5044B64
:1078BC00044640F8083BFFF7DDFF204610BD00BF33
:1078CC0070920D0038B50E4C0E4B23600025022330
:1078DC0004F5E4706360A560C4F8C451C4F8C851E1
:1078EC00FFF74EF8084BC4F8CC5184F8D051236004
:1078FC002046064A0649BDE8384000F0A3BC00BF4C
:10790C004CE5032058930D0070920D00F8DC032019
:10791C00B9780D0037B502AC036804F8011DDD6BB6
:10792C0001224FF0FF332146A84703B030BD10B4FD
:10793C000368DC6B4FF0FF33A4465DF8044B6047E3
:10794C0037B502AC036804F8011DDD6B2146134604
:10795C000122A84703B030BD704738B543691A6897
:10796C00002A044605DAB3F88620B3F884309A422C
:10797C0001D001250BE003681B699847002814BF50
:10798C000125002503D123682046DB6A9847284649
:10799C0038BD43691868C043C00F7047704700205A
:1079AC00704710B51421044600F05AFC204610BD57
:1079BC00FCF76DBB7FB51646002242600292039223
:1079CC005A1C04460D4608D04FF47A72B3FBF2F100
:1079DC00029102FB11314A43039260690823009320
:1079EC0041F205026B4440F6FF710068FFF790F816
:1079FC00002808DB60690023324629460068FFF73F
:107A0C00A7F8002804DAFFF797F9036863600020F1
:107A1C0004B070BD10B5036804469B689847A36812
:107A2C00013BA3602BB923682046DB68BDE81040FE
:107A3C00184710BD70B504464D69054B44F8043B1E
:107A4C008C3506460FCD0FC42B682370304670BDA5
:107A5C00D4910D0010B54369B3F88620B3F8843087
:107A6C009A42044605D06269B2F8843013441879FE
:107A7C0010BD03681B6998470028F4D14FF0FF3004
:107A8C0010BD10B54369B3F88620B3F884309A4220
:107A9C00044608D06269B2F88430591C1344A2F829
:107AAC008410187910BD03681B6998470028F1D120
:107ABC004FF0FF3010BDF8B543691746B3F8862078
:107ACC00B3F884309A4205460E4606D103681B690A
:107ADC00984710B94FF0FF3414E06969B1F884305D
:107AEC00B1F88640E41ABC4228BF3C4619442246F1
:107AFC000431304600F01EFD6A69B2F8843023442C
:107B0C00A2F884302046F8BD2DE9F043984603686E
:107B1C0093B0DB6A0D4606461746984712AB002415
:107B2C0043F8484D224621462846FEF741FE814641
:107B3C0000283DD1009B002B56D05B69002B53D005
:107B4C0006A8FFF745FC009B5C696378022B01D10A
:107B5C00211D13E00A2B14D11122494601A800F073
:107B6C00F4FCA36833BBE36823BB4FF6FF702569B5
:107B7C00FEF71EFF85421DD104F1140106A8FFF784
:107B8C006AFC06A8FFF744FC00282DD0336807AD2B
:107B9C00D3F82090184B0C930FCD0DAC0FC42B6861
:107BAC0023703A4643460CA93046C84781461BE031
:107BBC00A14619E004F1080301AD1834186859689E
:107BCC002A4603C20833A3421546F7D1062301A95E
:107BDC000CA80DAD8DF81430FFF708FC0FCD07ACD9
:107BEC000FC42B682370CCE70098FEF7D9FD4846EC
:107BFC0013B0BDE8F08300BFD4910D00426900239F
:107C0C00A2F884304269A2F8863070472DE9F04121
:107C1C001E4603680C468AB0DB6A05461746984731
:107C2C00237DD5F81480042B0CBF02200A200622D9
:107C3C000121FEF795FFC8F800006B691B68002B4B
:107C4C0018DB2846FFF7DAFFD6B1002303A9F0B200
:107C5C000393ADF81030FEF753FE58B9686906234C
:107C6C00009341F20B0203AB40F6FF710068FEF784
:107C7C004FFF28B12B682846DB6A002498473BE06D
:107C8C001C263246002103A800F05FFC237D8DF8F2
:107C9C000C60042B0CD1022338468DF80D30FEF706
:107CAC008FFEADF80E006068FEF782FE049013E0C4
:107CBC000A2338468DF80D30FEF782FE05AEADF87E
:107CCC000E00231D04F1140718685968324603C2CC
:107CDC000833BB421646F7D16B691C2203A91868FE
:107CEC00FEF726FF0028C5D104340FCC6D698C3506
:107CFC000FC523682B70012420460AB0BDE8F08123
:107D0C0010B5436904461868002801DBFEF708FF2C
:107D1C0063694FF0FF321A606069112200218C30C8
:107D2C0000F013FC2046BDE81040FFF767BF0000D1
:107D3C0030B54269B2F886308BB004461BB1B2F84C
:107D4C0084209A4240D06369186800283FDBB3F85E
:107D5C0086507F2D3BD8191DC5F18002082329447C
:107D6C00FEF7EEFE00280CDD6369B3F886200AB935
:107D7C00A3F884206269B2F886301844A2F8860011
:107D8C0025E0FEF7D9FF03680B2B20D0FEF7D4FFBC
:107D9C0003680B2B1BD02023002502930395FEF7C1
:107DAC00CBFF036801930E4B009302AA2B460D499F
:107DBC003220FEF71DFF63691868FEF7B1FE636998
:107DCC004FF0FF321A6002E0FFF718FFBBE7626961
:107DDC00B2F88630B2F88400181A0BB030BD00BF70
:107DEC000B930D0004930D0010B5002304460160A5
:107DFC00A0F88430A0F886308830FFF7E9FA2046E6
:107E0C0010BD00004FF47A7270B500238260144AE2
:107E1C0043600260436183610446A0200E46FCF778
:107E2C0034F9054610B13146FFF7DEFF1420FCF79C
:107E3C002CF9034628B1012242608260094A026093
:107E4C000561A0696561A36128B14368013B43608A
:107E5C000BB9FFF7DFFD2046FFF7D0FE204670BDC3
:107E6C00C0920D00A4920D0010B54FF0FF310446E6
:107E7C00FFF7C8FF204610BD10B504460068002867
:107E8C0001DBFEF74DFE204610BD10B504692046FF
:107E9C00FFF7F2FF24B12046BDE81040FCF7F7B81D
:107EAC0010BD002211464068FEF7E6BE00221146C6
:107EBC004068FEF701BF002211464068FEF70CBF78
:107ECC0000224068FEF700BF002281F001014068EB
:107EDC00FEF7EABE00231A4619464068FEF7DCBEE0
:107EEC0000231A4619464068FEF7CEBE0022114602
:107EFC004068FEF7B1BE002202214068FEF7B4BE16
:107F0C0000231A464068FEF79FBE0000024B042275
:107F1C005A60024A1A60704720E7032024930D0030
:107F2C0000231A464068FEF78FBE002202214068EB
:107F3C00FEF79ABE002211464068FEF78DBE002265
:107F4C0011464068FEF798BE00231A461946406851
:107F5C00FEF79ABE00231A4619464068FEF79CBEEF
:107F6C00002281F001014068FEF79EBE00224068AD
:107F7C00FEF7AABE002211464068FEF7ADBE0022F5
:107F8C0011464068FEF798BE2DE9F043002495B0E9
:107F9C0016460D460746FFF71BFA214620220CA871
:107FAC00009400F0D2FA40230C9321466B460CAAA5
:107FBC003046FEF7FDFB0446002844D10246012161
:107FCC006868FEF759FE0221804622466868FEF773
:107FDC0053FE009E81462146002E34D0002932D11A
:107FEC007368022B02D00A2B09D02AE0B8F1000FDB
:107FFC0027D0716938460431FFF72DFA20E0B9F12A
:10800C00000F1ED07469112201A800F09EFA0623FD
:10801C008DF8143001AD04F1080318341868596850
:10802C002A4603C20833A3421546F7D101A906A874
:10803C0007ADFFF7DBF90FCD3C1D0FC42B68237088
:10804C000121F669C8E70098FEF7AAFB384615B07F
:10805C00BDE8F083024B034A1A6000225A60704755
:10806C0028E7032058930D0070B5184E316811F0B5
:10807C00010504460AD13046FCF718F830B1294600
:10808C001348FEF7A5FE3046FCF715F81048FEF72E
:10809C00D4FF28B1A4F10B03022B01D8002070BD32
:1080AC0000F0AAF8FFF775FB08B1012CF6D9FFF721
:1080BC00C7FAFFF7C2FA18B1A4F10903012BEDD9E5
:1080CC00232C8CBF0020012070BD00BFFCDC0320E2
:1080DC0000DD0320232838B504460D460AD8FF29B5
:1080EC0008D0FFF7C1FF28B129462046BDE838402B
:1080FC00FEF776BB38BD38B504460D46FEF778FB67
:10810C00FF2810D0062804D84D2323FA00F0C3070B
:10811C0009D42046FFF7A8FF28B129462046BDE820
:10812C003840FEF76DBB38BD10B50446FEF760FB5A
:10813C000438C0B2012808D92046FFF795FF20B1BA
:10814C002046BDE81040FEF763BB002010BD0D2893
:10815C0010B504469CBF0E34A4B22046FFF784FF32
:10816C0050B103212046FEF733FB032804D12046EF
:10817C00BDE81040FEF754BB002010BD2DE9F041C6
:10818C0090461E46072407460D46B8F1000F04D151
:10819C00C4F1070146FA01F101E046FA04F101F0DD
:1081AC0001013846FFF7A7FF01212846FFF7A3FF7F
:1081BC0000212846FFF79FFF14F1FF34E5D2BDE8FC
:1081CC00F081000070B5044614252A46094E0021A2
:1081DC0000F0BBF9258020253146A5602561284695
:1081EC0000F040F831466060284600F03BF8E06053
:1081FC00204670BD84930D0030B50E4D296811F0EA
:10820C00010487B013D12846FBF750FF78B101A8C1
:10821C00FFF7D8FF01AA21460748FFF763FA284663
:10822C00FBF749FF054A0649034800F00BF80248E2
:10823C0007B030BD34E7032038E70320F8DC032017
:10824C0099760D000B460146184600F065B9000002
:10825C00024B1868BFF35F8F704700BF4CE70320D9
:10826C00FBF715BF00F000B810B5002814BF04468A
:10827C0001242046FEF748FD20B9FFF7E9FF08B1BD
:10828C008047F6E710BD0000184B1A68D1075CBF99
:10829C0001221A60164B1A68D2075CBF01221A60C1
:1082AC00144B1A68D0075CBF01221A60124B1A6873
:1082BC00D1075CBF01221A60104B1A68D2075CBF51
:1082CC0001221A600E4B1A68D0075CBF01221A609B
:1082DC000C4B1A68D1075CBF01221A600A4B1A6852
:1082EC00D2075CBF01221A60704700BF6CE7032005
:1082FC0068E7032064E7032060E703205CE70320C2
:10830C0058E7032054E7032050E70320244B1A6856
:10831C00D0075CBF01221A60224B1A68D1075CBFE0
:10832C0001221A60204B1A68D2075CBF01221A6026
:10833C001E4B1A68D0075CBF01221A601C4B1A68CE
:10834C00D1075CBF01221A601A4B1A68D2075CBFB6
:10835C0001221A60184B1A68D0075CBF01221A6000
:10836C00164B1A68D1075CBF01221A60144B1A68AD
:10837C00D2075CBF01221A60124B1A68D0075CBF8F
:10838C0001221A60104B1A68D1075CBF01221A60D7
:10839C000E4B1A68D2075CBF01221A60704700BFEF
:1083AC009CE7032098E7032094E7032090E7032041
:1083BC008CE7032088E7032084E7032080E7032071
:1083CC007CE7032078E7032074E7032070E70320A1
:1083DC00244B1A68D0075CBF01221A60224B1A6822
:1083EC00D1075CBF01221A60204B1A68D2075CBF10
:1083FC0001221A601E4B1A68D0075CBF01221A605A
:10840C001C4B1A68D1075CBF01221A601A4B1A6800
:10841C00D2075CBF01221A60184B1A68D0075CBFE8
:10842C0001221A60164B1A68D1075CBF01221A6030
:10843C00144B1A68D2075CBF01221A60124B1A68DF
:10844C00D0075CBF01221A60104B1A68D1075CBFC1
:10845C0001221A600E4B1A68D2075CBF01221A6007
:10846C00704700BFCCE70320C8E70320C4E7032014
:10847C00C0E70320BCE70320B8E70320B4E70320E0
:10848C00B0E70320ACE70320A8E70320A4E7032010
:10849C00A0E70320184B1A68D1075CBF01221A60B1
:1084AC00164B1A68D2075CBF01221A60144B1A686B
:1084BC00D0075CBF01221A60124B1A68D1075CBF4F
:1084CC0001221A60104B1A68D2075CBF01221A6095
:1084DC000E4B1A68D0075CBF01221A600C4B1A684D
:1084EC00D1075CBF01221A600A4B1A68D2075CBF25
:1084FC0001221A60704700BFECE70320E8E7032075
:10850C00E4E70320E0E70320DCE70320D8E70320BF
:10851C00D4E70320D0E7032010B5054C13462CB14B
:10852C000A4601460220AFF3008010BD204610BD64
:10853C000000000010B5431E0A44914204D011F80B
:10854C00014B03F8014FF8E710BD02440346934278
:10855C0002D003F8011BFAE77047000038B5124B44
:10856C001C68A36B0546D3B91820FEF7CDFB43F26C
:10857C000E33A06303804AF6CD33438041F234239B
:10858C0083804EF26D63C3804DF6EC63038105234B
:10859C0043810B23838101220023C0E90423A36BB5
:1085AC0000221D615A6138BDF4DC0320034611F82A
:1085BC00012B03F8012B002AF9D17047034613F85D
:1085CC00012B002AFBD1181A013870471D400D00F1
:1085DC0059400D0085400D0089400D000000000041
:1085EC00000000000000000045410D0000000000EC
:1085FC0000000000E5400D0035410D001D410D004F
:10860C0017410D00C9400D00F7400D00F1400D0061
:10861C00EB400D007EFF06000100000000EF6465DA
:10862C006661756C7420004D5342004C5342003C03
:10863C0053504953657474696E6773206465666141
:10864C00756C743E003C53504953657474696E6785
:10865C0073202573256C75202573204D4F444525BB
:10866C00643E00534420696E6974004446506C614A
:10867C0079657220696E6974206661696C65640045
:10868C004446506C6179657220696E697400706C37
:10869C006179696E672E2E2E00636F6E6E65637442
:1086AC00696E6720746F204D515454202E2E2E006D
:1086BC007265747279696E67204D51545420636FE2
:1086CC006E6E656374696F6E20696E2035207365FC
:1086DC00636F6E64732E2E2E004D51545420636FB5
:1086EC006E6E65637465643F0077726974696E675A
:1086FC0020746F2066696C6500696E7365727420F6
:10870C00746578742068657265006572726F72208A
:10871C006F70656E696E672066696C650041697281
:10872C00205175616C697479207761726E696E671E
:10873C002E20415120726561643A202569200A007F
:10874C00416972205175616C69747920526561645C
:10875C003A202569200A00415120777269746520FE
:10876C006572726F72004D512D39207761726E698E
:10877C006E672E204D512D3920726561643A20258B
:10878C0069200A004D512D39207772697465206576
:10879C0072726F720044414E47455220494D4D490B
:1087AC004E414E542E204D512D393A2025692041F1
:1087BC00513A2025692054656D703A202569200AAC
:1087CC0000486967682044616E6765722E204D51C0
:1087DC002D393A2025692041513A202569205465CC
:1087EC006D70202569200A00486967682064616EF5
:1087FC00676572207772697465206572726F722E6C
:10880C00006D6175726963696F76393900696F2E15
:10881C0061646166727569742E636F6D007468694A
:10882C007369736172616E646F6D737472696E6774
:10883C00666F72616B6579006D6175726963696FE2
:10884C007639392F66656564732F20006D617572FA
:10885C006963696F7639392F66656564732F536D5B
:10886C006172745F48656C6D65745F424D45006D57
:10887C006175726963696F7639392F6665656473E2
:10888C002F536D6172745F48656C6D65745F4D51EB
:10889C002D39006D6175726963696F7639392F6690
:1088AC00656564732F536D6172745F48656C6D659B
:1088BC00745F4169725175616C69747900000000D4
:1088CC0000C0014000100240002002402C010000BA
:1088DC0018000000F40100002C0100005000000002
:1088EC000000000000000000E9400D00D7420D0020
:1088FC00F1570D00D9700D00ED500D00F1540D0025
:10890C00754F0D00014E0D00B1550D0047560D0071
:10891C007F560D009B560D0000000000000000006B
:10892C000000000000000000F1570D00D9700D0090
:10893C00A5400D00F1540D0011560D002D560D00E3
:10894C00B1550D0047560D007F560D009B560D007E
:10895C0000000000003E5B4F5B3E3E6B4F6B3E1CCD
:10896C003E7C3E1C183C7E3C181C577D571C1C5EE4
:10897C007F5E1C00183C1800FFE7C3E7FF001824BB
:10898C001800FFE7DBE7FF30483A060E2629792965
:10899C0026407F050507407F05253F5A3CE73C5A9A
:1089AC007F3E1C1C08081C1C3E7F14227F22145F77
:1089BC005F005F5F06097F017F006689956A6060D2
:1089CC0060606094A2FFA29408047E040810207ECC
:1089DC00201008082A1C08081C2A08081E10101051
:1089EC00100C1E0C1E0C30383E3830060E3E0E0697
:1089FC00000000000000005F0000000700070014EA
:108A0C007F147F14242A7F2A1223130864623649A8
:108A1C005620500008070300001C22410000412290
:108A2C001C002A1C7F1C2A08083E08080080703095
:108A3C000008080808080000606000201008040204
:108A4C003E5149453E00427F40007249494946210A
:108A5C0041494D331814127F1027454545393C4A7E
:108A6C004949314121110907364949493646494995
:108A7C00291E0000140000004034000000081422DD
:108A8C00411414141414004122140802015909064B
:108A9C003E415D594E7C1211127C7F494949363E4C
:108AAC00414141227F4141413E7F494949417F0932
:108ABC000909013E414151737F0808087F00417F3D
:108ACC0041002040413F017F081422417F4040403B
:108ADC00407F021C027F7F0408107F3E4141413ED3
:108AEC007F090909063E4151215E7F091929462655
:108AFC004949493203017F01033F4040403F1F2059
:108B0C0040201F3F4038403F63140814630304782F
:108B1C0004036159494D43007F414141020408104F
:108B2C0020004141417F040201020440404040408A
:108B3C00000307080020545478407F2844443838F8
:108B4C0044444428384444287F385454541800086A
:108B5C007E090218A4A49C787F0804047800447D44
:108B6C0040002040403D007F1028440000417F40E1
:108B7C00007C047804787C08040478384444443835
:108B8C00FC1824241818242418FC7C080404084815
:108B9C005454542404043F44243C4040207C1C2066
:108BAC0040201C3C4030403C44281028444C9090C1
:108BBC00907C4464544C440008364100000077001B
:108BCC0000004136080002010204023C2623263C28
:108BDC001EA1A161123A4040207A385454555921B3
:108BEC00555579412154547841215554784020549D
:108BFC005579400C1E5272123955555559395454E9
:108C0C00545939555454580000457C410002457D57
:108C1C00420001457C40F0292429F0F0282528F059
:108C2C007C545545002054547C547C0A097F4932AD
:108C3C00494949323248484832324A4848303A4128
:108C4C0041217A3A42402078009DA0A07D394444CD
:108C5C0044393D4040403D3C24FF2424487E494358
:108C6C00662B2FFC2F2BFF0929F620C0887E0903C9
:108C7C0020545479410000447D413048484A3238F0
:108C8C004040227A007A0A0A727D0D19317D26291C
:108C9C00292F28262929292630484D402038080814
:108CAC00080808080808382F10C8ACBA2F10283448
:108CBC00FA00007B000008142A142222142A14083B
:108CCC00AA005500AAAA55AA55AA000000FF001038
:108CDC001010FF00141414FF001010FF00FF1010F0
:108CEC00F010F0141414FC001414F700FF0000FF33
:108CFC0000FF1414F404FC141417101F10101F1090
:108D0C001F1414141F00101010F0000000001F108E
:108D1C001010101F10101010F010000000FF101099
:108D2C0010101010101010FF10000000FF140000A5
:108D3C00FF00FF00001F10170000FC04F4141417B0
:108D4C0010171414F404F40000FF00F71414141496
:108D5C00141414F700F7141414171410101F101F08
:108D6C00141414F4141010F010F000001F101F0055
:108D7C0000001F14000000FC140000F010F0101094
:108D8C00FF10FF141414FF141010101F000000002B
:108D9C00F010FFFFFFFFFFF0F0F0F0F0FFFFFF001F
:108DAC0000000000FFFF0F0F0F0F0F384444384432
:108DBC007C2A2A3E147E02020606027E027E026392
:108DCC00554941633844443C04407E201E20060231
:108DDC007E020299A5E7A5991C2A492A1C4C72010E
:108DEC00724C304A4D4D303048784830BC625A464F
:108DFC003D3E494949007E0101017E2A2A2A2A2A40
:108E0C0044445F444440514A444040444A51400029
:108E1C0000FF0103E080FF000008086B6B083612AE
:108E2C00362436060F090F06000018180000001033
:108E3C0010003040FF0101001F01011E00191D1719
:108E4C0012003C3C3C3C0000000000000000000014
:108E5C0000000000E7400D00C9420D006F580D00E6
:108E6C001B590D004D590D0083580D00C3580D00B2
:108E7C0000000000000000000000000000000000E6
:108E8C00A5400D00A5400D00A5400D00A5400D000E
:108E9C00A5400D00205B30780030005D2C20000ACE
:108EAC00090044726F707065642061207061636B9F
:108EBC00657400556E6B6E6F776E206572726F7293
:108ECC00004D51545400252525642E25646600461A
:108EDC0061696C656420746F207375627363726969
:108EEC00626500436F6E6E656374696F6E206661B8
:108EFC00696C6564005468652053657276657220F0
:108F0C00646F6573206E6F7420737570706F7274FC
:108F1C0020746865206C6576656C206F66207468BB
:108F2C0065204D5154542070726F746F636F6C20B8
:108F3C007265717565737465640054686520436C63
:108F4C0069656E74206964656E7469666965722002
:108F5C00697320636F7272656374205554462D38A3
:108F6C0020627574206E6F7420616C6C6F77656411
:108F7C00206279207468652053657276657200549E
:108F8C006865204D51545420736572766963652071
:108F9C00697320756E617661696C61626C650054F1
:108FAC006865206461746120696E20746865207541
:108FBC00736572206E616D65206F722070617373C2
:108FCC00776F7264206973206D616C666F726D656A
:108FDC0064004E6F7420617574686F72697A656491
:108FEC0020746F20636F6E6E6563740045786365E3
:108FFC0065646564207265636F6E6E656374207260
:10900C00617465206C696D69742E20506C65617398
:10901C00652074727920616761696E206C6174657A
:10902C00722E00596F752068617665206265656ED9
:10903C002062616E6E65642066726F6D20636F6E68
:10904C006E656374696E672E20506C656173652064
:10905C00636F6E7461637420746865204D51545451
:10906C00207365727665722061646D696E697374C4
:10907C007261746F7220666F72206D6F72652064FE
:10908C00657461696C732E00000000000000000024
:10909C00B36D0D00A96D0D009F6D0D00956D0D004C
:1090AC00896D0D007D6D0D00716D0D00696D0D00EC
:1090BC005F6D0D00556D0D00957F0D0000081018AB
:1090CC0020283038626175640053657269616C00E8
:1090DC0053657269616C31007479706500706172EE
:1090EC00616D00636D6400696400686E6400737484
:1090FC00726D0066696C74006C766C006164644817
:10910C00616E646C65720072656D6F766548616E38
:10911C00646C657200656E756D48616E646C657229
:10912C0073004A534F4E53747265616D4C6F6748B0
:10913C00616E646C65720061707000253031307541
:10914C0020005D200028293A2000205B00636F641A
:10915C0065203D200025690064657461696C73208D
:10916C003D20000D0A006C6E00666E00636F646536
:10917C000064657461696C006E6F6E650074726179
:10918C00636500696E666F007761726E0070616E68
:10919C00696300616C6C005A00252B3033643A25EE
:1091AC003032750025592D256D2D25645425483AEE
:1091BC00254D3A2553257A0061736374696D6500FA
:1091CC00000000000000000079730D0069730D00B1
:1091DC006B730D0000000000000000007D740D009A
:1091EC00CD740D00DB740D00D9700D00B9740D0039
:1091FC007F740D0095740D00C7740D00AB740D00D9
:10920C0079740D00000000000000000089750D004D
:10921C00D9750D00E7750D00D9700D009D750D0009
:10922C00BF750D00AB750D00D3750D008B750D0062
:10923C008F750D00000000000000000099760D00F5
:10924C00E3760D00BB760D009B760D00C3760D000A
:10925C00CB760D00D3760D00DB760D000000000000
:10926C000000000005780D00FB770D00F1770D0074
:10927C00E7770D00DB770D00CF770D00C3770D007E
:10928C00BB770D00B1770D00A7770D00957F0D0012
:10929C000000000000000000A9790D00AF790D005E
:1092AC00977E0D00BD790D00AB790D00000000001C
:1092BC00000000009D410D00D1410D0021790D00F1
:1092CC003B790D003D7D0D008F7A0D00617A0D000C
:1092DC0065790D00197C0D00157B0D00C37A0D000E
:1092EC000D7D0D0067790D009F790D004D790D00F6
:1092FC00C1790D00417A0D00776972696E67007251
:10930C00656376206572726F72203D2025640000C3
:10931C0000000000000000000D7F0D00037F0D0019
:10932C00F97E0D00AF7E0D00ED7E0D00E17E0D008F
:10933C00D57E0D00CD7E0D00C37E0D00B97E0D00D7
:10934C00957F0D0000000000000000002D7F0D0037
:10935C00377F0D00417F0D004B7F0D00557F0D00B9
:10936C00617F0D006D7F0D00797F0D00817F0D00F9
:10937C008B7F0D00957F0D000000000000000000A9
:10938C0000000000000000000000000000000000D1
:10939C0000000000000000000000000000000000C1
:1093AC0000000000000000000000000000000000B1
:1093BC0000000000000000000000000000000000A1
:1093CC000000000000000000000000000000000091
:1093DC00000000000000000000000000430000003E
:1093EC00E5420D00DB490D00ED4D0D00ED540D0077
:1093FC006B580D006B590D00D9590D00DD590D003E
:10940C00E1590D00FF590D00035A0D00075A0D00CC
:10941C000B5A0D00655E0D00895E0D008D5E0D0012
:10942C0073600D0077600D007B600D0031640D00E2
:10943C0035640D0039640D00BD640D00F5640D003C
:10944C00A9670D00BD6D0D006D700D00B1700D00A4
:10945C00F5710D0005720D003D720D00D1780D00F7
:10946C00197F0D0061800D0095820D0019830D0090
:10947C00DD830D00A1840D00000000000000000041
:04948C0000000000DC
:0494900000000000D8
:10949400000103070F1F3F7F0080C0E0F0F8FCFECF
:1094A40000000000000000000000000000000000B8
:1094B40000000000000000000000000000000000A8
:1094C4000000000000000000000000000000000098
:1094D4000000000000000000000000000000008008
:1094E4008080000000000000000000000000000078
:1094F400008080C0C00000000000000000000000E8
:109504000000000000000000000000000000000057
:109514000000000000000000000000000000000047
:109524000000000000000000000000000000000037
:109534000000000080C0E0F0F8FCF8E0000000004B
:109544000000000000000000000000000080808097
:10955400808000808000000000808080808000FF88
:10956400FFFF0000000080808080000080800000F9
:1095740080FFFF8080008080008080808000808069
:109584000000000000808000008C8E84000080F8C1
:10959400F8F8800000000000000000000000000057
:1095A400F0F0F0F0F0F0F0F0F0F0F0F0E0E0C08077
:1095B40000E0FCFEFFFFFF7FFFFFFFFFFF00000056
:1095C4000000000000000000000000FEFFC70101D1
:1095D400010183FFFF00007CFEC70101010183FF3D
:1095E400FFFF0038FEC78301010183C7FFFF0000AE
:1095F40001FFFF010100FFFF0701010100007FFFE0
:1096040080000000FFFF7F0000FFFFFF000001FF5C
:10961400FFFF010000000000000000000000000047
:10962400030F3F7F7FFFFFFFFFFFFFFFE7C7C78FEA
:109634008F9FBFFFFFC3C0F0FFFFFFFFFFFCFCFCD9
:10964400FCFCFCFCFCF8F8F0F0E0C00001030303B0
:1096540003030103030000000001030303030101EA
:1096640003010000000103030303010103030000DD
:1096740000030300000003030000000000000001D9
:1096840003030303030100000001030100000003BE
:1096940003010000000000000000000000000000C2
:1096A40000000080C0E0F0F9FFFFFFFFFF3F1F0F45
:1096B40087C7F7FFFF1F1F3DFCF8F8F8F87C7DFF14
:1096C400FFFFFFFFFFFFFF7F3F0F07003030000069
:1096D4000000000000000000000000000000000086
:1096E40000000000FEFEFC0000000000000000007E
:1096F40000000000000000000000000000E0C000C6
:1097040000000000000000000000303000000000F5
:109714000000000000000000000000000000000045
:1097240000C0FEFFFFFFFFFFFFFFFFFF7F7F3F1F24
:109734000F071F7FFFFFF8F8FFFFFFFFFFFEF8E0B2
:10974400000000010000000000000000FEFE000018
:1097540000FCFEFC0C06060EFCF80000F0F81C0EE3
:109764000606060CFFFFFF0000FEFE00000000FCE2
:10977400FEFC00183C7E66E6CE84000006FFFF0671
:1097840006FCFEFC0C0606060000FEFE0000C0F807
:10979400FC4E4646464E7C7840183C76E6CECC805D
:1097A40000000000000000000000000000000000B5
:1097B4000000000001070F1F1F3F3F3F3F1F0F0323
:1097C4000000000000000000000000000F0F000077
:1097D400000F0F0F000000000F0F000003070E0C16
:1097E40018180C060F0F0F0000010F0E0C180C0FA9
:1097F400070100040E0C180C0F070000000F0F00E7
:10980400000F0F0F0000000000000F0F0000000702
:10981400070C0C181C0C060600040E0C180C0F0781
:109824000000000000000000000000000000000034
:109834000000000000000000000000000000000024
:109844000000000000000000000000000000000014
:109854000000000000000000000000000000000004
:1098640000000000000000000000000000000000F4
:1098740000000000000000000000000000000000E4
:1098840000000000000000000000000000000000D4
:1098940000000000000000000000000000000000C4
:1098A400C4910D000000000088930D00A8930D00E2
:1098B400C8930D000000000000000000000000003C
:1098C40000000000E8930D0000000000000000000C
:1098D4000000000000000000000000000000000084
:1098E4000000000000000000000000000000000074
:1098F4000000000000000000000000000000000064
:089904000000000094DC0320C8
:10990C00FFFFFFFF00000102030405060708090A18
:10991C000B0C0D0E0F101112131415161718191A13
:08992C001B1C1D1E1F2028005A
:04993400785634121B
:04000003D000401CCD
:00000001FF
