:02000002D0002C
:1040000000400D00F8870D00000006000C000501BF
:084010000401E80500000000B6
:04401800987D0D0082
:10401C0009480A49884208B505D0094A824202D0AB
:10402C00121A03F067FE0748074A0021121A03F020
:10403C006CFE014808BD00BF9CDC032064870D00AA
:10404C0008DD032008DD0320F0E7032070B502F043
:10405C005FFD074C074BE41AA40800251E46A54239
:10406C0004D056F8253098470135F8E770BD00BFED
:10407C0054870D00BC860D0000F0F4B808B500F0B4
:10408C0073F9BDE8084002F005BD02F0CBBA02F0AE
:10409C00D1BA02F0CFBA000008B5034A00210C20B7
:1040AC0002F02CFAFEE700BF49620D000078B0FA6E
:1040BC0080F040097047012303707047037C03F0C4
:1040CC000803024603F0FF002BB1D36A506A181A9A
:1040DC0048BF6FF000407047704770477FB502468D
:1040EC0008461379956833B13DB90C4904B0BDE865
:1040FC00704002F007BC0A4B00E00A4B167B0A4CDE
:10410C000A49527B0292012E08BF2146019100956B
:10411C00074A002102F033FC04B070BDFB7D0D009A
:10412C007D810D00EA7D0D00F37D0D00F77D0D0006
:10413C00117E0D00103001F0DBB8103001F07BB8AF
:10414C0007B501220DF10701103000F0C1FF012865
:10415C000CBF9DF807004FF0FF3003B05DF804FB77
:10416C00103001F003B907B502AB012203F8011DB1
:10417C001030194601F0FAF803B05DF804FB10B5E5
:10418C003421044603F04CFC204610BD10B5044607
:10419C00006808B102F04EFA204610BD38B58469AB
:1041AC000A4B036005467CB16368013B63605BB9F5
:1041BC00236820469B689847A368013BA3601BB902
:1041CC0023682046DB689847284638BD90850D004B
:1041DC0010B50446FFF7E2FF20461C2103F020FC3B
:1041EC00204610BD30B585B01C4B009313798DF86B
:1041FC00043093680293137B8DF80C3000F58C65BA
:10420C00537B8DF80D3004460A466B4600F26C4128
:10421C00284601F0D5FBF0B1256004F23C45284658
:10422C0001F09CF80121204601F073FA014668B1B7
:10423C002146284600F034FF68B194F83C3413F062
:10424C00700316BF064B18461D6005E0204601F0B2
:10425C0060FA0028ECD1002005B030BDB47D0D0013
:10426C00CCE3032030B585B002F068FD4FF4165155
:10427C0002F058FD642002F0CFFB02F0E7FD4FF492
:10428C00165102F0DDFD642002F0C6FB03F094FB36
:10429C0002F040FE264B274800241C6000F02CFC4A
:1042AC00244800F001FE234800F05CFC76212248F3
:1042BC0000F0E6FB214801F0ACFD214B03211888EE
:1042CC0003F00CFB1F4B009301251F4B1F488DF86F
:1042DC0004406A460E2102938DF80C508DF80D4067
:1042EC00FFF780FF28B902F029FD194902F01DFBE8
:1042FC001CE002F023FD174902F017FB02F0A6FDAB
:10430C002A460146144801F0C5FE28B902F016FDF4
:10431C00124902F00AFBFEE702F010FD104902F010
:10432C0004FB02F00BFD0F4902F0FFFA05B030BDA3
:10433C005CDD0320A8E3032060DD032030E30320D1
:10434C009CDC0320B47D0D0080F0FA0278DE0320A3
:10435C002F7E0D00467E0D004CE30320517E0D0098
:10436C00667E0D00747E0D0008B50548042101F031
:10437C00B6FE47F23050BDE8084002F04DBB00BF1E
:10438C004CE3032010B5D421044603F049FB20462E
:10439C0010BD000073B5554D554E002401F0B6FE0E
:1043AC004FF6FF736B812C60AC80AC712C810220BA
:1043BC0002F0B4F84F4A5049284603F023FB4F4B08
:1043CC004FF4FA729A604E4A83F820401168C3F891
:1043DC00161051681289DA830222C3F81A1083F876
:1043EC00212083F8264083F82740464B3168DC7146
:1043FC00642283F86024444AC3F87024012211EA31
:10440C00020583F83C4483F83D4483F86A44C3F8BE
:10441C00784483F87C4483F87D4483F874241C46E8
:10442C000AD13046FFF742FE30B12946374802F038
:10443C005DF93046FFF73FFE3548344B354EC4F836
:10444C006C3400254FF47A732A4A33490574457449
:10445C0045608360314B036003F0D4FA3046304C36
:10446C0003F006F9234A2F49304603F0CBFA2E4BC2
:10447C00009340F229722D4B2D49204600F0A8FDE7
:10448C002C4B1C4A2C4923602046C4F8D06003F006
:10449C00B9FA2B462146294A294800F0C0FD2B4683
:1044AC002146284A284800F0B5FD2B462146274ACC
:1044BC00274800F0AFFD2B46264A2748214600F03E
:1044CC00A9FD1021254801F09FFC02231946122258
:1044DC00234800F036FB074A2249214803F092FAA0
:1044EC00214802B0BDE8704000F040B850DD032018
:1044FC000CDD032008DD032099410D004CE3032063
:10450C00E07D0D0078DE0320B47D0D0010DD03206E
:10451C0074E3032008E30320E5400D00C07D0D008B
:10452C00A4DD0320A9410D0067800D004B800D0018
:10453C0057800D0030810D00E7400D0082800D008A
:10454C0018DD032096800D00BCE30320B9800D001C
:10455C00FCE20320DD800D0024E3032030E3032084
:10456C00A8E30320AF4A0D0060DD0320FF22027494
:10457C0042748274C274704738B5094D296811F0C1
:10458C0001040AD12846FFF791FD30B121460548B8
:10459C0002F0ACF82846FFF78EFD024838BD00BF8C
:1045AC000CDD032010DD03202DE9F04190F91330D0
:1045BC00013305460F4606D1FFF7DEFF3946BDE84D
:1045CC00F04102F037B9072600244FF0010895F9A5
:1045DC001300002180B203F092F995F9110008FA4A
:1045EC0006F1394080B203F08AF995F913000121E4
:1045FC0080B203F084F995F91200640080B2E4B241
:10460C0003F096F908B144F0010416F1FF36DED23E
:10461C002046BDE8F08108B5FFF7AEFFBDE80840C5
:10462C0002F07FB810B50446FFF7A6FF2146BDE89F
:10463C00104002F08FB8000030B590F91030013303
:10464C0085B004460D461DD10179006802F099FC35
:10465C002068036829469B689847206802F099FCFB
:10466C0002222179206802F089FC206803685B69CA
:10467C0098470546206803685B69984740EA05201F
:10468C0085B235E090F9133001330ED11A4B1B4A29
:10469C00009302920023012268468DF804308DF8B5
:1046AC000C208DF80D30FFF7BDFF94F910000021A0
:1046BC0080B203F024F945F080012046FFF774FF27
:1046CC0000212046FFF770FF002105462046FFF72A
:1046DC006BFF40EA052085B294F91000012180B2ED
:1046EC0003F00DF994F91330013301D1FFF793FF67
:1046FC00284605B030BD00BFB47D0D0020A10700D9
:10470C0008B5FFF799FF40BA80B208BD30B590F9F3
:10471C001030013385B004460D4616D1017900687E
:10472C0002F02FFC2068036829469B689847206894
:10473C0002F02FFC01222179206802F01FFC206876
:10474C0003685B699847C5B22EE090F913300133CA
:10475C000ED1174B174A0093029200230122684690
:10476C008DF804308DF80C208DF80D30FFF75AFFC2
:10477C0094F91000002180B203F0C1F845F08001DB
:10478C002046FFF711FF00212046FFF70DFF0546DD
:10479C0094F91000012180B203F0B1F894F91330B0
:1047AC00013301D1FFF737FF284605B030BD00BFFC
:1047BC00B47D0D0020A1070008B5F321FFF7A6FF7B
:1047CC0000F0010008BD38B588210446FFF798FFBA
:1047DC008A21A0822046FFF793FF8C21E08220469D
:1047EC00FFF78EFF8E2120832046FFF789FF902153
:1047FC0060832046FFF784FF9221A0832046FFF7B9
:10480C007FFF9421E0832046FFF77AFF96212084D6
:10481C002046FFF775FF982160842046FFF770FF54
:10482C009A21A0842046FFF76BFF9C21E084204650
:10483C00FFF766FF9E2120852046FFF761FFA1212F
:10484C0060852046FFF762FFE12184F82C002046AA
:10485C00FFF756FFE321E0852046FFF757FFE421E1
:10486C0084F830002046FFF751FFE521054620462D
:10487C00FFF74CFF00F00F0040EA05106086E621C0
:10488C002046FFF743FFE52105462046FFF73EFF94
:10489C00001140EA0510A086E7212046FFF736FFFD
:1048AC0084F8360038BD00007FB590F91030013324
:1048BC0004460E46154611D10179006802F061FBE1
:1048CC002068036831469B6898472068036829462E
:1048DC009B689847206802F05CFB2DE090F9133040
:1048EC0001330ED1154B164A00930292002301227C
:1048FC0068468DF804308DF80C208DF80D30FFF7DC
:10490C0091FE94F91000002180B202F0F8FF06F03D
:10491C007F012046FFF748FE29462046FFF744FE5C
:10492C0094F91000012180B202F0E9FF94F91330E0
:10493C00013301D1FFF76FFE04B070BDB47D0D00E3
:10494C0020A10700F8B590F83C509DF818609DF830
:10495C001CE09DF8207061F3871562F3020563F388
:10496C00C50590F8403080F83C5066F3471380F84A
:10497C00403090F838306EF3C503044667F30203F9
:10498C0080F8383006F00702F221FFF78DFF94F81B
:10499C003820C2F3C20302F007019B0043EA411323
:1049AC0043EAD2122046F521FFF77EFF94F83C2013
:1049BC00C2F3C20302F007019B0043EA411343EA2E
:1049CC0092122046F421BDE8F840FFF76DBF30B5D8
:1049DC00044690F91000421C85B003D1206802F007
:1049EC0099FA22E0012180B202F089FF94F91000BB
:1049FC00012180B202F072FF94F91300431C04D120
:104A0C00FFF7BAFD01F07CFE0FE0012180B202F04D
:104A1C0065FF94F91100012180B202F05FFF94F957
:104A2C001200002180B202F059FFD0212046FFF77E
:104A3C006DFE6028A06020D12046B622E021FFF751
:104A4C0033FF4FF4967001F0E7FF2046FFF7B4FEFA
:104A5C00054608B16420F6E72046FFF7B4FE0523AF
:104A6C0000931A460321204602950195FFF76AFF31
:104A7C00642001F0D1FF012000E0002005B030BD22
:104A8C0010B50171044602F097FF20602046BDE886
:104A9C001040FFF79CBF01F039BB01F0D7BB01F010
:104AAC00CDBB10B50446C06808B101F0C3FD237836
:104ABC001BB10021E07902F011FF204610BD38B582
:104ACC000446C0680D4608B101F0B4FDA379062B6D
:104ADC000CBF0420032010FB05F080B2A08001F075
:104AEC00A1FDE06028B1A288002103F00EF96580D9
:104AFC0038BDA080608038BD10B504460121C07956
:104B0C0002F0ECFE0021E07902F0F9FE01232370A3
:104B1C0010BD38B5037805460C461BB10021C07991
:104B2C0002F0DCFE2B78EC7153B1A4B220460121CB
:104B3C0002F0D4FE20460021BDE8384002F0DFBE72
:104B4C0038BD70B500250446164683710570057294
:104B5C00C5600561FFF7B3FF20463146FFF7D9FF6B
:104B6C00204670BDC368002B00F08B812DE9F04FFF
:104B7C008379023BDBB2042B9CBFC44A52F823401E
:104B8C0087B0054688BF3224FFF787FF2B69C01A10
:104B9C00A042F9D3BE4AAB8807CA06AC04E90700A9
:104BAC00039C1B01D4F800250433019322B9D4F8DB
:104BBC006035002BC0F25581049CD4F8003523B924
:104BCC00D4F86035002BC0F23C81059CD4F800353C
:104BDC001BB9D4F86035002B6EDBAE4BEA791E683E
:104BEC00AD4CAE49E0681201B31840F080705B78B0
:104BFC00B75CE0600A6803F01F0343EA4713012720
:104C0C003A430A600C46A888D5F80C90D4F804A056
:104C1C009F408846002844D0CC4600224FF0A0414B
:104C2C001CF801EB0820802663689B1A462BFBD9E5
:104C3C00D8F80420D1F808351EEA060F43EA07031A
:104C4C00C1F808352FD063689B1A282BFBD9D1F8F3
:104C5C000C35013843EA07034FEA5606C1F80C3508
:104C6C00E2D1C9EB0C03A8889BB29842D8D84FF478
:104C7C00307303FB00F063689B1A462BFBD9D8F802
:104C8C000430CAEB030A8245C0F0D5804FF496700D
:104C9C00FFF705FFA888D5F80C90D4F804A00028DD
:104CAC00BAD10246E7E763689B1A112BCFD8636829
:104CBC009B1A112BF7D9CAE7D4F86435002B8CDA80
:104CCC00D4F86835002B88DAD4F86C35002B84DAEC
:104CDC00019801F0A7FC00283FF47FAFAB88002BB4
:104CEC0000F0D08000273B466D4E6E4900E0134625
:104CFC00EA68D25D03F1010E12F0800F14BFB046CA
:104D0C0088461FFA8EFE12F0400F14BFB14689463A
:104D1C0012F0200F20F8138018BFB24620F81E9016
:104D2C0008BF8A4603F1020812F0100F03F1030EBC
:104D3C0014BFB4468C461FFA88F812F0080F1FFAFD
:104D4C008EFE03F104091FFA89F914BFB3468B4692
:104D5C0012F0040F20F818A020F81EC014BFB246A1
:104D6C008A4603F1050812F0020F03F1060C03F159
:104D7C00070E20F819B01FFA8EFE14BFB1468946F3
:104D8C001FFA88F812F0010F1FFA8CFC14BF324680
:104D9C000A4620F818A020F81C9020F81E20013795
:104DAC00B5F804E0BFB203F10802BE4592B29ED83A
:104DBC0003F109020A3392B29BB252005B000199D3
:104DCC004FF4004686524908C65200221423C4F8F8
:104DDC000425304EC4F80C25C4F80835C4F8142545
:104DEC00C4F81025C4F82005C4F82415C4F82825E7
:104DFC00C4F82C25EB7931681B01CE18C95C73788B
:104E0C0003F01F0343EA41130121C4F86035C4F8D1
:104E1C000015C4F81021A160D4F81031002BFBD080
:104E2C0000234FF0FF32C4F81031C4F80035C4F839
:104E3C00602501F0FFFBFFF730FE286107B0BDE8ED
:104E4C00F08FD4F86435002BBFF6BFAED4F86835BC
:104E5C00002BBFF6BAAED4F86C35002BBFF6B5AE4E
:104E6C0036E7D4F86435002BBFF6A6AED4F8683517
:104E7C00002BBFF6A1AED4F86C35002BBFF69CAE60
:104E8C0026E770470423022299E700BF14810D0026
:104E9C0008810D00C8E30320F0ED00E0001000E0F5
:104EAC000D80FFFF0680FFFF8288C068002102F0A2
:104EBC002CBF000008B501F029F901F027F9014BCE
:104ECC00186008BDC8E3032001F020B901F01EB939
:104EDC0008B5D0F8D00003681B6B9847003018BF9A
:104EEC00012008BDF8B506460F461446C4B1D6F8E5
:104EFC00D00003681B6B984708B90020F8BDD6F8A2
:104F0C00D000FA2C03682546A8BFFA25DB682A4690
:104F1C003946984780B2241A8542A4B2E6D0ECE711
:104F2C000120F8BD2DE9F8430646884691461F46F8
:104F3C001D460024D6F8D00003681B6B9847D0B1EF
:104F4C00002D18DBD6F8D00003681B69984760B1B8
:104F5C00D6F8D00003685B69984708F80400013460
:104F6C00A4B24C4507D03D46ECE70A3D0A202DB2D1
:104F7C0001F052FDDEE72046BDE8F88370B504462B
:104F8C0000F1220596220021284602F0BEFE61683F
:104F9C00284602F0EBFED4F8D0002289036829469B
:104FAC005E6A0023B047003018BF012070BD10B5F9
:104FBC000446D0F8D00003681B6B984720B1D4F896
:104FCC00D0000368DB6A9847012010BD01F09EB841
:104FDC0030B50361039B0D4D028143610C4A0560A2
:104FEC0000234160C260C0F8BC30C0F8C030C0F8CB
:104FFC00C430C0F8C830C0F8CC308361C36180F8CD
:10500C00203080F82130A0F8B83030BD54810D002C
:10501C007D810D0010B580E80600037210BD10B53F
:10502C0003710023416302604383C36143620362E3
:10503C008362C362036310BD01F068B801F066B807
:10504C0001F064B810B50446243000F071FA28B1B0
:10505C0004F50C70BDE8104000F06ABA10BD01F008
:10506C0055B801F053B801F051B801F04FB883783E
:10507C00016943F00403837000F11002806800F0B2
:10508C000DBB10B5044680680A462430A16900F0B7
:10509C0076FA20B1A38803F00F0300EB431010BD88
:1050AC0070B5047805460E4684B92422214602F0D8
:1050BC002CFEAE60F379102B03D0202B06D14023AD
:1050CC0000E0202301202B70A87070BD002070BD63
:1050DC002DE9F74F03780446894615464BB1827883
:1050EC00D10706D50CE05A46216900F072FA002867
:1050FC003DDA637843F0020363704FF0FF3097E0C2
:10510C001A0703D5E36962699B1A07E09A0608D56A
:10511C00A3681A896369C3EB42139BB29D4228BFF3
:10512C001D462E464FF0000804F1100B002E35D012
:10513C0022786369A06812F0200FC3F3080A4FEAC3
:10514C00532102D0036A19441DE090F8058001EA4E
:10515C000808BAF1000F10D1B8F1000F0DD1002BD7
:10516C00C1D153064CBF036A236A236105E004D105
:10517C00237813F0700F11D1BBE72169A06800F000
:10518C0022FA08EB0001A068BAF1000F35D1B6F590
:10519C00007F32D3C36A994202D12EE0A81B47E0AC
:1051AC00B6F5806F1BD3227897064FEA562A06D4A1
:1051BC000279C8EB0202D2B2924528BF92469942BC
:1051CC004FEA4A2707D2A06853464A46006800F0C7
:1051DC00F3FC60B98DE75344994221D3F3E74A4677
:1051EC00006800F0A1FC002883D04FF400776369BD
:1051FC003B44B9446361F61B98E70022243000F06D
:10520C00BEF900283FF475AFCAF50077B74228BF46
:10521C00374600EB0A013A46484602F06BFDE6E7DA
:10522C002430019100F084F901990028CBD160E77A
:10523C0003B0BDE8F08F73B501220DF107010446F0
:10524C0046690569FFF744FF012805BF9DF8070073
:10525C0066614FF0FF30256102B070BD2DE9F04161
:10526C000E46017807690446002939D04569B542D4
:10527C003AD00EB9066131E00B0703D5C3699E42E3
:10528C002ED807E0880605D5A3681B89B6EB431F0B
:10529C0026D823E0D4F808E09EF806306A1E03F105
:1052AC000900731EC240C3409A4200D84DB94A0649
:1052BC004CBFDEF82020226A22611D4604F1100842
:1052CC000AE09B1AF9E742462169A06800F081F9CF
:1052DC00002805F1FF3503DD002DF4D1666103E0F4
:1052EC0027610020BDE8F0810120BDE8F0810000BD
:1052FC0038B5037804460BB9012038BD83785A07BA
:10530C0023D50121FFF7BDFE054628B9637843F08C
:10531C0001036370002038BD0378E52BF6D02378A9
:10532C001B0744BFE369C361238C4383638C838273
:10533C00094B1B682BB100F11601183098472B8BC9
:10534C006B82A37823F00403A370A068FFF77AFEA6
:10535C000028DBD0D0E700BFD0E3032010B5044613
:10536C00FFF7C6FF0023237010BD00002DE9F047A6
:10537C000378894619070446904608D583789A071E
:10538C0005D51B070BD5E169FFF768FF38B96378C2
:10539C0043F0010363704FF0FF30BDE8F0876369A1
:1053AC00DB439845F3D846464FF0000A6369002E5C
:1053BC0000F08180A068427912EA5325C3F30807F4
:1053CC001CD1DFB9216971B104F1100200F001F9AF
:1053DC000028DCDB40F08E802046FFF748FE0028DA
:1053EC0040F08880D3E7236A3BB92046FFF73FFEA5
:1053FC000028CCD02369236200E023612169A068D6
:10540C0000F0E1F8291817B9B6F5007F21D2C7F5DD
:10541C000075B54228BF354637B96369E2699342D6
:10542C0034BF0122052200E00122A068243000F0E4
:10543C00A6F80028ABD038442A4649462F4402F03F
:10544C0059FCB7F5007F30D1A068243000F070F81B
:10545C0017E0B6F5806FA06815D30279521B730A5A
:10546C00D2B2934228BF1346C26A91424FEA4325F7
:10547C0002D31A44914237D3A7684A46386800F0E1
:10548C004FFC90B983E7C36A994202BF4FF0FF33D8
:10549C0080F824A0C362A3684A46186800F0CEFBCB
:1054AC0000283FF474AF4FF4007563692B446361BB
:1054BC00A944761B7AE7E269934201D9E36102E0E1
:1054CC000F4B1B681BB1A37843F00403A37094F932
:1054DC000230002B02DB4046BDE8F0872046FFF788
:1054EC0007FF0028F7D152E74FF0FF3280F824A0D5
:1054FC00C262C1E72169A06800F065F8014683E744
:10550C00D0E3032000F002BE70B505460C460846F9
:10551C0049B102F033FC2B68024621462846DB6871
:10552C00BDE87040184770BD00F0F0BD00F0EEBD56
:10553C0070B50378DA0704461ED54368816800F11C
:10554C000C063246186800F079FB054608B90025B0
:10555C0013E023789B0704D4237823F001032370F2
:10556C000BE06368A068196932460144186800F0C2
:10557C0065FB0028F0D1EAE70125284670BD70B51F
:10558C0083688B4204460E46154614D0FFF7D0FFB5
:10559C0008B9002070BD6B0703D500232370A660EB
:1055AC0009E0636804F10C023146186800F0BCFA9B
:1055BC000028F2D1EDE72378204605F003051D43C2
:1055CC0000F80C5B70BD837940690239994008443E
:1055DC007047012970B505460C46164602D84FF0A7
:1055EC00FF3070BDC3699942F9D8C379202B10D113
:1055FC008169022201EBD41100F50C70FFF7BFFF9B
:10560C000028ECD004F07F0450F8243023F07043D1
:10561C000FE0102BE3D18369C1F307210222194457
:10562C0000F50C70FFF7ABFF0028D8D0E4B230F8CF
:10563C001430EA6993429ABF33600120002070BD98
:10564C00012938B50C46154601D8002038BDC36970
:10565C009942FAD8C379202B0ED18169032201EB30
:10566C00D41100F50C70FFF78AFF0028EDD004F080
:10567C007F0440F824500FE0102BE6D18369C1F36E
:10568C0007210322194400F50C70FFF778FF00285E
:10569C00DBD0E4B220F81450012038BD2DE9F341E1
:1056AC00C4688C4205460E46904607D20C4600272D
:1056BC00EB6901349C4203D9CFB9EC680127F7E7B9
:1056CC00A64214D001AA21462846FFF782FF0028E3
:1056DC000DDBEDD0019B002BEAD107B1EC606FF034
:1056EC00704221462846FFF7ABFF074608B9002752
:1056FC000BE016B9C8F8004007E0224631462846B0
:10570C00FFF79EFF0028F5D1F1E7384602B0BDE85F
:10571C00F08170B5012304460022C3604FF0FF33C3
:10572C00C2710D46A06280F82420C362C4F8340212
:10573C0080F83022C0F83832A1B104295DD8114666
:10574C002430FFF71CFF002857D000EB051393F80B
:10575C00AE315B0651D11B3500EB0515D5F8065063
:10576C00002D4AD00022294604F12400FFF707FF40
:10577C00002842D0B0F80B30B3F5007F3DD1037C4C
:10578C00022B3AD1C389002B37D0417B21714B1EA0
:10579C0063710023A371092601238B4207D0013EBC
:1057AC002BD0A2795B000132DBB2A271F5E7C28A81
:1057BC0002B9426A2261C6892E44A661B0F8113042
:1057CC00238106EB42012162B0F81120520102F252
:1057DC00FF1201EB62226261B0F8133003B9036A65
:1057EC00AD1A2B44A57923FA05F56B1CE36140F641
:1057FC00F4739D4203D80C23E371002070BD4FF667
:10580C00F4739D4285BFC36A236210232023E37186
:10581C00012070BD00F07ABC00F078BC00F076BCC2
:10582C0070B50E4C0E46154600F010FD2368C01ADC
:10583C000B4B984208D900F011FD0A4B186000F090
:10584C00E1FE00F003FD206000F008FD80B2801B3B
:10585C00A842D4BF0020012070BD00BFD4E30320B8
:10586C00A086010030E7032038B5057A04464DB90F
:10587C00406800F07DFA63682946187D02F03FF815
:10588C000123237238BD10B5037A04466BB143680B
:10589C000121187D02F033F8FF21606800F09AFABC
:1058AC00606800F079FA0023237210BDF8B5044645
:1058BC000D46164600F0D2FC87B2606800F06FFA15
:1058CC00FF28607209D14FF47A7239462046FFF7EF
:1058DC00A7FF0028F1D055230BE0FE2801D0502360
:1058EC0007E032462946606800F05EFA607230B11B
:1058FC00602320462370FFF7C6FF0020F8BD6068C8
:10590C0000F04DFA606800F04AFA0120F8BD70B55D
:10591C0004460E4600F0A2FC85B2324629462046CB
:10592C00FFF77EFF30B9606800F039FAFF28F4D138
:10593C00012070BD002070BDF7B5037A01920446BA
:10594C000D460BB9FFF790FF25B14FF49671204629
:10595C00FFF7DDFF45F04001606800F03BFA0DF108
:10596C0007060DF1030716F80119606800F032FA0A
:10597C00BE42F8D1002D0CBF95218721606800F044
:10598C0029FA606800F00BFA0B25606800F007FA42
:10599C000306607203D5013D15F0FF05F5D103B088
:1059AC00F0BD70B504460D46164637210022FFF7B0
:1059BC00C3FF324629462046BDE87040FFF7BCBF06
:1059CC002DE9F04100250572057085724160044691
:1059DC0090461E4600F042FC41460746606800F0C7
:1059EC00CBF963684F4A1D724FF00108DA605D74A1
:1059FC0083F810802046FFF737FF63684146187D17
:105A0C0001F07DFF0A25FF216068013D00F0E2F9FD
:105A1C0015F0FF05F7D163682946187D01F06FFF7B
:105A2C000A25002211462046FFF786FF01288046F2
:105A3C0012D0013D15F0FF0501D1202357E0FD21C7
:105A4C00606800F0C7F94FF40278606800F0A7F9BD
:105A5C00B8F10108F9D1E4E74FF4D57208212046DA
:105A6C00FFF76AFF052802D184F80A800FE00425AD
:105A7C00606800F094F9013D15F0FF056072F7D1F4
:105A8C00AA2802D10223A37201E025232FE0A37AD6
:105A9C00022B0CBF4FF080450025BFB22A462921AE
:105AAC002046FFF77EFF024648B14FF4FA623946B2
:105ABC002046FFF7B5FE0028F0D0432317E0A37A69
:105ACC00022B0ED02046FFF7DEFE6368B0683479F7
:105ADC00317B727B5A74D8601C7219740120BDE83A
:105AEC00F0813A212046FFF727FF38B137232046B3
:105AFC002370FFF7C8FE0020BDE8F081606800F05D
:105B0C004EF900F0C000C02804BF0323A3726068E4
:105B1C0000F045F9606800F042F9606800F03FF968
:105B2C00D0E700BF90D0030038B5837A032B18BFA1
:105B3C00490215460A4611210446FFF7FDFE10B135
:105B4C00302323700BE029464FF400722046FFF7F8
:105B5C00ADFE054618B12046FFF795FE03E0204642
:105B6C00FFF791FE0025284638BD10B5837A032B2C
:105B7C000A4618BF4A0212210446FFF7DDFE30B177
:105B8C00312320462370FFF77EFE002010BD01203C
:105B9C0010BD10B500220C210446FFF7CDFE30B12C
:105BAC00282320462370FFF76EFE002010BD2046F0
:105BBC00FFF769FE012010BDF8B5054616461F46D5
:105BCC00FFF7D3FF98B10024A3B29F4206EB442108
:105BDC0008D94FF400722846FFF768FE01340028FC
:105BEC00F2D104E02846BDE8F840FFF7D2BF002010
:105BFC00F8BD38B504461546406800F0EBF84FF494
:105C0C0000722946606800F0E9F8FF21606800F036
:105C1C00E1F8FF21606800F0DDF8606800F0BFF883
:105C2C00607200F01F00052806D057232046237011
:105C3C00FFF729FE002038BD012038BD70B5837AEE
:105C4C00032B18BF490215460A4618210446FFF7D4
:105C5C0073FE064608B132231DE02A46FE2120467B
:105C6C00FFF7C7FFC0B14FF4FA612046FFF74FFEB4
:105C7C00054608B95A230EE032460D212046FFF79F
:105C8C005BFE38B9606800F08AF818B92046FFF757
:105C9C00FAFD05E0292323702046FFF7F4FD0025CB
:105CAC00284670BD38B50D464FF4FA610446FFF72F
:105CBC002EFE10B95B23237005E02A46FC212046FA
:105CCC00FFF797FF18B92046FFF7DDFD002038BD20
:105CDC0010B5837A032B0A4618BF4A0219210446D1
:105CEC00FFF72AFE30B1332320462370FFF7CBFD9C
:105CFC00002010BD012010BD38B54FF4FA610446E8
:105D0C00FFF705FE054620B1FD21606800F062F842
:105D1C0001E0562323702046FFF7B5FD284638BD19
:105D2C00F8B5054616461F46FFF7D2FF70B10024A2
:105D3C00BC4206EB4421284604D0FFF7B3FF28B140
:105D4C000134F5E7BDE8F840FFF7D6BF2846FFF76A
:105D5C009AFD0020F8BD00F0D9B900F0D7B900F0D9
:105D6C00D5B90000014B01221A707047D8E303200B
:105D7C00011D006800F0EEBC10B50446017500680A
:105D8C0000F0BEFC207D012101F0A8FD207D012149
:105D9C00BDE8104001F0B3BD006800F0C2BCFF21AB
:105DAC00006800F047BD000037B5084B0093002594
:105DBC00074C0068257013460A46294600F040FD42
:105DCC002378002BFCD0002003B030BD715D0D009A
:105DDC00D8E30320006800F02DBD000037B5074B59
:105DEC0000930025064C0068257013462A4600F0E7
:105DFC0027FD2378002BFCD003B030BD715D0D0066
:105E0C00D8E3032000F082B90022016002614261F4
:105E1C00704710B50446008801F09DFD40F2123326
:105E2C00A0F10B029A4207D8A0606060E06000F01D
:105E3C0015FAA061012010BD002010BD00F066B95C
:105E4C008B1D002011F8012F10448B4280B2F9D128
:105E5C00404280B27047417C837CC27B80F8232017
:105E6C0003EB01239BB23A3A8384152A33D8DFE83B
:105E7C0002F0171E2E0B2E10252C2E2E2E2E2E2E13
:105E8C002E2E322E2E2E2E2E002380F8203005237F
:105E9C0018E099072AD5002380F82030042311E05C
:105EAC009A0723D5002380F8203002230AE09B07B1
:105EBC001CD5002380F82030032303E0002380F856
:105ECC002030062380F8223001E000230CE001236F
:105EDC0080F8263070470023012280F8203080F8AB
:105EEC002220838480F8262080F82730704710B554
:105EFC00044600F10C01FFF7A3FFE27C237D03EBCA
:105F0C0002239BB21B1A5842584110BD70B504466F
:105F1C00206803681B699847054600285AD02068FA
:105F2C0094F8205003685B694DB99847C0B27E283D
:105F3C002073EDD184F8265094F8203046E0984731
:105F4C002544287394F82030022B11D0092B13D040
:105F5C00012B3BD1627BFF2A38D0002284F8202011
:105F6C0084F82230A28484F8263084F8272048E074
:105F7C00A27B062A2AD002E0637DEF2B09D00023F6
:105F8C00012284F8203084F82220A38484F826206F
:105F9C000EE02046FFF7ABFF68B1002384F82030F9
:105FAC002046FFF758FF94F8266056B3A37E43BBF8
:105FBC0084F8273025E0012384F8200084F822306F
:105FCC00A08484F8263084F827001AE0013384F882
:105FDC0020309DE794F827308BB100F03FF96368CF
:105FEC00C01AA36898420AD3012384F8205084F87D
:105FFC002250A58484F8263084F8275001E094F8C8
:10600C002660304670BD10B5837E044633B194F8DB
:10601C00273033B12046FFF779FFF8E70A2000F06C
:10602C00FBFC21460A2251F8160B0368DB689847E3
:10603C0000F014F9A37E6060003318BF012384F8CC
:10604C00273010BD131210B54176C376027700F1DC
:10605C0016010446FFF7F4FE0312A077637720467F
:10606C00BDE81040FFF7CFBF0022FFF7EBBF0123C5
:10607C0010B5044680F827302046FFF747FF00286C
:10608C00FAD094F82200003018BF012010BD0C216A
:10609C00FFF7EABF38B50446154612B101238376E3
:1060AC0000E0A276A368216003F6B833A360204613
:1060BC00FFF7EDFF2046FFF7DAFFA368A3F6B8332E
:1060CC00C820A36000F0A8FC002384F8263094F8C4
:1060DC002230042B14BF85F00100012038BD8AB298
:1060EC001221FFF7AFBF00F011B8000008B5024B4A
:1060FC001B689B68019308BD6802030008B5024B3E
:10610C001B68DB68019308BD6802030008B5024BED
:10611C001B681B68019308BD2C02030008B5024BD9
:10612C001B685B68019308BD2C02030008B5024B89
:10613C001B689B68019308BD2C02030008B5024B39
:10614C001B68DB68019308BD2C02030008B5024BE9
:10615C001B681B69019308BD2C02030008B5024B98
:10616C001B685B69019308BD2C02030008B5024B48
:10617C001B681B6B019308BD2C02030008B5024B76
:10618C001B681B68019308BD3002030008B5024B65
:10619C001B685B69019308BD3002030008B5024B14
:1061AC001B68DB69019308BD3002030008B5024B84
:1061BC001B681B6A019308BD3002030008B5024B33
:1061CC001B685B6A019308BD3002030008B5024BE3
:1061DC001B689B6A019308BD3002030008B5024B93
:1061EC001B689B6B019308BD3002030008B5024B82
:1061FC001B68DB6B019308BD3002030008B5024B32
:10620C001B681B6C019308BD3002030008B5024BE0
:10621C001B685B6C019308BD3002030008B5024B90
:10622C001B685B69019308BD6C02030008B5024B47
:10623C001B685B68019308BD1802030008B5024B8C
:10624C001B68DB68019308BD1802030008B5024BFC
:10625C001B681B69019308BD1802030008B5024BAB
:10626C001B685B69019308BD1802030008B5024B5B
:10627C001B689B68019308BD4802030008B5024BDC
:10628C001B681B69019308BD4802030008B5024B4B
:10629C001B685B69019308BD4802030008B5024BFB
:1062AC001B685B6C019308BD4802030008B5024BE8
:1062BC001B689B6C019308BD4802030008B5024B98
:1062CC001B685B69019308BD6402030008B5024BAF
:1062DC001B681B6A019308BD6402030008B5024BDE
:1062EC001B689B6A019308BD6402030008B5024B4E
:1062FC001B681B68019308BD3C02030008B5024BE8
:10630C001B68DB68019308BD3C02030008B5024B17
:10631C001B681B69019308BD3C02030008B5024BC6
:10632C001B685B69019308BD3C02030008B5024B76
:10633C001B689B69019308BD3C02030008B5024B26
:10634C001B68DB69019308BD3C02030008B5024BD6
:10635C001B681B6A019308BD3C02030008B5024B85
:10636C001B689B6A019308BD3C02030008B5024BF5
:10637C001B68DB6A019308BD3C02030008B5024BA5
:10638C001B68DB68019308BD2802030008B5024BAB
:10639C001B689B69019308BD2802030008B5024BDA
:1063AC001B68DB69019308BD2802030008B5024B8A
:1063BC001B681B6A019308BD2802030008B5024B39
:1063CC001B685B6A019308BD2802030008B5024BE9
:1063DC001B689B6A019308BD2802030008B5024B99
:1063EC001B68DB6A019308BD2802030008B5024B49
:1063FC001B681B6B019308BD2802030008B5024BF8
:10640C001B685B6B019308BD2802030008B5024BA7
:10641C001B681B6C019308BD2802030008B5024BD6
:10642C001B681B6D019308BD2802030008B5024BC5
:10643C001B689B69019308BD3802030008B5024B29
:10644C001B68DB69019308BD3802030008B5024BD9
:10645C001B681B6A019308BD3802030008B5024B88
:10646C001B689B6A019308BD3802030008B5024BF8
:10647C001B681B6B019308BD3802030008B5024B67
:10648C001B689B6B019308BD3802030008B5024BD7
:10649C001B681B68019308BD4C02030008B5024B36
:1064AC001B685B68019308BD4C02030008B5024BE6
:1064BC001B681B69019308BD4C02030008B5024B15
:1064CC001B685B69019308BD4C02030008B5024BC5
:1064DC001B689B69019308BD4C02030008B5024B75
:1064EC001B68DB69019308BD4C02030008B5024B25
:1064FC001B681B6A019308BD4C02030008B5024BD4
:10650C001B685B6B019308BD6002030008B5024B6E
:10651C001B681B6D019308BD6002030008B5024B9C
:10652C001B685B68019308BD2002030008B5024B91
:10653C001B685B69019308BD2002030008B5034B7F
:10654C001B68D3F88830019308BD000020020300BB
:10655C0008B5034B1B68D3F89430019308BD0000B9
:10656C002002030008B5024B1B685B68019308BD51
:10657C004002030008B5024B1B689B68019308BDE1
:10658C004002030008B5024B1B68DB68019308BD91
:10659C004002030008B5024B1B681B69019308BD40
:1065AC004002030008B5024B1B685B69019308BDF0
:1065BC004002030008B5024B1B689B69019308BDA0
:1065CC004002030008B5024B1B68DB69019308BD50
:1065DC004002030008B5024B1B681B6A019308BDFF
:1065EC004002030008B5024B1B681B6B019308BDEE
:1065FC004002030008B5024B1B685B6B019308BD9E
:10660C004002030008B5024B1B689B68019308BD50
:10661C004402030008B5024B1B68DB6B019308BDF9
:10662C004402030008B5024B1B681B68019308BDAC
:10663C001C02030008B5024B1B685B68019308BD84
:10664C001C02030008B5024B1B685B6A019308BD72
:10665C001C02030008B5024B1B68DB6B019308BDE1
:10666C001C020300002211464068FFF7B3BF002252
:10667C0011464068FFF7BEBF00224068FFF7B2BF6B
:10668C00002281F001014068FFF79CBF00231A46ED
:10669C0019464068FFF78EBF00231A46194640681A
:1066AC00FFF780BF002211464068FFF773BF00223E
:1066BC0011464068FFF75EBF002202214068FFF7D9
:1066CC0061BF00231A464068FFF74CBF024B032200
:1066DC005A60024A1A607047DCE303206C830D0099
:1066EC000021FFF78BBD0021FFF790BD10B50446CC
:1066FC0001700846FFF752FD00236360204610BD71
:10670C0010B504460078FFF7EBFF48B920784FF638
:10671C00FF71FFF733FD2078BDE81040FFF7E3BFB2
:10672C0010BD0078FFF7DFBF400830B518600024BB
:10673C0018688842E5B206D90134082C02D040080A
:10674C001860F5E70725024B5B5D137030BD00BF89
:10675C0098830D002DE9F04307468FB000780E4664
:10676C00FFF7BEFF002862DB3C781422002109A849
:10677C0001F0CBFA0B232046002209A9ADF82430F6
:10678C00FFF71CFD9DF82D4054B19DF82C5035B9E8
:10679C00DDF830809DF834909DF8354003E00024FE
:1067AC00A146A0460125337905B1BBB99D420BD159
:1067BC00B268424508D18DF820908DF82140BDF883
:1067CC002010B289914209D053B100243878019439
:1067DC000094234622460121FFF708FD002026E005
:1067EC008DF80F30B1680A9804AB0DF10F02FFF76A
:1067FC009BFF317905B1B1B9A94208D00024387892
:10680C000194747B337B9DF80F200094E4E7B3680C
:10681C004345F3D38DF820908DF82140BDF820200E
:10682C00B3899A42EAD1049B4345E7D1D6E70FB02E
:10683C00BDE8F08308B50078FFF7A8FCC0B208BD2E
:10684C0030B587B004460A9D00780095FFF7BEFC72
:10685C003DB902A92078FFF7C1FC9DF81430DB0785
:10686C00F7D407B030BD0078FFF7A0BC10B5094CC9
:10687C0000204FF6FF732060A080A07120816381FF
:10688C00FFF74CFE2046044A0449BDE8104001F0D5
:10689C00B9B800BFE4E3032008DD032099410D00E3
:1068AC0010B50446006808B1FFF700FD204610BD86
:1068BC0010B5064C002320462360FFF7EFFC204662
:1068CC00034A0449BDE8104001F09CB8F0E30320F2
:1068DC0008DD0320AD680D00F8B506460D468F188F
:1068EC000024BD420CD0336815F8011B9B68304660
:1068FC009847002801DB0444F3E7002C08BF04464A
:10690C002046F8BD08B5FEF7FFFD08BD03689B687F
:10691C00184738B50D210546FFF7F8FF0A21044644
:10692C002846FFF7F3FF204438BD38B50546FEF77F
:10693C00EBFD04462846FFF7ECFF204438BD30B58C
:10694C008BB00B4600218DF82410012A98BF0A2227
:10695C000DF12304B3FBF2F505FB123303F0FF0337
:10696C00092B94BF30333733DBB2214604F801399D
:10697C002B46002DEED1FEF7C7FD0BB030BD0CB48D
:10698C002DE9F04387B000AF07F13804054654F801
:10699C00049B3C600E4623464A461421381DFFF7E3
:1069AC0051FE132805D8391D2846FEF7ADFD0446C7
:1069BC0013E000F1080323F00703E846ADEB030DE9
:1069CC00411C23464A4668463C60FFF73BFE69463D
:1069DC002846FEF799FD0446C5461EB12846FFF72A
:1069EC0098FF044420461C37BD46BDE8F04302B076
:1069FC0070470000014B024A1A607047F4E3032011
:106A0C0013840D00024B1A68024B1A60704700BFCA
:106A1C00A0DC0320F8E303200021FFF787BD10B5AD
:106A2C008368044613B1032201469847204610BDE3
:106A3C0010B50446FFF7F3FF204610BD0348044A87
:106A4C0004490023836000F0DDBF00BFFCE303209A
:106A5C0008DD03203D6A0D0008B50C4B33B100F086
:106A6C006DF903681B699847002809DC084B63B172
:106A7C0000F0ECF903681B699847002803DC08BD9B
:106A8C00AFF30080F2E7AFF3008008BD0000000018
:106A9C000000000008B5FFF7DFFFFFF7DFFB014B3D
:106AAC00186008BD30E703200248034A0349121A54
:106ABC0001F020B900F4032004F4032060870D00DA
:106ACC0007B5002300931A466FF07701FFF740FDDE
:106ADC0003B05DF804FB000007B543880A2B08D00F
:106AEC00502B09D1094B1B683BB103B05DF804EB8B
:106AFC001847FFF7E5FF06E0002300931A466FF0F6
:106B0C007701FFF725FD03B05DF804FB0CE40320CF
:106B1C0038B5104C104D2368AB42104B0CBF012202
:106B2C0000221A7002D0FFF7BFFF2560FFF77EFB33
:106B3C00044601F0F3F80A4B13B12046AFF3008082
:106B4C0000210748FFF766FD00210648BDE83840E4
:106B5C00FFF7F4BC00F403201E1C279A10E403205A
:106B6C0000000000E56A0D00704710B518210446BE
:106B7C0000F056FF204610BDF0B5037D062B8DB0FE
:106B8C000E4600F104074FF0000402D000F1080596
:106B9C0018E00CAD394605F8304D2F232A460A2053
:106BAC00FFF78CFB284601F0E9F833680246DB68F6
:106BBC002946304698470FE024B12E213046FFF786
:106BCC00A5FE044415F8011D0A223046FFF7B7FE56
:106BDC00BD420444F0D120460DB0F0BD10B5054BBC
:106BEC000446112240F8043B002101F08EF82046A7
:106BFC0010BD00BFA4840D000346074A10B543F82E
:106C0C00042B01F1100251F8044B43F8044B914250
:106C1C00F9D10A781A7010BDA4840D00037D042BE1
:106C2C0001D1406808E0062B0AD1436853B9836848
:106C3C0043B9C36833B90069003018BF01207047ED
:106C4C00002070470120704710B59DF8084044EAB9
:106C5C00032343EA024242EA0161042341600375C3
:106C6C0010BD37B50D788B784A78C97800912946D4
:106C7C00FFF7EAFF03B030BD41747047704708B5A9
:106C8C000021007CFFF722FC30EA200028BF4FF0E7
:106C9C00FF3008BD08B50121007CFFF717FC30EA76
:106CAC00200028BF4FF0FF3008BD08B5007CFFF76F
:106CBC0005FC20EAE07008BD08B5007CFFF7F6FB88
:106CCC0020EAE07008BD007CFFF710BC10B5142161
:106CDC00044600F0A5FE204610BD38B50446007CE5
:106CEC000D46FFF7EBFB002801DC607C28B1294640
:106CFC00207CFFF7F3FB20EAE07038BD10B50446AA
:106D0C00002363604FF47A73A360054B2360012367
:106D1C000846217463741146FFF7B8FB204610BD7A
:106D2C00B8840D000022007CFFF7B8BB10B514220C
:106D3C000446002100F0E9FF204610BD30B50E4D91
:106D4C0087B001A8FFF7F2FF296811F0010410D1F8
:106D5C002846FDF7ABF960B101AA21460748FFF7B9
:106D6C00CDFF2846FDF7A7F9054A0649034800F070
:106D7C0049FE024807B030BD14E4032018E4032098
:106D8C0008DD0320896C0D0070474174704708B50D
:106D9C00007CFFF7E3FA20EAE07008BD08B5007C40
:106DAC00FFF7B4FA20EAE07008BD08B5007CFFF7E5
:106DBC00BDFA30EA200028BF4FF0FF3008BD08B5FF
:106DCC00007CFFF7ABFA30EA200028BF4FF0FF3011
:106DDC0008BD007CFFF7B2BA10B51421044600F0D0
:106DEC001FFE204610BD70B5457C04460E4625B9E5
:106DFC00007CFFF7B3FA002805DD3146207CBDE8A6
:106E0C007040FFF77BBA284670BD000010B50446F1
:106E1C0008461146002262604FF47A72A260054A5D
:106E2C0022600122207462741A46FFF75FFA204632
:106E3C0010BD00BFE8840D000023007CFFF796BA5C
:106E4C000022FFF7F9BF007CFFF780BA38B50C4D74
:106E5C00296811F0010411D12846FDF727F968B112
:106E6C00084A094B09482146FFF7D0FF2846FDF791
:106E7C0022F9074A0749054800F0C4FD034838BD0C
:106E8C00C4E40320C8E4032040E403202CE40320E2
:106E9C0008DD0320956D0D007047F8B506461546C4
:106EAC000C468F18BC4206D0336814F8011B9B6843
:106EBC0030469847F6E72846F8BD0022007CFFF7DD
:106ECC0075BA0021007CFFF779BA0021007CFFF72E
:106EDC007DBA0021007CFFF781BA0021007CFFF70E
:106EEC0085BA10B51421044600F09AFD204610BD59
:106EFC0010B50446002363604FF47A73A360044B0F
:106F0C002174084623601146FFF780FA204610BD15
:106F1C0018850D0000231A461946007CFFF72EBA7F
:106F2C0070B50C4686B0142506462A46002101A8E9
:106F3C0000F0EBFE23788DF8083063680393E36868
:106F4C0004930022237A307CADF8045001A90593F8
:106F5C00FFF764FA06B070BD1FB500338DF8001052
:106F6C004FF06401039118BF0123694601928DF81B
:106F7C000830FFF7D5FF05B05DF804FB0123FFF7E0
:106F8C00EBBF0022007CFFF701BA0022007CFFF768
:106F9C0005BA0121FFF7F9BF0021007CFFF72EBADB
:106FAC00002211464068FFF715BB002211464068CD
:106FBC00FFF720BB00224068FFF714BB002281F0D2
:106FCC0001014068FFF7FEBA00231A460121406810
:106FDC00FFF7F0BA00231A4619464068FFF7E2BAE9
:106FEC00002211464068FFF7D5BA002211464068CE
:106FFC00FFF7C0BA002202214068FFF7C3BA002392
:10700C001A464068FFF7AEBA38B5054688B1046831
:10701C004CB1A3681BB1032221462046984710218E
:10702C00204600F0FDFC28461421BDE8384000F055
:10703C00F7BC38BD10B103685B681847704710B5D2
:10704C0003680446BBB15868FFF710F978B9236898
:10705C005A7C12B95868FFF711F923685868FFF782
:10706C0015F920680023236028B1FFF7CDFF2068B5
:10707C0008B1FFF7C9FF204610BD38B50446D0F85B
:10708C00C40108B1FDF705F8D4F8C00108B1FFF749
:10709C000DF9D4F8BC5135B12846FFF7D0FF0421C7
:1070AC00284600F0BDFC206808B1FFF7C3FF20465E
:1070BC0038BD000010B5044B044640F8083BFFF700
:1070CC00DCFF204610BD00BF40850D0038B50E4CCE
:1070DC000E4B23600025022304F5E4706360A56069
:1070EC00C4F8C451C4F8C851FFF7D8F8084BC4F819
:1070FC00CC5184F8D05123602046064A0649BDE89D
:10710C00384000F07FBC00BF4CE5032028860D0002
:10711C0040850D0008DD0320C1700D0037B502ACB1
:10712C00036804F8011DDD6B01224FF0FF3321468B
:10713C00A84703B030BD10B40368DC6B4FF0FF33CD
:10714C00A4465DF8044B604737B502AC036804F8FD
:10715C00011DDD6B214613460122A84703B030BD4B
:10716C00704738B543691A68002A044605DAB3F843
:10717C008620B3F884309A4201D001250BE00368D5
:10718C001B699847002814BF0125002503D12368EB
:10719C002046DB6A9847284638BD43691868C043C7
:1071AC00C00F704770470020704710B5142104467B
:1071BC0000F036FC204610BDFCF769BF7FB51646C3
:1071CC0000224260029203925A1C04460D4608D0DB
:1071DC004FF47A72B3FBF2F1029102FB11314A4384
:1071EC00039260690823009341F205026B4440F658
:1071FC00FF710068FFF71AF9002808DB60690023AB
:10720C00324629460068FFF731F9002804DAFFF707
:10721C0021FA03686360002004B070BD10B50368E8
:10722C0004469B689847A368013BA3602BB923686D
:10723C002046DB68BDE81040184710BD70B5044609
:10724C004D69054B44F8043B8C3506460FCD0FC4F5
:10725C002B682370304670BDA4840D0010B54369B3
:10726C00B3F88620B3F884309A42044605D062699C
:10727C00B2F884301344187910BD03681B69984721
:10728C000028F4D14FF0FF3010BD10B54369B3F8AE
:10729C008620B3F884309A42044608D06269B2F86A
:1072AC008430591C1344A2F88410187910BD03685B
:1072BC001B6998470028F1D14FF0FF3010BDF8B58D
:1072CC0043691746B3F88620B3F884309A420546D2
:1072DC000E4606D103681B69984710B94FF0FF346E
:1072EC0014E06969B1F88430B1F88640E41ABC4204
:1072FC0028BF3C46194422460431304600F0FAFCC3
:10730C006A69B2F884302344A2F884302046F8BD70
:10731C002DE9F0439846036893B0DB6A0D460646A8
:10732C001746984712AB002443F8484D2246214695
:10733C002846FEF7E3FE814600283DD1009B002B3A
:10734C0056D05B69002B53D006A8FFF747FC009B77
:10735C005C696378022B01D1211D13E00A2B14D137
:10736C001122494601A800F0D0FCA36833BBE368A6
:10737C0023BB4FF6FF702569FEF7A8FF85421DD190
:10738C0004F1140106A8FFF76CFC06A8FFF746FCF5
:10739C0000282DD0336807ADD3F82090184B0C93F0
:1073AC000FCD0DAC0FC42B6823703A4643460CA985
:1073BC003046C84781461BE0A14619E004F108039A
:1073CC0001AD1834186859682A4603C20833A34221
:1073DC001546F7D1062301A90CA80DAD8DF8143074
:1073EC00FFF70AFC0FCD07AC0FC42B682370CCE75A
:1073FC000098FEF77BFE484613B0BDE8F08300BF53
:10740C00A4840D0042690023A2F884304269A2F8DA
:10741C00863070472DE9F0411E4603680C468AB051
:10742C00DB6A054617469847237DD5F81480042B54
:10743C000CBF02200A2006220121FFF71FF8C8F812
:10744C0000006B691B68002B18DB2846FFF7DAFF7E
:10745C00D6B1002303A9F0B20393ADF81030FEF7B8
:10746C00DDFE58B968690623009341F20B0203ABA9
:10747C0040F6FF710068FEF7D9FF28B12B6828464B
:10748C00DB6A002498473BE01C263246002103A807
:10749C0000F03BFC237D8DF80C60042B0CD10223F7
:1074AC0038468DF80D30FEF719FFADF80E00606808
:1074BC00FEF70CFF049013E00A2338468DF80D30CC
:1074CC00FEF70CFF05AEADF80E00231D04F11407FA
:1074DC0018685968324603C20833BB421646F7D1C6
:1074EC006B691C2203A91868FEF7B0FF0028C5D1F0
:1074FC0004340FCC6D698C350FC523682B700124B7
:10750C0020460AB0BDE8F08110B5436904461868FE
:10751C00002801DBFEF792FF63694FF0FF321A601F
:10752C006069112200218C3000F0EFFB2046BDE891
:10753C001040FFF767BF000030B54269B2F88630E3
:10754C008BB004461BB1B2F884209A4240D06369D8
:10755C00186800283FDBB3F886507F2D3BD8191DE7
:10756C00C5F1800208232944FEF778FF00280CDDC2
:10757C006369B3F886200AB9A3F884206269B2F86B
:10758C0086301844A2F8860025E0FFF763F80368FC
:10759C000B2B20D0FFF75EF803680B2B1BD020239E
:1075AC00002502930395FFF755F8036801930E4BE2
:1075BC00009302AA2B460D493220FEF7A7FF636900
:1075CC001868FEF73BFF63694FF0FF321A6002E068
:1075DC00FFF718FFBBE76269B2F88630B2F8840097
:1075EC00181A0BB030BD00BFDB850D00D4850D0023
:1075FC0010B5002304460160A0F88430A0F8863052
:10760C008830FFF7EBFA204610BD00004FF47A7279
:10761C0070B500238260144A436002604361836149
:10762C000446A0200E46FCF730FD054610B131464D
:10763C00FFF7DEFF1420FCF728FD034628B10122DA
:10764C0042608260094A02600561A0696561A361BC
:10765C0028B14368013B43600BB9FFF7DFFD2046BF
:10766C00FFF7D0FE204670BD90850D0074850D008F
:10767C0010B54FF0FF310446FFF7C8FF204610BD90
:10768C0010B504460068002801DBFEF7D7FE204643
:10769C0010BD10B504692046FFF7F2FF24B1204657
:1076AC00BDE81040FCF7F3BC10BD00221146406849
:1076BC00FEF770BF002211464068FEF78BBF002218
:1076CC0011464068FEF796BF00224068FEF78ABF5D
:1076DC00002281F001014068FEF774BF00231A46B6
:1076EC0019464068FEF766BF00231A4619464068E3
:1076FC00FEF758BF002211464068FEF73BBF002240
:10770C0002214068FEF73EBF00231A464068FEF790
:10771C0029BF0000024B04225A60024A1A607047CB
:10772C0020E70320F4850D0000231A464068FEF77D
:10773C0019BF002202214068FEF724BF0022114627
:10774C004068FEF717BF002211464068FEF722BFC3
:10775C0000231A4619464068FEF724BF00231A4638
:10776C0019464068FEF726BF002281F001014068EF
:10777C00FEF728BF00224068FEF734BF00221146F6
:10778C004068FEF737BF002211464068FEF722BF63
:10779C002DE9F043002495B016460D460746FFF739
:1077AC001DFA214620220CA8009400F0AEFA4023CA
:1077BC000C9321466B460CAA3046FEF79FFC044600
:1077CC00002844D1024601216868FEF7E3FE02213D
:1077DC00804622466868FEF7DDFE009E8146214603
:1077EC00002E34D0002932D17368022B02D00A2B20
:1077FC0009D02AE0B8F1000F27D07169384604315E
:10780C00FFF72FFA20E0B9F1000F1ED07469112296
:10781C0001A800F07AFA06238DF8143001AD04F1BA
:10782C0008031834186859682A4603C20833A3425F
:10783C001546F7D101A906A807ADFFF7DDF90FCD65
:10784C003C1D0FC42B6823700121F669C8E7009812
:10785C00FEF74CFC384615B0BDE8F083024B034AEA
:10786C001A6000225A60704728E7032028860D0012
:10787C0070B5184E316811F0010504460AD1304636
:10788C00FCF714FC30B129461348FEF72FFF3046A5
:10789C00FCF711FC1048FEF7E6FF28B1A4F10B032E
:1078AC00022B01D8002070BD00F086F8FFF774FBA6
:1078BC0008B1012CF6D9FFF7C9FAFFF7C4FA18B1D1
:1078CC00A4F10903012BEDD9232C8CBF002001203E
:1078DC0070BD00BF0CDD032010DD0320232838B55C
:1078EC0004460D460AD8FF2908D0FFF7C1FF28B17E
:1078FC0029462046BDE83840FEF718BC38BD38B5DF
:10790C0004460D46FEF71AFCFF2810D0062804D8B2
:10791C004D2323FA00F0C30709D42046FFF7A8FF34
:10792C0028B129462046BDE83840FEF70FBC38BDCB
:10793C0010B50446FEF702FC0438C0B2012808D981
:10794C002046FFF795FF20B12046BDE81040FEF71A
:10795C0005BC002010BD0D2810B504469CBF0E348C
:10796C00A4B22046FFF784FF50B103212046FEF756
:10797C00D5FB032804D12046BDE81040FEF7F6BB2A
:10798C00002010BD70B5044614252A46094E00216E
:10799C0000F0BBF9258020253146A56025612846DD
:1079AC0000F040F831466060284600F03BF8E0609B
:1079BC00204670BD54860D0030B50E4D296811F06F
:1079CC00010487B013D12846FCF770FB78B101A8ED
:1079DC00FFF7D8FF01AA21460748FFF789FA284686
:1079EC00FCF769FB054A0649034800F00BF802480E
:1079FC0007B030BD34E7032038E7032008DD03204F
:107A0C00A56E0D000B460146184600F065B9000046
:107A1C00024B1868BFF35F8F704700BF4CE7032021
:107A2C00FCF735BB00F000B810B5002814BF0446B5
:107A3C0001242046FEF7F6FD20B9FFF7E9FF08B157
:107A4C008047F6E710BD0000184B1A68D1075CBFE1
:107A5C0001221A60164B1A68D2075CBF01221A6009
:107A6C00144B1A68D0075CBF01221A60124B1A68BB
:107A7C00D1075CBF01221A60104B1A68D2075CBF99
:107A8C0001221A600E4B1A68D0075CBF01221A60E3
:107A9C000C4B1A68D1075CBF01221A600A4B1A689A
:107AAC00D2075CBF01221A60704700BF6CE703204D
:107ABC0068E7032064E7032060E703205CE703200A
:107ACC0058E7032054E7032050E70320244B1A689F
:107ADC00D0075CBF01221A60224B1A68D1075CBF29
:107AEC0001221A60204B1A68D2075CBF01221A606F
:107AFC001E4B1A68D0075CBF01221A601C4B1A6817
:107B0C00D1075CBF01221A601A4B1A68D2075CBFFE
:107B1C0001221A60184B1A68D0075CBF01221A6048
:107B2C00164B1A68D1075CBF01221A60144B1A68F5
:107B3C00D2075CBF01221A60124B1A68D0075CBFD7
:107B4C0001221A60104B1A68D1075CBF01221A601F
:107B5C000E4B1A68D2075CBF01221A60704700BF37
:107B6C009CE7032098E7032094E7032090E7032089
:107B7C008CE7032088E7032084E7032080E70320B9
:107B8C007CE7032078E7032074E7032070E70320E9
:107B9C00244B1A68D0075CBF01221A60224B1A686A
:107BAC00D1075CBF01221A60204B1A68D2075CBF58
:107BBC0001221A601E4B1A68D0075CBF01221A60A2
:107BCC001C4B1A68D1075CBF01221A601A4B1A6849
:107BDC00D2075CBF01221A60184B1A68D0075CBF31
:107BEC0001221A60164B1A68D1075CBF01221A6079
:107BFC00144B1A68D2075CBF01221A60124B1A6828
:107C0C00D0075CBF01221A60104B1A68D1075CBF09
:107C1C0001221A600E4B1A68D2075CBF01221A604F
:107C2C00704700BFCCE70320C8E70320C4E703205C
:107C3C00C0E70320BCE70320B8E70320B4E7032028
:107C4C00B0E70320ACE70320A8E70320A4E7032058
:107C5C00A0E70320184B1A68D1075CBF01221A60F9
:107C6C00164B1A68D2075CBF01221A60144B1A68B3
:107C7C00D0075CBF01221A60124B1A68D1075CBF97
:107C8C0001221A60104B1A68D2075CBF01221A60DD
:107C9C000E4B1A68D0075CBF01221A600C4B1A6895
:107CAC00D1075CBF01221A600A4B1A68D2075CBF6D
:107CBC0001221A60704700BFECE70320E8E70320BD
:107CCC00E4E70320E0E70320DCE70320D8E7032008
:107CDC00D4E70320D0E7032010B5054C13462CB194
:107CEC000A4601460220AFF3008010BD204610BDAD
:107CFC000000000010B5431E0A44914204D011F854
:107D0C00014B03F8014FF8E710BD024403469342C0
:107D1C0002D003F8011BFAE77047000038B5124B8C
:107D2C001C68A36B0546D3B91820FEF77BFC43F205
:107D3C000E33A06303804AF6CD33438041F23423E3
:107D4C0083804EF26D63C3804DF6EC630381052393
:107D5C0043810B23838101220023C0E90423A36BFD
:107D6C0000221D615A6138BD04DD0320034611F861
:107D7C00012B03F8012B002AF9D17047034613F8A5
:107D8C00012B002AFBD1181A013870471D400D0039
:107D9C0059400D0085400D0089400D000000000089
:107DAC000000000000000000E9400D000000000091
:107DBC0000000000E5400D008B410D0073410D00EB
:107DCC006D410D00C9400D004D410D0047410D00A6
:107DDC0041410D007EFF06000100000000EF6465CC
:107DEC006661756C7420004D5342004C5342003C4C
:107DFC0053504953657474696E677320646566618A
:107E0C00756C743E003C53504953657474696E67CD
:107E1C0073202573256C75202573204D4F44452503
:107E2C00643E00696E697469616C697A6174696F2A
:107E3C006E206661696C6564210053446C6F672029
:107E4C00696E6974004446506C6179657220696E84
:107E5C006974206661696C6564004446506C617994
:107E6C00657220696E697400496E697469616C6928
:107E7C007A6174696F6E2066696E697368656400F7
:107E8C00636F6E6E656374696E6720746F204D51FD
:107E9C005454202E2E2E007265747279696E6720F0
:107EAC004D51545420636F6E6E656374696F6E2010
:107EBC00696E2035207365636F6E64732E2E2E00F1
:107ECC004D51545420636F6E6E65637465643F004E
:107EDC00434F3A2025302E32662070706D200A00F8
:107EEC00446174614C6F672E637376004169722034
:107EFC005175616C697479207761726E696E672E49
:107F0C0020415120726561643A202569200A0041A4
:107F1C006972205175616C69747920526561643A9B
:107F2C00202569200A00415120777269746520650B
:107F3C0072726F72004D512D39207761726E696EBD
:107F4C00672E204D512D3920726561643A202569C8
:107F5C00200A004D512D39207772697465206572A5
:107F6C00726F72006E6F6D696E616C207265616408
:107F7C00732E204D51393A2025692041513A202544
:107F8C00692054656D70657261747572653A200A6A
:107F9C00006E6F6D696E616C2072656164696E67ED
:107FAC00732E206E6F7468696E6720746F20726513
:107FBC00636F7264006E6F6D696E616C20726561C7
:107FCC0064696E6773207772697465206572726F6D
:107FDC00722E0044414E47455220494D4D494E4169
:107FEC004E542E204D512D393A2025692041513ABD
:107FFC002025692054656D703A202569200A0048B7
:10800C006967682044616E6765722E204D512D3969
:10801C003A2025692041513A2025692054656D701C
:10802C00202569200A00486967682064616E6765CD
:10803C0072207772697465206572726F722E006D92
:10804C006175726963696F76393900696F2E616485
:10805C006166727569742E636F6D007468697369FB
:10806C00736172616E646F6D737472696E67666F43
:10807C0072616B6579006D6175726963696F7639D0
:10808C00392F66656564732F20006D6175726963A5
:10809C00696F7639392F66656564732F536D61721C
:1080AC00745F48656C6D65745F424D45006D61751C
:1080BC00726963696F7639392F66656564732F53FE
:1080CC006D6172745F48656C6D65745F4D512D39CF
:1080DC00006D6175726963696F7639392F666565F4
:1080EC0064732F536D6172745F48656C6D65745F5A
:1080FC004169725175616C697479000000C001406E
:10810C0000100240002002402C010000180000006A
:10811C00F40100002C0100005000000000000000E1
:10812C0000000000E7400D0091430D00DD4E0D00F6
:10813C00894F0D00BB4F0D00F14E0D00314F0D005E
:10814C000000000000000000000000000000000023
:10815C00A5400D00A5400D00A5400D00A5400D004B
:10816C00A5400D00205B30780030005D2C20000A0B
:10817C00090044726F707065642061207061636BDC
:10818C00657400556E6B6E6F776E206572726F72D0
:10819C00004D51545400252525642E256466004657
:1081AC0061696C656420746F2073756273637269A6
:1081BC00626500436F6E6E656374696F6E206661F5
:1081CC00696C65640054686520536572766572202D
:1081DC00646F6573206E6F7420737570706F72743A
:1081EC0020746865206C6576656C206F66207468F9
:1081FC0065204D5154542070726F746F636F6C20F6
:10820C007265717565737465640054686520436CA0
:10821C0069656E74206964656E746966696572203F
:10822C00697320636F7272656374205554462D38E0
:10823C0020627574206E6F7420616C6C6F7765644E
:10824C0020627920746865205365727665720054DB
:10825C006865204D515454207365727669636520AE
:10826C00697320756E617661696C61626C6500542E
:10827C006865206461746120696E2074686520757E
:10828C00736572206E616D65206F722070617373FF
:10829C00776F7264206973206D616C666F726D65A7
:1082AC0064004E6F7420617574686F72697A6564CE
:1082BC0020746F20636F6E6E656374004578636520
:1082CC0065646564207265636F6E6E65637420729D
:1082DC00617465206C696D69742E20506C656173D6
:1082EC00652074727920616761696E206C617465B8
:1082FC00722E00596F752068617665206265656E17
:10830C002062616E6E65642066726F6D20636F6EA5
:10831C006E656374696E672E20506C6561736520A1
:10832C00636F6E7461637420746865204D5154548E
:10833C00207365727665722061646D696E69737401
:10834C007261746F7220666F72206D6F726520643B
:10835C00657461696C732E00000000000000000061
:10836C00CF660D00C5660D00BB660D00B1660D0035
:10837C00A5660D0099660D008D660D0085660D00D5
:10838C007B660D0071660D009D770D0000081018BE
:10839C0020283038626175640053657269616C0025
:1083AC0053657269616C310074797065007061722B
:1083BC00616D00636D6400696400686E64007374C1
:1083CC00726D0066696C74006C766C006164644854
:1083DC00616E646C65720072656D6F766548616E76
:1083EC00646C657200656E756D48616E646C657267
:1083FC0073004A534F4E53747265616D4C6F6748EE
:10840C00616E646C6572006170700025303130757E
:10841C0020005D200028293A2000205B00636F6457
:10842C0065203D200025690064657461696C7320CA
:10843C003D20000D0A006C6E00666E00636F646573
:10844C000064657461696C006E6F6E6500747261B6
:10845C00636500696E666F007761726E0070616EA5
:10846C00696300616C6C005A00252B3033643A252B
:10847C003032750025592D256D2D25645425483A2B
:10848C00254D3A2553257A0061736374696D650037
:10849C000000000000000000856B0D00756B0D00E6
:1084AC00776B0D000000000000000000896C0D00CF
:1084BC00D96C0D00E76C0D00E5680D00C56C0D0066
:1084CC008B6C0D00A16C0D00D36C0D00B76C0D0006
:1084DC00856C0D000000000000000000956D0D0083
:1084EC00E56D0D00F36D0D00E5680D00A96D0D0037
:1084FC00CB6D0D00B76D0D00DF6D0D00976D0D0090
:10850C009B6D0D000000000000000000A56E0D002A
:10851C00EF6E0D00C76E0D00A76E0D00CF6E0D0037
:10852C00D76E0D00DF6E0D00E76E0D000000000031
:10853C00000000000B700D0001700D00F76F0D00B6
:10854C00ED6F0D00E16F0D00D56F0D00C96F0D00C3
:10855C00C16F0D00B76F0D00AD6F0D009D770D0055
:10856C000000000000000000B1710D00B7710D009B
:10857C009F760D00C5710D00B3710D000000000059
:10858C0000000000A9410D00DD410D0029710D0016
:10859C0043710D0045750D0097720D0069720D0049
:1085AC006D710D0021740D001D730D00CB720D004B
:1085BC0015750D006F710D00A7710D0055710D0033
:1085CC00C9710D0049720D00776972696E6700728E
:1085DC00656376206572726F72203D202564000001
:1085EC00000000000000000015770D000B770D0057
:1085FC0001770D00B7760D00F5760D00E9760D00CC
:10860C00DD760D00D5760D00CB760D00C1760D0014
:10861C009D770D00000000000000000035770D0074
:10862C003F770D0049770D0053770D005D770D00F6
:10863C0069770D0075770D0081770D0089770D0036
:10864C0093770D009D770D000000000000000000E6
:10865C00000000000000000000000000000000000E
:10866C0000000000000000000000000000000000FE
:10867C0000000000000000000000000000000000EE
:10868C0000000000000000000000000000000000DE
:10869C0000000000000000000000000000000000CE
:1086AC00000000000000000000000000430000007B
:1086BC00A1430D00A34A0D00C14E0D00D54E0D0077
:1086CC00D94E0D00D94F0D0045500D0049500D00ED
:1086DC004D500D006B500D006F500D0073500D0080
:1086EC0077500D0011550D0035550D0039550D0005
:1086FC0021580D0025580D0029580D00635D0D0003
:10870C00675D0D006B5D0D00115E0D00495E0D0087
:10871C00F3600D00D9660D0079680D00BD680D0081
:10872C00016A0D00116A0D00496A0D00D9700D0027
:10873C0021770D0069780D00557A0D00D97A0D005E
:10874C009D7B0D00617C0D0000000000000000000E
:04875C000000000019
:048760000000000015
:108764000200000094840D000000000058860D00F3
:1087740078860D0098860D000000000000000000BF
:108784000000000000000000B8860D00000000009A
:1087940000000000000000000000000000000000D5
:1087A40000000000000000000000000000000000C5
:1087B40000000000000000000000000000000000B5
:0C87C4000000000000000000A4DC032006
:1087D000FFFFFFFF00000102030405060708090A66
:1087E0000B0C0D0E0F101112131415161718191A61
:0887F0001B1C1D1E1F202800A8
:0487F8007856341269
:04000003D000401CCD
:00000001FF
