:02000002D0002C
:1040000000400D00B8900D00000006000C000501F6
:084010000401E80500000000B6
:04401800B0860D0061
:10401C0009480A49884208B505D0094A824202D0AB
:10402C00121A04F0F3FA0748074A0021121A04F096
:10403C00F8FA014808BD00BF84DC032024900D0071
:10404C00F0DC0320F0DC0320F0E7032070B502F075
:10405C00CFFD074C074BE41AA40800251E46A542C9
:10406C0004D056F8253098470135F8E770BD00BFED
:10407C0014900D007C8F0D0000F0F4B808B500F022
:10408C00D5F9BDE8084002F075BD02F03BBB02F06B
:10409C0041BB02F03FBB000008B5034A00210C20D5
:1040AC0002F09CFAFEE700BF29630D000078B0FA1D
:1040BC0080F040097047012303707047037C03F0C4
:1040CC000803024603F0FF002BB1D36A506A181A9A
:1040DC0048BF6FF000407047704770477FB502468D
:1040EC0008461379956833B13DB90C4904B0BDE865
:1040FC00704002F077BC0A4B00E00A4B167B0A4C6E
:10410C000A49527B0292012E08BF2146019100956B
:10411C00074A002102F0A3FC04B070BD13870D0008
:10412C003D8A0D0002870D000B870D000F870D00D7
:10413C0029870D00103001F04FB9103001F0EFB8A5
:10414C0007B501220DF10701103001F035F80128F7
:10415C000CBF9DF807004FF0FF3003B05DF804FB77
:10416C00103001F077B907B502AB012203F8011D3D
:10417C001030194601F06EF903B05DF804FB10B570
:10418C003421044603F0BEFC204610BD10B5044695
:10419C00006808B102F0BEFA204610BD38B584693B
:1041AC000A4B036005467CB16368013B63605BB9F5
:1041BC00236820469B689847A368013BA3601BB902
:1041CC0023682046DB689847284638BD508E0D0082
:1041DC0010B50446FFF7E2FF20461C2103F092FCC9
:1041EC00204610BD30B585B01C4B009313798DF86B
:1041FC00043093680293137B8DF80C3000F58C65BA
:10420C00537B8DF80D3004460A466B4600F26C4128
:10421C00284601F049FCF0B1256004F23C452846E3
:10422C0001F010F90121204601F0E7FA014668B1CE
:10423C002146284600F0A8FF68B194F83C3413F0EE
:10424C00700316BF064B18461D6005E0204601F0B2
:10425C00D4FA0028ECD1002005B030BDCC860D007E
:10426C00CCE3032030B585B002F0D8FD4FF41651E5
:10427C0002F0C8FD642002F03FFC02F057FE4FF440
:10428C00165102F04DFE642002F036FC03F006FCE1
:10429C0002F0B0FE294B2A4800241C6000F0A0FC60
:1042AC00274800F075FE264800F0D0FC7621254802
:1042BC0000F05AFC244801F020FE244B03211888FE
:1042CC0003F07EFB224B00930125224B22488DF8F4
:1042DC0004406A460E2102938DF80C508DF80D4067
:1042EC00FFF780FF28B902F099FD1C4902F08DFB05
:1042FC0021E002F093FD1A4902F087FB02F08EFDDB
:10430C00184902F082FB02F011FE2A4601461648BB
:10431C0001F034FF28B902F081FD144902F075FB5D
:10432C00FEE702F07BFD124902F06FFB02F076FD16
:10433C00104902F06AFB05B030BD00BF44DD03201C
:10434C00ACE303204CDD032028E3032084DC0320B2
:10435C00CC860D0080F0FA0264DE032047870D0046
:10436C005E870D0069870D0044E3032071870D0003
:10437C0086870D0094870D0037B503F08FFB502115
:10438C0002F073FE03F08AFB0368224C9B68002149
:10439C00984703F083FB002102F06AFE03F07EFBDA
:1043AC0002225021012302F047FE03F077FB036841
:1043BC005B699847206003F071FB03685B69984761
:1043CC00606040F6B83002F097FB20686368124CCE
:1043DC0000F00F0003EB0020104B186003F040FEC0
:1043EC0000220F4B03F0A2FE0E4B002203F0ECFC5C
:1043FC0004F0AEF8206002F011FD0546206803F0D1
:10440C0041FE094ACDE900010021284602F027FBB4
:10441C0003B030BDA0E30320C4E3032048DD032038
:10442C000040CF3F000024400A880D0008B50C4B1B
:10443C00188803F0EFFA0B4B002814BF012200225E
:10444C001A701FBF084A137883F001031370FFF72B
:10445C0093FF4FF47A70BDE8084002F04DBB00BFEB
:10446C0084DC0320C0E30320A8E3032010B5D4218F
:10447C00044603F047FB204610BD000073B5554DB4
:10448C00554E002401F0B2FE4FF6FF736B812C6089
:10449C00AC80AC712C81022002F0B0F84F4A50492C
:1044AC00284603F021FB4F4B4FF4FA729A604E4AA8
:1044BC0083F820401168C3F8161051681289DA830A
:1044CC000222C3F81A1083F8212083F8264083F8BF
:1044DC002740464B3168DC71642283F86024444ADF
:1044EC00C3F87024012211EA020583F83C4483F8D6
:1044FC003D4483F86A44C3F8784483F87C4483F8D9
:10450C007D4483F874241C460AD13046FFF7CEFD57
:10451C0030B12946374802F059F93046FFF7CBFD48
:10452C003548344B354EC4F86C3400254FF47A734F
:10453C002A4A33490574457445608360314B0360E6
:10454C0003F0D2FA3046304C03F004F9234A2F49D9
:10455C00304603F0C9FA2E4B009340F229722D4BD2
:10456C002D49204600F0A8FD2C4B1C4A2C492360F9
:10457C002046C4F8D06003F0B7FA2B462146294AEE
:10458C00294800F0C0FD2B462146284A284800F057
:10459C00B5FD2B462146274A274800F0AFFD2B4698
:1045AC00264A2748214600F0A9FD1021254801F094
:1045BC009FFC022319461222234800F036FB074ABF
:1045CC002249214803F090FA214802B0BDE870401E
:1045DC0000F040B838DD0320F4DC0320F0DC0320CD
:1045EC0099410D0044E30320F8860D0064DE03209E
:1045FC00CC860D00F8DC03206CE30320F4E20320EE
:10460C00E5400D00D8860D0090DD0320A9410D007A
:10461C0026890D000A890D0016890D00F0890D0000
:10462C00E7400D0041890D0000DD032055890D0088
:10463C0010E3032078890D00E8E203209C890D002B
:10464C001CE3032028E30320ACE30320974B0D006D
:10465C004CDD0320FF22027442748274C2747047D2
:10466C0038B5094D296811F001040AD12846FFF725
:10467C001DFD30B12146054802F0A8F82846FFF789
:10468C001AFD024838BD00BFF4DC0320F8DC03201F
:10469C002DE9F04190F91330013305460F4606D150
:1046AC00FFF7DEFF3946BDE8F04102F033B90726CB
:1046BC0000244FF0010895F91300002180B203F09B
:1046CC0090F995F9110008FA06F1394080B203F01F
:1046DC0088F995F91300012180B203F082F995F95C
:1046EC001200640080B2E4B203F094F908B144F013
:1046FC00010416F1FF36DED22046BDE8F08108B584
:10470C00FFF7AEFFBDE8084002F07BB810B50446D9
:10471C00FFF7A6FF2146BDE8104002F08BB8000061
:10472C0030B590F91030013385B004460D461DD1DB
:10473C000179006802F095FC2068036829469B68A3
:10474C009847206802F098FC02222179206802F038
:10475C0085FC206803685B699847054620680368F8
:10476C005B69984740EA052085B235E090F9133033
:10477C0001330ED11A4B1B4A0093029200230122E3
:10478C0068468DF804308DF80C208DF80D30FFF74D
:10479C00BDFF94F91000002180B203F022F945F01E
:1047AC0080012046FFF774FF00212046FFF770FFC1
:1047BC00002105462046FFF76BFF40EA052085B235
:1047CC0094F91000012180B203F00BF994F9133025
:1047DC00013301D1FFF793FF284605B030BD00BF70
:1047EC00CC860D0020A1070008B5FFF799FF40BA51
:1047FC0080B208BD30B590F91030013385B0044655
:10480C000D4616D10179006802F02BFC2068036874
:10481C0029469B689847206802F02EFC01222179DA
:10482C00206802F01BFC206803685B699847C5B2DE
:10483C002EE090F9133001330ED1174B174A009329
:10484C0002920023012268468DF804308DF80C206A
:10485C008DF80D30FFF75AFF94F91000002180B24B
:10486C0003F0BFF845F080012046FFF711FF00214F
:10487C002046FFF70DFF054694F91000012180B288
:10488C0003F0AFF894F91330013301D1FFF737FF80
:10489C00284605B030BD00BFCC860D0020A1070016
:1048AC0008B5F321FFF7A6FF00F0010008BD38B5ED
:1048BC0088210446FFF798FF8A21A0822046FFF743
:1048CC0093FF8C21E0822046FFF78EFF8E21208300
:1048DC002046FFF789FF902160832046FFF784FF75
:1048EC009221A0832046FFF77FFF9421E08320468E
:1048FC00FFF77AFF962120842046FFF775FF982159
:10490C0060842046FFF770FF9A21A0842046FFF7B1
:10491C006BFF9C21E0842046FFF766FF9E212085DB
:10492C002046FFF761FFA12160852046FFF762FF5B
:10493C00E12184F82C002046FFF756FFE321E085A7
:10494C002046FFF757FFE42184F830002046FFF79C
:10495C0051FFE52105462046FFF74CFF00F00F0004
:10496C0040EA05106086E6212046FFF743FFE5216B
:10497C0005462046FFF73EFF001140EA0510A086D1
:10498C00E7212046FFF736FF84F8360038BD0000DB
:10499C007FB590F91030013304460E46154611D1FF
:1049AC000179006802F05DFB2068036831469B6862
:1049BC0098472068036829469B689847206802F04E
:1049CC005BFB2DE090F9133001330ED1154B164AD9
:1049DC00009302920023012268468DF804308DF872
:1049EC000C208DF80D30FFF791FE94F9100000218A
:1049FC0080B202F0F6FF06F07F012046FFF748FE7A
:104A0C0029462046FFF744FE94F91000012180B29C
:104A1C0002F0E7FF94F91330013301D1FFF76FFE79
:104A2C0004B070BDCC860D0020A10700F8B590F83D
:104A3C003C509DF818609DF81CE09DF8207061F3C7
:104A4C00871562F3020563F3C50590F8403080F8D2
:104A5C003C5066F3471380F8403090F838306EF3D2
:104A6C00C503044667F3020380F8383006F00702EA
:104A7C00F221FFF78DFF94F83820C2F3C20302F045
:104A8C0007019B0043EA411343EAD2122046F52169
:104A9C00FFF77EFF94F83C20C2F3C20302F007013B
:104AAC009B0043EA411343EA92122046F421BDE8ED
:104ABC00F840FFF76DBF30B5044690F91000421C6A
:104ACC0085B003D1206802F095FA22E0012180B272
:104ADC0002F087FF94F91000012180B202F070FF00
:104AEC0094F91300431C04D1FFF7BAFD01F078FED2
:104AFC000FE0012180B202F063FF94F91100012153
:104B0C0080B202F05DFF94F91200002180B202F035
:104B1C0057FFD0212046FFF76DFE6028A06020D102
:104B2C002046B622E021FFF733FF4FF4967001F0D8
:104B3C00E3FF2046FFF7B4FE054608B16420F6E714
:104B4C002046FFF7B4FE052300931A4603212046A6
:104B5C0002950195FFF76AFF642001F0CDFF01205B
:104B6C0000E0002005B030BD10B50171044602F024
:104B7C0095FF20602046BDE81040FFF79CBF01F078
:104B8C0035BB01F0D3BB01F0C9BB10B50446C068FE
:104B9C0008B101F0BFFD23781BB10021E07902F0D0
:104BAC000FFF204610BD38B50446C0680D4608B14D
:104BBC0001F0B0FDA379062B0CBF0420032010FBE1
:104BCC0005F080B2A08001F09DFDE06028B1A288C4
:104BDC00002103F026FD658038BDA080608038BDC3
:104BEC0010B504460121C07902F0EAFE0021E079FB
:104BFC0002F0F7FE0123237010BD38B5037805468B
:104C0C000C461BB10021C07902F0DAFE2B78EC7156
:104C1C0053B1A4B22046012102F0D2FE204600215D
:104C2C00BDE8384002F0DDBE38BD70B50025044645
:104C3C001646837105700572C5600561FFF7B3FFF9
:104C4C0020463146FFF7D9FF204670BDC368002BC4
:104C5C0000F08B812DE9F04F8379023BDBB2042B02
:104C6C009CBFC44A52F8234087B0054688BF322403
:104C7C00FFF787FF2B69C01AA042F9D3BE4AAB8855
:104C8C0007CA06AC04E90700039C1B01D4F80025F5
:104C9C000433019322B9D4F86035002BC0F255814E
:104CAC00049CD4F8003523B9D4F86035002BC0F23D
:104CBC003C81059CD4F800351BB9D4F86035002B29
:104CCC006EDBAE4BEA791E68AD4CAE49E068120162
:104CDC00B31840F080705B78B75CE0600A6803F052
:104CEC001F0343EA471301273A430A600C46A8887E
:104CFC00D5F80C90D4F804A09F408846002844D0E6
:104D0C00CC4600224FF0A0411CF801EB0820802675
:104D1C0063689B1A462BFBD9D8F80420D1F80835C8
:104D2C001EEA060F43EA0703C1F808352FD0636863
:104D3C009B1A282BFBD9D1F80C35013843EA070311
:104D4C004FEA5606C1F80C35E2D1C9EB0C03A88822
:104D5C009BB29842D8D84FF4307303FB00F06368D1
:104D6C009B1A462BFBD9D8F80430CAEB030A8245B0
:104D7C00C0F0D5804FF49670FFF705FFA888D5F8E2
:104D8C000C90D4F804A00028BAD10246E7E7636877
:104D9C009B1A112BCFD863689B1A112BF7D9CAE732
:104DAC00D4F86435002B8CDAD4F86835002B88DA0B
:104DBC00D4F86C35002B84DA019801F0A3FC0028A0
:104DCC003FF47FAFAB88002B00F0D08000273B4630
:104DDC006D4E6E4900E01346EA68D25D03F1010E98
:104DEC0012F0800F14BFB04688461FFA8EFE12F0E8
:104DFC00400F14BFB146894612F0200F20F81380E3
:104E0C0018BFB24620F81E9008BF8A4603F102086C
:104E1C0012F0100F03F1030E14BFB4468C461FFAA8
:104E2C0088F812F0080F1FFA8EFE03F104091FFA1E
:104E3C0089F914BFB3468B4612F0040F20F818A062
:104E4C0020F81EC014BFB2468A4603F1050812F0C2
:104E5C00020F03F1060C03F1070E20F819B01FFA2C
:104E6C008EFE14BFB14689461FFA88F812F0010F66
:104E7C001FFA8CFC14BF32460A4620F818A020F802
:104E8C001C9020F81E200137B5F804E0BFB203F1E6
:104E9C000802BE4592B29ED803F109020A3392B2BF
:104EAC009BB252005B0001994FF4004686524908B0
:104EBC00C65200221423C4F80425304EC4F80C2525
:104ECC00C4F80835C4F81425C4F81025C4F8200516
:104EDC00C4F82415C4F82825C4F82C25EB793168BE
:104EEC001B01CE18C95C737803F01F0343EA41130E
:104EFC000121C4F86035C4F80015C4F81021A16074
:104F0C00D4F81031002BFBD000234FF0FF32C4F843
:104F1C001031C4F80035C4F8602501F0FBFBFFF735
:104F2C0030FE286107B0BDE8F08FD4F86435002B53
:104F3C00BFF6BFAED4F86835002BBFF6BAAED4F8C6
:104F4C006C35002BBFF6B5AE36E7D4F86435002BC4
:104F5C00BFF6A6AED4F86835002BBFF6A1AED4F8D8
:104F6C006C35002BBFF69CAE26E77047042302225B
:104F7C0099E700BFD4890D00C8890D00C8E3032050
:104F8C00F0ED00E0001000E00D80FFFF0680FFFF59
:104F9C008288C068002103F044BB000008B501F012
:104FAC0025F901F023F9014B186008BDC8E3032073
:104FBC0001F01CB901F01AB908B5D0F8D00003689B
:104FCC001B6B9847003018BF012008BDF8B506468A
:104FDC000F461446C4B1D6F8D00003681B6B984733
:104FEC0008B90020F8BDD6F8D000FA2C0368254685
:104FFC00A8BFFA25DB682A463946984780B2241A9E
:10500C008542A4B2E6D0ECE70120F8BD2DE9F843C7
:10501C000646884691461F461D460024D6F8D00009
:10502C0003681B6B9847D0B1002D18DBD6F8D00065
:10503C0003681B69984760B1D6F8D00003685B69B8
:10504C00984708F804000134A4B24C4507D03D46FB
:10505C00ECE70A3D0A202DB201F04EFDDEE72046BA
:10506C00BDE8F88370B5044600F1220596220021B4
:10507C00284603F0D6FA6168284603F003FBD4F8FF
:10508C00D0002289036829465E6A0023B0470030AD
:10509C0018BF012070BD10B50446D0F8D0000368CD
:1050AC001B6B984720B1D4F8D0000368DB6A984793
:1050BC00012010BD01F09AB830B50361039B0D4D72
:1050CC00028143610C4A056000234160C260C0F854
:1050DC00BC30C0F8C030C0F8C430C0F8C830C0F81C
:1050EC00CC308361C36180F8203080F82130A0F887
:1050FC00B83030BD148A0D003D8A0D0010B580E823
:10510C000600037210BD10B50371002341630260E9
:10511C004383C361436203628362C362036310BD52
:10512C0001F064B801F062B801F060B810B5044643
:10513C00243000F071FA28B104F50C70BDE8104071
:10514C0000F06ABA10BD01F051B801F04FB801F08F
:10515C004DB801F04BB88378016943F004038370B8
:10516C0000F11002806800F00DBB10B50446806899
:10517C000A462430A16900F076FA20B1A38803F026
:10518C000F0300EB431010BD70B5047805460E46B6
:10519C0084B92422214603F044FAAE60F379102B33
:1051AC0003D0202B06D1402300E0202301202B70BC
:1051BC00A87070BD002070BD2DE9F74F0378044630
:1051CC00894615464BB18278D10706D50CE05A4674
:1051DC00216900F072FA00283DDA637843F002038B
:1051EC0063704FF0FF3097E01A0703D5E3696269EB
:1051FC009B1A07E09A0608D5A3681A896369C3EB62
:10520C0042139BB29D4228BF1D462E464FF000080C
:10521C0004F1100B002E35D022786369A06812F0CF
:10522C00200FC3F3080A4FEA532102D0036A194432
:10523C001DE090F8058001EA0808BAF1000F10D1C2
:10524C00B8F1000F0DD1002BC1D153064CBF036A2E
:10525C00236A236105E004D1237813F0700F11D178
:10526C00BBE72169A06800F022FA08EB0001A068F6
:10527C00BAF1000F35D1B6F5007F32D3C36A99422B
:10528C0002D12EE0A81B47E0B6F5806F1BD3227825
:10529C0097064FEA562A06D40279C8EB0202D2B21C
:1052AC00924528BF924699424FEA4A2707D2A068F6
:1052BC0053464A46006800F0F3FC60B98DE753444E
:1052CC00994221D3F3E74A46006800F0A1FC00287C
:1052DC0083D04FF4007763693B44B9446361F61B98
:1052EC0098E70022243000F0BEF900283FF475AF97
:1052FC00CAF50077B74228BF374600EB0A013A4699
:10530C00484603F083F9E6E72430019100F084F974
:10531C0001990028CBD160E703B0BDE8F08F73B5DD
:10532C0001220DF10701044646690569FFF744FFA8
:10533C00012805BF9DF8070066614FF0FF3025611D
:10534C0002B070BD2DE9F0410E46017807690446A4
:10535C00002939D04569B5423AD00EB9066131E021
:10536C000B0703D5C3699E422ED807E0880605D5E6
:10537C00A3681B89B6EB431F26D823E0D4F808E0BA
:10538C009EF806306A1E03F10900731EC240C3402A
:10539C009A4200D84DB94A064CBFDEF82020226A4A
:1053AC0022611D4604F110080AE09B1AF9E74246F7
:1053BC002169A06800F081F9002805F1FF3503DDB3
:1053CC00002DF4D1666103E027610020BDE8F08177
:1053DC000120BDE8F081000038B5037804460BB914
:1053EC00012038BD83785A0723D50121FFF7BDFE74
:1053FC00054628B9637843F001036370002038BD7B
:10540C000378E52BF6D023781B0744BFE369C3610F
:10541C00238C4383638C8382094B1B682BB100F173
:10542C001601183098472B8B6B82A37823F004035A
:10543C00A370A068FFF77AFE0028DBD0D0E700BF8E
:10544C00D0E3032010B50446FFF7C6FF00232370FA
:10545C0010BD00002DE9F047037889461907044672
:10546C00904608D583789A0705D51B070BD5E169BB
:10547C00FFF768FF38B9637843F0010363704FF0AE
:10548C00FF30BDE8F0876369DB439845F3D84646A7
:10549C004FF0000A6369002E00F08180A068427909
:1054AC0012EA5325C3F308071CD1DFB9216971B186
:1054BC0004F1100200F001F90028DCDB40F08E80D2
:1054CC002046FFF748FE002840F08880D3E7236A87
:1054DC003BB92046FFF73FFE0028CCD0236923625E
:1054EC0000E023612169A06800F0E1F8291817B9E0
:1054FC00B6F5007F21D2C7F50075B54228BF3546F9
:10550C0037B96369E269934234BF0122052200E096
:10551C000122A068243000F0A6F80028ABD0384453
:10552C002A4649462F4403F071F8B7F5007F30D175
:10553C00A068243000F070F817E0B6F5806FA06812
:10554C0015D30279521B730AD2B2934228BF134669
:10555C00C26A91424FEA432502D31A44914237D38F
:10556C00A7684A46386800F04FFC90B983E7C36AD5
:10557C00994202BF4FF0FF3380F824A0C362A368A6
:10558C004A46186800F0CEFB00283FF474AF4FF485
:10559C00007563692B446361A944761B7AE7E26961
:1055AC00934201D9E36102E00F4B1B681BB1A37856
:1055BC0043F00403A37094F90230002B02DB404645
:1055CC00BDE8F0872046FFF707FF0028F7D152E728
:1055DC004FF0FF3280F824A0C262C1E72169A068B5
:1055EC0000F065F8014683E7D0E3032000F0FEBD30
:1055FC0070B505460C46084649B103F04BF82B68CC
:10560C00024621462846DB68BDE87040184770BD4D
:10561C0000F0ECBD00F0EABD70B50378DA07044683
:10562C001ED54368816800F10C063246186800F0FC
:10563C0079FB054608B9002513E023789B0704D4B1
:10564C00237823F0010323700BE06368A0681969C9
:10565C0032460144186800F065FB0028F0D1EAE7F7
:10566C000125284670BD70B583688B4204460E46F2
:10567C00154614D0FFF7D0FF08B9002070BD6B079A
:10568C0003D500232370A66009E0636804F10C02C3
:10569C003146186800F0BCFA0028F2D1EDE7237807
:1056AC00204605F003051D4300F80C5B70BD8379A3
:1056BC0040690239994008447047012970B5054684
:1056CC000C46164602D84FF0FF3070BDC3699942A4
:1056DC00F9D8C379202B10D18169022201EBD411A6
:1056EC0000F50C70FFF7BFFF0028ECD004F07F042E
:1056FC0050F8243023F070430FE0102BE3D1836972
:10570C00C1F307210222194400F50C70FFF7ABFF1F
:10571C000028D8D0E4B230F81430EA6993429ABF2A
:10572C0033600120002070BD012938B50C461546A8
:10573C0001D8002038BDC3699942FAD8C379202B0F
:10574C000ED18169032201EBD41100F50C70FFF727
:10575C008AFF0028EDD004F07F0440F824500FE0BD
:10576C00102BE6D18369C1F307210322194400F5FC
:10577C000C70FFF778FF0028DBD0E4B220F814504F
:10578C00012038BD2DE9F341C4688C4205460E4614
:10579C00904607D20C460027EB6901349C4203D992
:1057AC00CFB9EC680127F7E7A64214D001AA21462D
:1057BC002846FFF782FF00280DDBEDD0019B002B64
:1057CC00EAD107B1EC606FF0704221462846FFF732
:1057DC00ABFF074608B900270BE016B9C8F8004024
:1057EC0007E0224631462846FFF79EFF0028F5D1F8
:1057FC00F1E7384602B0BDE8F08170B501230446EC
:10580C000022C3604FF0FF33C2710D46A06280F8D6
:10581C002420C362C4F8340280F83022C0F8383235
:10582C00A1B104295DD811462430FFF71CFF0028D4
:10583C0057D000EB051393F8AE315B0651D11B35F5
:10584C0000EB0515D5F80650002D4AD0002229464C
:10585C0004F12400FFF707FF002842D0B0F80B300A
:10586C00B3F5007F3DD1037C022B3AD1C389002BC9
:10587C0037D0417B21714B1E63710023A371092624
:10588C0001238B4207D0013E2BD0A2795B00013261
:10589C00DBB2A271F5E7C28A02B9426A2261C689FB
:1058AC002E44A661B0F81130238106EB420121622F
:1058BC00B0F81120520102F2FF1201EB6222626178
:1058CC00B0F8133003B9036AAD1A2B44A57923FA47
:1058DC0005F56B1CE36140F6F4739D4203D80C2371
:1058EC00E371002070BD4FF6F4739D4285BFC36A0F
:1058FC00236210232023E371012070BD00F076BCDD
:10590C0000F074BC00F072BC70B50E4C0E4615461F
:10591C0000F00CFD2368C01A0B4B984208D900F01C
:10592C000DFD0A4B186000F0DDFE00F0FFFC20605E
:10593C0000F004FD80B2801BA842D4BF00200120DF
:10594C0070BD00BFD4E30320A086010030E7032024
:10595C0038B5057A04464DB9406800F07DFA6368A5
:10596C002946187D02F03DF80123237238BD10B58D
:10597C00037A04466BB143680121187D02F031F8BB
:10598C00FF21606800F09AFA606800F079FA002351
:10599C00237210BDF8B504460D46164600F0CEFC39
:1059AC0087B2606800F06FFAFF28607209D14FF47B
:1059BC007A7239462046FFF7A7FF0028F1D055230D
:1059CC000BE0FE2801D0502307E0324629466068E0
:1059DC0000F05EFA607230B1602320462370FFF74E
:1059EC00C6FF0020F8BD606800F04DFA606800F05A
:1059FC004AFA0120F8BD70B504460E4600F09EFC34
:105A0C0085B2324629462046FFF77EFF30B96068E2
:105A1C0000F039FAFF28F4D1012070BD002070BDD0
:105A2C00F7B5037A019204460D460BB9FFF790FFC8
:105A3C0025B14FF496712046FFF7DDFF45F040018C
:105A4C00606800F03BFA0DF107060DF1030716F83C
:105A5C000119606800F032FABE42F8D1002D0CBF7B
:105A6C0095218721606800F029FA606800F00BFA34
:105A7C000B25606800F007FA0306607203D5013D40
:105A8C0015F0FF05F5D103B0F0BD70B504460D4619
:105A9C00164637210022FFF7C3FF3246294620461F
:105AAC00BDE87040FFF7BCBF2DE9F0410025057241
:105ABC00057085724160044690461E4600F03EFC1F
:105ACC0041460746606800F0CBF963684F4A1D7287
:105ADC004FF00108DA605D7483F810802046FFF700
:105AEC0037FF63684146187D01F07BFF0A25FF21D3
:105AFC006068013D00F0E2F915F0FF05F7D163682D
:105B0C002946187D01F06DFF0A250022114620461A
:105B1C00FFF786FF0128804612D0013D15F0FF05E6
:105B2C0001D1202357E0FD21606800F0C7F94FF444
:105B3C000278606800F0A7F9B8F10108F9D1E4E740
:105B4C004FF4D57208212046FFF76AFF052802D1D1
:105B5C0084F80A800FE00425606800F094F9013D98
:105B6C0015F0FF056072F7D1AA2802D10223A372A7
:105B7C0001E025232FE0A37A022B0CBF4FF08045C8
:105B8C000025BFB22A4629212046FFF77EFF024698
:105B9C0048B14FF4FA6239462046FFF7B5FE0028AB
:105BAC00F0D0432317E0A37A022B0ED02046FFF748
:105BBC00DEFE6368B0683479317B727B5A74D860CE
:105BCC001C7219740120BDE8F0813A212046FFF7C0
:105BDC0027FF38B1372320462370FFF7C8FE00207B
:105BEC00BDE8F081606800F04EF900F0C000C028FC
:105BFC0004BF0323A372606800F045F9606800F0ED
:105C0C0042F9606800F03FF9D0E700BF90D0030084
:105C1C0038B5837A032B18BF490215460A46112161
:105C2C000446FFF7FDFE10B1302323700BE029462C
:105C3C004FF400722046FFF7ADFE054618B1204622
:105C4C00FFF795FE03E02046FFF791FE002528465E
:105C5C0038BD10B5837A032B0A4618BF4A021221AD
:105C6C000446FFF7DDFE30B1312320462370FFF7E9
:105C7C007EFE002010BD012010BD10B500220C21AD
:105C8C000446FFF7CDFE30B1282320462370FFF7E2
:105C9C006EFE002010BD2046FFF769FE012010BDEE
:105CAC00F8B5054616461F46FFF7D3FF98B10024FA
:105CBC00A3B29F4206EB442108D94FF40072284648
:105CCC00FFF768FE01340028F2D104E02846BDE855
:105CDC00F840FFF7D2BF0020F8BD38B50446154692
:105CEC00406800F0EBF84FF400722946606800F051
:105CFC00E9F8FF21606800F0E1F8FF21606800F02E
:105D0C00DDF8606800F0BFF8607200F01F00052835
:105D1C0006D0572320462370FFF729FE002038BDFC
:105D2C00012038BD70B5837A032B18BF4902154684
:105D3C000A4618210446FFF773FE064608B13223C3
:105D4C001DE02A46FE212046FFF7C7FFC0B14FF4E5
:105D5C00FA612046FFF74FFE054608B95A230EE0BC
:105D6C0032460D212046FFF75BFE38B9606800F023
:105D7C008AF818B92046FFF7FAFD05E029232370AD
:105D8C002046FFF7F4FD0025284670BD38B50D46BA
:105D9C004FF4FA610446FFF72EFE10B95B23237013
:105DAC0005E02A46FC212046FFF797FF18B920464C
:105DBC00FFF7DDFD002038BD10B5837A032B0A46B2
:105DCC0018BF4A0219210446FFF72AFE30B13323CB
:105DDC0020462370FFF7CBFD002010BD012010BD25
:105DEC0038B54FF4FA610446FFF705FE054620B1BD
:105DFC00FD21606800F062F801E056232370204614
:105E0C00FFF7B5FD284638BDF8B5054616461F46C2
:105E1C00FFF7D2FF70B10024BC4206EB44212846A8
:105E2C0004D0FFF7B3FF28B10134F5E7BDE8F84023
:105E3C00FFF7D6BF2846FFF79AFD0020F8BD00F00B
:105E4C00D5B900F0D3B900F0D1B90000014B012253
:105E5C001A707047D8E30320011D006800F0EABCFB
:105E6C0010B504460175006800F0BAFC207D0121D4
:105E7C0001F0A6FD207D0121BDE8104001F0B1BD6F
:105E8C00006800F0BEBCFF21006800F043BD0000BC
:105E9C0037B5084B00930025074C00682570134656
:105EAC000A46294600F03CFD2378002BFCD000204C
:105EBC0003B030BD595E0D00D8E30320006800F03C
:105ECC0029BD000037B5074B00930025064C006830
:105EDC00257013462A4600F023FD2378002BFCD0B6
:105EEC0003B030BD595E0D00D8E3032000F07EB93D
:105EFC000022016002614261704710B504460088BF
:105F0C0001F09BFD40F21233A0F10B029A4207D82C
:105F1C00A0606060E06000F011FAA061012010BD8B
:105F2C00002010BD00F062B98B1D002011F8012F6C
:105F3C0010448B4280B2F9D1404280B27047417C10
:105F4C00837CC27B80F8232003EB01239BB23A3A7B
:105F5C008384152A33D8DFE802F0171E2E0B2E107F
:105F6C00252C2E2E2E2E2E2E2E2E322E2E2E2E2E4C
:105F7C00002380F82030052318E099072AD5002348
:105F8C0080F82030042311E09A0723D5002380F8F1
:105F9C00203002230AE09B071CD5002380F8203018
:105FAC00032303E0002380F82030062380F82230FE
:105FBC0001E000230CE0012380F826307047002319
:105FCC00012280F8203080F82220838480F826205B
:105FDC0080F82730704710B5044600F10C01FFF72C
:105FEC00A3FFE27C237D03EB02239BB21B1A5842D6
:105FFC00584110BD70B50446206803681B6998476A
:10600C00054600285AD0206894F8205003685B6934
:10601C004DB99847C0B27E282073EDD184F8265034
:10602C0094F8203046E098472544287394F82030A3
:10603C00022B11D0092B13D0012B3BD1627BFF2AF1
:10604C0038D0002284F8202084F82230A28484F8EE
:10605C00263084F8272048E0A27B062A2AD002E0CA
:10606C00637DEF2B09D00023012284F8203084F8C3
:10607C002220A38484F826200EE02046FFF7ABFFF5
:10608C0068B1002384F820302046FFF758FF94F8BD
:10609C00266056B3A37E43BB84F8273025E001234A
:1060AC0084F8200084F82230A08484F8263084F808
:1060BC0027001AE0013384F820309DE794F827304C
:1060CC008BB100F03BF96368C01AA36898420AD3FD
:1060DC00012384F8205084F82250A58484F82630BB
:1060EC0084F8275001E094F82660304670BD10B556
:1060FC00837E044633B194F8273033B12046FFF742
:10610C0079FFF8E70A2000F0F7FC21460A2251F843
:10611C00160B0368DB68984700F010F9A37E6060EB
:10612C00003318BF012384F8273010BD131210B5AB
:10613C004176C376027700F116010446FFF7F4FEB0
:10614C000312A07763772046BDE81040FFF7CFBF5E
:10615C000022FFF7EBBF012310B5044680F827306F
:10616C002046FFF747FF0028FAD094F822000030B1
:10617C0018BF012010BD0C21FFF7EABF38B504464B
:10618C00154612B10123837600E0A276A368216044
:10619C0003F6B833A3602046FFF7EDFF2046FFF768
:1061AC00DAFFA368A3F6B833C820A36000F0A4FC00
:1061BC00002384F8263094F82230042B14BF85F089
:1061CC000100012038BD00F011B8000008B5024BE9
:1061DC001B689B68019308BD6802030008B5024B5D
:1061EC001B68DB68019308BD6802030008B5024B0D
:1061FC001B681B68019308BD2C02030008B5024BF9
:10620C001B685B68019308BD2C02030008B5024BA8
:10621C001B689B68019308BD2C02030008B5024B58
:10622C001B68DB68019308BD2C02030008B5024B08
:10623C001B681B69019308BD2C02030008B5024BB7
:10624C001B685B69019308BD2C02030008B5024B67
:10625C001B681B6B019308BD2C02030008B5024B95
:10626C001B681B68019308BD3002030008B5024B84
:10627C001B685B69019308BD3002030008B5024B33
:10628C001B68DB69019308BD3002030008B5024BA3
:10629C001B681B6A019308BD3002030008B5024B52
:1062AC001B685B6A019308BD3002030008B5024B02
:1062BC001B689B6A019308BD3002030008B5024BB2
:1062CC001B689B6B019308BD3002030008B5024BA1
:1062DC001B68DB6B019308BD3002030008B5024B51
:1062EC001B681B6C019308BD3002030008B5024B00
:1062FC001B685B6C019308BD3002030008B5024BB0
:10630C001B685B69019308BD6C02030008B5024B66
:10631C001B685B68019308BD1802030008B5024BAB
:10632C001B68DB68019308BD1802030008B5024B1B
:10633C001B681B69019308BD1802030008B5024BCA
:10634C001B685B69019308BD1802030008B5024B7A
:10635C001B689B68019308BD4802030008B5024BFB
:10636C001B681B69019308BD4802030008B5024B6A
:10637C001B685B69019308BD4802030008B5024B1A
:10638C001B685B6C019308BD4802030008B5024B07
:10639C001B689B6C019308BD4802030008B5024BB7
:1063AC001B685B69019308BD6402030008B5024BCE
:1063BC001B681B6A019308BD6402030008B5024BFD
:1063CC001B689B6A019308BD6402030008B5024B6D
:1063DC001B681B68019308BD3C02030008B5024B07
:1063EC001B68DB68019308BD3C02030008B5024B37
:1063FC001B681B69019308BD3C02030008B5024BE6
:10640C001B685B69019308BD3C02030008B5024B95
:10641C001B689B69019308BD3C02030008B5024B45
:10642C001B68DB69019308BD3C02030008B5024BF5
:10643C001B681B6A019308BD3C02030008B5024BA4
:10644C001B689B6A019308BD3C02030008B5024B14
:10645C001B68DB6A019308BD3C02030008B5024BC4
:10646C001B68DB68019308BD2802030008B5024BCA
:10647C001B689B69019308BD2802030008B5024BF9
:10648C001B68DB69019308BD2802030008B5024BA9
:10649C001B681B6A019308BD2802030008B5024B58
:1064AC001B685B6A019308BD2802030008B5024B08
:1064BC001B689B6A019308BD2802030008B5024BB8
:1064CC001B68DB6A019308BD2802030008B5024B68
:1064DC001B681B6B019308BD2802030008B5024B17
:1064EC001B685B6B019308BD2802030008B5024BC7
:1064FC001B681B6C019308BD2802030008B5024BF6
:10650C001B681B6D019308BD2802030008B5024BE4
:10651C001B689B69019308BD3802030008B5024B48
:10652C001B68DB69019308BD3802030008B5024BF8
:10653C001B681B6A019308BD3802030008B5024BA7
:10654C001B689B6A019308BD3802030008B5024B17
:10655C001B681B6B019308BD3802030008B5024B86
:10656C001B689B6B019308BD3802030008B5024BF6
:10657C001B681B68019308BD4C02030008B5024B55
:10658C001B685B68019308BD4C02030008B5024B05
:10659C001B681B69019308BD4C02030008B5024B34
:1065AC001B685B69019308BD4C02030008B5024BE4
:1065BC001B689B69019308BD4C02030008B5024B94
:1065CC001B68DB69019308BD4C02030008B5024B44
:1065DC001B681B6A019308BD4C02030008B5024BF3
:1065EC001B685B6B019308BD6002030008B5024B8E
:1065FC001B681B6D019308BD6002030008B5024BBC
:10660C001B685B68019308BD2002030008B5024BB0
:10661C001B685B69019308BD2002030008B5034B9E
:10662C001B68D3F88830019308BD000020020300DA
:10663C0008B5034B1B68D3F89430019308BD0000D8
:10664C002002030008B5024B1B685B68019308BD70
:10665C004002030008B5024B1B689B68019308BD00
:10666C004002030008B5024B1B68DB68019308BDB0
:10667C004002030008B5024B1B681B69019308BD5F
:10668C004002030008B5024B1B685B69019308BD0F
:10669C004002030008B5024B1B689B69019308BDBF
:1066AC004002030008B5024B1B68DB69019308BD6F
:1066BC004002030008B5024B1B681B6A019308BD1E
:1066CC004002030008B5024B1B681B6B019308BD0D
:1066DC004002030008B5024B1B685B6B019308BDBD
:1066EC004002030008B5024B1B689B68019308BD70
:1066FC004402030008B5024B1B68DB6B019308BD19
:10670C004402030008B5024B1B681B68019308BDCB
:10671C001C02030008B5024B1B685B68019308BDA3
:10672C001C02030008B5024B1B685B6A019308BD91
:10673C001C02030008B5024B1B68DB6B019308BD00
:10674C001C020300002211464068FFF7B3BF002271
:10675C0011464068FFF7BEBF00224068FFF7B2BF8A
:10676C00002281F001014068FFF79CBF00231A460C
:10677C0019464068FFF78EBF00231A461946406839
:10678C00FFF780BF002211464068FFF773BF00225D
:10679C0011464068FFF75EBF002202214068FFF7F8
:1067AC0061BF00231A464068FFF74CBF024B03221F
:1067BC005A60024A1A607047DCE303202C8C0D00EF
:1067CC000021FFF78BBD0021FFF790BD10B50446EB
:1067DC0001700846FFF752FD00236360204610BD90
:1067EC0010B504460078FFF7EBFF48B920784FF658
:1067FC00FF71FFF733FD2078BDE81040FFF7E3BFD2
:10680C0010BD0078FFF7DFBF400830B518600024DA
:10681C0018688842E5B206D90134082C02D0400829
:10682C001860F5E70725024B5B5D137030BD00BFA8
:10683C00588C0D002DE9F04307468FB000780E46BA
:10684C00FFF7BEFF002862DB3C781422002109A868
:10685C0001F0E7FE0B232046002209A9ADF82430F5
:10686C00FFF71CFD9DF82D4054B19DF82C5035B907
:10687C00DDF830809DF834909DF8354003E000241D
:10688C00A146A0460125337905B1BBB99D420BD178
:10689C00B268424508D18DF820908DF82140BDF8A2
:1068AC002010B289914209D053B100243878019458
:1068BC000094234622460121FFF708FD002026E024
:1068CC008DF80F30B1680A9804AB0DF10F02FFF789
:1068DC009BFF317905B1B1B9A94208D000243878B1
:1068EC000194747B337B9DF80F200094E4E7B3682C
:1068FC004345F3D38DF820908DF82140BDF820202E
:10690C00B3899A42EAD1049B4345E7D1D6E70FB04D
:10691C00BDE8F08308B50078FFF7A8FCC0B208BD4D
:10692C0030B587B004460A9D00780095FFF7BEFC91
:10693C003DB902A92078FFF7C1FC9DF81430DB07A4
:10694C00F7D407B030BD0078FFF7A0BC10B5094CE8
:10695C0000204FF6FF732060A080A071208163811E
:10696C00FFF74CFE2046044A0449BDE8104001F0F4
:10697C00BBB800BFE4E30320F0DC032099410D0019
:10698C0010B50446006808B1FFF700FD204610BDA5
:10699C0010B5064C002320462360FFF7EFFC204681
:1069AC00034A0449BDE8104001F09EB8F0E303200F
:1069BC00F0DC03208D690D00F8B506460D468F18E6
:1069CC000024BD420CD0336815F8011B9B6830467F
:1069DC009847002801DB0444F3E7002C08BF044669
:1069EC002046F8BD08B5FEF703FE08BD03689B689A
:1069FC00184738B50D210546FFF7F8FF0A21044664
:106A0C002846FFF7F3FF204438BD38B50546FEF79E
:106A1C00EFFD04462846FFF7ECFF204438BD30B5A7
:106A2C008BB00B4600218DF82410012A98BF0A2246
:106A3C000DF12304B3FBF2F505FB123303F0FF0356
:106A4C00092B94BF30333733DBB2214604F80139BC
:106A5C002B46002DEED1FEF7CBFD0BB030BD0CB4A8
:106A6C002DE9F04387B000AF07F13804054654F820
:106A7C00049B3C600E4623464A461421381DFFF702
:106A8C0051FE132805D8391D2846FEF7B1FD0446E2
:106A9C0013E000F1080323F00703E846ADEB030D08
:106AAC00411C23464A4668463C60FFF73BFE69465C
:106ABC002846FEF79DFD0446C5461EB12846FFF745
:106ACC0098FF044420461C37BD46BDE8F04302B095
:106ADC0070470000014B024A1A607047F4E3032030
:106AEC00D38C0D00024B1A68024B1A60704700BF22
:106AFC0088DC0320F8E303200021FFF787BD10B5E5
:106B0C008368044613B1032201469847204610BD02
:106B1C0010B50446FFF7F3FF204610BD0348044AA6
:106B2C0004490023836000F0DFBF00BFFCE30320B7
:106B3C00F0DC03201D6B0D0008B50C4B33B100F0DD
:106B4C006DF903681B699847002809DC084B63B191
:106B5C0000F0ECF903681B699847002803DC08BDBA
:106B6C00AFF30080F2E7AFF3008008BD0000000037
:106B7C000000000008B5FFF7DFFFFFF7DFFB014B5C
:106B8C00186008BD30E703200248034A0349121A73
:106B9C0001F03CBD00F4032004F4032020900D0010
:106BAC0007B5002300931A466FF07701FFF740FDFD
:106BBC0003B05DF804FB000007B543880A2B08D02E
:106BCC00502B09D1094B1B683BB103B05DF804EBAA
:106BDC001847FFF7E5FF06E0002300931A466FF015
:106BEC007701FFF725FD03B05DF804FB0CE40320EF
:106BFC0038B5104C104D2368AB42104B0CBF012222
:106C0C0000221A7002D0FFF7BFFF2560FFF77EFB52
:106C1C00044601F00FFD0A4B13B12046AFF3008080
:106C2C0000210748FFF766FD00210648BDE8384003
:106C3C00FFF7F4BC00F403201E1C279A10E4032079
:106C4C0000000000C56B0D00704710B518210446FC
:106C5C0000F058FF204610BDF0B5037D062B8DB01B
:106C6C000E4600F104074FF0000402D000F10805B5
:106C7C0018E00CAD394605F8304D2F232A460A2072
:106C8C00FFF78CFB284601F005FD33680246DB68F4
:106C9C002946304698470FE024B12E213046FFF7A5
:106CAC00A5FE044415F8011D0A223046FFF7B7FE75
:106CBC00BD420444F0D120460DB0F0BD10B5054BDB
:106CCC000446112240F8043B002101F0AAFC2046A6
:106CDC0010BD00BF648D0D000346074A10B543F884
:106CEC00042B01F1100251F8044B43F8044B914270
:106CFC00F9D10A781A7010BD648D0D00037D042B38
:106D0C0001D1406808E0062B0AD1436853B9836867
:106D1C0043B9C36833B90069003018BF012070470C
:106D2C00002070470120704710B59DF8084044EAD8
:106D3C00032343EA024242EA0161042341600375E2
:106D4C0010BD37B50D788B784A78C97800912946F3
:106D5C00FFF7EAFF03B030BD41747047704708B5C8
:106D6C000021007CFFF722FC30EA200028BF4FF006
:106D7C00FF3008BD08B50121007CFFF717FC30EA95
:106D8C00200028BF4FF0FF3008BD08B5007CFFF78E
:106D9C0005FC20EAE07008BD08B5007CFFF7F6FBA7
:106DAC0020EAE07008BD007CFFF710BC10B5142180
:106DBC00044600F0A7FE204610BD38B50446007C02
:106DCC000D46FFF7EBFB002801DC607C28B129465F
:106DDC00207CFFF7F3FB20EAE07038BD10B50446C9
:106DEC00002363604FF47A73A360054B2360012387
:106DFC000846217463741146FFF7B8FB204610BD9A
:106E0C00788D0D000022007CFFF7B8BB10B5142262
:106E1C000446002101F005FC204610BD30B50E4D96
:106E2C0087B001A8FFF7F2FF296811F0010410D117
:106E3C002846FDF73BF960B101AA21460748FFF748
:106E4C00CDFF2846FDF737F9054A0649034800F0FF
:106E5C004BFE024807B030BD14E4032018E40320B5
:106E6C00F0DC0320696D0D0070474174704708B564
:106E7C00007CFFF7E3FA20EAE07008BD08B5007C5F
:106E8C00FFF7B4FA20EAE07008BD08B5007CFFF704
:106E9C00BDFA30EA200028BF4FF0FF3008BD08B51E
:106EAC00007CFFF7ABFA30EA200028BF4FF0FF3030
:106EBC0008BD007CFFF7B2BA10B51421044600F0EF
:106ECC0021FE204610BD70B5457C04460E4625B902
:106EDC00007CFFF7B3FA002805DD3146207CBDE8C5
:106EEC007040FFF77BBA284670BD000010B5044611
:106EFC0008461146002262604FF47A72A260054A7D
:106F0C0022600122207462741A46FFF75FFA204651
:106F1C0010BD00BFA88D0D000023007CFFF796BAB2
:106F2C000022FFF7F9BF007CFFF780BA38B50C4D93
:106F3C00296811F0010411D12846FDF7B7F868B1A2
:106F4C00084A094B09482146FFF7D0FF2846FDF7B0
:106F5C00B2F8074A0749054800F0C6FD034838BD9A
:106F6C00C4E40320C8E4032040E403202CE4032001
:106F7C00F0DC0320756E0D007047F8B5064615461B
:106F8C000C468F18BC4206D0336814F8011B9B6862
:106F9C0030469847F6E72846F8BD0022007CFFF7FC
:106FAC0075BA0021007CFFF779BA0021007CFFF74D
:106FBC007DBA0021007CFFF781BA0021007CFFF72D
:106FCC0085BA10B51421044600F09CFD204610BD76
:106FDC0010B50446002363604FF47A73A360044B2E
:106FEC002174084623601146FFF780FA204610BD35
:106FFC00D88D0D0000231A461946007CFFF72EBAD7
:10700C0070B50C4686B0142506462A46002101A808
:10701C0001F007FB23788DF8083063680393E3686D
:10702C0004930022237A307CADF8045001A9059317
:10703C00FFF764FA06B070BD1FB500338DF8001071
:10704C004FF06401039118BF0123694601928DF83A
:10705C000830FFF7D5FF05B05DF804FB0123FFF7FF
:10706C00EBBF0022007CFFF701BAC9B2FFF7F9BFF2
:10707C000022007CFFF702BA0121FFF7F9BF0021C3
:10708C00007CFFF72BBA002211464068FFF712BBB9
:10709C00002211464068FFF71DBB00224068FFF735
:1070AC0011BB002281F001014068FFF7FBBA0023FD
:1070BC001A4601214068FFF7EDBA00231A4619461B
:1070CC004068FFF7DFBA002211464068FFF7D2BADA
:1070DC00002211464068FFF7BDBA00220221406829
:1070EC00FFF7C0BA00231A464068FFF7ABBA38B5B1
:1070FC00054688B104684CB1A3681BB10322214634
:10710C00204698471021204600F0FCFC284614210C
:10711C00BDE8384000F0F6BC38BD10B103685B68C0
:10712C001847704710B503680446BBB15868FFF7A1
:10713C000DF978B923685A7C12B95868FFF70EF923
:10714C0023685868FFF712F920680023236028B1E0
:10715C00FFF7CDFF206808B1FFF7C9FF204610BD2F
:10716C0038B50446D0F8C40108B1FCF792FFD4F846
:10717C00C00108B1FFF70AF9D4F8BC5135B1284663
:10718C00FFF7D0FF0421284600F0BCFC206808B1B2
:10719C00FFF7C3FF204638BD10B5044B044640F83A
:1071AC00083BFFF7DDFF204610BD00BF008E0D0031
:1071BC0038B50E4C0E4B23600025022304F5E47009
:1071CC006360A560C4F8C451C4F8C851FFF7D6F881
:1071DC00084BC4F8CC5184F8D05123602046064AA1
:1071EC000649BDE8384000F07FBC00BF4CE50320E9
:1071FC00E88E0D00008E0D00F0DC0320A5710D0053
:10720C0037B502AC036804F8011DDD6B01224FF0A9
:10721C00FF332146A84703B030BD10B40368DC6BC4
:10722C004FF0FF33A4465DF8044B604737B502AC12
:10723C00036804F8011DDD6B214613460122A847A3
:10724C0003B030BD704738B543691A68002A04464C
:10725C0005DAB3F88620B3F884309A4201D00125C0
:10726C000BE003681B699847002814BF0125002513
:10727C0003D123682046DB6A9847284638BD43690A
:10728C001868C043C00F704770470020704710B596
:10729C001421044600F036FC204610BDFCF7F7BE66
:1072AC007FB5164600224260029203925A1C044695
:1072BC000D4608D04FF47A72B3FBF2F1029102FB47
:1072CC0011314A43039260690823009341F205028D
:1072DC006B4440F6FF710068FFF718F9002808DBD3
:1072EC0060690023324629460068FFF72FF9002811
:1072FC0004DAFFF71FFA03686360002004B070BD66
:10730C0010B5036804469B689847A368013BA360CB
:10731C002BB923682046DB68BDE81040184710BD28
:10732C0070B504464D69054B44F8043B8C35064654
:10733C000FCD0FC42B682370304670BD648D0D00CB
:10734C0010B54369B3F88620B3F884309A420446EA
:10735C0005D06269B2F884301344187910BD036803
:10736C001B6998470028F4D14FF0FF3010BD10B5C1
:10737C004369B3F88620B3F884309A42044608D0A7
:10738C006269B2F88430591C1344A2F8841018793D
:10739C0010BD03681B6998470028F1D14FF0FF30EE
:1073AC0010BDF8B543691746B3F88620B3F884309E
:1073BC009A4205460E4606D103681B69984710B9D8
:1073CC004FF0FF3414E06969B1F88430B1F88640AD
:1073DC00E41ABC4228BF3C461944224604313046CC
:1073EC0001F014F96A69B2F884302344A2F88430AD
:1073FC002046F8BD2DE9F0439846036893B0DB6A4C
:10740C000D4606461746984712AB002443F8484DE4
:10741C00224621462846FEF7E1FE814600283DD152
:10742C00009B002B56D05B69002B53D006A8FFF7AE
:10743C0045FC009B5C696378022B01D1211D13E094
:10744C000A2B14D11122494601A801F0EAF8A368CD
:10745C0033BBE36823BB4FF6FF702569FEF7A6FF2D
:10746C0085421DD104F1140106A8FFF76AFC06A899
:10747C00FFF744FC00282DD0336807ADD3F82090DB
:10748C00184B0C930FCD0DAC0FC42B6823703A46E0
:10749C0043460CA93046C84781461BE0A14619E07B
:1074AC0004F1080301AD1834186859682A4603C260
:1074BC000833A3421546F7D1062301A90CA80DAD3C
:1074CC008DF81430FFF708FC0FCD07AC0FC42B68F8
:1074DC002370CCE70098FEF779FE484613B0BDE860
:1074EC00F08300BF648D0D0042690023A2F8843044
:1074FC004269A2F8863070472DE9F0411E460368B8
:10750C000C468AB0DB6A054617469847237DD5F8AA
:10751C001480042B0CBF02200A2006220121FFF745
:10752C001DF8C8F800006B691B68002B18DB284697
:10753C00FFF7DAFFD6B1002303A9F0B20393ADF83D
:10754C001030FEF7DBFE58B968690623009341F250
:10755C000B0203AB40F6FF710068FEF7D7FF28B1B2
:10756C002B682846DB6A002498473BE01C263246F1
:10757C00002103A801F055F8237D8DF80C60042B35
:10758C000CD1022338468DF80D30FEF717FFADF8FD
:10759C000E006068FEF70AFF049013E00A233846D9
:1075AC008DF80D30FEF70AFF05AEADF80E00231D69
:1075BC0004F1140718685968324603C20833BB42F9
:1075CC001646F7D16B691C2203A91868FEF7AEFFAB
:1075DC000028C5D104340FCC6D698C350FC52368D8
:1075EC002B70012420460AB0BDE8F08110B5436928
:1075FC0004461868002801DBFEF790FF63694FF022
:10760C00FF321A606069112200218C3001F009F8F8
:10761C002046BDE81040FFF767BF000030B5426957
:10762C00B2F886308BB004461BB1B2F884209A4273
:10763C0040D06369186800283FDBB3F886507F2D73
:10764C003BD8191DC5F1800208232944FEF776FFAB
:10765C0000280CDD6369B3F886200AB9A3F88420EE
:10766C006269B2F886301844A2F8860025E0FFF76C
:10767C0061F803680B2B20D0FFF75CF803680B2B29
:10768C001BD02023002502930395FFF753F80368C2
:10769C0001930E4B009302AA2B460D493220FEF7A4
:1076AC00A5FF63691868FEF739FF63694FF0FF3275
:1076BC001A6002E0FFF718FFBBE76269B2F8863088
:1076CC00B2F88400181A0BB030BD00BF9B8E0D00B1
:1076DC00948E0D0010B5002304460160A0F8843090
:1076EC00A0F886308830FFF7E9FA204610BD00007C
:1076FC004FF47A7270B500238260144A43600260C2
:10770C00436183610446A0200E46FCF7BEFC05468F
:10771C0010B13146FFF7DEFF1420FCF7B6FC034630
:10772C0028B1012242608260094A02600561A069A9
:10773C006561A36128B14368013B43600BB9FFF756
:10774C00DFFD2046FFF7D0FE204670BD508E0D00A9
:10775C00348E0D0010B54FF0FF310446FFF7C8FF13
:10776C00204610BD10B504460068002801DBFEF76A
:10777C00D5FE204610BD10B504692046FFF7F2FF78
:10778C0024B12046BDE81040FCF781BC10BD00229E
:10779C0011464068FEF76EBF002211464068FEF7A6
:1077AC0089BF002211464068FEF794BF0022406852
:1077BC00FEF788BF002281F001014068FEF772BF1E
:1077CC0000231A4619464068FEF764BF00231A4688
:1077DC0019464068FEF756BF002211464068FEF776
:1077EC0039BF002202214068FEF73CBF00231A4635
:1077FC004068FEF727BF0000024B04225A60024A81
:10780C001A60704720E70320B48E0D0000231A463F
:10781C004068FEF717BF002202214068FEF722BF26
:10782C00002211464068FEF715BF00221146406841
:10783C00FEF720BF00231A4619464068FEF722BF08
:10784C0000231A4619464068FEF724BF002281F037
:10785C0001014068FEF726BF00224068FEF732BFE8
:10786C00002211464068FEF735BF002211464068E1
:10787C00FEF720BF2DE9F043002495B016460D46C7
:10788C000746FFF71BFA214620220CA8009400F0B3
:10789C00C8FE40230C9321466B460CAA3046FEF7DB
:1078AC009DFC0446002844D1024601216868FEF77D
:1078BC00E1FE0221804622466868FEF7DBFE009E50
:1078CC0081462146002E34D0002932D17368022B18
:1078DC0002D00A2B09D02AE0B8F1000F27D0716929
:1078EC0038460431FFF72DFA20E0B9F1000F1ED015
:1078FC007469112201A800F094FE06238DF814304F
:10790C0001AD04F108031834186859682A4603C2FB
:10791C000833A3421546F7D101A906A807ADFFF716
:10792C00DBF90FCD3C1D0FC42B6823700121F669C8
:10793C00C8E70098FEF74AFC384615B0BDE8F0835E
:10794C00024B034A1A6000225A60704728E7032052
:10795C00E88E0D0070B5184E316811F00105044623
:10796C000AD13046FCF7A2FB30B129461348FEF78A
:10797C002DFF3046FCF79FFB1048FEF7E4FF28B1C3
:10798C00A4F10B03022B01D8002070BD00F086F887
:10799C00FFF775FB08B1012CF6D9FFF7C7FAFFF713
:1079AC00C2FA18B1A4F10903012BEDD9232C8CBF19
:1079BC000020012070BD00BFF4DC0320F8DC0320A4
:1079CC00232838B504460D460AD8FF2908D0FFF7FE
:1079DC00C1FF28B129462046BDE83840FEF716BC49
:1079EC0038BD38B504460D46FEF718FCFF2810D0FC
:1079FC00062804D84D2323FA00F0C30709D42046E7
:107A0C00FFF7A8FF28B129462046BDE83840FEF70D
:107A1C000DBC38BD10B50446FEF700FC0438C0B2EE
:107A2C00012808D92046FFF795FF20B12046BDE874
:107A3C001040FEF703BC002010BD0D2810B5044605
:107A4C009CBF0E34A4B22046FFF784FF50B1032133
:107A5C002046FEF7D3FB032804D12046BDE8104096
:107A6C00FEF7F4BB002010BD70B5044614252A4661
:107A7C00094E002100F0D5FD258020253146A5605A
:107A8C002561284600F040F831466060284600F039
:107A9C003BF8E060204670BD148F0D0030B50E4DE4
:107AAC00296811F0010487B013D12846FCF7FEFABF
:107ABC0078B101A8FFF7D8FF01AA21460748FFF7C4
:107ACC0087FA2846FCF7F7FA054A0649034800F0FE
:107ADC000BF8024807B030BD34E7032038E7032029
:107AEC00F0DC0320856F0D000B460146184600F0B4
:107AFC007FBD0000024B1868BFF35F8F704700BF5B
:107B0C004CE70320FCF7C3BA00F000B810B500280E
:107B1C0014BF044601242046FEF7F4FD20B9FFF7FC
:107B2C00E9FF08B18047F6E710BD0000184B1A6852
:107B3C00D1075CBF01221A60164B1A68D2075CBFD2
:107B4C0001221A60144B1A68D0075CBF01221A601C
:107B5C00124B1A68D1075CBF01221A60104B1A68CD
:107B6C00D2075CBF01221A600E4B1A68D0075CBFAB
:107B7C0001221A600C4B1A68D1075CBF01221A60F3
:107B8C000A4B1A68D2075CBF01221A60704700BF0B
:107B9C006CE7032068E7032064E7032060E7032019
:107BAC005CE7032058E7032054E7032050E7032049
:107BBC00244B1A68D0075CBF01221A60224B1A684A
:107BCC00D1075CBF01221A60204B1A68D2075CBF38
:107BDC0001221A601E4B1A68D0075CBF01221A6082
:107BEC001C4B1A68D1075CBF01221A601A4B1A6829
:107BFC00D2075CBF01221A60184B1A68D0075CBF11
:107C0C0001221A60164B1A68D1075CBF01221A6058
:107C1C00144B1A68D2075CBF01221A60124B1A6807
:107C2C00D0075CBF01221A60104B1A68D1075CBFE9
:107C3C0001221A600E4B1A68D2075CBF01221A602F
:107C4C00704700BF9CE7032098E7032094E70320CC
:107C5C0090E703208CE7032088E7032084E70320C8
:107C6C0080E703207CE7032078E7032074E70320F8
:107C7C0070E70320244B1A68D0075CBF01221A60FE
:107C8C00224B1A68D1075CBF01221A60204B1A687C
:107C9C00D2075CBF01221A601E4B1A68D0075CBF6A
:107CAC0001221A601C4B1A68D1075CBF01221A60B2
:107CBC001A4B1A68D2075CBF01221A60184B1A685B
:107CCC00D0075CBF01221A60164B1A68D1075CBF43
:107CDC0001221A60144B1A68D2075CBF01221A6089
:107CEC00124B1A68D0075CBF01221A60104B1A683D
:107CFC00D1075CBF01221A600E4B1A68D2075CBF19
:107D0C0001221A60704700BFCCE70320C8E70320AC
:107D1C00C4E70320C0E70320BCE70320B8E7032037
:107D2C00B4E70320B0E70320ACE70320A8E7032067
:107D3C00A4E70320A0E70320184B1A68D1075CBF07
:107D4C0001221A60164B1A68D2075CBF01221A6016
:107D5C00144B1A68D0075CBF01221A60124B1A68C8
:107D6C00D1075CBF01221A60104B1A68D2075CBFA6
:107D7C0001221A600E4B1A68D0075CBF01221A60F0
:107D8C000C4B1A68D1075CBF01221A600A4B1A68A7
:107D9C00D2075CBF01221A60704700BFECE70320DA
:107DAC00E8E70320E4E70320E0E70320DCE7032017
:107DBC00D8E70320D4E70320D0E7032081F000416B
:107DCC0002E000BF83F0004330B54FEA41044FEAB4
:107DDC00430594EA050F08BF90EA020F1FBF54EA4F
:107DEC00000C55EA020C7FEA645C7FEA655C00F0EB
:107DFC00E2804FEA5454D4EB5555B8BF6D420CDDBC
:107E0C002C4480EA020281EA030382EA000083EA3E
:107E1C00010180EA020281EA0303362D88BF30BDDE
:107E2C0011F0004F4FEA01314FF4801C4CEA113134
:107E3C0002D0404261EB410113F0004F4FEA033393
:107E4C004CEA133302D0524263EB430394EA050F1E
:107E5C0000F0A780A4F10104D5F1200E0DDB02FA8D
:107E6C000EFC22FA05F2801841F1000103FA0EF221
:107E7C00801843FA05F359410EE0A5F120050EF1E7
:107E8C00200E012A03FA0EFC28BF4CF0020C43FA18
:107E9C0005F3C01851EBE37101F0004507D54FF025
:107EAC00000EDCF1000C7EEB00006EEB0101B1F575
:107EBC00801F1BD3B1F5001F0CD349085FEA3000BB
:107ECC004FEA3C0C04F101044FEA445212F5800FC6
:107EDC0080F09A80BCF1004F08BF5FEA500C50F163
:107EEC00000041EB045141EA050130BD5FEA4C0C46
:107EFC00404141EB010111F4801FA4F10104E9D1CF
:107F0C0091F0000F04BF01460020B1FA81F308BFC5
:107F1C002033A3F10B03B3F120020CDA0C3208DD91
:107F2C0002F1140CC2F10C0201FA0CF021FA02F16C
:107F3C000CE002F11402D8BFC2F1200C01FA02F1DC
:107F4C0020FA0CFCDCBF41EA0C019040E41AA2BF01
:107F5C0001EB0451294330BD6FEA04041F3C1CDAC9
:107F6C000C340EDC04F11404C4F1200220FA04F0E9
:107F7C0001FA02F340EA030021FA04F345EA030193
:107F8C0030BDC4F10C04C4F1200220FA02F001FA55
:107F9C0004F340EA0300294630BD21FA04F02946D7
:107FAC0030BD94F0000F83F4801306BF81F4801170
:107FBC000134013D4EE77FEA645C18BF7FEA655CE3
:107FCC0029D094EA050F08BF90EA020F05D054EAB5
:107FDC00000C04BF1946104630BD91EA030F1EBFBA
:107FEC000021002030BD5FEA545C05D140004941BE
:107FFC0028BF41F0004130BD14F580043CBF01F5B1
:10800C00801130BD01F0004545F0FE4141F4700196
:10801C004FF0000030BD7FEA645C1ABF1946104671
:10802C007FEA655C1CBF0B46024650EA013406BF72
:10803C0052EA033591EA030F41F4002130BD00BF31
:10804C0090F0000F04BF0021704730B54FF48064EE
:10805C0004F132044FF000054FF0000150E700BF6F
:10806C0090F0000F04BF0021704730B54FF48064CE
:10807C0004F1320410F0004548BF40424FF00001BB
:10808C003EE700BF42004FEAE2014FEA31014FEAFE
:10809C0002701FBF12F07F4393F07F4F81F060514D
:1080AC00704792F0000F14BF93F07F4F704730B5BC
:1080BC004FF4607401F0004521F0004120E700BF4F
:1080CC0050EA010208BF704730B54FF000050AE0D6
:1080DC0050EA010208BF704730B511F0004502D5D7
:1080EC00404261EB41014FF4806404F132045FEAD9
:1080FC00915C3FF4DCAE4FF003025FEADC0C18BF7E
:10810C0003325FEADC0C18BF033202EBDC02C2F173
:10811C00200300FA03FC20FA02F001FA03FE40EA05
:10812C000E0021FA02F11444C1E600BF70B54FF005
:10813C00FF0C4CF4E06C1CEA11541DBF1CEA1355E7
:10814C0094EA0C0F95EA0C0F00F0DEF82C4481EA4F
:10815C00030621EA4C5123EA4C5350EA013518BF6F
:10816C0052EA033541F4801143F4801338D0A0FB5C
:10817C0002CE4FF00005E1FB02E506F00042E0FB09
:10818C0003E54FF00006E1FB03569CF0000F18BF0F
:10819C004EF0010EA4F1FF04B6F5007F64F54074B7
:1081AC0004D25FEA4E0E6D4146EB060642EAC6214A
:1081BC0041EA55514FEAC52040EA5E504FEACE2EB7
:1081CC00B4F1FD0C88BFBCF5E06F1ED8BEF1004FBA
:1081DC0008BF5FEA500E50F1000041EB045170BD36
:1081EC0006F0004646EA010140EA020081EA03017A
:1081FC00B4EB5C04C2BFD4EB0C0541EA045170BD76
:10820C0041F480114FF0000E013C00F3AB8014F1EF
:10821C00360FDEBF002001F0004170BDC4F1000438
:10822C00203C35DA0C341BDC04F11404C4F12005B9
:10823C0000FA05F320FA04F001FA05F240EA020014
:10824C0001F0004221F0004110EBD37021FA04F64A
:10825C0042EB06015EEA430E08BF20EAD37070BD04
:10826C00C4F10C04C4F1200500FA04F320FA05F063
:10827C0001FA04F240EA020001F0004110EBD37065
:10828C0041F100015EEA430E08BF20EAD37070BDD5
:10829C00C4F1200500FA05F24EEA020E20FA04F3AE
:1082AC0001FA05F243EA020321FA04F001F000415D
:1082BC0021FA04F220EA020000EBD3705EEA430ECE
:1082CC0008BF20EAD37070BD94F0000F0FD101F0FD
:1082DC000046400041EB010111F4801F08BF013C36
:1082EC00F7D041EA060195F0000F18BF704703F074
:1082FC000046520043EB030313F4801F08BF013DFB
:10830C00F7D043EA0603704794EA0C0F0CEA1355B6
:10831C0018BF95EA0C0F0CD050EA410618BF52EA70
:10832C004306D1D181EA030101F000414FF0000076
:10833C0070BD50EA410606BF1046194652EA430684
:10834C0019D094EA0C0F02D150EA013613D195EAF8
:10835C000C0F05D152EA03361CBF104619460AD140
:10836C0081EA030101F0004141F0FE4141F470014A
:10837C004FF0000070BD41F0FE4141F4780170BD3A
:10838C0070B54FF0FF0C4CF4E06C1CEA11541DBF9F
:10839C001CEA135594EA0C0F95EA0C0F00F0A7F8A1
:1083AC00A4EB050481EA030E52EA03354FEA0131CE
:1083BC0000F088804FEA03334FF0805545EA1313E1
:1083CC0043EA12634FEA022245EA111545EA1065A9
:1083DC004FEA00260EF000419D4208BF964244F140
:1083EC00FD0404F5407402D25B084FEA3202B61A5F
:1083FC0065EB03055B084FEA32024FF480104FF433
:10840C00002CB6EB020E75EB030E22BFB61A7546A6
:10841C0040EA0C005B084FEA3202B6EB020E75EB39
:10842C00030E22BFB61A754640EA5C005B084FEAA1
:10843C003202B6EB020E75EB030E22BFB61A75466E
:10844C0040EA9C005B084FEA3202B6EB020E75EB79
:10845C00030E22BFB61A754640EADC0055EA060E3A
:10846C0018D04FEA051545EA16754FEA06164FEA7D
:10847C00C30343EA52734FEAC2025FEA1C1CC0D129
:10848C0011F4801F0BD141EA00014FF000004FF0B6
:10849C00004CB6E711F4801F04BF01430020B4F177
:1084AC00FD0C88BFBCF5E06F3FF6AFAEB5EB030C2F
:1084BC0004BFB6EB020C5FEA500C50F1000041EB2C
:1084CC00045170BD0EF0004E4EEA113114EB5C04F9
:1084DC00C2BFD4EB0C0541EA045170BD41F48011CC
:1084EC004FF0000E013C90E645EA060E8DE60CEAD4
:1084FC00135594EA0C0F08BF95EA0C0F3FF43BAFF1
:10850C0094EA0C0F0AD150EA01347FF434AF95EAA7
:10851C000C0F7FF425AF104619462CE795EA0C0F8B
:10852C0006D152EA03353FF4FDAE1046194622E758
:10853C0050EA410618BF52EA43067FF4C5AE50EA32
:10854C0041047FF40DAF52EA43057FF4EBAE12E722
:10855C004FEA4102B2F1E04324BFB3F5001CDCF159
:10856C00FE5C0DD901F0004C4FEAC0024CEA507091
:10857C00B2F1004F40EB830008BF20F001007047C0
:10858C0011F0804F21D113F13872BCBF01F00040C3
:10859C00704741F480114FEA5252C2F11802C2F1F5
:1085AC00200C10FA0CF320FA02F018BF40F0010076
:1085BC004FEAC1234FEAD32303FA0CFC40EA0C0028
:1085CC0023FA02F34FEA4303CCE77FEA625307D165
:1085DC0050EA01331EBF4FF0FE4040F4400070479C
:1085EC0001F0004040F0FE4040F40000704700BF36
:1085FC0010B5054C13462CB10A4601460220AFF3C8
:10860C00008010BD204610BD0000000010B5431EB8
:10861C000A44914204D011F8014B03F8014FF8E7DA
:10862C0010BD02440346934202D003F8011BFAE743
:10863C007047000038B5124B1C68A36B0546D3B9C4
:10864C001820FEF75FF843F20E33A06303804AF65E
:10865C00CD33438041F2342383804EF26D63C3806B
:10866C004DF6EC630381052343810B2383810122A7
:10867C000023C0E90423A36B00221D615A6138BD9D
:10868C00ECDC0320034611F8012B03F8012B002A24
:10869C00F9D17047034613F8012B002AFBD1181AA5
:1086AC00013870471D400D0059400D0085400D00EC
:1086BC0089400D00000000000000000000000000D8
:1086CC00E9400D000000000000000000E5400D0036
:1086DC008B410D0073410D006D410D00C9400D0023
:1086EC004D410D0047410D0041410D007EFF06003C
:1086FC000100000000EF64656661756C7420004D2C
:10870C005342004C5342003C5350495365747469B6
:10871C006E67732064656661756C743E003C5350E3
:10872C004953657474696E6773202573256C7520C5
:10873C002573204D4F444525643E00696E6974696C
:10874C00616C697A6174696F6E206661696C6564CD
:10875C00210053446C6F6720696E69740053442088
:10876C00696E6974004446506C6179657220696E5B
:10877C006974206661696C6564004446506C61796B
:10878C00657220696E697400496E697469616C69FF
:10879C007A6174696F6E2066696E697368656400CE
:1087AC00706978656C20776F726B696E6700636FA8
:1087BC006E6E656374696E6720746F204D515454EE
:1087CC00202E2E2E007265747279696E67204D51C1
:1087DC00545420636F6E6E656374696F6E20696E9E
:1087EC002035207365636F6E64732E2E2E004D51F1
:1087FC00545420636F6E6E65637465643F00434F21
:10880C003A2025302E32662070706D200A004461AB
:10881C0074614C6F672E63737600416972205175D9
:10882C00616C697479207761726E696E672E204174
:10883C005120726561643A202569200A00416972F1
:10884C00205175616C69747920526561643A2025F8
:10885C0069200A0041512077726974652065727233
:10886C006F72004D512D39207761726E696E672ED3
:10887C00204D512D3920726561643A202569200AFA
:10888C00004D512D39207772697465206572726FB5
:10889C00720044414E47455220494D4D494E414E80
:1088AC00542E204D512D393A2025692041513A2022
:1088BC0025692054656D703A202569200A004869A5
:1088CC0067682044616E6765722E204D512D393AD0
:1088DC002025692041513A2025692054656D70206E
:1088EC002569200A00486967682064616E676572B3
:1088FC00207772697465206572726F722E006D61DB
:10890C0075726963696F76393900696F2E616461BC
:10891C0066727569742E636F6D0074686973697320
:10892C006172616E646F6D737472696E67666F727B
:10893C00616B6579006D6175726963696F76393940
:10894C002F66656564732F20006D617572696369AC
:10895C006F7639392F66656564732F536D61727448
:10896C005F48656C6D65745F424D45006D61757255
:10897C006963696F7639392F66656564732F536D3A
:10898C006172745F48656C6D65745F4D512D390073
:10899C006D6175726963696F7639392F66656564C7
:1089AC00732F536D6172745F48656C6D65745F41B4
:1089BC0069725175616C69747900000000C00140E6
:1089CC0000100240002002402C01000018000000A2
:1089DC00F40100002C010000500000000000000019
:1089EC0000000000E7400D0079440D00C54F0D005C
:1089FC0071500D00A3500D00D94F0D0019500D00F2
:108A0C00000000000000000000000000000000005A
:108A1C00A5400D00A5400D00A5400D00A5400D0082
:108A2C00A5400D00205B30780030005D2C20000A42
:108A3C00090044726F707065642061207061636B13
:108A4C00657400556E6B6E6F776E206572726F7207
:108A5C00004D51545400252525642E25646600468E
:108A6C0061696C656420746F2073756273637269DD
:108A7C00626500436F6E6E656374696F6E2066612C
:108A8C00696C656400546865205365727665722064
:108A9C00646F6573206E6F7420737570706F727471
:108AAC0020746865206C6576656C206F6620746830
:108ABC0065204D5154542070726F746F636F6C202D
:108ACC007265717565737465640054686520436CD8
:108ADC0069656E74206964656E7469666965722077
:108AEC00697320636F7272656374205554462D3818
:108AFC0020627574206E6F7420616C6C6F77656486
:108B0C002062792074686520536572766572005412
:108B1C006865204D515454207365727669636520E5
:108B2C00697320756E617661696C61626C65005465
:108B3C006865206461746120696E207468652075B5
:108B4C00736572206E616D65206F72207061737336
:108B5C00776F7264206973206D616C666F726D65DE
:108B6C0064004E6F7420617574686F72697A656405
:108B7C0020746F20636F6E6E656374004578636557
:108B8C0065646564207265636F6E6E6563742072D4
:108B9C00617465206C696D69742E20506C6561730D
:108BAC00652074727920616761696E206C617465EF
:108BBC00722E00596F752068617665206265656E4E
:108BCC002062616E6E65642066726F6D20636F6EDD
:108BDC006E656374696E672E20506C6561736520D9
:108BEC00636F6E7461637420746865204D515454C6
:108BFC00207365727665722061646D696E69737439
:108C0C007261746F7220666F72206D6F7265206472
:108C1C00657461696C732E00000000000000000098
:108C2C00AF670D00A5670D009B670D0091670D00E8
:108C3C0085670D0079670D006D670D0065670D0088
:108C4C005B670D0051670D0081780D00000810184E
:108C5C0020283038626175640053657269616C005C
:108C6C0053657269616C3100747970650070617262
:108C7C00616D00636D6400696400686E64007374F8
:108C8C00726D0066696C74006C766C00616464488B
:108C9C00616E646C65720072656D6F766548616EAD
:108CAC00646C657200656E756D48616E646C65729E
:108CBC0073004A534F4E53747265616D4C6F674825
:108CCC00616E646C657200617070002530313075B6
:108CDC0020005D200028293A2000205B00636F648F
:108CEC0065203D200025690064657461696C732002
:108CFC003D20000D0A006C6E00666E00636F6465AB
:108D0C000064657461696C006E6F6E6500747261ED
:108D1C00636500696E666F007761726E0070616EDC
:108D2C00696300616C6C005A00252B3033643A2562
:108D3C003032750025592D256D2D25645425483A62
:108D4C00254D3A2553257A0061736374696D65006E
:108D5C000000000000000000656C0D00556C0D005B
:108D6C00576C0D000000000000000000696D0D0044
:108D7C00B96D0D00C76D0D00C5690D00A56D0D0019
:108D8C006B6D0D00816D0D00B36D0D00976D0D00B9
:108D9C00656D0D000000000000000000756E0D00F8
:108DAC00C56E0D00D36E0D00C5690D00896E0D00EA
:108DBC00AB6E0D00976E0D00BF6E0D00776E0D0043
:108DCC007B6E0D000000000000000000856F0D00A0
:108DDC00CF6F0D00A76F0D00876F0D00AF6F0D00EB
:108DEC00B76F0D00BF6F0D00C76F0D0000000000C6
:108DFC0000000000F1700D00E7700D00DD700D003B
:108E0C00D3700D00C7700D00BB700D00AF700D005E
:108E1C00A7700D009D700D0093700D0081780D00F2
:108E2C00000000000000000095720D009B720D0008
:108E3C0083770D00A9720D0097720D0000000000E1
:108E4C0000000000A9410D00DD410D000D720D0068
:108E5C0027720D0029760D007B730D004D730D00EC
:108E6C0051720D0005750D0001740D00AF730D00EE
:108E7C00F9750D0053720D008B720D0039720D00D7
:108E8C00AD720D002D730D00776972696E670072FB
:108E9C00656376206572726F72203D202564000038
:108EAC000000000000000000F9770D00EF770D00C6
:108EBC00E5770D009B770D00D9770D00CD770D0070
:108ECC00C1770D00B9770D00AF770D00A5770D00B8
:108EDC0081780D00000000000000000019780D00E2
:108EEC0023780D002D780D0037780D0041780D009A
:108EFC004D780D0059780D0065780D006D780D00DA
:108F0C0077780D0081780D00000000000000000053
:108F1C000000000000000000000000000000000045
:108F2C000000000000000000000000000000000035
:108F3C000000000000000000000000000000000025
:108F4C000000000000000000000000000000000015
:108F5C000000000000000000000000000000000005
:108F6C0000000000000000000000000043000000B2
:108F7C0089440D008B4B0D00A94F0D00BD4F0D000A
:108F8C00C14F0D00C1500D002D510D0031510D0080
:108F9C0035510D0053510D0057510D005B510D0013
:108FAC005F510D00F9550D001D560D0021560D0099
:108FBC0009590D000D590D0011590D004B5E0D0096
:108FCC004F5E0D00535E0D00F95E0D00315F0D001C
:108FDC00D3610D00B9670D0059690D009D690D0035
:108FEC00E16A0D00F16A0D00296B0D00BD710D00D9
:108FFC0005780D004D790D00397B0D00BD7B0D0002
:10900C00817C0D00457D0D0000000000000000007B
:04901C000000000050
:04902000000000004C
:1090240002000000548D0D0000000000188F0D0098
:10903400388F0D00588F0D00000000000000000064
:109044000000000000000000788F0D000000000008
:10905400000000000000000000000000000000000C
:1090640000000000000000000000000000000000FC
:1090740000000000000000000000000000000000EC
:0C90840000000000000000008CDC032055
:10909000FFFFFFFF00000102030405060708090A9D
:1090A0000B0C0D0E0F101112131415161718191A98
:0890B0001B1C1D1E1F202800DF
:0490B80078563412A0
:04000003D000401CCD
:00000001FF
