:02000002D0002C
:1040000000400D00E8AC0D00000006000C000501AA
:084010000401E80500000000B6
:0440180034A00D00C3
:10401C0009480A49884208B505D0094A824202D0AB
:10402C00121A05F0EAFB0748074A0021121A05F09C
:10403C00EFFB014808BD00BF1CDC032004AC0D00E5
:10404C00D8DC0320D8DC0320F0E7032070B503F0A4
:10405C00BDFF074C074BE41AA40800251E46A542D9
:10406C0004D056F8253098470135F8E770BD00BFED
:10407C0000AC0D0068AB0D0000F002B908B500F003
:10408C002DFCBDE8084003F063BF03F0C1BB03F097
:10409C00C7BB03F0C5BB000008B5034A00210C20C8
:1040AC0003F0FAFAFEE700BFC5730D000078B0FA12
:1040BC0080F040097047012303707047037C03F0C4
:1040CC000803024603F0FF002BB1D36A506A181A9A
:1040DC0048BF6FF000407047024A137883F0010329
:1040EC00137070474CE30320704770477FB502464E
:1040FC0008461379956833B13DB90C4904B0BDE855
:10410C00704003F0DDBD0A4B00E00A4B167B0A4CF5
:10411C000A49527B0292012E08BF2146019100955B
:10412C00074A002103F009FE04B070BD97A00D00F2
:10413C0035A40D0086A00D008FA00D0093A00D00DE
:10414C00ADA00D00103002F0F7BA103002F068BAD2
:10415C00103002F07DB907B501220DF107011030C6
:10416C0002F0C3F801280CBF9DF807004FF0FF3098
:10417C0003B05DF804FB10B53421044604F0D8FEFE
:10418C00204610BD08B5002003F032FB28B103F027
:10419C001FFB80F00100C0B208BD012008BD00006B
:1041AC0038B584690A4B036005467CB16368013BF2
:1041BC0063605BB9236820469B689847A368013B02
:1041CC00A3601BB923682046DB689847284638BD96
:1041DC0048A80D0007B502AB012203F8011D1030F1
:1041EC00194602F0A9FA03B05DF804FB10B50446B9
:1041FC00FFF7D6FF20461C2104F09AFE204610BD86
:10420C0030B585B01C4B009313798DF8043093684E
:10421C000293137B8DF80C3000F58C65537B8DF875
:10422C000D3004460A466B4600F26C41284602F0FB
:10423C00CBFDF0B1256004F23C45284602F026FA8D
:10424C000121204602F069FC014668B1214628464E
:10425C0002F033F868B194F83C3413F0700316BFD5
:10426C00064B18461D6005E0204602F056FC00285F
:10427C00ECD1002005B030BD50A00D009CE3032014
:10428C0070B586B003F0B8FF4FF4165103F0A8FFD9
:10429C00642003F01FFE04F061F84FF4165104F093
:1042AC0057F8642003F016FE04F00EFE04F0BAF882
:1042BC002A4B2B482B4E00241C6000F0C7FE2848CC
:1042CC0001F00DF9264800F0F7FE7621264800F0A3
:1042DC0081FE264802F0A1FF0321308804F086FD00
:1042EC00234B02930125234B23488DF80C4002AA43
:1042FC000E2104938DF814508DF81540FFF780FFB4
:10430C0028B903F079FF1D4903F0EDFC24E003F01C
:10431C0073FF1B4903F0E7FC04F020F82A46014622
:10432C00184801F02BFC28B903F066FF164903F07E
:10433C00DAFCFEE703F060FF144903F0D4FC03F051
:10434C005BFF134903F0CFFC308800944FF0FF3330
:10435C002A46104903F078FF06B070BDECDC032050
:10436C0050E303201CDC0320F4DC0320C8E2032010
:10437C0050A00D0080F0FA020CDE0320CBA00D0043
:10438C00E5A00D00E8E20320F0A00D0005A10D0052
:10439C0013A10D00E5400D0007B5112004F063FDDD
:1043AC00FF2300934FF480520A234FF4487103F01B
:1043BC0085FD024B186003B05DF804FBE4E20320BA
:1043CC0008B5114B11481B78BBB101F088F84FF4BC
:1043DC00004200210D4801F011F84FF40042012178
:1043EC000A4801F00BF80A4B0848197801F051F80B
:1043FC000648BDE8084000F05FBE01F070F80348C5
:10440C00BDE8084000F058BE4CE3032050E3032005
:10441C00E4E2032008B5104B10481B78ABB101F057
:10442C005EF80F4A0D48002100F0E8FF0C4A0B48DB
:10443C00012100F0E3FF0B4B0848197801F029F833
:10444C000648BDE8084000F037BE01F048F80348C4
:10445C00BDE8084000F030BE4CE3032050E30320DD
:10446C0000FFFF00E4E2032008B5104B10481B7856
:10447C00ABB101F034F80F4A0D48002100F0BEFF3B
:10448C000C4A0B48012100F0B9FF0B4B0848197876
:10449C0000F0FFFF0648BDE8084000F00DBE01F03B
:1044AC001EF80348BDE8084000F006BE4CE30320AC
:1044BC0050E3032000A5FF00E4E2032008B5114BF4
:1044CC0011481B78BBB101F00AF84FF47F020021B0
:1044DC000D4800F093FF4FF47F0201210A4800F0D1
:1044EC008DFF0A4B0848197800F0D3FF0648BDE849
:1044FC00084000F0E1BD00F0F2FF0348BDE80840C1
:10450C0000F0DABD4CE3032050E30320E4E2032087
:10451C0038B5174800F0F6FF40BB03F06DFE1549A7
:10452C0003F0CEFB124801F09FF90446B8B103F03A
:10453C0063FE214605460E4801F0FCF8014628466C
:10454C0003F0D1FB03F058FE0B4903F0CCFB0848F9
:10455C0001F0FEF841F2883003F0BCFCE2E703F016
:10456C004BFE0649BDE8384003F0BDBB38BD00BF6B
:10457C0038DD03202BA10D0042A10D006BA10D0015
:10458C0000B58DB02449684603F0F7FA224904A817
:10459C0003F0F3FAB9EE080A03F020FC03F018F963
:1045AC0010B1002003F01CF9FFF7ECFD10B903F07B
:1045BC0007F9F9E7FFF7E6FD03F06FFC014608A8E1
:1045CC0003F028FC08A9684603F007FB08A803F0D1
:1045DC008DFA13230B22694608A803F01FFB08A9C8
:1045EC0004A803F0FAFA08A803F080FA684600233E
:1045FC0019220A4903F0F9FA00230922084904A8F0
:10460C0003F0F3FA04A803F071FA684603F06EFAAB
:10461C000DB05DF804FB00BF35A40D0064E303206E
:10462C008CE303202DE9F04107460C4615462AB9C8
:10463C000368C9B29B68BDE8F0411847002907DA46
:10464C000A2A05D12D2103F03FFB6142064601E009
:10465C0021460026EAB2384603F04FFB3044BDE851
:10466C00F08100002DE9F04792B003F0C5FD834EB8
:10467C00834D31680A220446FFF7D4FF2046814C53
:10468C0003F025FB03F0B8FD0A222968FFF7CAFFE7
:10469C0003F0B2FD0A222168FFF7C4FF2B683268D1
:1046AC009A42B146784B04D120681968884200F0D0
:1046BC00E2801B6823604FF47A730793734B2A6074
:1046CC0000270593724A73498DF8247044F2022333
:1046DC0009A809AD8DF82570069701F0DEFF0FCD06
:1046EC006D4CDFF8A48104F110060FC60FCD0FC678
:1046FC002B683360069B6360079BA360089BE36099
:10470C00D9F800305D4D022BD8F800301EDD032B9C
:10471C006DDCFFF77FFE237C73B103F06DFD2B681E
:10472C005E4A394603F009FB5D4B00932B685D4AEA
:10473C003946204603F001FB237C002B40F0988087
:10474C0003F05AFD584903F0CEFA8FE0022B23DD1B
:10475C00FFF78AFE237CB3B103F04EFDD8F800308E
:10476C00524A394603F0E9FAD8F80030504A394633
:10477C00204603F0E2FA4A49204603F0A1FAA6F1DA
:10478C00200001F083FF237C002B71D103F034FD5A
:10479C00484903F0A8FA69E0FFF712FE237CEBB15D
:1047AC0003F02AFD444B8146186804F081FECDE9E4
:1047BC0002012B68414A00933946D8F8003048462C
:1047CC0003F0BBFA3E49204603F08DFA34492046EB
:1047DC0003F076FAA6F1200001F058FF237C002BA1
:1047EC0046D103F009FD374903F07DFA3EE0DFF8CE
:1047FC00C890DFED357A99ED007AB4EEE77AF1EEF8
:10480C0010FA33DBFFF75AFE237C43B303F0F4FCBE
:10481C008246D9F8000004F04BFECDE902012B686A
:10482C002A4A00933946D8F80030504603F085FAEE
:10483C00D9F8000004F03CFECDE902012B6800938E
:10484C00234AD8F800303946204603F076FA14494A
:10485C00204603F035FAA6F1200001F017FF237C67
:10486C0033B903F0C9FC1B4903F03DFA237C13B1A7
:10487C00194801F00BFF12B0BDE8F087F0DC032003
:10488C0048E30320E8DC032010E303205CA00D00C8
:10489C007BA10D0048E2032014E3032087A10D0047
:1048AC0064E30320AAA10D00CFA10D00DEA10D0031
:1048BC00ECA10D00FCA10D00C4E203200DA20D0023
:1048CC003AA20D005EA20D000000C8427CA20D00B1
:1048DC00A8A20D00CFA20D0024E30320094A08B5BD
:1048EC0003231360084A1360084B094A1A60FFF748
:1048FC000FFEFFF745FEFFF74FFDBDE80840FFF741
:10490C00B1BE00BFF0DC032010E30320C4E203209F
:10491C000000DC4210B5D421044604F009FB20460B
:10492C0010BD000073B502F09FFC494B494E4FF48B
:10493C00FA729A60484A1168C3F8161051681289C5
:10494C00C3F81A10DA830221002283F8211083F8AD
:10495C00202083F8262083F82720404B642183F8FD
:10496C0060143F49C3F87014012183F87414316842
:10497C00DA7111F0010583F83C2483F83D2483F8A7
:10498C006A24C3F8782483F87C2483F87D241C469D
:10499C000AD13046FFF78AFB30B12946314802F084
:1049AC00BBFF3046FFF787FB2F482E4B2F4EC4F82A
:1049BC006C3400254FF47A732D4A2E4905744574D6
:1049CC00456083602C4B036004F0A4FA30462B4CFA
:1049DC0004F0D6F8264A2A49304604F09BFA294BB3
:1049EC00009340F25B72284B2849204600F01CFED5
:1049FC00274B1F4A274923602046C4F8D06004F097
:104A0C0089FA2B462146244A244800F086FF2B467F
:104A1C002146234A234800F080FF2B462146224A98
:104A2C00224800F07AFF022319461222204800F097
:104A3C0032FB0F4A1F491E4804F06CFA10211E4825
:104A4C0002F0E6FB1D4802B0BDE8704000F038B83B
:104A5C00E8E20320DCDC03207CA00D000CDE03204C
:104A6C0050A00D00E0DC032014E303209CE20320A3
:104A7C00D8DC0320F5400D005CA00D0038DD0320D0
:104A8C00AD410D0004A30D00E8A20D00F4A20D0031
:104A9C00C0A30D00F7400D0025A30D0080E30320FB
:104AAC0048A30D0090E203206CA30D00B8E2032094
:104ABC0050E3032003500D00C8E20320F4DC032074
:104ACC00FF22027442748274C274704738B5094D67
:104ADC00296811F001040AD12846FFF7E7FA30B132
:104AEC002146054802F018FF2846FFF7E4FA024871
:104AFC0038BD00BFDCDC0320E0DC03202DE9F041F5
:104B0C0090F91330013305460F4606D1FFF7DEFF4F
:104B1C003946BDE8F04102F0A3BF072600244FF050
:104B2C00010895F91300002180B204F070F995F991
:104B3C00110008FA06F1394080B204F068F995F9D1
:104B4C001300012180B204F062F995F9120064009F
:104B5C0080B2E4B204F074F908B144F0010416F127
:104B6C00FF36DED22046BDE8F08108B5FFF7AEFF78
:104B7C00BDE8084002F0EBBE10B50446FFF7A6FFF7
:104B8C002146BDE8104002F0FBBE000030B590F9A4
:104B9C001030013385B004460D461DD101790068F3
:104BAC0003F077FC2068036829469B6898472068C7
:104BBC0003F077FC02222179206803F067FC20685F
:104BCC0003685B6998470546206803685B699847EA
:104BDC0040EA052085B235E090F9133001330ED14F
:104BEC001A4B1B4A009302920023012268468DF84F
:104BFC0004308DF80C208DF80D30FFF7BDFF94F9C3
:104C0C001000002180B204F002F945F0800120462A
:104C1C00FFF774FF00212046FFF770FF00210546C7
:104C2C002046FFF76BFF40EA052085B294F910008F
:104C3C00012180B204F0EBF894F91330013301D167
:104C4C00FFF793FF284605B030BD00BF50A00D0004
:104C5C0020A1070008B5FFF799FF40BA80B208BD44
:104C6C0030B590F91030013385B004460D4616D19D
:104C7C000179006803F00DFC2068036829469B68E5
:104C8C009847206803F00DFC01222179206803F07D
:104C9C00FDFB206803685B699847C5B22EE090F96C
:104CAC00133001330ED1174B174A00930292002395
:104CBC00012268468DF804308DF80C208DF80D30EB
:104CCC00FFF75AFF94F91000002180B204F09FF80E
:104CDC0045F080012046FFF711FF00212046FFF729
:104CEC000DFF054694F91000012180B204F08FF8F5
:104CFC0094F91330013301D1FFF737FF284605B083
:104D0C0030BD00BF50A00D0020A1070008B5F32155
:104D1C00FFF7A6FF00F0010008BD38B58821044656
:104D2C00FFF798FF8A21A0822046FFF793FF8C2182
:104D3C00E0822046FFF78EFF8E2120832046FFF76E
:104D4C0089FF902160832046FFF784FF9221A08386
:104D5C002046FFF77FFF9421E0832046FFF77AFF80
:104D6C00962120842046FFF775FF98216084204609
:104D7C00FFF770FF9A21A0842046FFF76BFF9C2160
:104D8C00E0842046FFF766FF9E2120852046FFF732
:104D9C0061FFA12160852046FFF762FFE12184F8C5
:104DAC002C002046FFF756FFE321E0852046FFF755
:104DBC0057FFE42184F830002046FFF751FFE5212E
:104DCC0005462046FFF74CFF00F00F0040EA0510A7
:104DDC006086E6212046FFF743FFE5210546204685
:104DEC00FFF73EFF001140EA0510A086E7212046A0
:104DFC00FFF736FF84F8360038BD00007FB590F918
:104E0C001030013304460E46154611D10179006865
:104E1C0003F03FFB2068036831469B689847206885
:104E2C00036829469B689847206803F03AFB2DE0FD
:104E3C0090F9133001330ED1154B164A00930292A0
:104E4C000023012268468DF804308DF80C208DF873
:104E5C000D30FFF791FE94F91000002180B203F0A1
:104E6C00D6FF06F07F012046FFF748FE2946204674
:104E7C00FFF744FE94F91000012180B203F0C7FF44
:104E8C0094F91330013301D1FFF76FFE04B070BDFC
:104E9C0050A00D0020A10700F8B590F83C509DF8EB
:104EAC0018609DF81CE09DF8207061F3871562F383
:104EBC00020563F3C50590F8403080F83C5066F36A
:104ECC00471380F8403090F838306EF3C503044631
:104EDC0067F3020380F8383006F00702F221FFF77F
:104EEC008DFF94F83820C2F3C20302F007019B0037
:104EFC0043EA411343EAD2122046F521FFF77EFF25
:104F0C0094F83C20C2F3C20302F007019B0043EA71
:104F1C00411343EA92122046F421BDE8F840FFF712
:104F2C006DBF30B5044690F91000421C85B003D11A
:104F3C00206803F077FA22E0012180B203F067FFCA
:104F4C0094F91000012180B203F050FF94F9130082
:104F5C00431C04D1FFF7BAFD02F0E8FC0FE001217D
:104F6C0080B203F043FF94F91100012180B203F0E9
:104F7C003DFF94F91200002180B203F037FFD021DD
:104F8C002046FFF76DFE6028A06020D12046B62297
:104F9C00E021FFF733FF4FF4967002F09BFF2046A1
:104FAC00FFF7B4FE054608B16420F6E72046FFF78C
:104FBC00B4FE052300931A46032120460295019561
:104FCC00FFF76AFF642002F085FF012000E000205B
:104FDC0005B030BD10B50171044603F075FF2060BB
:104FEC002046BDE81040FFF79CBF02F03DB902F02F
:104FFC00EBB902F0E1B910B50446C06808B102F093
:10500C000FFC23781BB10021E07903F0EFFE204662
:10501C0010BD38B50446C0680D4608B102F000FC5E
:10502C00A379062B0CBF0420032010FB05F080B2E3
:10503C00A08002F0EDFBE06028B1A288002104F012
:10504C00E7FB658038BDA080608038BD10B5044694
:10505C000121C07903F0CAFE0021E07903F0D7FEEC
:10506C000123237010BD38B5037805460C461BB1DF
:10507C000021C07903F0BAFE2B78EC7153B1A4B2C5
:10508C002046012103F0B2FE20460021BDE8384045
:10509C0003F0BDBE38BD70B50025044616468371BD
:1050AC0005700572C5600561FFF7B3FF20463146F8
:1050BC00FFF7D9FF204670BDC368002B00F08B8131
:1050CC002DE9F04F8379023BDBB2042B9CBFC44A21
:1050DC0052F8234087B0054688BF3224FFF787FF7C
:1050EC002B69C01AA042F9D3BE4AAB8807CA06ACDA
:1050FC0004E90700039C1B01D4F800250433019339
:10510C0022B9D4F86035002BC0F25581049CD4F838
:10511C00003523B9D4F86035002BC0F23C81059CD6
:10512C00D4F800351BB9D4F86035002B6EDBAE4BD0
:10513C00EA791E68AD4CAE49E0681201B31840F034
:10514C0080705B78B75CE0600A6803F01F0343EA89
:10515C00471301273A430A600C46A888D5F80C90EF
:10516C00D4F804A09F408846002844D0CC460022A6
:10517C004FF0A0411CF801EB0820802663689B1AB5
:10518C00462BFBD9D8F80420D1F808351EEA060FB7
:10519C0043EA0703C1F808352FD063689B1A282B04
:1051AC00FBD9D1F80C35013843EA07034FEA560610
:1051BC00C1F80C35E2D1C9EB0C03A8889BB298421C
:1051CC00D8D84FF4307303FB00F063689B1A462B5E
:1051DC00FBD9D8F80430CAEB030A8245C0F0D5805D
:1051EC004FF49670FFF705FFA888D5F80C90D4F80B
:1051FC0004A00028BAD10246E7E763689B1A112B7A
:10520C00CFD863689B1A112BF7D9CAE7D4F8643549
:10521C00002B8CDAD4F86835002B88DAD4F86C358E
:10522C00002B84DA019802F0F3FA00283FF47FAFE8
:10523C00AB88002B00F0D08000273B466D4E6E49AA
:10524C0000E01346EA68D25D03F1010E12F0800F04
:10525C0014BFB04688461FFA8EFE12F0400F14BFE2
:10526C00B146894612F0200F20F8138018BFB246C1
:10527C0020F81E9008BF8A4603F1020812F0100FA6
:10528C0003F1030E14BFB4468C461FFA88F812F0D3
:10529C00080F1FFA8EFE03F104091FFA89F914BFD7
:1052AC00B3468B4612F0040F20F818A020F81EC04D
:1052BC0014BFB2468A4603F1050812F0020F03F13F
:1052CC00060C03F1070E20F819B01FFA8EFE14BF5E
:1052DC00B14689461FFA88F812F0010F1FFA8CFCB0
:1052EC0014BF32460A4620F818A020F81C9020F86B
:1052FC001E200137B5F804E0BFB203F10802BE4529
:10530C0092B29ED803F109020A3392B29BB25200B8
:10531C005B0001994FF4004686524908C6520022A0
:10532C001423C4F80425304EC4F80C25C4F80835F1
:10533C00C4F81425C4F81025C4F82005C4F82415A5
:10534C00C4F82825C4F82C25EB7931681B01CE183C
:10535C00C95C737803F01F0343EA41130121C4F8BD
:10536C006035C4F80015C4F81021A160D4F81031D0
:10537C00002BFBD000234FF0FF32C4F81031C4F8DF
:10538C000035C4F8602502F04BFAFFF730FE2861B7
:10539C0007B0BDE8F08FD4F86435002BBFF6BFAE74
:1053AC00D4F86835002BBFF6BAAED4F86C35002BA8
:1053BC00BFF6B5AE36E7D4F86435002BBFF6A6AE13
:1053CC00D4F86835002BBFF6A1AED4F86C35002BA1
:1053DC00BFF69CAE26E770470423022299E700BF74
:1053EC00A4A30D0098A30D0098E30320F0ED00E0BA
:1053FC00001000E00D80FFFF0680FFFF43888B420A
:10540C00F0B545D9057AC2F30743C2F30724D6B2E7
:10541C0045B16B436C436E43C3F30723C4F30724BA
:10542C00C6F3072690F806C0C768BCF1060F0CBF80
:10543C00042503256943BCF1080F07EB010524D8AB
:10544C004FF0010E0EFA0CFE1EF4D27F0CD11EF0A2
:10545C00400F0DD11EF0100F17D0FF2B08BFFE23ED
:10546C007B546E70AC70F0BD7C546B70AE70F0BD44
:10547C007B546C70AE70037A120E0BB9D2B202E090
:10548C005A43C2F30722EA70F0BD7B546C70AE70C5
:10549C00F0BD4A1C037AD2B29A4270B51ED0013BC1
:1054AC0013F0FF03C4680CD0FF291FBF110201F1D8
:1054BC00FF3191FBF3F39BB204BF4FF6FF7191FBED
:1054CC00F3F32546291B868889B28E4205D92978A3
:1054DC005943091205F8011BF4E7027270BD82886A
:1054EC00C068002104F094B908B501F0BDFE01F0CC
:1054FC00BBFE014B186008BD98E3032001F0B4BE5D
:10550C0001F0B2BE08B5D0F8D00003681B6B984709
:10551C00003018BF012008BDF8B506460F461446EA
:10552C00C4B1D6F8D00003681B6B984708B90020AB
:10553C00F8BDD6F8D000FA2C03682546A8BFFA258A
:10554C00DB682A463946984780B2241A8542A4B2B1
:10555C00E6D0ECE70120F8BD2DE9F8430646884675
:10556C0091461F461D460024D6F8D00003681B6BDD
:10557C009847D0B1002D18DBD6F8D00003681B6912
:10558C00984760B1D6F8D00003685B69984708F873
:10559C0004000134A4B24C4507D03D46ECE70A3D6B
:1055AC000A202DB202F096FCDEE72046BDE8F88317
:1055BC0070B5044600F1220596220021284604F01D
:1055CC0027F96168284604F05DF9D4F8D0002289E7
:1055DC00036829465E6A0023B047003018BF0120DB
:1055EC0070BD10B50446D0F8D00003681B6B98470B
:1055FC0020B1D4F8D0000368DB6A9847012010BDB5
:10560C0001F032BE70B5044608460E4604F042F96D
:10561C0003122370607085B202342A46314620464C
:10562C0004F055F9601970BD30B50361039B0D4D45
:10563C00028143610C4A056000234160C260C0F8DE
:10564C00BC30C0F8C030C0F8C430C0F8C830C0F8A6
:10565C00CC308361C36180F8203080F82130A0F811
:10566C00B83030BDE4A30D0035A40D002DE9F74F83
:10567C000FFA83FA036801929D690122534606468C
:10568C000C46A847C0B2012801D0002034E0651CAC
:10569C0004F1050B80464FF0000933689B69012229
:1056AC001F46294653463046B847C0B20128ECD1B4
:1056BC0015F8013B03F07F025D4502FB08994FEAA8
:1056CC00C818E2D01B06E8D4019B2C1B1B1B013B0A
:1056DC009945336806D9019A9F69013A121B5346C2
:1056EC0092B203E09F691FFA89F25346294630466D
:1056FC00B847C0B2204480B203B0BDE8F08F0000C0
:10570C00F8B505460C4616461F463B4696222146E2
:10571C002846FFF7ABFF48B12378B6EB131F05D033
:10572C0002F06AFD024902F0DEFAEEE7F8BD00BFB6
:10573C0036A40D000231C9B209299ABF024B53F8A5
:10574C0021000248704700BF00A40D0047A40D00C3
:10575C0010B5E02380F82230002380F82330036852
:10576C0004465B69022200F1220198472368204617
:10577C001B69BDE81040184738B50446084610238D
:10578C0000F8023B0D462949FFF73CFF0423037048
:10579C0002234370A369ABB11B789BB10623437002
:1057AC0094F82030012B01D10E2302E0022B01D101
:1057BC001E23437094F82130012B02BF437843F031
:1057CC002003437023691B781BB1437863F07F037C
:1057DC00437063691B781BB1437843F040034370FB
:1057EC00012383702C23C370E1680B781BB1043048
:1057FC00FFF708FF02E0037143710630A16931B174
:10580C000B7823B1FFF7FEFEE169FFF7FBFE216980
:10581C000B780BB1FFF7F6FE61690B780BB1FFF754
:10582C00F1FE401BC0B2831E6B7038BD55A40D0039
:10583C0038B51D4682230B700C46B0F8B810090A17
:10584C00A170B0F8B830E370B0F8B8100131A0F81E
:10585C00B8101146201DFFF7D5FE00F8015B001BA8
:10586C00C0B2831E637038BD2DE9F0410368DB685C
:10587C000446984718B94FF0FF30BDE8F08104F1A9
:10588C00220529462046FFF777FF236882B25B6921
:10589C002946204698470028EDD041F27073962295
:1058AC0029462046FFF7E2FEC0B20428E3D1638C00
:1058BC00B3F5087FDFD194F8250010B140B2BDE8F4
:1058CC00F08104F1B80704F1CC0857F8043FFBB1A0
:1058DC0003263A682946137912682046FFF7A8FF79
:1058EC00236882B25B692946204698470028C2D0BB
:1058FC004FF4FA73092229462046FFF701FF38B905
:10590C00013E16F0FF06E4D16FF00100BDE8F08116
:10591C004745DAD10020BDE8F08110B580E80600DB
:10592C00037210BD01F0A0BC8B1D002011F8012FDB
:10593C0010448B4280B2F9D1404280B27047417C16
:10594C00837CC27B80F8232003EB01239BB23A3A81
:10595C008384152A33D8DFE802F0171E2E0B2E1085
:10596C00252C2E2E2E2E2E2E2E2E322E2E2E2E2E52
:10597C00002380F82030052318E099072AD500234E
:10598C0080F82030042311E09A0723D5002380F8F7
:10599C00203002230AE09B071CD5002380F820301E
:1059AC00032303E0002380F82030062380F8223004
:1059BC0001E000230CE0012380F82630704700231F
:1059CC00012280F8203080F82220838480F8262061
:1059DC0080F82730704710B5044600F10C01FFF732
:1059EC00A3FFE27C237D03EB02239BB21B1A5842DC
:1059FC00584110BD70B50446206803681B69984770
:105A0C00054600285AD0206894F8205003685B693A
:105A1C004DB99847C0B27E282073EDD184F826503A
:105A2C0094F8203046E098472544287394F82030A9
:105A3C00022B11D0092B13D0012B3BD1627BFF2AF7
:105A4C0038D0002284F8202084F82230A28484F8F4
:105A5C00263084F8272048E0A27B062A2AD002E0D0
:105A6C00637DEF2B09D00023012284F8203084F8C9
:105A7C002220A38484F826200EE02046FFF7ABFFFB
:105A8C0068B1002384F820302046FFF758FF94F8C3
:105A9C00266056B3A37E43BB84F8273025E0012350
:105AAC0084F8200084F82230A08484F8263084F80E
:105ABC0027001AE0013384F820309DE794F8273052
:105ACC008BB101F089FC6368C01AA36898420AD3B1
:105ADC00012384F8205084F82250A58484F82630C1
:105AEC0084F8275001E094F82660304670BD10B55C
:105AFC00837E044633B194F8273033B12046FFF748
:105B0C0079FFF8E70A2002F0E5F921460A2251F85C
:105B1C00160B0368DB68984701F05EFCA37E60609F
:105B2C00003318BF012384F8273010BD131210B5B1
:105B3C004176C376027700F116010446FFF7F4FEB6
:105B4C000312A07763772046BDE81040FFF7CFBF64
:105B5C000022FFF7EBBF012310B5044680F8273075
:105B6C002046FFF747FF0028FAD094F822000030B7
:105B7C0018BF012010BD0C21FFF7EABF38B5044651
:105B8C00154612B10123837600E0A276A36821604A
:105B9C0003F6B833A3602046FFF7EDFF2046FFF76E
:105BAC00DAFFA368A3F6B833C820A36002F092F919
:105BBC00002384F8263094F82230042B14BF85F08F
:105BCC000100012038BD01F04FBB01F04DBB01F0CD
:105BDC004BBB10B50446243000F090FE28B104F500
:105BEC000C70BDE8104000F089BE10BD411E00F1E4
:105BFC000A020020430843EAC01011F8013F53FA8F
:105C0C0080F08A42C0B2F5D1704700002DE9F04710
:105C1C000378202B00F1010401D12046F8E7704FE6
:105C2C00886005462C1A2E4615F8013B0BB32F2B1A
:105C3C0001D1031917E05C2B02D10020BDE8F087DD
:105C4C00A3F12204E4B21D2C03D827FA04F4E407D0
:105C5C00F3D403F0BF043C2CEFD0203B5E2BE1D9F6
:105C6C00EBE72F2D05D11E4613F8015B202DF8D143
:105C7C00F9E7166003199842C0EB030809D013F832
:105C8C00012D2E2AF7D0202AF5D0B8F1FF0FD4DC45
:105C9C0001E04FF00008C1F8048001F10C0301F1A0
:105CAC001702202403F8014F9342FBD103461A1A22
:105CBC0013F8014B2E2CFAD0202CF8D0B2FA82F427
:105CCC00640908F1FF36731C07D100274FF0070E4B
:105CDC003D46BA464FF0080909E0835D2E2BF4D0FF
:105CEC00013EF0E7835C202B04D1002401324245B5
:105CFC00F8DB4BE02E2B02D1B242F6D103E0222B83
:105D0C0017D07C2B15D0A3F12A0CBCF1050F01D8B0
:105D1C002D2B0ED1A3F13A0CBCF1050F09D9A3F12F
:105D2C005B0CBCF1020F04D9A3F1210CBCF15D0F8B
:105D3C0002D9B2420ED149E0B24247D0754521D8C2
:105D4C00A3F1610CBCF1190F08D8203BDBB249EA76
:105D5C0007070AE0754515D800245F23A3F1410C11
:105D6C00BCF1190F98BF49EA0A0A05F1010C5FFA58
:105D7C008CFC0D44BCF1060F6B7301D881F80CC080
:105D8C006546B3E7BEF10A0F17D100244B7B202BDD
:105D9C003FF453AF3CB11AEA070F18BF02270F703C
:105DAC000120BDE8F0870B7B0120087019447E238D
:105DBC004B7331238B73BDE8F087B242E5DC32467E
:105DCC004FF00A0E08254FF010098EE7BEF10A0FAE
:105DDC00DBD032464FF00A0E08254FF0100985E74C
:105DEC00010100312DE9F84391F80C9006460D465F
:105DFC0002247E2701F10D086968AA6863189BB21A
:105E0C001144914206D012F8010B03EB43134340AB
:105E1C009BB2F6E7B9F1030F28BF4FF0030909F164
:105E2C000402D2B203F00F01A818013A0929D2B228
:105E3C0094BF30313731914541734FEA1313F1D38D
:105E4C0005EB090300215F73304600F031FB0121A3
:105E5C00304600F010FB014628B97078B0FA80F09B
:105E6C004009BDE8F88303784BB1C37A1B07EED425
:105E7C000B22404603F0B2FC0028E8D102E00120DE
:105E8C00BDE8F8830134A4B2642CB5D1BDE8F88325
:105E9C002DE9F04F9B460B7889B013F0700F0590ED
:105EAC000E46914601D10020A0E1059B1B78002BEA
:105EBC00F9D15368029313789B0700F08D81029BF4
:105ECC000D270C33B3FBF7F70137FFB20021304637
:105EDC0000F0EEFA4FF0000809F10D02CDF80C803D
:105EEC00434644464546CDF81080069272690793A6
:105EFC0001213046C2F34F1A00F0BDFA079B20B9BE
:105F0C007378002B00F09080CDE70278E52A00D062
:105F1C0042B9002C08BFD046BC423CBF0134E4B2AD
:105F2C0022B981E0BC4238BF002403E0E52A01D14C
:105F3C000025DBE72E2AFBD0C17A0F2952D13DB9BF
:105F4C005106D3D5437B039302F01F052B4607E084
:105F5C00013BDBB29A42EBD1427B03999142E7D1F0
:105F6C005A1E4FF00D0C0CFB02FC029A6245DFD955
:105F7C004FF0000EBEF1040F5FFA8EF204D800EB66
:105F8C004E02B2F801200CE00A2A95BF0EF1FF3246
:105F9C000EF1010200EB420200EB420294BFD288E8
:105FAC0092880299614503D1002A18BF00259DE70C
:105FBC00FF2ABDD8D2B2A2F141011929D9F8081093
:105FCC0011F80C1098BF20320CF1010AA1F1410C10
:105FDC0098BFD2B2BCF1190F9CBF2031C9B291420B
:105FEC00A6D1FBE00907A3D44DB1012B7FF45BAF25
:105FFC00FFF7FCFD039B83427FF455AF0FE00B22B0
:10600C000699079303F0EAFB079B00287FF46EAF19
:10601C0099F80020D20702D50122049266E71BF4FE
:10602C00006F00F0D1803EE71BF4007F3FF43BAFE4
:10603C000BF00303013B012B3FF635AF002C08BFDF
:10604C00D046BC4202D3049BCBB91FE000213046A2
:10605C0000F011FA10B973785BB124E70134E4B2A3
:10606C00EFE7B3681B79012BEDD81034E4B2A742EB
:10607C00E9D9304600F0D2F80028F2D113E74946AE
:10608C003046FFF7AFFE00283FF40DAF4FEA481142
:10609C00304600F00DFA00283FF405AF7D1EEDB23E
:1060AC002C464FF0000A4FF00F0841E0002130461B
:1060BC0000F0E1F9074600283FF4F5AEB26892F81B
:1060CC002430AC4243F0010382F824300CBF44F07E
:1060DC0040022246027080F80B8080F80CA009F177
:1060EC000D000392FFF782FD039A787387F81AA0CC
:1060FC0087F81BA002F01F020D23013AD9F808E023
:10610C005A4300230299914215D91EF80210042B10
:10611C005FFA83FC03F1010013D807EB4303A3F8E8
:10612C0001100D2802F101020346EBD1013CE4B24F
:10613C00002CBBD10EE014BF4FF0FF31002189B20F
:10614C00E5E7BCF10A0F94BF07EB430307EB4003F1
:10615C009980E6E7736921463046C3F34F1A00F085
:10616C008AF9074600283FF49EAE2022214603F010
:10617C004FFB4B4653F80D2F3A605A687A601A89D8
:10618C003A819B7ABB7299F8003003F018033B7389
:10619C00184B1B682BB107F10E0107F11000984743
:1061AC0006E021233B7428237B740823BC73FB7308
:1061BC003B8A7B823B83FB89FB82B26892F824305A
:1061CC0043F0010382F8243000955B465246314679
:1061DC00059800F0B6F909E0012777E60EF1010EFB
:1061EC00BEF10D0F3FF482AED446C3E609B0BDE854
:1061FC00F08F00BFA0E3032001F036B801F034B8F3
:10620C0001F032B801F030B88378016943F004032F
:10621C00837000F11002806800F026BC2DE9F0417B
:10622C00037803F02003044603F0FF050BB10026AE
:10623C002EE04269184B9A42F9D8FFF7E5FF064663
:10624C000028F4D02169A06800F0A3FB0746A068E1
:10625C0005223946243000F078FB80460028E6D031
:10626C0029464FF4007203F0D3FA0125A3681A797A
:10627C00AA4209D94246E919186800F0E3FE002841
:10628C00D5D00135EDB2F1E7636903EB42236361CD
:10629C003046BDE8F08100BFFFFD1F0010B504467D
:1062AC0080680A462430A16900F04FFB20B1A38816
:1062BC0003F00F0300EB431010BD70B504780546D6
:1062CC000E4684B92422214603F0A2FAAE60F3797B
:1062DC00102B03D0202B06D1402300E020230120DB
:1062EC002B70A87070BD002070BD2DE9F74F03789E
:1062FC000446894615464BB18278D10706D50CE089
:10630C005A46216900F04BFB00283DDA637843F0D4
:10631C00020363704FF0FF3097E01A0703D5E3696F
:10632C0062699B1A07E09A0608D5A3681A89636903
:10633C00C3EB42139BB29D4228BF1D462E464FF025
:10634C00000804F1100B002E35D022786369A06888
:10635C0012F0200FC3F3080A4FEA532102D0036A4C
:10636C0019441DE090F8058001EA0808BAF1000F05
:10637C0010D1B8F1000F0DD1002BC1D153064CBF79
:10638C00036A236A236105E004D1237813F0700FAC
:10639C0011D1BBE72169A06800F0FBFA08EB000102
:1063AC00A068BAF1000F35D1B6F5007F32D3C36ABD
:1063BC00994202D12EE0A81B47E0B6F5806F1BD3A3
:1063CC00227897064FEA562A06D40279C8EB0202C5
:1063DC00D2B2924528BF924699424FEA4A2707D239
:1063EC00A06853464A46006800F0EAFD60B98DE7A4
:1063FC005344994221D3F3E74A46006800F098FDD4
:10640C00002883D04FF4007763693B44B94463613F
:10641C00F61B98E70022243000F097FA00283FF48E
:10642C0075AFCAF50077B74228BF374600EB0A01B3
:10643C003A46484603F0E1F9E6E72430019100F0D2
:10644C005DFA01990028CBD160E703B0BDE8F08F6D
:10645C0073B501220DF10701044646690569FFF782
:10646C0044FF012805BF9DF8070066614FF0FF301F
:10647C00256102B070BD37B54369C3F343150446BB
:10648C0005B169B901220DF107012046FFF72DFF77
:10649C0040B2012801D0002008E063691F3300E0FE
:1064AC002033A0686361303000EB451003B030BD81
:1064BC002DE9F0410E46017807690446002939D0D0
:1064CC004569B5423AD00EB9066131E00B0703D5E8
:1064DC00C3699E422ED807E0880605D5A3681B89A0
:1064EC00B6EB431F26D823E0D4F808E09EF806301C
:1064FC006A1E03F10900731EC240C3409A4200D8C1
:10650C004DB94A064CBFDEF82020226A22611D4696
:10651C0004F110080AE09B1AF9E742462169A068C9
:10652C0000F03DFA002805F1FF3503DD002DF4D114
:10653C00666103E027610020BDE8F0810120BDE821
:10654C00F081F8B50F4615460021242204461E465C
:10655C0003F05EF9B868A06005F00F02A58000F1A9
:10656C00300152013B6AE3601144CB7A1D074CD4D5
:10657C00831893F83B3003F017032370C97A11F09A
:10658C00180F04BF43F0080323709DF81830E37014
:10659C0006F00303012B09D0022B05D0002B34D1BC
:1065AC00710532D4012302E0032300E00223A3701F
:1065BC00A1788B0703D5237813F0110F25D14BB29B
:1065CC0016F4005F06F0080114BF6FF07F07002778
:1065DC0019433943A170C36AA36102447505B2F82B
:1065EC004410B2F84A3043EA014104D581B100F0BD
:1065FC0076FA68B909E02162D36CE36173040CD5B7
:10660C00E1692046FFF754FF38B900202070F8BD2F
:10661C00A37843F00403A370F0E70120F8BD000059
:10662C0038B5037804460BB9012038BD83785A0776
:10663C0023D50121FFF732FE054628B9637843F0D4
:10664C0001036370002038BD0378E52BF6D0237866
:10665C001B0744BFE369C361238C4383638C838230
:10666C00094B1B682BB100F11601183098472B8B86
:10667C006B82A37823F00403A370A068FFF7A9FA38
:10668C000028DBD0D0E700BFA0E3032010B5044600
:10669C00FFF7C6FF0023237010BDF0B593B01F4663
:1066AC0000238DF824308DF82530037801920646AE
:1066BC000C460BB100203DE00B7813F0700FF9D0B5
:1066CC0013782F2B12D1019B1A782F2A02D1013368
:1066DC000193F8E7A1681AB93046FFF7EEFD29E0FF
:1066EC0009A8FFF7EAFD0028E4D009AC01AA03A928
:1066FC000198FFF78BFA0028DCD0019B1B789BB12B
:10670C00002303AA21463046FFF7C2FB0028D1D054
:10671C0035460FCD09AC0FC40FCD0FC42B682360C9
:10672C003046FFF7B3FFE0E73B4603AA214630466D
:10673C00FFF7AEFB13B0F0BD2DE9F04703788946A7
:10674C0019070446904608D583789A0705D51B0788
:10675C000BD5E169FFF7ACFE38B9637843F0010360
:10676C0063704FF0FF30BDE8F0876369DB439845F9
:10677C00F3D846464FF0000A6369002E00F0818082
:10678C00A068427912EA5325C3F308071CD1DFB97C
:10679C00216971B104F1100200F001F90028DCDB71
:1067AC0040F08E802046FFF72FFD002840F08880B7
:1067BC00D3E7236A3BB92046FFF726FD0028CCD04F
:1067CC002369236200E023612169A06800F0E1F8ED
:1067DC00291817B9B6F5007F21D2C7F50075B54257
:1067EC0028BF354637B96369E269934234BF012249
:1067FC00052200E00122A068243000F0A6F8002851
:10680C00ABD038442A4649462F4402F0F6FFB7F580
:10681C00007F30D1A068243000F070F817E0B6F596
:10682C00806FA06815D30279521B730AD2B29342BF
:10683C0028BF1346C26A91424FEA432502D31A4439
:10684C00914237D3A7684A46386800F06DFC90B97E
:10685C0083E7C36A994202BF4FF0FF3380F824A04C
:10686C00C362A3684A46186800F0ECFB00283FF4AA
:10687C0074AF4FF4007563692B446361A944761BB4
:10688C007AE7E269934201D9E36102E00F4B1B689E
:10689C001BB1A37843F00403A37094F90230002BCE
:1068AC0002DB4046BDE8F0872046FFF7B9FE002822
:1068BC00F7D152E74FF0FF3280F824A0C262C1E753
:1068CC002169A06800F065F8014683E7A0E3032086
:1068DC0000F0CABC70B505460C46084649B102F03A
:1068EC00D9FF2B68024621462846DB68BDE870407C
:1068FC00184770BD00F0B8BC00F0B6BC70B503789A
:10690C00DA0704461ED54368816800F10C0632464E
:10691C00186800F097FB054608B9002513E02378AA
:10692C009B0704D4237823F0010323700BE06368E6
:10693C00A068196932460144186800F083FB0028EE
:10694C00F0D1EAE70125284670BD70B583688B420B
:10695C0004460E46154614D0FFF7D0FF08B90020A8
:10696C0070BD6B0703D500232370A66009E0636834
:10697C0004F10C023146186800F0DAFA0028F2D162
:10698C00EDE72378204605F003051D4300F80C5B6A
:10699C0070BD8379406902399940084470470129D8
:1069AC0070B505460C46164602D84FF0FF3070BD48
:1069BC00C3699942F9D8C379202B10D1816902227D
:1069CC0001EBD41100F50C70FFF7BFFF0028ECD0E1
:1069DC0004F07F0450F8243023F070430FE0102BA8
:1069EC00E3D18369C1F307210222194400F50C702D
:1069FC00FFF7ABFF0028D8D0E4B230F81430EA69C6
:106A0C0093429ABF33600120002070BD012938B534
:106A1C000C46154601D8002038BDC3699942FAD8F6
:106A2C00C379202B0ED18169032201EBD41100F51F
:106A3C000C70FFF78AFF0028EDD004F07F0440F8BB
:106A4C0024500FE0102BE6D18369C1F307210322F8
:106A5C00194400F50C70FFF778FF0028DBD0E4B286
:106A6C0020F81450012038BD2DE9F341C4688C4244
:106A7C0005460E46904607D20C460027EB690134BA
:106A8C009C4203D9CFB9EC680127F7E7A64214D092
:106A9C0001AA21462846FFF782FF00280DDBEDD026
:106AAC00019B002BEAD107B1EC606FF070422146DC
:106ABC002846FFF7ABFF074608B900270BE016B9CD
:106ACC00C8F8004007E0224631462846FFF79EFFF3
:106ADC000028F5D1F1E7384602B0BDE8F08173B576
:106AEC0005460C4601AA21462846FFF758FF061E0C
:106AFC0001DA00200FE0002221462846FFF786FF2E
:106B0C000028F6D0EB689C429CBF04F1FF34EC608B
:106B1C00019C002EE6D102B070BD70B50123044675
:106B2C000022C3604FF0FF33C2710D46A06280F8A3
:106B3C002420C362C4F8340280F83022C0F8383202
:106B4C00A1B104295DD811462430FFF7FEFE0028C0
:106B5C0057D000EB051393F8AE315B0651D11B35C2
:106B6C0000EB0515D5F80650002D4AD00022294619
:106B7C0004F12400FFF7E9FE002842D0B0F80B30F6
:106B8C00B3F5007F3DD1037C022B3AD1C389002B96
:106B9C0037D0417B21714B1E63710023A3710926F1
:106BAC0001238B4207D0013E2BD0A2795B0001322E
:106BBC00DBB2A271F5E7C28A02B9426A2261C689C8
:106BCC002E44A661B0F81130238106EB42012162FC
:106BDC00B0F81120520102F2FF1201EB6222626145
:106BEC00B0F8133003B9036AAD1A2B44A57923FA14
:106BFC0005F56B1CE36140F6F4739D4203D80C233E
:106C0C00E371002070BD4FF6F4739D4285BFC36ADB
:106C1C00236210232023E371012070BD00F024BBFC
:106C2C0000F022BB00F020BB70B50E4C0E46154692
:106C3C0000F0CAFB2368C01A0B4B984208D900F02D
:106C4C00CBFB0A4B186000F0BBFD00F0BDFB2060D5
:106C5C0000F0C2FB80B2801BA842D4BF00200120F0
:106C6C0070BD00BFA4E30320A086010008E7032049
:106C7C0038B5057A04464DB9406800F07DFA636872
:106C8C002946187D02F0C3F80123237238BD10B5D4
:106C9C00037A04466BB143680121187D02F0B7F802
:106CAC00FF21606800F09AFA606800F079FA00231E
:106CBC00237210BDF8B504460D46164600F08CFB49
:106CCC0087B2606800F06FFAFF28607209D14FF448
:106CDC007A7239462046FFF7A7FF0028F1D05523DA
:106CEC000BE0FE2801D0502307E0324629466068AD
:106CFC0000F05EFA607230B1602320462370FFF71B
:106D0C00C6FF0020F8BD606800F04DFA606800F026
:106D1C004AFA0120F8BD70B504460E4600F05CFB43
:106D2C0085B2324629462046FFF77EFF30B96068AF
:106D3C0000F039FAFF28F4D1012070BD002070BD9D
:106D4C00F7B5037A019204460D460BB9FFF790FF95
:106D5C0025B14FF496712046FFF7DDFF45F0400159
:106D6C00606800F03BFA0DF107060DF1030716F809
:106D7C000119606800F032FABE42F8D1002D0CBF48
:106D8C0095218721606800F029FA606800F00BFA01
:106D9C000B25606800F007FA0306607203D5013D0D
:106DAC0015F0FF05F5D103B0F0BD70B504460D46E6
:106DBC00164637210022FFF7C3FF324629462046EC
:106DCC00BDE87040FFF7BCBF2DE9F041002505720E
:106DDC00057085724160044690461E4600F0FCFA30
:106DEC0041460746606800F0CBF963684F4A1D7254
:106DFC004FF00108DA605D7483F810802046FFF7CD
:106E0C0037FF63684146187D02F001F80A25FF211F
:106E1C006068013D00F0E2F915F0FF05F7D16368F9
:106E2C002946187D01F0F3FF0A2500221146204661
:106E3C00FFF786FF0128804612D0013D15F0FF05B3
:106E4C0001D1202357E0FD21606800F0C7F94FF411
:106E5C000278606800F0A7F9B8F10108F9D1E4E70D
:106E6C004FF4D57208212046FFF76AFF052802D19E
:106E7C0084F80A800FE00425606800F094F9013D65
:106E8C0015F0FF056072F7D1AA2802D10223A37274
:106E9C0001E025232FE0A37A022B0CBF4FF0804595
:106EAC000025BFB22A4629212046FFF77EFF024665
:106EBC0048B14FF4FA6239462046FFF7B5FE002878
:106ECC00F0D0432317E0A37A022B0ED02046FFF715
:106EDC00DEFE6368B0683479317B727B5A74D8609B
:106EEC001C7219740120BDE8F0813A212046FFF78D
:106EFC0027FF38B1372320462370FFF7C8FE002048
:106F0C00BDE8F081606800F04EF900F0C000C028C8
:106F1C0004BF0323A372606800F045F9606800F0B9
:106F2C0042F9606800F03FF9D0E700BF90D0030051
:106F3C0038B5837A032B18BF490215460A4611212E
:106F4C000446FFF7FDFE10B1302323700BE02946F9
:106F5C004FF400722046FFF7ADFE054618B12046EF
:106F6C00FFF795FE03E02046FFF791FE002528462B
:106F7C0038BD10B5837A032B0A4618BF4A0212217A
:106F8C000446FFF7DDFE30B1312320462370FFF7B6
:106F9C007EFE002010BD012010BD10B500220C217A
:106FAC000446FFF7CDFE30B1282320462370FFF7AF
:106FBC006EFE002010BD2046FFF769FE012010BDBB
:106FCC00F8B5054616461F46FFF7D3FF98B10024C7
:106FDC00A3B29F4206EB442108D94FF40072284615
:106FEC00FFF768FE01340028F2D104E02846BDE822
:106FFC00F840FFF7D2BF0020F8BD38B5044615465F
:10700C00406800F0EBF84FF400722946606800F01D
:10701C00E9F8FF21606800F0E1F8FF21606800F0FA
:10702C00DDF8606800F0BFF8607200F01F00052802
:10703C0006D0572320462370FFF729FE002038BDC9
:10704C00012038BD70B5837A032B18BF4902154651
:10705C000A4618210446FFF773FE064608B1322390
:10706C001DE02A46FE212046FFF7C7FFC0B14FF4B2
:10707C00FA612046FFF74FFE054608B95A230EE089
:10708C0032460D212046FFF75BFE38B9606800F0F0
:10709C008AF818B92046FFF7FAFD05E0292323707A
:1070AC002046FFF7F4FD0025284670BD38B50D4687
:1070BC004FF4FA610446FFF72EFE10B95B232370E0
:1070CC0005E02A46FC212046FFF797FF18B9204619
:1070DC00FFF7DDFD002038BD10B5837A032B0A467F
:1070EC0018BF4A0219210446FFF72AFE30B1332398
:1070FC0020462370FFF7CBFD002010BD012010BDF2
:10710C0038B54FF4FA610446FFF705FE054620B189
:10711C00FD21606800F062F801E0562323702046E0
:10712C00FFF7B5FD284638BDF8B5054616461F468F
:10713C00FFF7D2FF70B10024BC4206EB4421284675
:10714C0004D0FFF7B3FF28B10134F5E7BDE8F840F0
:10715C00FFF7D6BF2846FFF79AFD0020F8BD00F0D8
:10716C0083B800F081B800F07FB80000014B012219
:10717C001A707047A8E30320011D006800F000BCE2
:10718C0010B504460175006800F0D0FB207D01218C
:10719C0001F02CFE207D0121BDE8104001F037BE2E
:1071AC00006800F0D4BBFF21006800F059BC00005F
:1071BC0037B5084B00930025074C00682570134623
:1071CC000A46294600F052FC2378002BFCD0002004
:1071DC0003B030BD79710D00A8E30320006800F006
:1071EC003FBC000037B5074B00930025064C0068E8
:1071FC00257013462A4600F039FC2378002BFCD06E
:10720C0003B030BD79710D00A8E3032000F02CB859
:10721C000022016002614261704710B5044600888B
:10722C0001F021FE40F21233A0F10B029A4207D872
:10723C00A0606060E06000F0CFF8A061012010BD9C
:10724C00002010BD00F010B808B5024B1B689B68FD
:10725C00019308BD6802030008B5024B1B68DB688C
:10726C00019308BD6802030008B5024B1B681B683C
:10727C00019308BD2C02030008B5024B1B685B6828
:10728C00019308BD2C02030008B5024B1B689B68D8
:10729C00019308BD2C02030008B5024B1B68DB6888
:1072AC00019308BD2C02030008B5024B1B681B6937
:1072BC00019308BD2C02030008B5024B1B685B69E7
:1072CC00019308BD2C02030008B5024B1B689B6997
:1072DC00019308BD2C02030008B5024B1B68DB6947
:1072EC00019308BD2C02030008B5024B1B681B6BF5
:1072FC00019308BD2C02030008B5024B1B681B68E8
:10730C00019308BD3002030008B5024B1B685B6992
:10731C00019308BD3002030008B5024B1B68DB6902
:10732C00019308BD3002030008B5024B1B681B6AB1
:10733C00019308BD3002030008B5024B1B685B6A61
:10734C00019308BD3002030008B5024B1B689B6A11
:10735C00019308BD3002030008B5024B1B689B6B00
:10736C00019308BD3002030008B5024B1B68DB6BB0
:10737C00019308BD3002030008B5024B1B681B6C5F
:10738C00019308BD3002030008B5024B1B685B6C0F
:10739C00019308BD3002030008B5024B1B685B6902
:1073AC00019308BD6C02030008B5024B1B685B68B7
:1073BC00019308BD1802030008B5024B1B68DB687B
:1073CC00019308BD1802030008B5024B1B681B692A
:1073DC00019308BD1802030008B5024B1B685B69DA
:1073EC00019308BD1802030008B5024B1B68DB694A
:1073FC00019308BD1802030008B5024B1B689B6D76
:10740C00019308BD1802030008B5024B1B689B686A
:10741C00019308BD4802030008B5024B1B681B69A9
:10742C00019308BD4802030008B5024B1B685B6959
:10743C00019308BD4802030008B5024B1B685B6C46
:10744C00019308BD4802030008B5024B1B689B6CF6
:10745C00019308BD4802030008B5024B1B685B6929
:10746C00019308BD6402030008B5024B1B681B6A3C
:10747C00019308BD6402030008B5024B1B689B6AAC
:10748C00019308BD6402030008B5024B1B681B681E
:10749C00019308BD3C02030008B5024B1B68DB6876
:1074AC00019308BD3C02030008B5024B1B681B6925
:1074BC00019308BD3C02030008B5024B1B685B69D5
:1074CC00019308BD3C02030008B5024B1B689B6985
:1074DC00019308BD3C02030008B5024B1B68DB6935
:1074EC00019308BD3C02030008B5024B1B681B6AE4
:1074FC00019308BD3C02030008B5024B1B689B6A54
:10750C00019308BD3C02030008B5024B1B68DB6A03
:10751C00019308BD3C02030008B5024B1B68DB68F5
:10752C00019308BD2802030008B5024B1B689B6938
:10753C00019308BD2802030008B5024B1B68DB69E8
:10754C00019308BD2802030008B5024B1B681B6A97
:10755C00019308BD2802030008B5024B1B685B6A47
:10756C00019308BD2802030008B5024B1B689B6AF7
:10757C00019308BD2802030008B5024B1B68DB6AA7
:10758C00019308BD2802030008B5024B1B681B6B56
:10759C00019308BD2802030008B5024B1B685B6B06
:1075AC00019308BD2802030008B5024B1B681B6C35
:1075BC00019308BD2802030008B5024B1B681B6D24
:1075CC00019308BD2802030008B5024B1B689B6998
:1075DC00019308BD3802030008B5024B1B68DB6938
:1075EC00019308BD3802030008B5024B1B681B6AE7
:1075FC00019308BD3802030008B5024B1B689B6A57
:10760C00019308BD3802030008B5024B1B681B6BC5
:10761C00019308BD3802030008B5024B1B689B6B35
:10762C00019308BD3802030008B5024B1B681B68A8
:10763C00019308BD4C02030008B5024B1B685B6844
:10764C00019308BD4C02030008B5024B1B681B6973
:10765C00019308BD4C02030008B5024B1B685B6923
:10766C00019308BD4C02030008B5024B1B689B69D3
:10767C00019308BD4C02030008B5024B1B68DB6983
:10768C00019308BD4C02030008B5024B1B681B6A32
:10769C00019308BD4C02030008B5024B1B685B6BE1
:1076AC00019308BD6002030008B5024B1B681B6DFB
:1076BC00019308BD6002030008B5024B1B681B68F0
:1076CC00019308BD2002030008B5024B1B685B68E0
:1076DC00019308BD2002030008B5024B1B685B69CF
:1076EC00019308BD2002030008B5024B1B689B6D7B
:1076FC00019308BD2002030008B5034B1B68D3F8A7
:10770C008830019308BD00002002030008B5034B2C
:10771C001B68D3F89430019308BD000020020300CD
:10772C0008B5024B1B685B68019308BD400203005F
:10773C0008B5024B1B689B68019308BD400203000F
:10774C0008B5024B1B68DB68019308BD40020300BF
:10775C0008B5024B1B681B69019308BD400203006E
:10776C0008B5024B1B685B69019308BD400203001E
:10777C0008B5024B1B689B69019308BD40020300CE
:10778C0008B5024B1B68DB69019308BD400203007E
:10779C0008B5024B1B681B6A019308BD400203002D
:1077AC0008B5024B1B681B6B019308BD400203001C
:1077BC0008B5024B1B685B6B019308BD40020300CC
:1077CC0008B5024B1B689B68019308BD440203007B
:1077DC0008B5024B1B685B69019308BD44020300AA
:1077EC0008B5024B1B68DB6A019308BD4402030019
:1077FC0008B5024B1B681B6B019308BD44020300C8
:10780C0008B5024B1B68DB6B019308BD44020300F7
:10781C0008B5024B1B681B68019308BD1C020300D2
:10782C0008B5024B1B685B68019308BD1C02030082
:10783C0008B5024B1B689B68019308BD1C02030032
:10784C0008B5024B1B681B69019308BD1C020300A1
:10785C0008B5024B1B689B69019308BD1C02030011
:10786C0008B5024B1B685B6A019308BD1C02030040
:10787C0008B5024B1B681B6B019308BD1C0203006F
:10788C0008B5024B1B68DB6B019308BD1C0203009F
:10789C00002211464068FFF77BBF0022114640686A
:1078AC00FFF786BF00224068FFF77ABF002281F005
:1078BC0001014068FFF764BF00231A46194640686F
:1078CC00FFF756BF00231A4619464068FFF748BF1A
:1078DC00002211464068FFF73BBF0022114640686A
:1078EC00FFF726BF002202214068FFF729BF0023C3
:1078FC001A464068FFF714BF024B03225A60024A33
:10790C001A607047ACE3032024A60D000021FFF79A
:10791C0033BD0021FFF738BD10B504460170084691
:10792C00FFF7FAFC00236360204610BD10B5044637
:10793C000078FFF7EBFF48B920784FF6FF71FFF79F
:10794C00DBFC2078BDE81040FFF7E3BF10BD0078EA
:10795C00FFF7DFBF400830B5186000241868884274
:10796C00E5B206D90134082C02D040081860F5E7BE
:10797C000725024B5B5D137030BD00BF50A60D0098
:10798C002DE9F04307468FB000780E46FFF7BEFF97
:10799C00002862DB3C781422002109A801F038FF92
:1079AC000B232046002209A9ADF82430FFF7C4FCB4
:1079BC009DF82D4054B19DF82C5035B9DDF8308030
:1079CC009DF834909DF8354003E00024A146A04674
:1079DC000125337905B1BBB99D420BD1B268424543
:1079EC0008D18DF820908DF82140BDF82010B28977
:1079FC00914209D053B10024387801940094234665
:107A0C0022460121FFF7B0FC002026E08DF80F3054
:107A1C00B1680A9804AB0DF10F02FFF79BFF3179A7
:107A2C0005B1B1B9A94208D0002438780194747B0F
:107A3C00337B9DF80F200094E4E7B3684345F3D300
:107A4C008DF820908DF82140BDF82020B3899A4202
:107A5C00EAD1049B4345E7D1D6E70FB0BDE8F083EC
:107A6C0008B50078FFF750FCC0B208BD30B587B040
:107A7C0004460A9D00780095FFF766FC3DB902A903
:107A8C002078FFF769FC9DF81430DB07F7D407B0BA
:107A9C0030BD0078FFF748BC10B50446006818B13B
:107AAC00FFF7BEFE0023236010BD10B50446FFF7A0
:107ABC00F3FF204610BD000010B5094C00204FF616
:107ACC00FF732060A080A07120816381FFF7FCFD13
:107ADC002046044A0449BDE8104001F01BBA00BF1F
:107AEC00B4E30320D8DC0320B77A0D0010B50446AC
:107AFC000068FFF795FE204610BD10B504460068DF
:107B0C0008B1FFF78DFE00232360A360636010BDF6
:107B1C0038B504460D4600680131FFF789FE10B1F7
:107B2C0084E82100012038BD10B50368044613B168
:107B3C0043688B4207D22046FFF7EAFF20B1A368C7
:107B4C000BB922681370012010BD70B50E4611469A
:107B5C0004461546FFF7E8FF18B92046FFF7CDFF9E
:107B6C0009E02A463146A560206801F046FE2268ED
:107B7C00A3680021D154204670BD38B500230446BB
:107B8C0003604360836003730D4639B1084601F00E
:107B9C0081FE294602462046FFF7D7FF204638BD16
:107BAC0038B5054600680C4660B16A688B689A4225
:107BBC0006D3096801F066FEA368AB6000230AE0F7
:107BCC00FFF72EFE23682B6063686B60A368AB60C5
:107BDC00002323606360A36038BD884210B504465F
:107BEC0001D0FFF7DDFF204610BD70B50E469AB1EF
:107BFC0091B185689D4202D800230B7070BD541E54
:107C0C00ED1A0168AC4228BF2C4619442246304676
:107C1C0001F05DFE0023335570BD0000F8B59A42AB
:107C2C000F461D460C4988BF13461446064684BFB2
:107C3C002C461D46FFF7A1FFBA6894420AD8396852
:107C4C00954294BFC4EB0502C4EB020221443046BA
:107C5C00FFF77BFF3046F8BD35A40D0010B5044688
:107C6C00006808B1FFF7F0FB204610BD10B5064CBC
:107C7C00002320462360FFF7DFFB2046034A04491C
:107C8C00BDE8104001F046B9C0E30320D8DC032066
:107C9C00697C0D00F8B506460D468F180024BD42D0
:107CAC000CD0336815F8011B9B68304698470028A8
:107CBC0001DB0444F3E7002C08BF04462046F8BD62
:107CCC0008B5FEF707FE08BD03689B68184738B572
:107CDC000D210546FFF7F8FF0A2104462846FFF759
:107CEC00F3FF204438BD38B50546FEF7F3FD0446D6
:107CFC002846FFF7ECFF204438BD30B58BB00B465F
:107D0C0000218DF82410012A98BF0A220DF12304BA
:107D1C00B3FBF2F505FB123303F0FF03092B94BF01
:107D2C0030333733DBB2214604F801392B46002DB2
:107D3C00EED1FEF7CFFD0BB030BD0CB42DE9F04306
:107D4C0087B000AF07F13804054654F8049B3C603B
:107D5C000E4623464A461421381DFFF781FD132891
:107D6C0005D8391D2846FEF7B5FD044613E000F191
:107D7C00080323F00703E846ADEB030D411C234633
:107D8C004A4668463C60FFF76BFD69462846FEF79D
:107D9C00A1FD0446C5461EB12846FFF798FF0444D2
:107DAC0020461C37BD46BDE8F04302B070470000CA
:107DBC00014B024A1A607047C4E30320CBA60D00A6
:107DCC0008B50020FFF714FD28B1FFF701FD80F086
:107DDC000100C0B208BD012008BD0000FAEE087A0F
:107DEC00B4EEE70AF1EE10FA0FD4F2EE0C7AB4EE20
:107DFC00E70AF1EE10FA08DCDFED047A044B20EE12
:107E0C00270ABDEEC00A83ED000A704700006145E9
:107E1C00D0E3032037B50E4B1B6819440D4B1B6880
:107E2C00044602A8194440F8041D01F0DFFB01F0E0
:107E3C0093FB054601F02EFD2844002300F8013C7D
:107E4C0029462046FFF799FE204603B030BD00BFFF
:107E5C00D0E30320CCE3032010B50020FFF7CCFACD
:107E6C00044668B9FFF728FC01280BD12046FFF720
:107E7C003BFC38B9FFF7A4FF30B9FFF7A1FCF9E7D9
:107E8C00012010BD002010BDFFF79AFF0020FFF766
:107E9C00B3FA003018BF012010BD08B5FFF7DCFFA6
:107EAC00BDE80840FFF7A0BA024B1A68024B1A60F3
:107EBC00704700BF20DC0320C8E303208A4230B5A2
:107ECC0007D0039D441AED1A6C43521A94FBF2F43A
:107EDC00E01830BD0021FFF7FFBB10B583680446E6
:107EEC0013B1032201469847204610BD10B5044635
:107EFC00FFF7F3FF204610BD0348044A0449002352
:107F0C00836001F007B800BFD4E30320D8DC032062
:107F1C00F97E0D0008B50C4B33B100F06DF9036818
:107F2C001B699847002809DC084B63B100F016FA6E
:107F3C0003681B699847002803DC08BDAFF3008079
:107F4C00F2E7AFF3008008BD000000000000000065
:107F5C0008B5FFF7DFFFFFF73FFA014B186008BDCC
:107F6C0008E703200248034A0349121A01F045BCF2
:107F7C0000F4032004F4032000AC0D0007B500232B
:107F8C0000931A466FF07701FFF7C0FB03B05DF862
:107F9C0004FB000007B543880A2B08D0502B09D1ED
:107FAC00094B1B683BB103B05DF804EB1847FFF7B6
:107FBC00E5FF06E0002300931A466FF07701FFF708
:107FCC00A5FB03B05DF804FBE4E3032038B5104CCB
:107FDC00104D2368AB42104B0CBF012200221A70CB
:107FEC0002D0FFF7BFFF2560FFF7DEF9044601F072
:107FFC0017FC0A4B13B12046AFF300800021074851
:10800C00FFF7FEFB00210648BDE83840FFF774BBC4
:10801C0000F403201E1C279AE8E303200000000054
:10802C00A17F0D00704710B51821044600F080FFA9
:10803C00204610BDF0B5037D062B8DB00E4600F129
:10804C0004074FF0000402D000F1080518E00CAD55
:10805C00394605F8304D2F232A460A20FFF7FCF944
:10806C00284601F017FC33680246DB682946304687
:10807C0098470FE024B12E213046FFF725FE04442B
:10808C0015F8011D0A223046FFF737FEBD420444A5
:10809C00F0D120460DB0F0BD10B5054B04461122B1
:1080AC0040F8043B002101F0B3FB204610BD00BF9B
:1080BC005CA70D000346074A10B543F8042B01F1E9
:1080CC00100251F8044B43F8044B9142F9D10A7851
:1080DC001A7010BD5CA70D00037D042B01D1406804
:1080EC0008E0062B0AD1436853B9836843B9C368C7
:1080FC0033B90069003018BF012070470020704769
:10810C000120704710B59DF8084044EA032343EA68
:10811C00024242EA016104234160037510BD37B588
:10812C000D788B784A78C97800912946FFF7EAFFD9
:10813C0003B030BD41747047704708B50021007C16
:10814C00FFF792FA30EA200028BF4FF0FF3008BD4D
:10815C0008B50121007CFFF787FA30EA200028BF20
:10816C004FF0FF3008BD08B5007CFFF775FA20EA28
:10817C00E07008BD08B5007CFFF766FA20EAE070F5
:10818C0008BD007CFFF780BA10B51421044600F03E
:10819C00CFFE204610BD38B50446007C0D46FFF7D7
:1081AC005BFA002801DC607C28B12946207CFFF7B3
:1081BC0063FA20EAE07038BD10B504460023636012
:1081CC004FF47A73A360054B236001230846217496
:1081DC0063741146FFF728FA204610BD70A70D00F6
:1081EC000022007CFFF728BA10B5142204460021A7
:1081FC0001F00EFB204610BD30B50E4D87B001A826
:10820C00FFF7F2FF296811F0010410D12846FBF7A3
:10821C004DFF60B101AA21460748FFF7CDFF284664
:10822C00FBF749FF054A0649034800F073FE024874
:10823C0007B030BDECE30320F0E30320D8DC0320CF
:10824C0045810D0000470000F0B585B01C460E4678
:10825C0017460546FFF740F8002084424FF0040310
:10826C0003908DF80C30A5BF9DF828308DF80E309A
:10827C00034603AB009332463B460649A8BF8DF834
:10828C000D402846FFF720F8B0FA80F0400905B001
:10829C00F0BD00BF51820D0070474174704708B5A6
:1082AC00007CFFF729F920EAE07008BD08B5007CD6
:1082BC00FFF7FAF820EAE07008BD08B5007CFFF77C
:1082CC0003F930EA200028BF4FF0FF3008BD08B595
:1082DC00007CFFF7F1F830EA200028BF4FF0FF30A8
:1082EC0008BD007CFFF7F8B810B51421044600F067
:1082FC001FFE204610BD70B5457C04460E4625B9C0
:10830C00007CFFF7F9F8002805DD3146207CBDE83C
:10831C007040FFF7C1B8284670BD000010B5044688
:10832C0008461146002262604FF47A72A260054A38
:10833C0022600122207462741A46FFF7A5F82046C9
:10834C0010BD00BFA0A70D000023007CFFF7DCB818
:10835C000022FFF7F9BF007CFFF7C6B838B50C4D0B
:10836C00296811F0010411D12846FBF79FFE68B172
:10837C00084A094B09482146FFF7D0FF2846FBF76E
:10838C009AFE074A0749054800F0C4FD034838BD6A
:10839C009CE40320A0E4032018E4032004E403205D
:1083AC00D8DC0320A5820D007047F8B506461546AB
:1083BC000C468F18BC4206D0336814F8011B9B681E
:1083CC0030469847F6E72846F8BD0022007CFFF7B8
:1083DC00BBB80021007CFFF7BFB80021007CFFF781
:1083EC00C3B80021007CFFF7C7B80021007CFFF761
:1083FC00CBB810B51421044600F09AFD204610BDF0
:10840C0010B50446002363604FF47A73A360044BE9
:10841C002174084623601146FFF7C6F8204610BDAC
:10842C00D0A70D0000231A461946007CFFF774B83C
:10843C0070B50C4686B0142506462A46002101A8C4
:10844C0001F0E6F923788DF8083063680393E3684C
:10845C0004930022237A307CADF8045001A90593D3
:10846C00FFF7AAF806B070BD1FB500338DF80010E9
:10847C004FF06401039118BF0123694601928DF8F6
:10848C000830FFF7D5FF05B05DF804FB0123FFF7BB
:10849C00EBBF0022007CFFF747B80022007CFFF7FF
:1084AC004BB80121FFF7F9BF0021007CFFF774B82E
:1084BC00002211464068FFF76BB900221146406854
:1084CC00FFF776B900224068FFF76AB9002281F005
:1084DC0001014068FFF754B900231A460121406896
:1084EC00FFF746B900231A4619464068FFF738B91A
:1084FC00002211464068FFF72BB900221146406854
:10850C00FFF716B9002202214068FFF719B90023C2
:10851C001A464068FFF704B938B5054688B10468B7
:10852C004CB1A3681BB10322214620469847102169
:10853C00204600F0FDFC28461421BDE8384000F030
:10854C00F7BC38BD10B103685B681847704710B5AD
:10855C0003680446BBB15868FEF756FF78B9236828
:10856C005A7C12B95868FEF757FF23685868FEF713
:10857C005BFF20680023236028B1FFF7CDFF206844
:10858C0008B1FFF7C9FF204610BD38B50446D0F836
:10859C00C40108B1FBF77DFDD4F8C00108B1FEF7AA
:1085AC0053FFD4F8BC5135B12846FFF7D0FF042156
:1085BC00284600F0BDFC206808B1FFF7C3FF204639
:1085CC0038BD000010B5044B044640F8083BFFF7DB
:1085DC00DCFF204610BD00BFF8A70D0038B50E4CCF
:1085EC000E4B23600025022304F5E4706360A56044
:1085FC00C4F8C451C4F8C851FEF71EFF084BC4F8A8
:10860C00CC5184F8D05123602046064A0649BDE877
:10861C00384000F07FBC00BF24E50320E0A80D002B
:10862C00F8A70D00D8DC0320D1850D0037B502ACBE
:10863C00036804F8011DDD6B01224FF0FF33214666
:10864C00A84703B030BD10B40368DC6B4FF0FF33A8
:10865C00A4465DF8044B604737B502AC036804F8D8
:10866C00011DDD6B214613460122A84703B030BD26
:10867C00704738B543691A68002A044605DAB3F81E
:10868C008620B3F884309A4201D001250BE00368B0
:10869C001B699847002814BF0125002503D12368C6
:1086AC002046DB6A9847284638BD43691868C043A2
:1086BC00C00F704770470020704710B51421044656
:1086CC0000F036FC204610BDFBF7E1BC7FB516462A
:1086DC0000224260029203925A1C04460D4608D0B6
:1086EC004FF47A72B3FBF2F1029102FB11314A435F
:1086FC00039260690823009341F205026B4440F633
:10870C00FF710068FEF760FF002808DB606900233A
:10871C00324629460068FEF777FF002804DAFFF797
:10872C00AFF803686360002004B070BD10B5036837
:10873C0004469B689847A368013BA3602BB9236848
:10874C002046DB68BDE81040184710BD70B50446E4
:10875C004D69054B44F8043B8C3506460FCD0FC4D0
:10876C002B682370304670BD5CA70D0010B54369B3
:10877C00B3F88620B3F884309A42044605D0626977
:10878C00B2F884301344187910BD03681B699847FC
:10879C000028F4D14FF0FF3010BD10B54369B3F889
:1087AC008620B3F884309A42044608D06269B2F845
:1087BC008430591C1344A2F88410187910BD036836
:1087CC001B6998470028F1D14FF0FF3010BDF8B568
:1087DC0043691746B3F88620B3F884309A420546AD
:1087EC000E4606D103681B69984710B94FF0FF3449
:1087FC0014E06969B1F88430B1F88640E41ABC42DF
:10880C0028BF3C46194422460431304600F0F5FF9F
:10881C006A69B2F884302344A2F884302046F8BD4B
:10882C002DE9F0439846036893B0DB6A0D46064683
:10883C001746984712AB002443F8484D2246214670
:10884C002846FEF709FD814600283DD1009B002BF0
:10885C0056D05B69002B53D006A8FFF71DFC009B7C
:10886C005C696378022B01D1211D13E00A2B14D112
:10887C001122494601A800F0CBFFA36833BBE36883
:10888C0023BB4FF6FF702569FEF7EEFD85421DD127
:10889C0004F1140106A8FFF742FC06A8FFF71CFC24
:1088AC0000282DD0336807ADD3F82090184B0C93CB
:1088BC000FCD0DAC0FC42B6823703A4643460CA960
:1088CC003046C84781461BE0A14619E004F1080375
:1088DC0001AD1834186859682A4603C20833A342FC
:1088EC001546F7D1062301A90CA80DAD8DF814304F
:1088FC00FFF7E0FB0FCD07AC0FC42B682370CCE760
:10890C000098FEF7A1FC484613B0BDE8F08300BF09
:10891C005CA70D0042690023A2F884304269A2F8DA
:10892C00863070472DE9F0411E4603680C468AB02C
:10893C00DB6A054617469847237DD5F81480042B2F
:10894C000CBF02200A2006220121FEF765FEC8F8A2
:10895C0000006B691B68002B18DB2846FFF7DAFF59
:10896C00D6B1002303A9F0B20393ADF81030FEF793
:10897C0013FD58B968690623009341F20B0203AB4F
:10898C0040F6FF710068FEF71FFE28B12B682846E1
:10899C00DB6A002498473BE01C263246002103A8E2
:1089AC0000F036FF237D8DF80C60042B0CD10223D4
:1089BC0038468DF80D30FEF75FFDADF80E0060689F
:1089CC00FEF752FD049013E00A2338468DF80D3063
:1089DC00FEF752FD05AEADF80E00231D04F1140791
:1089EC0018685968324603C20833BB421646F7D1A1
:1089FC006B691C2203A91868FEF7F6FD0028C5D187
:108A0C0004340FCC6D698C350FC523682B70012491
:108A1C0020460AB0BDE8F08110B5436904461868D9
:108A2C00002801DBFEF7D8FD63694FF0FF321A60B6
:108A3C006069112200218C3000F0EAFE2046BDE86E
:108A4C001040FFF767BF000030B54269B2F88630BE
:108A5C008BB004461BB1B2F884209A4240D06369B3
:108A6C00186800283FDBB3F886507F2D3BD8191DC2
:108A7C00C5F1800208232944FEF7BEFD00280CDD59
:108A8C006369B3F886200AB9A3F884206269B2F846
:108A9C0086301844A2F8860025E0FEF7F1FE036844
:108AAC000B2B20D0FEF7ECFE03680B2B1BD02023E6
:108ABC00002502930395FEF7E3FE036801930E4B2A
:108ACC00009302AA2B460D493220FEF7EDFD636997
:108ADC001868FEF781FD63694FF0FF321A6002E0FF
:108AEC00FFF718FFBBE76269B2F88630B2F8840072
:108AFC00181A0BB030BD00BF93A80D008CA80D0048
:108B0C0010B5002304460160A0F88430A0F886302C
:108B1C008830FFF7C1FA204610BD00004FF47A727E
:108B2C0070B500238260144A436002604361836124
:108B3C000446A0200E46FBF7A8FA054610B13146B4
:108B4C00FFF7DEFF1420FBF7A0FA034628B1012241
:108B5C0042608260094A02600561A0696561A36197
:108B6C0028B14368013B43600BB9FFF7DFFD20469A
:108B7C00FFF7D0FE204670BD48A80D002CA80D00B4
:108B8C0010B54FF0FF310446FFF7C8FF204610BD6B
:108B9C0010B504460068002801DBFEF71DFD2046D9
:108BAC0010BD10B504692046FFF7F2FF24B1204632
:108BBC00BDE81040FBF76BBA10BD002211464068AF
:108BCC00FEF7C6BD002211464068FEF7E1BD00224B
:108BDC0011464068FEF7ECBD00224068FEF7E0BD90
:108BEC00002281F001014068FEF7CABD00231A463D
:108BFC0019464068FEF7BCBD00231A46194640686A
:108C0C00FEF7AEBD002211464068FEF791BD002272
:108C1C0002214068FEF794BD00231A464068FEF717
:108C2C007FBD0000024B04225A60024A1A60704752
:108C3C00F8E60320ACA80D0000231A464068FEF7A6
:108C4C006FBD002202214068FEF77ABD002211465A
:108C5C004068FEF76DBD002211464068FEF778BDF6
:108C6C0000231A4619464068FEF77ABD00231A46BF
:108C7C0019464068FEF77CBD002281F00101406876
:108C8C00FEF77EBD00224068FEF78ABD0022114629
:108C9C004068FEF78DBD002211464068FEF778BD96
:108CAC002DE9F043002495B016460D460746FFF714
:108CBC00F3F9214620220CA8009400F0A9FD4023D2
:108CCC000C9321466B460CAA3046FEF7C5FA0446B7
:108CDC00002844D1024601216868FEF739FD0221C3
:108CEC00804622466868FEF733FD009E8146214689
:108CFC00002E34D0002932D17368022B02D00A2BFB
:108D0C0009D02AE0B8F1000F27D071693846043138
:108D1C00FFF705FA20E0B9F1000F1ED0746911229B
:108D2C0001A800F075FD06238DF8143001AD04F197
:108D3C0008031834186859682A4603C20833A3423A
:108D4C001546F7D101A906A807ADFFF7B3F90FCD6A
:108D5C003C1D0FC42B6823700121F669C8E70098ED
:108D6C00FEF772FA384615B0BDE8F083024B034AA1
:108D7C001A6000225A60704700E70320E0A80D003B
:108D8C0070B5184E316811F0010504460AD1304611
:108D9C00FBF78CF930B129461348FEF7BDFD304680
:108DAC00FBF789F91048FEF774FE28B1A4F10B0308
:108DBC00022B01D8002070BD00F086F8FFF774FB81
:108DCC0008B1012CF6D9FFF7C9FAFFF7C4FA18B1AC
:108DDC00A4F10903012BEDD9232C8CBF0020012019
:108DEC0070BD00BFDCDC0320E0DC0320232838B599
:108DFC0004460D460AD8FF2908D0FFF7C1FF28B159
:108E0C0029462046BDE83840FEF73EBA38BD38B595
:108E1C0004460D46FEF740FAFF2810D0062804D869
:108E2C004D2323FA00F0C30709D42046FFF7A8FF0F
:108E3C0028B129462046BDE83840FEF735BA38BD82
:108E4C0010B50446FEF728FA0438C0B2012808D938
:108E5C002046FFF795FF20B12046BDE81040FEF7F5
:108E6C002BBA002010BD0D2810B504469CBF0E3443
:108E7C00A4B22046FFF784FF50B103212046FEF731
:108E8C00FBF9032804D12046BDE81040FEF72CBAAC
:108E9C00002010BD70B5044614252A46094E002149
:108EAC0000F0B6FC258020253146A56025612846BA
:108EBC0000F040F831466060284600F03BF8E06076
:108ECC00204670BD0CA90D0030B50E4D296811F06F
:108EDC00010487B013D12846FBF7E8F878B101A854
:108EEC00FFF7D8FF01AA21460748FFF789FA284661
:108EFC00FBF7E1F8054A0649034800F00BF8024875
:108F0C0007B030BD0CE7032010E70320D8DC0320AA
:108F1C00B5830D000B460146184600F059BB000006
:108F2C00024B1868BFF35F8F704700BF24E7032024
:108F3C00FBF7ADB800F000B810B5002814BF04461C
:108F4C0001242046FEF764FC20B9FFF7E9FF08B1C5
:108F5C008047F6E710BD0000184B1A68D1075CBFBC
:108F6C0001221A60164B1A68D2075CBF01221A60E4
:108F7C00144B1A68D0075CBF01221A60124B1A6896
:108F8C00D1075CBF01221A60104B1A68D2075CBF74
:108F9C0001221A600E4B1A68D0075CBF01221A60BE
:108FAC000C4B1A68D1075CBF01221A600A4B1A6875
:108FBC00D2075CBF01221A60704700BF44E7032050
:108FCC0040E703203CE7032038E7032034E7032085
:108FDC0030E703202CE7032028E70320244B1A68F2
:108FEC00D0075CBF01221A60224B1A68D1075CBF04
:108FFC0001221A60204B1A68D2075CBF01221A604A
:10900C001E4B1A68D0075CBF01221A601C4B1A68F1
:10901C00D1075CBF01221A601A4B1A68D2075CBFD9
:10902C0001221A60184B1A68D0075CBF01221A6023
:10903C00164B1A68D1075CBF01221A60144B1A68D0
:10904C00D2075CBF01221A60124B1A68D0075CBFB2
:10905C0001221A60104B1A68D1075CBF01221A60FA
:10906C000E4B1A68D2075CBF01221A60704700BF12
:10907C0074E7032070E703206CE7032068E7032004
:10908C0064E7032060E703205CE7032058E7032034
:10909C0054E7032050E703204CE7032048E7032064
:1090AC00244B1A68D0075CBF01221A60224B1A6845
:1090BC00D1075CBF01221A60204B1A68D2075CBF33
:1090CC0001221A601E4B1A68D0075CBF01221A607D
:1090DC001C4B1A68D1075CBF01221A601A4B1A6824
:1090EC00D2075CBF01221A60184B1A68D0075CBF0C
:1090FC0001221A60164B1A68D1075CBF01221A6054
:10910C00144B1A68D2075CBF01221A60124B1A6802
:10911C00D0075CBF01221A60104B1A68D1075CBFE4
:10912C0001221A600E4B1A68D2075CBF01221A602A
:10913C00704700BFA4E70320A0E703209CE70320AF
:10914C0098E7032094E7032090E703208CE70320A3
:10915C0088E7032084E7032080E703207CE70320D3
:10916C0078E70320184B1A68D1075CBF01221A60FC
:10917C00164B1A68D2075CBF01221A60144B1A688E
:10918C00D0075CBF01221A60124B1A68D1075CBF72
:10919C0001221A60104B1A68D2075CBF01221A60B8
:1091AC000E4B1A68D0075CBF01221A600C4B1A6870
:1091BC00D1075CBF01221A600A4B1A68D2075CBF48
:1091CC0001221A60704700BFC4E70320C0E70320E8
:1091DC00BCE70320B8E70320B4E70320B0E7032083
:1091EC00ACE70320A8E7032081F0004102E000BFB8
:1091FC0083F0004330B54FEA41044FEA430594EA4B
:10920C00050F08BF90EA020F1FBF54EA000C55EA85
:10921C00020C7FEA645C7FEA655C00F0E2804FEA56
:10922C005454D4EB5555B8BF6D420CDD2C4480EA38
:10923C00020281EA030382EA000083EA010180EA68
:10924C00020281EA0303362D88BF30BD11F0004FB6
:10925C004FEA01314FF4801C4CEA113102D04042EC
:10926C0061EB410113F0004F4FEA03334CEA133327
:10927C0002D0524263EB430394EA050F00F0A7803F
:10928C00A4F10104D5F1200E0DDB02FA0EFC22FA3A
:10929C0005F2801841F1000103FA0EF2801843FA2E
:1092AC0005F359410EE0A5F120050EF1200E012A1F
:1092BC0003FA0EFC28BF4CF0020C43FA05F3C0185D
:1092CC0051EBE37101F0004507D54FF0000EDCF1D6
:1092DC00000C7EEB00006EEB0101B1F5801F1BD37F
:1092EC00B1F5001F0CD349085FEA30004FEA3C0C83
:1092FC0004F101044FEA445212F5800F80F09A8079
:10930C00BCF1004F08BF5FEA500C50F1000041EB7C
:10931C00045141EA050130BD5FEA4C0C404141EB80
:10932C00010111F4801FA4F10104E9D191F0000FA7
:10933C0004BF01460020B1FA81F308BF2033A3F12A
:10934C000B03B3F120020CDA0C3208DD02F1140C21
:10935C00C2F10C0201FA0CF021FA02F10CE002F15C
:10936C001402D8BFC2F1200C01FA02F120FA0CFC55
:10937C00DCBF41EA0C019040E41AA2BF01EB04519E
:10938C00294330BD6FEA04041F3C1CDA0C340EDC9C
:10939C0004F11404C4F1200220FA04F001FA02F3DF
:1093AC0040EA030021FA04F345EA030130BDC4F19D
:1093BC000C04C4F1200220FA02F001FA04F340EA92
:1093CC000300294630BD21FA04F0294630BD94F043
:1093DC00000F83F4801306BF81F480110134013D2A
:1093EC004EE77FEA645C18BF7FEA655C29D094EA9B
:1093FC00050F08BF90EA020F05D054EA000C04BF19
:10940C001946104630BD91EA030F1EBF0021002003
:10941C0030BD5FEA545C05D14000494128BF41F0A2
:10942C00004130BD14F580043CBF01F5801130BD06
:10943C0001F0004545F0FE4141F470014FF0000091
:10944C0030BD7FEA645C1ABF194610467FEA655C42
:10945C001CBF0B46024650EA013406BF52EA0335E4
:10946C0091EA030F41F4002130BD00BF90F0000FD2
:10947C0004BF0021704730B54FF4806404F132040E
:10948C004FF000054FF0000150E700BF90F0000FC7
:10949C0004BF0021704730B54FF4806404F13204EE
:1094AC0010F0004548BF40424FF000013EE700BFBE
:1094BC0042004FEAE2014FEA31014FEA02701FBF4E
:1094CC0012F07F4393F07F4F81F06051704792F020
:1094DC00000F14BF93F07F4F704730B54FF460749A
:1094EC0001F0004521F0004120E700BF50EA0102E5
:1094FC0008BF704730B54FF000050AE050EA010292
:10950C0008BF704730B511F0004502D5404261EB01
:10951C0041014FF4806404F132045FEA915C3FF442
:10952C00DCAE4FF003025FEADC0C18BF03325FEADB
:10953C00DC0C18BF033202EBDC02C2F1200300FA90
:10954C0003FC20FA02F001FA03FE40EA0E0021FAB5
:10955C0002F11444C1E600BF094B70B51C68256CC0
:10956C0006463DB91A20FEF753F91A222064294603
:10957C0000F04EF9216C3046BDE8704000F002B8A6
:10958C0088DC032010B50C4641690369826986B0FA
:10959C0001F26C7104910168039141680291816838
:1095AC000191C1680091074903EB43030B44064941
:1095BC0002EB42020A4420460449FEF741F92046D8
:1095CC0006B010BD22A90D000DA90D0046A90D0075
:1095DC0010B5054C13462CB10A4601460220AFF3D8
:1095EC00008010BD204610BD0000000038B5074BB0
:1095FC001C68E36B05461BB92420FEF709F9E063F0
:10960C00E16B2846BDE8384000F002B888DC032046
:10961C002DE9F0410C46804600F068FC21460746D7
:10962C00404600F067FC466906F26C76B3070446C8
:10963C0005D1642296FBF2F302FB13634BB94FF492
:10964C00C87596FBF5F305FB1365B5FA85F35B0955
:10965C0000E001235F4A302505FB032500F07AFA70
:10966C0000F07AFA5C4B1B68F3B17B689E4205D123
:10967C003968D8F80030FA6941B90AE0304600F090
:10968C00C1F90028F4D14FF0FF330DE0934208DB11
:10969C0001E0934207DABA6B9342ACBF002301237B
:1096AC0002E0002300E001232362236A012B0CBF9C
:1096BC00F96B396A4FF461633C2091FBF3F603FBC1
:1096CC001613616893FBF0F200FB12302368891AC1
:1096DC00A26861601B1A921B3B2B2360A26003DD06
:1096EC00013161603C3B04E0002B03DA013961601D
:1096FC003C33236063683B2B03DD0132A2603C3BAF
:10970C0004E0002B03DA013AA2603C336360A368E7
:10971C00172B22DDE2690132E261A2690132062ACD
:10972C00C8BF0022A261E268183B0132A360236922
:10973C00E26055F823108A4246DD01330C2B0CBF36
:10974C0063692361A2EB0102E26001BF01330022D5
:10975C002261636108BFE26136E0002B34DAE26912
:10976C00013AE261A269013A48BF0622A261E268AD
:10977C001833013AE260A36032BB2369013B01D488
:10978C0023611DE00B23236163695A1E12F0030F42
:10979C00626103F26B7305D1642193FBF1F201FB5F
:1097AC0012324AB94FF4C87193FBF1F201FB123338
:1097BC00B3FA83F35B0900E0012303F5B673E361AD
:1097CC00236955F82330E36000F0C5F92046BDE865
:1097DC00F08100BFCCAA0D00E4E7032010B50139DD
:1097EC000244904207D010F8013B11F8014FA342FC
:1097FC00F7D0181B10BD002010BD10B5431E0A4435
:10980C00914204D011F8014B03F8014FF8E710BD59
:10981C0002440346934202D003F8011BFAE7704757
:10982C0038B5124B1C68A36B0546D3B91820FDF74D
:10983C00EFFF43F20E33A06303804AF6CD3343802F
:10984C0041F2342383804EF26D63C3804DF6EC639A
:10985C000381052343810B23838101220023C0E96B
:10986C000423A36B00221D615A6138BD88DC0320E0
:10987C0010F8012B11F8013B012A28BF9A42F7D0AE
:10988C00D01A7047034611F8012B03F8012B002A5C
:10989C00F9D17047034613F8012B002AFBD1181A93
:1098AC000138704730B582B1451E013915F8013FBA
:1098BC0011F8014FA34206D1EC431444E04201D00D
:1098CC00002BF3D11C46181B30BD104630BD10B513
:1098DC00034642B111F8014B03F8014B013A002C3D
:1098EC00F7D11A4400E010BD934202D003F8014BAB
:1098FC00FAE710BD2DE9F04780463C48D0F80090BF
:10990C000E46354615F8014B09EB0400407800F083
:10991C00080000F0FF0708B12E46F2E72D2C03D10A
:10992C00B51C7478012703E02B2C04BF7478B51C8C
:10993C0013B1102B0AD153E0302C4FD1287800F002
:10994C00DF00582845D16C78102302354FF0FF3CCE
:10995C000026BCFBF3FC03FB0CFA6FEA0A0A304648
:10996C0009EB040E9EF801E01EF0040F01D0303C10
:10997C000BE01EF0030E1AD0BEF1010F0CBF4FF01E
:10998C00370E4FF0570ECEEB0404A3420FDD002E22
:10999C0008DB604506D801D1544503DC03FB0040CD
:1099AC00012601E04FF0FF3615F8014BD8E7002EE9
:1099BC0007DA2223C8F800304FF0FF302AB9BDE88F
:1099CC00F08707B1404272B106B1691E1160BDE863
:1099DC00F0873024002BB9D10823B7E70A23B5E769
:1099EC00302CABD0B2E7BDE8F08700BF24DC0320FD
:1099FC0013460A46014602480068FFF77BBF00BFCA
:109A0C0088DC03202DE9F74F044600F06FFA40F292
:109A1C00B1739C4240F396806FF4F663E318A4F2A2
:109A2C00B2729B1040F26D1505FB0235A4F26D72FB
:109A3C006FF0630392FBF3F36FF4C8622B44A51829
:109A4C004FF4C87295FBF2F51D44642394FBF2F7B6
:109A5C0094FBF3F602FB174703FB164600F13803A1
:109A6C00B7FA87FE019304F0030344604FEA5E1ECD
:109A7C00014600934FF0070C0B7A4A2B0ED14B6921
:109A8C00009AEC1802B906B927B93B2BD4BF0023B6
:109A9C00012300E000232344013B3FE0442B02D18F
:109AAC004B692B443AE0009B2BB9002E0CBFF046BF
:109ABC004FF0010800E0F046244BCC68302202FB4A
:109ACC000838A8F1040AA9460123A34204DA5AF87B
