:02000002D0002C
:1040000000400D0098BA0D00000006000C000501EC
:084010000401E80500000000B6
:044018006CAD0D007E
:10401C0009480A49884208B505D0094A824202D0AB
:10402C00121A06F06AFA0748074A0021121A06F01B
:10403C008AFA014808BD00BF04DC0320B4B90D00A6
:10404C00C0DC0320C0DC0320F0E7032070B504F0D3
:10405C00DFFA074C074BE41AA40800251E46A542BC
:10406C0004D056F8253098470135F8E770BD00BFED
:10407C00A4B90D000CB90D0000F002B908B500F0A0
:10408C00E9FCBDE8084004F085BA03F0C5BD03F0B7
:10409C00CBBD03F0C9BD000008B5034A00210C20BC
:1040AC0003F0FEFCFEE700BFCD770D000078B0FA00
:1040BC0080F040097047012303707047037C03F0C4
:1040CC000803024603F0FF002BB1D36A506A181A9A
:1040DC0048BF6FF000407047024A137883F0010329
:1040EC001370704744E30320704770477FB5024656
:1040FC0008461379956833B13DB90C4904B0BDE855
:10410C00704004F027B80A4B00E00A4B167B0A4CAF
:10411C000A49527B0292012E08BF2146019100955B
:10412C00074A002104F02CF904B070BDCFAD0D008E
:10413C00BDB10D00BEAD0D00C7AD0D00CBAD0D007A
:10414C00E5AD0D00103002F0B3BC103002F024BC11
:10415C00103002F039BB07B501220DF10701103008
:10416C0002F07FFA01280CBF9DF807004FF0FF30DA
:10417C0003B05DF804FB10B53421044605F0FCF9DE
:10418C00204610BD08B5002003F036FD28B103F021
:10419C0023FD80F00100C0B208BD012008BD000065
:1041AC0038B584690A4B036005467CB16368013BF2
:1041BC0063605BB9236820469B689847A368013B02
:1041CC00A3601BB923682046DB689847284638BD96
:1041DC00ECB50D0007B502AB012203F8011D103040
:1041EC00194602F065FC03B05DF804FB10B50446FB
:1041FC00FFF7D6FF20461C2105F0BEF9204610BD66
:10420C0030B585B01C4B009313798DF8043093684E
:10421C000293137B8DF80C3000F58C65537B8DF875
:10422C000D3004460A466B4600F26C41284602F0FB
:10423C0087FFF0B1256004F23C45284602F0E2FB12
:10424C000121204602F025FE014668B12146284690
:10425C0002F0EFF968B194F83C3413F0700316BF18
:10426C00064B18461D6005E0204602F012FE0028A1
:10427C00ECD1002005B030BD88AD0D009CE30320CF
:10428C0070B586B004F0DAFA4FF4165104F0CAFA9D
:10429C00642004F041F904F083FB4FF4165104F050
:1042AC0079FB642004F038F905F032F904F0DCFBFA
:1042BC002A4B2B482B4E00241C6000F0A7FF2848EB
:1042CC0001F0EDF9264800F0D7FF7621264800F0E2
:1042DC0061FF264803F05DF90321308805F0AAF848
:1042EC00234B02930125234B23488DF80C4002AA43
:1042FC000E2104938DF814508DF81540FFF780FFB4
:10430C0028B904F09BFA1D4903F037FF24E004F0B0
:10431C0095FA1B4903F031FF04F042FB2A46014693
:10432C00184801F0E3FD28B904F088FA164903F0A7
:10433C0024FFFEE704F082FA144903F01EFF04F098
:10434C007DFA134903F019FF308800944FF0FF33C6
:10435C002A46104904F09AFA06B070BDD4DC03204A
:10436C0048E3032004DC0320E0DC0320B4E2032058
:10437C0088AD0D0080F0FA02F8DD032003AE0D00CD
:10438C001DAE0D00D4E2032028AE0D003DAE0D0095
:10439C004BAE0D00E5400D0007B5112005F087F878
:1043AC00FF2300934FF480520A234FF4487104F01A
:1043BC00A7F8024B186003B05DF804FBD0E20320B1
:1043CC0008B5144B14481B78EBB101F068F94FF4A5
:1043DC0000420021104801F0F1F84FF40042012195
:1043EC000D4801F0EBF84FF4004202210A4801F0AD
:1043FC00E5F80A4B0848197801F02BF90648BDE896
:10440C00084000F039BF01F04AF90348BDE8084004
:10441C0000F032BF44E3032048E30320D0E2032042
:10442C0008B5134B13481B78D3B101F038F9124A75
:10443C001048002101F0C2F80F4A0E48012101F08A
:10444C00BDF80D4A0B48022101F0B8F80B4B094896
:10445C00197801F0FEF80748BDE8084000F00CBFE1
:10446C0001F01DF90348BDE8084000F005BF00BF8E
:10447C0044E3032048E3032000FFFF00D0E20320C5
:10448C0008B5134B13481B78D3B101F008F9124A45
:10449C001048002101F092F80F4A0E48012101F05A
:1044AC008DF80D4A0B48022101F088F80B4B094896
:1044BC00197801F0CEF80748BDE8084000F0DCBEE2
:1044CC0001F0EDF80348BDE8084000F0D5BE00BF90
:1044DC0044E3032048E3032000A5FF00D0E20320BF
:1044EC0008B5144B14481B78EBB101F0D8F84FF415
:1044FC007F020021104801F061F84FF47F02012186
:10450C000D4801F05BF84FF47F0202210A4801F0DC
:10451C0055F80A4B0848197801F09BF80648BDE895
:10452C00084000F0A9BE01F0BAF80348BDE8084005
:10453C0000F0A2BE44E3032048E30320D0E20320B2
:10454C0038B5174801F0BEF840BB04F077F91549AF
:10455C0003F000FE124801F010FB0446B8B104F061
:10456C006DF9214605460E4801F0E6F9014628464C
:10457C0003F003FE04F062F90B4903F0FEFD08485A
:10458C0001F0E8F941F2883003F0C6FFE2E704F0ED
:10459C0055F90649BDE8384003F0EFBD38BD00BF02
:1045AC0024DD032063AE0D007AAE0D00A3AE0D002A
:1045BC0010B503F015F9124B1A68801A43F69822BD
:1045CC0090421C461AD90F4801F0FAF898B10E4BDC
:1045DC00186805F091FA41EC100B02210B4801F020
:1045EC003BFB0B4B0B48196801F034FB0A4B0B4897
:1045FC00196801F02FFB03F0F3F8206010BD00BF29
:10460C00D4DC032024DD0320B0E203207CE3032070
:10461C00FCE203207CE20320D8DC0320A4E203208C
:10462C0010B51548154C02F0E3FF2060124802F05B
:10463C00C5FF134B134A186012682368934203D1C9
:10464C00114B04221A6010BD104A1268934203D118
:10465C000D4B03221A6010BD0D4A1268934203D110
:10466C00094B02221A6010BD0A4A1268934202BF1B
:10467C00054B01221A6010BDB4E203205CE3032059
:10468C0000E30320B0B30D00D8DC0320ACB30D0065
:10469C00A4B30D00A8B30D0013B504F039FF5021DD
:1046AC0004F01DFA04F034FF0368214C9B680021D0
:1046BC00984704F02DFF002104F014FA04F028FFB1
:1046CC0002225021012304F0F1F904F021FF0368C8
:1046DC005B699847206004F01BFF03685B6998478F
:1046EC002368606003F00F0300EB0320114B18608C
:1046FC0005F0F0F90022104B05F052FA00220F4B96
:10470C0005F09CF805F044FD0D4B07EE900A18607F
:10471C00FDEEE77A042300930023194640F2DE32C3
:10472C0017EE900A03F0ECFE064B186002B010BDB9
:10473C0038E30320DCDC03200040CF3F00002440A2
:10474C0094E30320FCE203202DE9F0437F4A804BE5
:10475C00106819688842914695B07E4A7E4904D10A
:10476C0015680C68A54200F0ED8018600B681360AA
:10477C004FF47A730993794B0793002744F2022381
:10478C00774A78498DF82C700BA80BAD8DF82D70ED
:10479C00089702F03EF90FCD734CDFF8BC8104F1A1
:1047AC0010060FC60FCD0FC62B683360089B6360D5
:1047BC00099BA3600A9BE360D9F80030634D022B80
:1047CC00D8F8003026DD032B79DCFFF729FE237C9B
:1047DC00B3B104F033F82B68644A394603F0D0FDCA
:1047EC00634B00932B68634A3946204603F0C8FD9F
:1047FC006148022101F09FFB41F2941003F08CFE02
:10480C00237C002B40F09B8004F018F85B4903F0EC
:10481C00B4FC92E0022B25DDFFF732FE237CC3B102
:10482C0004F00CF8D8F80030554A394603F0A8FDCE
:10483C004F4B0093534AD8F800303946204603F0CA
:10484C009FFD4D48012101F076FB41F6641003F009
:10485C0063FE237C002B72D103F0F0FF4A4903F076
:10486C008CFC6AE0FFF7ACFD237CFBB103F0E6FFA8
:10487C00464B0646186805F03FF9CDE902012B6856
:10488C000093434AD8F800303946304603F078FD9F
:10489C00374B404A3946204603F072FD3648052115
:1048AC0001F049FB41F2941003F036FE237C002BFF
:1048BC0045D103F0C3FF384903F05FFC3DE0334EB4
:1048CC00DFED367A96ED007AB4EEE77AF1EE10FA77
:1048DC0033DBFFF705FE237C43B303F0AFFF8146C8
:1048EC00306805F009F9CDE902012B682C4A0093D8
:1048FC003946D8F80030484603F042FD1C4B04936F
:10490C00306805F0F9F8CDE902012B680093254ACF
:10491C00D8F800303946204603F032FD16480621FF
:10492C0001F009FB41F6641003F0F6FD237C33B96A
:10493C0003F084FF1C4903F020FC237C13B11B48BB
:10494C0002F060F815B0BDE8F08300BFD8DC03209E
:10495C0040E30320D0DC0320FCE2032094AD0D00E7
:10496C00B3AE0D0034E2032004E30320BFAE0D0010
:10497C0060E30320E2AE0D00D4E2032007AF0D008C
:10498C0016AF0D0034AF0D0052AF0D00B0E2032096
:10499C0063AF0D0090AF0D00C5AF0D000000C84215
:1049AC00E3AF0D000FB00D0043B00D0014E3032076
:1049BC0000B58DB02449684603F02AFB224904A8AF
:1049CC0003F026FBB9EE080A03F02AFD03F004F904
:1049DC0010B1002003F008F9FFF7D4FB10B903F075
:1049EC00F3F8F9E7FFF7CEFB03F079FD014608A8D1
:1049FC0003F032FD08A9684603F03AFB08A803F05F
:104A0C00C0FA13230B22694608A803F051FB08A92E
:104A1C0004A803F02DFB08A803F0B3FA68460023A2
:104A2C0019220A4903F02CFB00230922084904A887
:104A3C0003F026FB04A803F0A4FA684603F0A1FADD
:104A4C000DB05DF804FB00BFBDB10D0060E30320A9
:104A5C0088E30320184B194A13B51A60FFF79CFC26
:104A6C00FFF76EFDFFF7A4FF03F0E8FE144B0A22DC
:104A7C001978044603F08BFB204603F072FBFFF71A
:104A8C000BFEFFF7CDFDFFF75FFEFFF791FD03F087
:104A9C00D5FE0C4B022193ED000A03F062FC03F0EF
:104AAC00CDFE094B094A1B680093094B00211B687A
:104ABC0003F066FC02B010BDB0E203200000DC4243
:104ACC0044E3032094E30320D8DC03205CB00D0006
:104ADC00FCE2032010B5D421044604F04DFD204621
:104AEC0010BD000073B502F0C3FD494B494E4FF4A5
:104AFC00FA729A60484A1168C3F816105168128904
:104B0C00C3F81A10DA830221002283F8211083F8EB
:104B1C00202083F8262083F82720404B642183F83B
:104B2C0060143F49C3F87014012183F87414316880
:104B3C00DA7111F0010583F83C2483F83D2483F8E5
:104B4C006A24C3F8782483F87C2483F87D241C46DB
:104B5C000AD13046FFF7AAFA30B12946314803F0A2
:104B6C00E7F83046FFF7A7FA2F482E4B2F4EC4F824
:104B7C006C3400254FF47A732D4A2E490574457414
:104B8C00456083602C4B036004F0E8FC30462B4CF2
:104B9C0004F01AFB264A2A49304604F0DFFC294B64
:104BAC00009340F25B72284B2849204600F03EFEF1
:104BBC00274B1F4A274923602046C4F8D06004F0D5
:104BCC00CDFC2B462146244A244801F02FF82B46D5
:104BDC002146234A234801F029F82B462146224A34
:104BEC00224801F023F8022312220321204800F06E
:104BFC0032FB0F4A1F491E4804F0B0FC10211E481E
:104C0C0002F0C2FC1D4802B0BDE8704000F038B89C
:104C1C00D4E20320C4DC0320B4AD0D00F8DD032086
:104C2C0088AD0D00C8DC032004E3032088E20320D8
:104C3C00C0DC0320F5400D0094AD0D0024DD0320F5
:104C4C00AD410D008DB00D0071B00D007DB00D00AB
:104C5C0048B10D00F7400D00AEB00D007CE3032011
:104C6C00D1B00D007CE20320F5B00D00A4E20320CE
:104C7C0048E30320C3510D00B4E20320E0DC032021
:104C8C00FF22027442748274C274704738B5094DA5
:104C9C00296811F001040AD12846FFF707FA30B150
:104CAC002146054803F044F82846FFF704FA024869
:104CBC0038BD00BFC4DC0320C8DC03202DE9F04163
:104CCC0090F91330013305460F4606D1FFF7DEFF8E
:104CDC003946BDE8F04103F0CFB8072600244FF069
:104CEC00010895F91300002180B204F0B4FB95F98A
:104CFC00110008FA06F1394080B204F0ACFB95F9CA
:104D0C001300012180B204F0A6FB95F91200640097
:104D1C0080B2E4B204F0B8FB08B144F0010416F11F
:104D2C00FF36DED22046BDE8F08108B5FFF7AEFFB6
:104D3C00BDE8084003F017B810B50446FFF7A6FF0E
:104D4C002146BDE8104003F027B8000030B590F9BB
:104D5C001030013385B004460D461DD10179006831
:104D6C0003F0B9FE2068036829469B6898472068C1
:104D7C0003F0BCFE02222179206803F0A9FE206812
:104D8C0003685B6998470546206803685B69984728
:104D9C0040EA052085B235E090F9133001330ED18D
:104DAC001A4B1B4A009302920023012268468DF88D
:104DBC0004308DF80C208DF80D30FFF7BDFF94F901
:104DCC001000002180B204F046FB45F08001204623
:104DDC00FFF774FF00212046FFF770FF0021054606
:104DEC002046FFF76BFF40EA052085B294F91000CE
:104DFC00012180B204F02FFB94F91330013301D15F
:104E0C00FFF793FF284605B030BD00BF88AD0D00FD
:104E1C0020A1070008B5FFF799FF40BA80B208BD82
:104E2C0030B590F91030013385B004460D4616D1DB
:104E3C000179006803F04FFE2068036829469B68DF
:104E4C009847206803F052FE01222179206803F074
:104E5C003FFE206803685B699847C5B22EE090F965
:104E6C00133001330ED1174B174A009302920023D3
:104E7C00012268468DF804308DF80C208DF80D3029
:104E8C00FFF75AFF94F91000002180B204F0E3FA06
:104E9C0045F080012046FFF711FF00212046FFF767
:104EAC000DFF054694F91000012180B204F0D3FAED
:104EBC0094F91330013301D1FFF737FF284605B0C1
:104ECC0030BD00BF88AD0D0020A1070008B5F3214F
:104EDC00FFF7A6FF00F0010008BD38B58821044695
:104EEC00FFF798FF8A21A0822046FFF793FF8C21C1
:104EFC00E0822046FFF78EFF8E2120832046FFF7AD
:104F0C0089FF902160832046FFF784FF9221A083C4
:104F1C002046FFF77FFF9421E0832046FFF77AFFBE
:104F2C00962120842046FFF775FF98216084204647
:104F3C00FFF770FF9A21A0842046FFF76BFF9C219E
:104F4C00E0842046FFF766FF9E2120852046FFF770
:104F5C0061FFA12160852046FFF762FFE12184F803
:104F6C002C002046FFF756FFE321E0852046FFF793
:104F7C0057FFE42184F830002046FFF751FFE5216C
:104F8C0005462046FFF74CFF00F00F0040EA0510E5
:104F9C006086E6212046FFF743FFE52105462046C3
:104FAC00FFF73EFF001140EA0510A086E7212046DE
:104FBC00FFF736FF84F8360038BD00007FB590F956
:104FCC001030013304460E46154611D101790068A4
:104FDC0003F081FD2068036831469B689847206880
:104FEC00036829469B689847206803F07FFD2DE0F5
:104FFC0090F9133001330ED1154B164A00930292DF
:10500C000023012268468DF804308DF80C208DF8B1
:10501C000D30FFF791FE94F91000002180B204F0DE
:10502C001AFA06F07F012046FFF748FE2946204673
:10503C00FFF744FE94F91000012180B204F00BFA42
:10504C0094F91330013301D1FFF76FFE04B070BD3A
:10505C0088AD0D0020A10700F8B590F83C509DF8E4
:10506C0018609DF81CE09DF8207061F3871562F3C1
:10507C00020563F3C50590F8403080F83C5066F3A8
:10508C00471380F8403090F838306EF3C50304466F
:10509C0067F3020380F8383006F00702F221FFF7BD
:1050AC008DFF94F83820C2F3C20302F007019B0075
:1050BC0043EA411343EAD2122046F521FFF77EFF63
:1050CC0094F83C20C2F3C20302F007019B0043EAB0
:1050DC00411343EA92122046F421BDE8F840FFF751
:1050EC006DBF30B5044690F91000421C85B003D159
:1050FC00206803F0B9FC22E0012180B204F0ABF986
:10510C0094F91000012180B204F094F994F9130081
:10511C00431C04D1FFF7BAFD02F014FE0FE001218D
:10512C0080B204F087F994F91100012180B204F0E7
:10513C0081F994F91200002180B204F07BF9D0219E
:10514C002046FFF76DFE6028A06020D12046B622D5
:10515C00E021FFF733FF4FF4967003F0DDF92046A2
:10516C00FFF7B4FE054608B16420F6E72046FFF7CA
:10517C00B4FE052300931A4603212046029501959F
:10518C00FFF76AFF642003F0C7F9012000E000205C
:10519C0005B030BD10B50171044604F0B9F92060BA
:1051AC002046BDE81040FFF79CBF02F061BA02F048
:1051BC000FBB02F005BB10B50446C06808B102F085
:1051CC0033FD23781BB10021E07904F033F920463C
:1051DC0010BD38B50446C0680D4608B102F024FD78
:1051EC00A379062B0CBF0420032010FB05F080B222
:1051FC00A08002F011FDE06028B1A288002105F02A
:10520C00A2F9658038BDA080608038BD10B5044619
:10521C000121C07904F00EF90021E07904F01BF9AA
:10522C000123237010BD38B5037805460C461BB11D
:10523C000021C07904F0FEF82B78EC7153B1A4B2C4
:10524C002046012104F0F6F820460021BDE8384044
:10525C0004F001B938BD70B50025044616468371BB
:10526C0005700572C5600561FFF7B3FF2046314636
:10527C00FFF7D9FF204670BDC368002B00F08B816F
:10528C002DE9F04F8379023BDBB2042B9CBFC44A5F
:10529C0052F8234087B0054688BF3224FFF787FFBA
:1052AC002B69C01AA042F9D3BE4AAB8807CA06AC18
:1052BC0004E90700039C1B01D4F800250433019377
:1052CC0022B9D4F86035002BC0F25581049CD4F877
:1052DC00003523B9D4F86035002BC0F23C81059C15
:1052EC00D4F800351BB9D4F86035002B6EDBAE4B0F
:1052FC00EA791E68AD4CAE49E0681201B31840F073
:10530C0080705B78B75CE0600A6803F01F0343EAC7
:10531C00471301273A430A600C46A888D5F80C902D
:10532C00D4F804A09F408846002844D0CC460022E4
:10533C004FF0A0411CF801EB0820802663689B1AF3
:10534C00462BFBD9D8F80420D1F808351EEA060FF5
:10535C0043EA0703C1F808352FD063689B1A282B42
:10536C00FBD9D1F80C35013843EA07034FEA56064E
:10537C00C1F80C35E2D1C9EB0C03A8889BB298425A
:10538C00D8D84FF4307303FB00F063689B1A462B9C
:10539C00FBD9D8F80430CAEB030A8245C0F0D5809B
:1053AC004FF49670FFF705FFA888D5F80C90D4F849
:1053BC0004A00028BAD10246E7E763689B1A112BB8
:1053CC00CFD863689B1A112BF7D9CAE7D4F8643588
:1053DC00002B8CDAD4F86835002B88DAD4F86C35CD
:1053EC00002B84DA019802F017FC00283FF47FAF01
:1053FC00AB88002B00F0D08000273B466D4E6E49E9
:10540C0000E01346EA68D25D03F1010E12F0800F42
:10541C0014BFB04688461FFA8EFE12F0400F14BF20
:10542C00B146894612F0200F20F8138018BFB246FF
:10543C0020F81E9008BF8A4603F1020812F0100FE4
:10544C0003F1030E14BFB4468C461FFA88F812F011
:10545C00080F1FFA8EFE03F104091FFA89F914BF15
:10546C00B3468B4612F0040F20F818A020F81EC08B
:10547C0014BFB2468A4603F1050812F0020F03F17D
:10548C00060C03F1070E20F819B01FFA8EFE14BF9C
:10549C00B14689461FFA88F812F0010F1FFA8CFCEE
:1054AC0014BF32460A4620F818A020F81C9020F8A9
:1054BC001E200137B5F804E0BFB203F10802BE4567
:1054CC0092B29ED803F109020A3392B29BB25200F7
:1054DC005B0001994FF4004686524908C6520022DF
:1054EC001423C4F80425304EC4F80C25C4F8083530
:1054FC00C4F81425C4F81025C4F82005C4F82415E4
:10550C00C4F82825C4F82C25EB7931681B01CE187A
:10551C00C95C737803F01F0343EA41130121C4F8FB
:10552C006035C4F80015C4F81021A160D4F810310E
:10553C00002BFBD000234FF0FF32C4F81031C4F81D
:10554C000035C4F8602502F06FFBFFF730FE2861D0
:10555C0007B0BDE8F08FD4F86435002BBFF6BFAEB2
:10556C00D4F86835002BBFF6BAAED4F86C35002BE6
:10557C00BFF6B5AE36E7D4F86435002BBFF6A6AE51
:10558C00D4F86835002BBFF6A1AED4F86C35002BDF
:10559C00BFF69CAE26E770470423022299E700BFB2
:1055AC002CB10D0020B10D0098E30320F0ED00E0CC
:1055BC00001000E00D80FFFF0680FFFF43888B4248
:1055CC00F0B545D9057AC2F30743C2F30724D6B226
:1055DC0045B16B436C436E43C3F30723C4F30724F9
:1055EC00C6F3072690F806C0C768BCF1060F0CBFBF
:1055FC00042503256943BCF1080F07EB010524D8EA
:10560C004FF0010E0EFA0CFE1EF4D27F0CD11EF0E0
:10561C00400F0DD11EF0100F17D0FF2B08BFFE232B
:10562C007B546E70AC70F0BD7C546B70AE70F0BD82
:10563C007B546C70AE70037A120E0BB9D2B202E0CE
:10564C005A43C2F30722EA70F0BD7B546C70AE7003
:10565C00F0BD4A1C037AD2B29A4270B51ED0013BFF
:10566C0013F0FF03C4680CD0FF291FBF110201F116
:10567C00FF3191FBF3F39BB204BF4FF6FF7191FB2B
:10568C00F3F32546291B868889B28E4205D92978E1
:10569C005943091205F8011BF4E7027270BD8288A8
:1056AC00C068002104F04FBF08B501F0E1FF01F024
:1056BC00DFFF014B186008BD98E3032001F0D8BF51
:1056CC0001F0D6BF08B5D0F8D00003681B6B984723
:1056DC00003018BF012008BDF8B506460F46144629
:1056EC00C4B1D6F8D00003681B6B984708B90020EA
:1056FC00F8BDD6F8D000FA2C03682546A8BFFA25C9
:10570C00DB682A463946984780B2241A8542A4B2EF
:10571C00E6D0ECE70120F8BD2DE9F84306468846B3
:10572C0091461F461D460024D6F8D00003681B6B1B
:10573C009847D0B1002D18DBD6F8D00003681B6950
:10574C00984760B1D6F8D00003685B69984708F8B1
:10575C0004000134A4B24C4507D03D46ECE70A3DA9
:10576C000A202DB202F0D8FEDEE72046BDE8F88311
:10577C0070B5044600F1220596220021284604F05B
:10578C00E2FE6168284604F019FFD4F8D0002289A3
:10579C00036829465E6A0023B047003018BF012019
:1057AC0070BD10B50446D0F8D00003681B6B984749
:1057BC0020B1D4F8D0000368DB6A9847012010BDF3
:1057CC0070B503689B6804469847C8B9204600F03A
:1057DC00D4F9042570B1013D15F0FF050AD020461F
:1057EC0000F0B8F841F2883002F096FE204600F046
:1057FC00C4F9EFE7236820469B68BDE87040184762
:10580C0070BD01F035BF70B5044608460E4604F075
:10581C00DDFE03122370607085B202342A463146D5
:10582C00204604F0F0FE601970BD000030B5036135
:10583C00039B0D4D028143610C4A056000234160BE
:10584C00C260C0F8BC30C0F8C030C0F8C430C0F87A
:10585C00C830C0F8CC308361C36180F8203080F848
:10586C002130A0F8B83030BD6CB10D00BDB10D00C9
:10587C002DE9F74F0FFA83FA036801929D69012213
:10588C00534606460C46A847C0B2012801D000205A
:10589C0034E0651C04F1050B80464FF000093368B9
:1058AC009B6901221F46294653463046B847C0B271
:1058BC000128ECD115F8013B03F07F025D4502FB9A
:1058CC0008994FEAC818E2D01B06E8D4019B2C1BA0
:1058DC001B1B013B9945336806D9019A9F69013A14
:1058EC00121B534692B203E09F691FFA89F253468A
:1058FC0029463046B847C0B2204480B203B0BDE858
:10590C00F08F0000F8B505460C4616461F463B4680
:10591C00962221462846FFF7ABFF48B12378B6EB19
:10592C00131F05D002F08AFF024902F026FCEEE7B5
:10593C00F8BD00BFBEB10D000231C9B209299ABF32
:10594C00024B53F821000248704700BF88B10D008C
:10595C00CFB10D0010B5E02380F82230002380F881
:10596C002330036804465B69022200F12201984748
:10597C00236820461B69BDE81040184738B504461B
:10598C000846102300F8023B0D462949FFF73BFF60
:10599C000423037002234370A369ABB11B789BB142
:1059AC000623437094F82030012B01D10E2302E022
:1059BC00022B01D11E23437094F82130012B02BF1E
:1059CC00437843F02003437023691B781BB1437861
:1059DC0063F07F03437063691B781BB1437843F01A
:1059EC0040034370012383702C23C370E1680B7850
:1059FC001BB10430FFF707FF02E00371437106305F
:105A0C00A16931B10B7823B1FFF7FDFEE169FFF716
:105A1C00FAFE21690B780BB1FFF7F5FE61690B7883
:105A2C000BB1FFF7F0FE401BC0B2831E6B7038BD8C
:105A3C00DDB10D002DE9F843054610460E469146A2
:105A4C001F4604F0C3FD9DF82480BDF8204080B2B1
:105A5C00B8F1000F01D1831C00E0031D4FEA48028E
:105A6C0030469BB242F03002234400F8012B9BB22B
:105A7C0003F07F02DB0918BF42F0800200F8012B13
:105A8C00002BF5D14946FFF7BEFE0346B8F1000FD7
:105A9C000CD0B5F8B820120A0270B5F8B8204270D4
:105AAC00B5F8B82001320233A5F8B82022463946A1
:105ABC00184604F02DFD2044801B80B2BDE8F8830D
:105ACC0073B59DF8186000F1220504468DE8480076
:105ADC0013460A462946FFF7ADFF236802465B6969
:105AEC0029462046984708B9002017E0B6B14FF474
:105AFC00FA73962229462046FFF7BAFE0428F3D102
:105B0C0094F822301B11042BEED1A38CB4F8B800FE
:105B1C005BBA01339BB2C31A5842584102B070BDF4
:105B2C00F7B5054610461F460E46144604F04EFDCA
:105B3C00009783B2224631462846FFF7C1FF03B0D7
:105B4C00F0BD38B51D4682230B700C46B0F8B8106A
:105B5C00090AA170B0F8B830E370B0F8B810013190
:105B6C00A0F8B8101146201DFFF74DFE00F8015BA0
:105B7C00001BC0B2831E637038BD2DE9F041036871
:105B8C00DB680446984718B94FF0FF30BDE8F08148
:105B9C0004F1220529462046FFF7F0FE236882B265
:105BAC005B692946204698470028EDD041F2707376
:105BBC00962229462046FFF75BFEC0B20428E3D1AB
:105BCC00638CB3F5087FDFD194F8250010B140B297
:105BDC00BDE8F08104F1B80704F1CC0857F8043F94
:105BEC00FBB103263A682946137912682046FFF761
:105BFC00A8FF236882B25B69294620469847002893
:105C0C00C2D04FF4FA73092229462046FFF77AFED8
:105C1C0038B9013E16F0FF06E4D16FF00100BDE883
:105C2C00F0814745DAD10020BDE8F08110B580E85D
:105C3C000600037210BD1FB504460A22084601A9CE
:105C4C0002F060F9237A01AA94E80300FFF768FFD9
:105C5C0004B010BDFFF7EFBF10B592B004460B4671
:105C6C0000220B4902A88DED000B01F0EDFF9DED1C
:105C7C00000B02A953EC102B07A801F0E5FF237AC7
:105C8C0007AA94E80300FFF74BFF12B010BD00BF4A
:105C9C00E2B10D0001F0ECBC8B1D002011F8012FBE
:105CAC0010448B4280B2F9D1404280B27047417CA3
:105CBC00837CC27B80F8232003EB01239BB23A3A0E
:105CCC008384152A33D8DFE802F0171E2E0B2E1012
:105CDC00252C2E2E2E2E2E2E2E2E322E2E2E2E2EDF
:105CEC00002380F82030052318E099072AD50023DB
:105CFC0080F82030042311E09A0723D5002380F884
:105D0C00203002230AE09B071CD5002380F82030AA
:105D1C00032303E0002380F82030062380F8223090
:105D2C0001E000230CE0012380F8263070470023AB
:105D3C00012280F8203080F82220838480F82620ED
:105D4C0080F82730704710B5044600F10C01FFF7BE
:105D5C00A3FFE27C237D03EB02239BB21B1A584268
:105D6C00584110BD70B50446206803681B699847FC
:105D7C00054600285AD0206894F8205003685B69C7
:105D8C004DB99847C0B27E282073EDD184F82650C7
:105D9C0094F8203046E098472544287394F8203036
:105DAC00022B11D0092B13D0012B3BD1627BFF2A84
:105DBC0038D0002284F8202084F82230A28484F881
:105DCC00263084F8272048E0A27B062A2AD002E05D
:105DDC00637DEF2B09D00023012284F8203084F856
:105DEC002220A38484F826200EE02046FFF7ABFF88
:105DFC0068B1002384F820302046FFF758FF94F850
:105E0C00266056B3A37E43BB84F8273025E00123DC
:105E1C0084F8200084F82230A08484F8263084F89A
:105E2C0027001AE0013384F820309DE794F82730DE
:105E3C008BB101F0D5FC6368C01AA36898420AD3F1
:105E4C00012384F8205084F82250A58484F826304D
:105E5C0084F8275001E094F82660304670BD10B5E8
:105E6C00837E044633B194F8273033B12046FFF7D4
:105E7C0079FFF8E70A2002F04FFB21460A2251F87D
:105E8C00160B0368DB68984701F0AAFCA37E6060E0
:105E9C00003318BF012384F8273010BD131210B53E
:105EAC004176C376027700F116010446FFF7F4FE43
:105EBC000312A07763772046BDE81040FFF7CFBFF1
:105ECC000022FFF7EBBF012310B5044680F8273002
:105EDC002046FFF747FF0028FAD094F82200003044
:105EEC0018BF012010BD0C21FFF7EABF38B50446DE
:105EFC00154612B10123837600E0A276A3682160D7
:105F0C0003F6B833A3602046FFF7EDFF2046FFF7FA
:105F1C00DAFFA368A3F6B833C820A36002F0FCFA3A
:105F2C00002384F8263094F82230042B14BF85F01B
:105F3C000100012038BD8AB21221FFF7AFBF01F07A
:105F4C0097BB01F095BB01F093BB10B50446243010
:105F5C0000F090FE28B104F50C70BDE8104000F084
:105F6C0089BE10BD411E00F10A020020430843EA1D
:105F7C00C01011F8013F53FA80F08A42C0B2F5D13B
:105F8C00704700002DE9F0470378202B00F1010445
:105F9C0001D12046F8E7704F886005462C1A2E4632
:105FAC0015F8013B0BB32F2B01D1031917E05C2B18
:105FBC0002D10020BDE8F087A3F12204E4B21D2C2D
:105FCC0003D827FA04F4E407F3D403F0BF043C2C01
:105FDC00EFD0203B5E2BE1D9EBE72F2D05D11E46F0
:105FEC0013F8015B202DF8D1F9E7166003199842DC
:105FFC00C0EB030809D013F8012D2E2AF7D0202A64
:10600C00F5D0B8F1FF0FD4DC01E04FF00008C1F877
:10601C00048001F10C0301F11702202403F8014F55
:10602C009342FBD103461A1A13F8014B2E2CFAD0CB
:10603C00202CF8D0B2FA82F4640908F1FF36731CF4
:10604C0007D100274FF0070E3D46BA464FF008091E
:10605C0009E0835D2E2BF4D0013EF0E7835C202B0E
:10606C0004D1002401324245F8DB4BE02E2B02D147
:10607C00B242F6D103E0222B17D07C2B15D0A3F122
:10608C002A0CBCF1050F01D82D2B0ED1A3F13A0C23
:10609C00BCF1050F09D9A3F15B0CBCF1020F04D9BB
:1060AC00A3F1210CBCF15D0F02D9B2420ED149E033
:1060BC00B24247D0754521D8A3F1610CBCF1190F40
:1060CC0008D8203BDBB249EA07070AE0754515D82A
:1060DC0000245F23A3F1410CBCF1190F98BF49EACE
:1060EC000A0A05F1010C5FFA8CFC0D44BCF1060F99
:1060FC006B7301D881F80CC06546B3E7BEF10A0F8B
:10610C0017D100244B7B202B3FF453AF3CB11AEA40
:10611C00070F18BF02270F700120BDE8F0870B7B1B
:10612C000120087019447E234B7331238B73BDE817
:10613C00F087B242E5DC32464FF00A0E08254FF0EC
:10614C0010098EE7BEF10A0FDBD032464FF00A0E73
:10615C0008254FF0100985E7010100312DE9F843BE
:10616C0091F80C9006460D4602247E2701F10D088D
:10617C006968AA6863189BB21144914206D012F860
:10618C00010B03EB431343409BB2F6E7B9F1030F4A
:10619C0028BF4FF0030909F10402D2B203F00F013A
:1061AC00A818013A0929D2B294BF30313731914540
:1061BC0041734FEA1313F1D305EB090300215F730D
:1061CC00304600F031FB0121304600F010FB014657
:1061DC0028B97078B0FA80F04009BDE8F8830378EC
:1061EC004BB1C37A1B07EED40B22404604F076F970
:1061FC000028E8D102E00120BDE8F8830134A4B204
:10620C00642CB5D1BDE8F8832DE9F04F9B460B7893
:10621C0089B013F0700F05900E46914601D1002005
:10622C00A0E1059B1B78002BF9D1536802931378DE
:10623C009B0700F08D81029B0D270C33B3FBF7F706
:10624C000137FFB20021304600F0EEFA4FF00008A3
:10625C0009F10D02CDF80C80434644464546CDF875
:10626C00108006927269079301213046C2F34F1ACF
:10627C0000F0BDFA079B20B97378002B00F09080DA
:10628C00CDE70278E52A00D042B9002C08BFD046F1
:10629C00BC423CBF0134E4B222B981E0BC4238BFFD
:1062AC00002403E0E52A01D10025DBE72E2AFBD0F0
:1062BC00C17A0F2952D13DB95106D3D5437B0393F3
:1062CC0002F01F052B4607E0013BDBB29A42EBD1F3
:1062DC00427B03999142E7D15A1E4FF00D0C0CFBF7
:1062EC0002FC029A6245DFD94FF0000EBEF1040F9A
:1062FC005FFA8EF204D800EB4E02B2F801200CE0EB
:10630C000A2A95BF0EF1FF320EF1010200EB420298
:10631C0000EB420294BFD28892880299614503D166
:10632C00002A18BF00259DE7FF2ABDD8D2B2A2F1E2
:10633C0041011929D9F8081011F80C1098BF203216
:10634C000CF1010AA1F1410C98BFD2B2BCF1190FAA
:10635C009CBF2031C9B29142A6D1FBE00907A3D45E
:10636C004DB1012B7FF45BAFFFF7FCFD039B834228
:10637C007FF455AF0FE00B220699079304F0AEF8AB
:10638C00079B00287FF46EAF99F80020D20702D546
:10639C000122049266E71BF4006F00F0D1803EE707
:1063AC001BF4007F3FF43BAF0BF00303013B012BCD
:1063BC003FF635AF002C08BFD046BC4202D3049B3D
:1063CC00CBB91FE00021304600F011FA10B97378F8
:1063DC005BB124E70134E4B2EFE7B3681B79012B1E
:1063EC00EDD81034E4B2A742E9D9304600F0D2F827
:1063FC000028F2D113E749463046FFF7AFFE0028DC
:10640C003FF40DAF4FEA4811304600F00DFA00286A
:10641C003FF405AF7D1EEDB22C464FF0000A4FF055
:10642C000F0841E00021304600F0E1F90746002852
:10643C003FF4F5AEB26892F82430AC4243F001035D
:10644C0082F824300CBF44F040022246027080F8DF
:10645C000B8080F80CA009F10D000392FFF782FD70
:10646C00039A787387F81AA087F81BA002F01F0212
:10647C000D23013AD9F808E05A43002302999142BE
:10648C0015D91EF80210042B5FFA83FC03F10100EE
:10649C0013D807EB4303A3F801100D2802F10102F6
:1064AC000346EBD1013CE4B2002CBBD10EE014BF8F
:1064BC004FF0FF31002189B2E5E7BCF10A0F94BF20
:1064CC0007EB430307EB40039980E6E7736921462A
:1064DC003046C3F34F1A00F08AF9074600283FF400
:1064EC009EAE2022214604F02EF84B4653F80D2F79
:1064FC003A605A687A601A893A819B7ABB7299F829
:10650C00003003F018033B73184B1B682BB107F1D9
:10651C000E0107F11000984706E021233B74282355
:10652C007B740823BC73FB733B8A7B823B83FB89A4
:10653C00FB82B26892F8243043F0010382F82430D5
:10654C0000955B4652463146059800F0B6F909E0D5
:10655C00012777E60EF1010EBEF10D0F3FF482AE6E
:10656C00D446C3E609B0BDE8F08F00BFA0E303201A
:10657C0001F07EB801F07CB801F07AB801F078B87F
:10658C008378016943F00403837000F11002806882
:10659C0000F026BC2DE9F041037803F020030446FB
:1065AC0003F0FF050BB100262EE04269184B9A420E
:1065BC00F9D8FFF7E5FF06460028F4D02169A0685A
:1065CC0000F0A3FB0746A06805223946243000F0F2
:1065DC0078FB80460028E6D029464FF4007203F081
:1065EC00B2FF0125A3681A79AA4209D94246E919D2
:1065FC00186800F0E3FE0028D5D00135EDB2F1E7C4
:10660C00636903EB422363613046BDE8F08100BF50
:10661C00FFFD1F0010B5044680680A462430A169AE
:10662C0000F04FFB20B1A38803F00F0300EB4310E5
:10663C0010BD70B5047805460E4684B92422214657
:10664C0003F081FFAE60F379102B03D0202B06D121
:10665C00402300E0202301202B70A87070BD002087
:10666C0070BD2DE9F74F03780446894615464BB1AA
:10667C008278D10706D50CE05A46216900F04BFB15
:10668C0000283DDA637843F0020363704FF0FF306B
:10669C0097E01A0703D5E36962699B1A07E09A062B
:1066AC0008D5A3681A896369C3EB42139BB29D4258
:1066BC0028BF1D462E464FF0000804F1100B002E8B
:1066CC0035D022786369A06812F0200FC3F3080A52
:1066DC004FEA532102D0036A19441DE090F805805B
:1066EC0001EA0808BAF1000F10D1B8F1000F0DD172
:1066FC00002BC1D153064CBF036A236A236105E00A
:10670C0004D1237813F0700F11D1BBE72169A06875
:10671C0000F0FBFA08EB0001A068BAF1000F35D1CC
:10672C00B6F5007F32D3C36A994202D12EE0A81B82
:10673C0047E0B6F5806F1BD3227897064FEA562AAE
:10674C0006D40279C8EB0202D2B2924528BF924617
:10675C0099424FEA4A2707D2A06853464A46006836
:10676C0000F0EAFD60B98DE75344994221D3F3E779
:10677C004A46006800F098FD002883D04FF400775B
:10678C0063693B44B9446361F61B98E700222430EB
:10679C0000F097FA00283FF475AFCAF50077B742BE
:1067AC0028BF374600EB0A013A46484603F0A5FEDF
:1067BC00E6E72430019100F05DFA01990028CBD175
:1067CC0060E703B0BDE8F08F73B501220DF107014E
:1067DC00044646690569FFF744FF012805BF9DF88B
:1067EC00070066614FF0FF30256102B070BD37B510
:1067FC004369C3F34315044605B169B901220DF190
:10680C0007012046FFF72DFF40B2012801D00020E0
:10681C0008E063691F3300E02033A0686361303007
:10682C0000EB451003B030BD2DE9F0410E46017868
:10683C0007690446002939D04569B5423AD00EB9EA
:10684C00066131E00B0703D5C3699E422ED807E0E1
:10685C00880605D5A3681B89B6EB431F26D823E011
:10686C00D4F808E09EF806306A1E03F10900731E86
:10687C00C240C3409A4200D84DB94A064CBFDEF81C
:10688C002020226A22611D4604F110080AE09B1A9E
:10689C00F9E742462169A06800F03DFA002805F1AD
:1068AC00FF3503DD002DF4D1666103E02761002084
:1068BC00BDE8F0810120BDE8F081F8B50F46154622
:1068CC000021242204461E4603F03DFEB868A06059
:1068DC0005F00F02A58000F1300152013B6AE36024
:1068EC001144CB7A1D074CD4831893F83B3003F03A
:1068FC0017032370C97A11F0180F04BF43F0080373
:10690C0023709DF81830E37006F00303012B09D0B7
:10691C00022B05D0002B34D1710532D4012302E0B7
:10692C00032300E00223A370A1788B0703D52378FF
:10693C0013F0110F25D14BB216F4005F06F00801CD
:10694C0014BF6FF07F07002719433943A170C36A46
:10695C00A36102447505B2F84410B2F84A3043EA18
:10696C00014104D581B100F076FA68B909E02162E1
:10697C00D36CE36173040CD5E1692046FFF754FF37
:10698C0038B900202070F8BDA37843F00403A3703D
:10699C00F0E70120F8BD000038B5037804460BB9C8
:1069AC00012038BD83785A0723D50121FFF732FE29
:1069BC00054628B9637843F001036370002038BDA5
:1069CC000378E52BF6D023781B0744BFE369C3613A
:1069DC00238C4383638C8382094B1B682BB100F19E
:1069EC001601183098472B8B6B82A37823F0040385
:1069FC00A370A068FFF7A9FA0028DBD0D0E700BF8E
:106A0C00A0E3032010B50446FFF7C6FF0023237054
:106A1C0010BDF0B593B01F4600238DF824308DF8CF
:106A2C0025300378019206460C460BB100203DE060
:106A3C000B7813F0700FF9D013782F2B12D1019B18
:106A4C001A782F2A02D101330193F8E7A1681AB9F9
:106A5C003046FFF7EEFD29E009A8FFF7EAFD002814
:106A6C00E4D009AC01AA03A90198FFF78BFA00281E
:106A7C00DCD0019B1B789BB1002303AA2146304636
:106A8C00FFF7C2FB0028D1D035460FCD09AC0FC49F
:106A9C000FCD0FC42B6823603046FFF7B3FFE0E740
:106AAC003B4603AA21463046FFF7AEFB13B0F0BDC0
:106ABC002DE9F0470378894619070446904608D516
:106ACC0083789A0705D51B070BD5E169FFF7ACFE58
:106ADC0038B9637843F0010363704FF0FF30BDE8C1
:106AEC00F0876369DB439845F3D846464FF0000ABC
:106AFC006369002E00F08180A068427912EA532568
:106B0C00C3F308071CD1DFB9216971B104F110027C
:106B1C0000F001F90028DCDB40F08E802046FFF706
:106B2C002FFD002840F08880D3E7236A3BB920462C
:106B3C00FFF726FD0028CCD02369236200E02361F7
:106B4C002169A06800F0E1F8291817B9B6F5007FA3
:106B5C0021D2C7F50075B54228BF354637B96369F0
:106B6C00E269934234BF0122052200E00122A068B1
:106B7C00243000F0A6F80028ABD038442A46494609
:106B8C002F4403F0BAFCB7F5007F30D1A068243055
:106B9C0000F070F817E0B6F5806FA06815D3027995
:106BAC00521B730AD2B2934228BF1346C26A914257
:106BBC004FEA432502D31A44914237D3A7684A4679
:106BCC00386800F06DFC90B983E7C36A994202BF44
:106BDC004FF0FF3380F824A0C362A3684A461868BC
:106BEC0000F0ECFB00283FF474AF4FF400756369C0
:106BFC002B446361A944761B7AE7E269934201D97D
:106C0C00E36102E00F4B1B681BB1A37843F0040354
:106C1C00A37094F90230002B02DB4046BDE8F087EC
:106C2C002046FFF7B9FE0028F7D152E74FF0FF32AC
:106C3C0080F824A0C262C1E72169A06800F065F861
:106C4C00014683E7A0E3032000F012BD70B50546B2
:106C5C000C46084649B103F0B9FC2B6802462146A4
:106C6C002846DB68BDE87040184770BD00F000BDD9
:106C7C0000F0FEBC70B50378DA0704461ED54368F5
:106C8C00816800F10C063246186800F097FB054647
:106C9C0008B9002513E023789B0704D4237823F04C
:106CAC00010323700BE06368A06819693246014444
:106CBC00186800F083FB0028F0D1EAE7012528468C
:106CCC0070BD70B583688B4204460E46154614D0D1
:106CDC00FFF7D0FF08B9002070BD6B0703D5002368
:106CEC002370A66009E0636804F10C023146186851
:106CFC0000F0DAFA0028F2D1EDE72378204605F00F
:106D0C0003051D4300F80C5B70BD837940690239A3
:106D1C00994008447047012970B505460C46164643
:106D2C0002D84FF0FF3070BDC3699942F9D8C379CE
:106D3C00202B10D18169022201EBD41100F50C70CB
:106D4C00FFF7BFFF0028ECD004F07F0450F824308C
:106D5C0023F070430FE0102BE3D18369C1F30721BB
:106D6C000222194400F50C70FFF7ABFF0028D8D0B5
:106D7C00E4B230F81430EA6993429ABF33600120D0
:106D8C00002070BD012938B50C46154601D80020ED
:106D9C0038BDC3699942FAD8C379202B0ED18169C9
:106DAC00032201EBD41100F50C70FFF78AFF0028C9
:106DBC00EDD004F07F0440F824500FE0102BE6D106
:106DCC008369C1F307210322194400F50C70FFF706
:106DDC0078FF0028DBD0E4B220F81450012038BD35
:106DEC002DE9F341C4688C4205460E46904607D205
:106DFC000C460027EB6901349C4203D9CFB9EC68EF
:106E0C000127F7E7A64214D001AA21462846FFF72E
:106E1C0082FF00280DDBEDD0019B002BEAD107B1DE
:106E2C00EC606FF0704221462846FFF7ABFF074637
:106E3C0008B900270BE016B9C8F8004007E0224655
:106E4C0031462846FFF79EFF0028F5D1F1E738467A
:106E5C0002B0BDE8F08173B505460C4601AA214687
:106E6C002846FFF758FF061E01DA00200FE000222B
:106E7C0021462846FFF786FF0028F6D0EB689C4297
:106E8C009CBF04F1FF34EC60019C002EE6D102B0F3
:106E9C0070BD70B5012304460022C3604FF0FF3370
:106EAC00C2710D46A06280F82420C362C4F834027B
:106EBC0080F83022C0F83832A1B104295DD81146CF
:106ECC002430FFF7FEFE002857D000EB051393F893
:106EDC00AE315B0651D11B3500EB0515D5F80650CC
:106EEC00002D4AD00022294604F12400FFF7E9FEC8
:106EFC00002842D0B0F80B30B3F5007F3DD1037CB5
:106F0C00022B3AD1C389002B37D0417B21714B1E08
:106F1C0063710023A371092601238B4207D0013E24
:106F2C002BD0A2795B000132DBB2A271F5E7C28AE9
:106F3C0002B9426A2261C6892E44A661B0F81130AA
:106F4C00238106EB42012162B0F81120520102F2BA
:106F5C00FF1201EB62226261B0F8133003B9036ACD
:106F6C00AD1A2B44A57923FA05F56B1CE36140F6A9
:106F7C00F4739D4203D80C23E371002070BD4FF6CF
:106F8C00F4739D4285BFC36A236210232023E371EF
:106F9C00012070BD00F06CBB00F06ABB00F068BB58
:106FAC0070B50E4C0E46154600F012FC2368C01A44
:106FBC000B4B984208D900F013FC0A4B186000F0F8
:106FCC0003FE00F005FC206000F00AFC80B2801B80
:106FDC00A842D4BF0020012070BD00BFA4E3032051
:106FEC00A086010008E7032038B5057A04464DB9A0
:106FFC00406800F07DFA63682946187D02F02BFA90
:10700C000123237238BD10B5037A04466BB1436873
:10701C000121187D02F01FFAFF21606800F09AFA36
:10702C00606800F079FA0023237210BDF8B50446AD
:10703C000D46164600F0D4FB87B2606800F06FFA7C
:10704C00FF28607209D14FF47A7239462046FFF757
:10705C00A7FF0028F1D055230BE0FE2801D05023C8
:10706C0007E032462946606800F05EFA607230B183
:10707C00602320462370FFF7C6FF0020F8BD606830
:10708C0000F04DFA606800F04AFA0120F8BD70B5C6
:10709C0004460E4600F0A4FB85B232462946204633
:1070AC00FFF77EFF30B9606800F039FAFF28F4D1A1
:1070BC00012070BD002070BDF7B5037A0192044623
:1070CC000D460BB9FFF790FF25B14FF49671204692
:1070DC00FFF7DDFF45F04001606800F03BFA0DF171
:1070EC0007060DF1030716F80119606800F032FA73
:1070FC00BE42F8D1002D0CBF95218721606800F0AD
:10710C0029FA606800F00BFA0B25606800F007FAAA
:10711C000306607203D5013D15F0FF05F5D103B0F0
:10712C00F0BD70B504460D46164637210022FFF718
:10713C00C3FF324629462046BDE87040FFF7BCBF6E
:10714C002DE9F041002505720570857241600446F9
:10715C0090461E4600F044FB41460746606800F02E
:10716C00CBF963684F4A1D724FF00108DA605D7409
:10717C0083F810802046FFF737FF63684146187D7F
:10718C0002F069F90A25FF216068013D00F0E2F97F
:10719C0015F0FF05F7D163682946187D02F05BF9FD
:1071AC000A25002211462046FFF786FF012880465B
:1071BC0012D0013D15F0FF0501D1202357E0FD2130
:1071CC00606800F0C7F94FF40278606800F0A7F926
:1071DC00B8F10108F9D1E4E74FF4D5720821204643
:1071EC00FFF76AFF052802D184F80A800FE0042516
:1071FC00606800F094F9013D15F0FF056072F7D15D
:10720C00AA2802D10223A37201E025232FE0A37A3E
:10721C00022B0CBF4FF080450025BFB22A46292116
:10722C002046FFF77EFF024648B14FF4FA6239461A
:10723C002046FFF7B5FE0028F0D0432317E0A37AD1
:10724C00022B0ED02046FFF7DEFE6368B06834795F
:10725C00317B727B5A74D8601C7219740120BDE8A2
:10726C00F0813A212046FFF727FF38B1372320461B
:10727C002370FFF7C8FE0020BDE8F081606800F0C5
:10728C004EF900F0C000C02804BF0323A37260684D
:10729C0000F045F9606800F042F9606800F03FF9D1
:1072AC00D0E700BF90D0030038B5837A032B18BF0A
:1072BC00490215460A4611210446FFF7FDFE10B19E
:1072CC00302323700BE029464FF400722046FFF761
:1072DC00ADFE054618B12046FFF795FE03E02046AB
:1072EC00FFF791FE0025284638BD10B5837A032B95
:1072FC000A4618BF4A0212210446FFF7DDFE30B1E0
:10730C00312320462370FFF77EFE002010BD0120A4
:10731C0010BD10B500220C210446FFF7CDFE30B194
:10732C00282320462370FFF76EFE002010BD204658
:10733C00FFF769FE012010BDF8B5054616461F463D
:10734C00FFF7D3FF98B10024A3B29F4206EB442170
:10735C0008D94FF400722846FFF768FE0134002864
:10736C00F2D104E02846BDE8F840FFF7D2BF002078
:10737C00F8BD38B504461546406800F0EBF84FF4FC
:10738C0000722946606800F0E9F8FF21606800F09F
:10739C00E1F8FF21606800F0DDF8606800F0BFF8EC
:1073AC00607200F01F00052806D05723204623707A
:1073BC00FFF729FE002038BD012038BD70B5837A57
:1073CC00032B18BF490215460A4618210446FFF73D
:1073DC0073FE064608B132231DE02A46FE212046E4
:1073EC00FFF7C7FFC0B14FF4FA612046FFF74FFE1D
:1073FC00054608B95A230EE032460D212046FFF708
:10740C005BFE38B9606800F08AF818B92046FFF7BF
:10741C00FAFD05E0292323702046FFF7F4FD002533
:10742C00284670BD38B50D464FF4FA610446FFF797
:10743C002EFE10B95B23237005E02A46FC21204662
:10744C00FFF797FF18B92046FFF7DDFD002038BD88
:10745C0010B5837A032B0A4618BF4A021921044639
:10746C00FFF72AFE30B1332320462370FFF7CBFD04
:10747C00002010BD012010BD38B54FF4FA61044650
:10748C00FFF705FE054620B1FD21606800F062F8AB
:10749C0001E0562323702046FFF7B5FD284638BD82
:1074AC00F8B5054616461F46FFF7D2FF70B100240B
:1074BC00BC4206EB4421284604D0FFF7B3FF28B1A9
:1074CC000134F5E7BDE8F840FFF7D6BF2846FFF7D3
:1074DC009AFD0020F8BD00F0CBB800F0C9B800F060
:1074EC00C7B80000014B01221A707047A8E30320B3
:1074FC00011D006800F050BC10B504460175006811
:10750C0000F020FC207D012101F094FF207D012161
:10751C00BDE8104001F09FBF006800F024BCFF21C3
:10752C00006800F0A9BC000037B5084B009300259B
:10753C00074C0068257013460A46294600F0A2FC49
:10754C002378002BFCD0002003B030BDF1740D006B
:10755C00A8E30320006800F08FBC000037B5074B90
:10756C0000930025064C0068257013462A4600F04F
:10757C0089FC2378002BFCD003B030BDF1740D00D6
:10758C00A8E3032000F074B800220160026142619C
:10759C00704710B50446008801F089FF40F21233A1
:1075AC00A0F10B029A4207D8A0606060E06000F086
:1075BC0017F9A061012010BD002010BD8068704734
:1075CC0010B5044600F00CF9A369C01A074B984299
:1075DC000AD92369626993FBF2F3E36000F000F9C6
:1075EC000023A0612361636110BD00BF20A10700CF
:1075FC0010B5836843600446008801F058FF236986
:10760C00A060184463692061013363612046FFF771
:10761C00D7FFA2686168511AB1F5C87F10DCB2F5CA
:10762C002F7F0DDCE368D31A962B0BDCC82902DD07
:10763C00B2F52F7F08D1322BCCBF0220032010BD16
:10764C00002010BD012010BD022010BD00F010B8AC
:10765C0008B5024B1B689B68019308BD68020300C8
:10766C0008B5024B1B68DB68019308BD6802030078
:10767C0008B5024B1B681B68019308BD2C02030064
:10768C0008B5024B1B685B68019308BD2C02030014
:10769C0008B5024B1B689B68019308BD2C020300C4
:1076AC0008B5024B1B68DB68019308BD2C02030074
:1076BC0008B5024B1B681B69019308BD2C02030023
:1076CC0008B5024B1B685B69019308BD2C020300D3
:1076DC0008B5024B1B689B69019308BD2C02030083
:1076EC0008B5024B1B68DB69019308BD2C02030033
:1076FC0008B5024B1B681B6B019308BD2C020300E1
:10770C0008B5024B1B681B68019308BD30020300CF
:10771C0008B5024B1B685B69019308BD300203007E
:10772C0008B5024B1B68DB69019308BD30020300EE
:10773C0008B5024B1B681B6A019308BD300203009D
:10774C0008B5024B1B685B6A019308BD300203004D
:10775C0008B5024B1B689B6A019308BD30020300FD
:10776C0008B5024B1B689B6B019308BD30020300EC
:10777C0008B5024B1B68DB6B019308BD300203009C
:10778C0008B5024B1B681B6C019308BD300203004B
:10779C0008B5024B1B685B6C019308BD30020300FB
:1077AC0008B5024B1B685B69019308BD6C020300B2
:1077BC0008B5024B1B685B68019308BD18020300F7
:1077CC0008B5024B1B68DB68019308BD1802030067
:1077DC0008B5024B1B681B69019308BD1802030016
:1077EC0008B5024B1B685B69019308BD18020300C6
:1077FC0008B5024B1B68DB69019308BD1802030036
:10780C0008B5024B1B689B6D019308BD1802030061
:10781C0008B5024B1B689B68019308BD4802030026
:10782C0008B5024B1B681B69019308BD4802030095
:10783C0008B5024B1B685B69019308BD4802030045
:10784C0008B5024B1B685B6C019308BD4802030032
:10785C0008B5024B1B689B6C019308BD48020300E2
:10786C0008B5024B1B685B69019308BD64020300F9
:10787C0008B5024B1B681B6A019308BD6402030028
:10788C0008B5024B1B689B6A019308BD6402030098
:10789C0008B5024B1B681B68019308BD3C02030032
:1078AC0008B5024B1B68DB68019308BD3C02030062
:1078BC0008B5024B1B681B69019308BD3C02030011
:1078CC0008B5024B1B685B69019308BD3C020300C1
:1078DC0008B5024B1B689B69019308BD3C02030071
:1078EC0008B5024B1B68DB69019308BD3C02030021
:1078FC0008B5024B1B681B6A019308BD3C020300D0
:10790C0008B5024B1B689B6A019308BD3C0203003F
:10791C0008B5024B1B68DB6A019308BD3C020300EF
:10792C0008B5024B1B68DB68019308BD28020300F5
:10793C0008B5024B1B689B69019308BD2802030024
:10794C0008B5024B1B68DB69019308BD28020300D4
:10795C0008B5024B1B681B6A019308BD2802030083
:10796C0008B5024B1B685B6A019308BD2802030033
:10797C0008B5024B1B689B6A019308BD28020300E3
:10798C0008B5024B1B68DB6A019308BD2802030093
:10799C0008B5024B1B681B6B019308BD2802030042
:1079AC0008B5024B1B685B6B019308BD28020300F2
:1079BC0008B5024B1B681B6C019308BD2802030021
:1079CC0008B5024B1B681B6D019308BD2802030010
:1079DC0008B5024B1B689B69019308BD3802030074
:1079EC0008B5024B1B68DB69019308BD3802030024
:1079FC0008B5024B1B681B6A019308BD38020300D3
:107A0C0008B5024B1B689B6A019308BD3802030042
:107A1C0008B5024B1B681B6B019308BD38020300B1
:107A2C0008B5024B1B689B6B019308BD3802030021
:107A3C0008B5024B1B681B68019308BD4C02030080
:107A4C0008B5024B1B685B68019308BD4C02030030
:107A5C0008B5024B1B681B69019308BD4C0203005F
:107A6C0008B5024B1B685B69019308BD4C0203000F
:107A7C0008B5024B1B689B69019308BD4C020300BF
:107A8C0008B5024B1B68DB69019308BD4C0203006F
:107A9C0008B5024B1B681B6A019308BD4C0203001E
:107AAC0008B5024B1B685B6B019308BD60020300B9
:107ABC0008B5024B1B681B6D019308BD60020300E7
:107ACC0008B5024B1B681B68019308BD200203001C
:107ADC0008B5024B1B685B68019308BD20020300CC
:107AEC0008B5024B1B685B69019308BD20020300BB
:107AFC0008B5024B1B689B6D019308BD2002030067
:107B0C0008B5034B1B68D3F88830019308BD0000FF
:107B1C002002030008B5034B1B68D3F89430019383
:107B2C0008BD00002002030008B5024B1B685B680F
:107B3C00019308BD4002030008B5024B1B689B680B
:107B4C00019308BD4002030008B5024B1B68DB68BB
:107B5C00019308BD4002030008B5024B1B681B696A
:107B6C00019308BD4002030008B5024B1B685B691A
:107B7C00019308BD4002030008B5024B1B689B69CA
:107B8C00019308BD4002030008B5024B1B68DB697A
:107B9C00019308BD4002030008B5024B1B681B6A29
:107BAC00019308BD4002030008B5024B1B681B6B18
:107BBC00019308BD4002030008B5024B1B685B6BC8
:107BCC00019308BD4002030008B5024B1B689B687B
:107BDC00019308BD4402030008B5024B1B685B69A6
:107BEC00019308BD4402030008B5024B1B68DB6A15
:107BFC00019308BD4402030008B5024B1B681B6BC4
:107C0C00019308BD4402030008B5024B1B68DB6BF3
:107C1C00019308BD4402030008B5024B1B681B68A6
:107C2C00019308BD1C02030008B5024B1B685B687E
:107C3C00019308BD1C02030008B5024B1B689B682E
:107C4C00019308BD1C02030008B5024B1B68DB68DE
:107C5C00019308BD1C02030008B5024B1B681B698D
:107C6C00019308BD1C02030008B5024B1B689B69FD
:107C7C00019308BD1C02030008B5024B1B685B6A2C
:107C8C00019308BD1C02030008B5024B1B681B6B5B
:107C9C00019308BD1C02030008B5024B1B68DB6B8B
:107CAC00019308BD1C020300002211464068FFF737
:107CBC0073BF002211464068FFF77EBF0022406868
:107CCC00FFF772BF002281F001014068FFF75CBF33
:107CDC0000231A4619464068FFF74EBF00231A4688
:107CEC0019464068FFF740BF002211464068FFF775
:107CFC0033BF002211464068FFF71EBF002202214D
:107D0C004068FFF721BF00231A464068FFF70CBFFD
:107D1C00024B03225A60024A1A607047ACE30320FC
:107D2C00BCB30D000021FFF72BBD0021FFF730BDC8
:107D3C0010B5044601700846FFF7F2FC002363609F
:107D4C00204610BD10B504460078FFF7EBFF48B98C
:107D5C0020784FF6FF71FFF7D3FC2078BDE8104078
:107D6C00FFF7E3BF10BD0078FFF7DFBF400830B569
:107D7C001860002418688842E5B206D90134082C32
:107D8C0002D040081860F5E70725024B5B5D1370C5
:107D9C0030BD00BFE8B30D002DE9F04307468FB0AE
:107DAC0000780E46FFF7BEFF002862DB3C781422F9
:107DBC00002109A802F0C7FB0B232046002209A9C9
:107DCC00ADF82430FFF7BCFC9DF82D4054B19DF864
:107DDC002C5035B9DDF830809DF834909DF8354045
:107DEC0003E00024A146A0460125337905B1BBB9B7
:107DFC009D420BD1B268424508D18DF820908DF888
:107E0C002140BDF82010B289914209D053B1002411
:107E1C00387801940094234622460121FFF7A8FCF0
:107E2C00002026E08DF80F30B1680A9804AB0DF1F4
:107E3C000F02FFF79BFF317905B1B1B9A94208D008
:107E4C00002438780194747B337B9DF80F200094C8
:107E5C00E4E7B3684345F3D38DF820908DF82140C7
:107E6C00BDF82020B3899A42EAD1049B4345E7D15F
:107E7C00D6E70FB0BDE8F08308B50078FFF748FCF3
:107E8C00C0B208BD30B587B004460A9D0078009595
:107E9C00FFF75EFC3DB902A92078FFF761FC9DF865
:107EAC001430DB07F7D407B030BD0078FFF740BCC7
:107EBC0010B50446006818B1FFF7B6FE0023236026
:107ECC0010BD10B50446FFF7F3FF204610BD0000AF
:107EDC0010B5094C00204FF6FF732060A080A071F4
:107EEC0020816381FFF7F4FD2046044A0449BDE874
:107EFC00104001F033BB00BFB4E30320C0DC03200F
:107F0C00CF7E0D002DE9F041931E232B15468CB02E
:107F1C0034BF15460A2500230A2D0C468DF82C304B
:107F2C0007D1984205DA2D2301F101080B7040426C
:107F3C0001E0B0B1A0460DF12B0601272A460146FF
:107F4C0001A802F0B7FA029B0198092BCCBF37228B
:107F5C00302252FA83F306F8013901370028EDD1AB
:107F6C0006E030238DF82B30A0460DF12A060227AF
:107F7C003A46711C404602F0C0FA20460CB0BDE8EF
:107F8C00F08110B504460068FFF74EFE204610BD88
:107F9C0010B50446006808B1FFF746FE00232360C5
:107FAC00A360636010BD38B504460D46006801310E
:107FBC00FFF742FE10B184E82100012038BD10B556
:107FCC000368044613B143688B4207D22046FFF77F
:107FDC00EAFF20B1A3680BB922681370012010BD11
:107FEC0070B50E46114604461546FFF7E8FF18B962
:107FFC002046FFF7CDFF09E02A463146A5602068F0
:10800C0002F07BFA2268A3680021D154204670BD8F
:10801C0038B50023044603604360836003730D4648
:10802C0039B1084602F0D2FA294602462046FFF73B
:10803C00D7FF204638BD38B5054600680C4660B100
:10804C006A688B689A4206D3096802F0B7FAA3688B
:10805C00AB6000230AE0FFF7E7FD23682B60636841
:10806C006B60A368AB60002323606360A36038BDC2
:10807C00884210B5044601D0FFF7DDFF204610BD45
:10808C0070B50E469AB191B185689D4202D8002315
:10809C000B7070BD541EED1A0168AC4228BF2C4603
:1080AC0019442246304602F0AEFA0023335570BD17
:1080BC00F8B59A420F461D460C4988BF1346144624
:1080CC00064684BF2C461D46FFF7A2FFBA689442B1
:1080DC000AD83968954294BFC4EB0502C4EB02027E
:1080EC0021443046FFF77CFF3046F8BDBDB10D0092
:1080FC0010B50446006808B1FFF7AAFB204610BD76
:10810C0010B5064C002320462360FFF799FB204650
:10811C00034A0449BDE8104001F020BAC0E3032033
:10812C00C0DC0320FD800D00F8B506460D468F1807
:10813C000024BD420CD0336815F8011B9B683046F7
:10814C009847002801DB0444F3E7002C08BF0446E1
:10815C002046F8BD08B5FEF779FD08BD03689B689D
:10816C00184738B50D210546FFF7F8FF0A210446DC
:10817C002846FFF7F3FF204438BD38B50546FEF717
:10818C0065FD04462846FFF7ECFF204438BD30B5AA
:10819C008BB00B4600218DF82410012A98BF0A22BF
:1081AC000DF12304B3FBF2F505FB123303F0FF03CF
:1081BC00092B94BF30333733DBB2214604F8013935
:1081CC002B46002DEED1FEF741FD0BB030BD00006B
:1081DC002DE9F04757EC106B82460D4610EE102A35
:1081EC003B4610EE100A394601F074FF08B14E49B7
:1081FC0012E027F000494FF0FF324C4B3046494615
:10820C0001F068FF68B94FF0FF32484B30464946E1
:10821C0001F042FF28B946495046FEF717FDBDE86C
:10822C00F0874FF06042434B3046394601F048FF2F
:10823C0008B14149F0E74FF06042404B30463946B7
:10824C0001F020FF0028F4D10022002330463946EB
:10825C0001F018FF40B12D215046FFF77FFF07F1C9
:10826C00004304461F4600E0044635494FF0000821
:10827C0000205FFA88F39D4206D90022314B01F0B1
:10828C00B9FD08F10108F4E732463B4601F0D6FA95
:10829C000F46064601F05CFF0A2201468046504616
:1082AC00FFF775FF0444E5B3404601F003FC0246BA
:1082BC000B463046394601F0BFFA06460F4650468B
:1082CC002149FEF7C3FC044400221E4B30463946BC
:1082DC0001F066FC06460F4601F012FFB0F10009F2
:1082EC0007DA2D215046FFF739FFC9F1000180460E
:1082FC0002E049464FF000080A225046FFF747FFBC
:10830C0040440444484601F0E5FB02460B46304627
:10831C00394601F091FA013D15F0FF0506460F466E
:10832C00D2D12046BDE8F087F0B30D00FFFFEF7F00
:10833C00F8B30D00FFFFEF41F4B30D00FFFFEFC1E9
:10834C000000E03F0000244078AE0D0038B5C9B203
:10835C000546FFF73DFF04462846FFF702FF204481
:10836C0038BD38B5044610EE100A0D4601F0C4FBBA
:10837C0041EC100B29462046BDE83840FFF7E6BF1C
:10838C000CB42DE9F04387B000AF07F13804054673
:10839C0054F8049B3C600E4623464A461421381D73
:1083AC00FFF76AFC132805D8391D2846FEF74EFC4A
:1083BC00044613E000F1080323F00703E846ADEB95
:1083CC00030D411C23464A4668463C60FFF754FCAB
:1083DC0069462846FEF73AFC0446C5461EB12846B7
:1083EC00FFF7BFFE044420461C37BD46BDE8F043F2
:1083FC0002B07047014B024A1A607047C4E3032075
:10840C006FB40D0008B50020FFF7F6FB28B1FFF79D
:10841C00E3FB80F00100C0B208BD012008BD0000E4
:10842C00FAEE087AB4EEE70AF1EE10FA0FD4F2EE97
:10843C000C7AB4EEE70AF1EE10FA08DCDFED047A00
:10844C00044B20EE270ABDEEC00A83ED000A7047EC
:10845C0000006145D0E3032037B50E4B1B6819446F
:10846C000D4B1B68044602A8194440F8041D01F08A
:10847C0029FF01F0DDFE054602F0A8F82844002390
:10848C0000F8013C29462046FFF7C2FD204603B008
:10849C0030BD00BFD0E30320CCE3032010B5002097
:1084AC00FFF7AEF9044668B9FFF70AFB01280BD1B8
:1084BC002046FFF71DFB38B9FFF7A4FF30B9FFF7D3
:1084CC0083FBF9E7012010BD002010BDFFF79AFFD8
:1084DC000020FFF795F9003018BF012010BD08B53A
:1084EC00FFF7DCFFBDE80840FFF782B9024B1A68C2
:1084FC00024B1A60704700BF08DC0320C8E303205E
:10850C008A4230B507D0039D441AED1A6C43521AB7
:10851C0094FBF2F4E01830BD0021FFF7E1BA10B57E
:10852C008368044613B1032201469847204610BDC8
:10853C0010B50446FFF7F3FF204610BD0348044A6C
:10854C0004490023836001F009B800BFD4E3032081
:10855C00C0DC03203D850D0008B50C4B33B100F099
:10856C006DF903681B699847002809DC084B63B157
:10857C0000F016FA03681B699847002803DC08BD55
:10858C00AFF30080F2E7AFF3008008BD00000000FD
:10859C000000000008B5FFF7DFFFFFF721F9014BE2
:1085AC00186008BD08E703200248034A0349121A61
:1085BC0001F0A3BF00F4032004F40320B0B90D00B4
:1085CC0007B5002300931A466FF07701FFF7A2FA64
:1085DC0003B05DF804FB000007B543880A2B08D0F4
:1085EC00502B09D1094B1B683BB103B05DF804EB70
:1085FC001847FFF7E5FF06E0002300931A466FF0DB
:10860C007701FFF787FA03B05DF804FBE4E303207E
:10861C0038B5104C104D2368AB42104B0CBF0122E7
:10862C0000221A7002D0FFF7BFFF2560FFF7C0F8D9
:10863C00044601F091FF0A4B13B12046AFF30080C2
:10864C0000210748FFF7E0FA00210648BDE8384052
:10865C00FFF756BA00F403201E1C279AE8E3032008
:10866C0000000000E5850D00704710B51821044688
:10867C0000F082FF204610BDF0B5037D062B8DB0B7
:10868C000E4600F104074FF0000402D000F108057B
:10869C0018E00CAD394605F8304D2F232A460A2038
:1086AC00FFF7DEF8284601F091FF33680246DB68DD
:1086BC002946304698470FE024B12E213046FFF76B
:1086CC004DFD044415F8011D0A223046FFF75FFDED
:1086DC00BD420444F0D120460DB0F0BD10B5054BA1
:1086EC000446112240F8043B002101F02CFF2046E7
:1086FC0010BD00BF00B50D000346074A10B543F886
:10870C00042B01F1100251F8044B43F8044B914235
:10871C00F9D10A781A7010BD00B50D00037D042B39
:10872C0001D1406808E0062B0AD1436853B983682D
:10873C0043B9C36833B90069003018BF01207047D2
:10874C00002070470120704710B59DF8084044EA9E
:10875C00032343EA024242EA0161042341600375A8
:10876C0010BD37B50D788B784A78C97800912946B9
:10877C00FFF7EAFF03B030BD41747047704708B58E
:10878C000021007CFFF774F930EA200028BF4FF07D
:10879C00FF3008BD08B50121007CFFF769F930EA0C
:1087AC00200028BF4FF0FF3008BD08B5007CFFF754
:1087BC0057F920EAE07008BD08B5007CFFF748F9CE
:1087CC0020EAE07008BD007CFFF762B910B51421F7
:1087DC00044600F0D1FE204610BD38B50446007C9E
:1087EC000D46FFF73DF9002801DC607C28B12946D5
:1087FC00207CFFF745F920EAE07038BD10B504463F
:10880C00002363604FF47A73A360054B236001234C
:10881C000846217463741146FFF70AF9204610BD0F
:10882C0014B50D000022007CFFF70AB910B5142214
:10883C000446002101F087FE204610BD30B50E4DD8
:10884C0087B001A8FFF7F2FF296811F0010410D1DD
:10885C002846FBF72BFC60B101AA21460748FFF71D
:10886C00CDFF2846FBF727FC054A0649034800F0D4
:10887C0075FE024807B030BDECE30320F0E30320A3
:10888C00C0DC032089870D0000470000F0B585B0DF
:10889C001C460E4617460546FEF722FF0020844272
:1088AC004FF0040303908DF80C30A5BF9DF82830D1
:1088BC008DF80E30034603AB009332463B46064917
:1088CC00A8BF8DF80D402846FEF702FFB0FA80F0E5
:1088DC00400905B0F0BD00BF95880D00704741748C
:1088EC00704708B5007CFFF70BF820EAE07008BD74
:1088FC0008B5007CFEF7DCFF20EAE07008BD08B587
:10890C00007CFEF7E5FF30EA200028BF4FF0FF3077
:10891C0008BD08B5007CFEF7D3FF30EA200028BF65
:10892C004FF0FF3008BD007CFEF7DABF10B5142104
:10893C00044600F021FE204610BD70B5457C04466F
:10894C000E4625B9007CFEF7DBFF002805DD31461D
:10895C00207CBDE87040FEF7A3BF284670BD000028
:10896C0010B5044608461146002262604FF47A7234
:10897C00A260054A22600122207462741A46FEF736
:10898C0087FF204610BD00BF44B50D000023007CBE
:10899C00FEF7BEBF0022FFF7F9BF007CFEF7A8BFB1
:1089AC0038B50C4D296811F0010411D12846FBF79C
:1089BC007DFB68B1084A094B09482146FFF7D0FFF7
:1089CC002846FBF778FB074A0749054800F0C6FD27
:1089DC00034838BD9CE40320A0E4032018E40320E2
:1089EC0004E40320C0DC0320E9880D007047F8B5CF
:1089FC00064615460C468F18BC4206D0336814F850
:108A0C00011B9B6830469847F6E72846F8BD0022C4
:108A1C00007CFEF79DBF0021007CFEF7A1BF00216A
:108A2C00007CFEF7A5BF0021007CFEF7A9BF00214A
:108A3C00007CFEF7ADBF10B51421044600F09CFD80
:108A4C00204610BD10B50446002363604FF47A73C2
:108A5C00A360044B2174084623601146FEF7A8FF5F
:108A6C00204610BD74B50D0000231A461946007C33
:108A7C00FEF756BF70B50C4686B0142506462A463E
:108A8C00002101A801F05FFD23788DF808306368A0
:108A9C000393E36804930022237A307CADF80450EE
:108AAC0001A90593FEF78CFF06B070BD1FB500330E
:108ABC008DF800104FF06401039118BF0123694633
:108ACC0001928DF80830FFF7D5FF05B05DF804FB77
:108ADC000123FFF7EBBF0022007CFEF729BFC9B2D0
:108AEC00FFF7F9BF0022007CFEF72ABF0121FFF738
:108AFC00F9BF0021007CFEF753BF002211464068ED
:108B0C00FFF74AB8002211464068FFF755B800221B
:108B1C004068FFF749B8002281F001014068FFF777
:108B2C0033B800231A4601214068FFF725B800230B
:108B3C001A4619464068FFF717B8002211464068DC
:108B4C00FFF70AB8002211464068FEF7F5BF002275
:108B5C0002214068FEF7F8BF00231A464068FEF772
:108B6C00E3BF38B5054688B104684CB1A3681BB1A6
:108B7C0003222146204698471021204600F0FCFC99
:108B8C0028461421BDE8384000F0F6BC38BD10B1C1
:108B9C0003685B681847704710B503680446BBB19F
:108BAC005868FEF735FE78B923685A7C12B95868B4
:108BBC00FEF736FE23685868FEF73AFE206800235D
:108BCC00236028B1FFF7CDFF206808B1FFF7C9FF7C
:108BDC00204610BD38B50446D0F8C40108B1FBF7E7
:108BEC0058FAD4F8C00108B1FEF732FED4F8BC51E3
:108BFC0035B12846FFF7D0FF0421284600F0BCFC15
:108C0C00206808B1FFF7C3FF204638BD10B5044BF0
:108C1C00044640F8083BFFF7DDFF204610BD00BFBF
:108C2C009CB50D0038B50E4C0E4B2360002502236D
:108C3C0004F5E4706360A560C4F8C451C4F8C8516D
:108C4C00FEF7FEFD084BC4F8CC5184F8D0512360DC
:108C5C002046064A0649BDE8384000F07FBC00BFFC
:108C6C0024E5032084B60D009CB50D00C0DC032068
:108C7C00198C0D0037B502AC036804F8011DDD6BCF
:108C8C0001224FF0FF332146A84703B030BD10B48A
:108C9C000368DC6B4FF0FF33A4465DF8044B604770
:108CAC0037B502AC036804F8011DDD6B2146134691
:108CBC000122A84703B030BD704738B543691A6824
:108CCC00002A044605DAB3F88620B3F884309A42B9
:108CDC0001D001250BE003681B699847002814BFDD
:108CEC000125002503D123682046DB6A98472846D6
:108CFC0038BD43691868C043C00F704770470020E7
:108D0C00704710B51421044600F036FC204610BD07
:108D1C00FBF7BDB97FB51646002242600292039262
:108D2C005A1C04460D4608D04FF47A72B3FBF2F18C
:108D3C00029102FB11314A430392606908230093AC
:108D4C0041F205026B4440F6FF710068FEF740FEED
:108D5C00002808DB60690023324629460068FEF7CC
:108D6C0057FE002804DAFEF797FF036863600020C3
:108D7C0004B070BD10B5036804469B689847A3689F
:108D8C00013BA3602BB923682046DB68BDE810408B
:108D9C00184710BD70B504464D69054B44F8043BAB
:108DAC008C3506460FCD0FC42B682370304670BD32
:108DBC0000B50D0010B54369B3F88620B3F88430C4
:108DCC009A42044605D06269B2F88430134418798B
:108DDC0010BD03681B6998470028F4D14FF0FF3091
:108DEC0010BD10B54369B3F88620B3F884309A42AD
:108DFC00044608D06269B2F88430591C1344A2F8B6
:108E0C008410187910BD03681B6998470028F1D1AC
:108E1C004FF0FF3010BDF8B543691746B3F8862004
:108E2C00B3F884309A4205460E4606D103681B6996
:108E3C00984710B94FF0FF3414E06969B1F88430E9
:108E4C00B1F88640E41ABC4228BF3C46194422467D
:108E5C000431304601F051FB6A69B2F88430234486
:108E6C00A2F884302046F8BD2DE9F04398460368FB
:108E7C0093B0DB6A0D4606461746984712AB0024A2
:108E8C0043F8484D224621462846FEF7E9FB814629
:108E9C0000283DD1009B002B56D05B69002B53D092
:108EAC0006A8FFF71BFC009B5C696378022B01D1C1
:108EBC00211D13E00A2B14D11122494601A801F0FF
:108ECC0042FBA36833BBE36823BB4FF6FF702569F5
:108EDC00FEF7CEFC85421DD104F1140106A8FFF764
:108EEC0040FC06A8FFF71AFC00282DD0336807AD0C
:108EFC00D3F82090184B0C930FCD0DAC0FC42B68EE
:108F0C0023703A4643460CA93046C84781461BE0BD
:108F1C00A14619E004F1080301AD1834186859682A
:108F2C002A4603C20833A3421546F7D1062301A9EA
:108F3C000CA80DAD8DF81430FFF7DEFB0FCD07AC90
:108F4C000FC42B682370CCE70098FEF781FB4846D2
:108F5C0013B0BDE8F08300BF00B50D0042690023DB
:108F6C00A2F884304269A2F8863070472DE9F041AE
:108F7C001E4603680C468AB0DB6A054617469847BE
:108F8C00237DD5F81480042B0CBF02200A20062266
:108F9C000121FEF745FDC8F800006B691B68002B2A
:108FAC0018DB2846FFF7DAFFD6B1002303A9F0B28D
:108FBC000393ADF81030FEF7F3FB58B9686906233C
:108FCC00009341F20B0203AB40F6FF710068FEF711
:108FDC00FFFC28B12B682846DB6A002498473BE04D
:108FEC001C263246002103A801F0ADFA237D8DF832
:108FFC000C60042B0CD1022338468DF80D30FEF793
:10900C003FFCADF80E006068FEF732FC049013E0F4
:10901C000A2338468DF80D30FEF732FC05AEADF85C
:10902C000E00231D04F1140718685968324603C258
:10903C000833BB421646F7D16B691C2203A918688A
:10904C00FEF7D6FC0028C5D104340FCC6D698C35E5
:10905C000FC523682B70012420460AB0BDE8F081AF
:10906C0010B5436904461868002801DBFEF7B8FC0C
:10907C0063694FF0FF321A606069112200218C3055
:10908C0001F061FA2046BDE81040FFF767BF000011
:10909C0030B54269B2F886308BB004461BB1B2F8D9
:1090AC0084209A4240D06369186800283FDBB3F8EB
:1090BC0086507F2D3BD8191DC5F180020823294409
:1090CC00FEF79EFC00280CDD6369B3F886200AB914
:1090DC00A3F884206269B2F886301844A2F886009E
:1090EC0025E0FEF7D9FD03680B2B20D0FEF7D4FD4D
:1090FC0003680B2B1BD02023002502930395FEF74E
:10910C00CBFD036801930E4B009302AA2B460D492D
:10911C003220FEF7CDFC63691868FEF761FC6369C9
:10912C004FF0FF321A6002E0FFF718FFBBE76269ED
:10913C00B2F88630B2F88400181A0BB030BD00BFFC
:10914C0037B60D0030B60D0010B500230446016093
:10915C00A0F88430A0F886308830FFF7BFFA20469C
:10916C0010BD00004FF47A7270B500238260144A6F
:10917C0043600260436183610446A0200E46FAF707
:10918C0084FF054610B13146FFF7DEFF1420FAF7D5
:10919C007CFF034628B1012242608260094A0260CA
:1091AC000561A0696561A36128B14368013B436017
:1091BC000BB9FFF7DFFD2046FFF7D0FE204670BD50
:1091CC00ECB50D00D0B50D0010B54FF0FF310446D5
:1091DC00FFF7C8FF204610BD10B5044600680028F4
:1091EC0001DBFEF7FDFB204610BD10B504692046DF
:1091FC00FFF7F2FF24B12046BDE81040FAF747BF55
:10920C0010BD002211464068FEF7A6BC0022114694
:10921C004068FEF7C1BC002211464068FEF7CCBC8A
:10922C0000224068FEF7C0BC002281F001014068BA
:10923C00FEF7AABC00231A4619464068FEF79CBCF0
:10924C0000231A4619464068FEF78EBC00221146D0
:10925C004068FEF771BC002202214068FEF774BC26
:10926C0000231A464068FEF75FBC0000024B042244
:10927C005A60024A1A607047F8E6032050B60D0097
:10928C0000231A464068FEF74FBC002202214068BA
:10929C00FEF75ABC002211464068FEF74DBC002276
:1092AC0011464068FEF758BC00231A461946406820
:1092BC00FEF75ABC00231A4619464068FEF75CBC00
:1092CC00002281F001014068FEF75EBC002240687C
:1092DC00FEF76ABC002211464068FEF76DBC002206
:1092EC0011464068FEF758BC2DE9F043002495B0B8
:1092FC0016460D460746FFF7F1F9214620220CA829
:10930C00009401F020F940230C9321466B460CAAE3
:10931C003046FEF7A5F90446002844D10246012147
:10932C006868FEF719FC0221804622466868FEF741
:10933C0013FC009E81462146002E34D0002932D1E8
:10934C007368022B02D00A2B09D02AE0B8F1000F67
:10935C0027D0716938460431FFF703FA20E0B9F1E0
:10936C00000F1ED07469112201A801F0ECF806233D
:10937C008DF8143001AD04F10803183418685968DD
:10938C002A4603C20833A3421546F7D101A906A801
:10939C0007ADFFF7B1F90FCD3C1D0FC42B6823703F
:1093AC000121F669C8E70098FEF752F9384615B066
:1093BC00BDE8F083024B034A1A6000225A607047E2
:1093CC0000E7032084B60D0070B5184E316811F01B
:1093DC00010504460AD13046FAF768FE30B1294639
:1093EC001348FEF7A5FC3046FAF765FE1048FEF769
:1093FC005CFD28B1A4F10B03022B01D8002070BD39
:10940C0000F086F8FFF775FB08B1012CF6D9FFF7D1
:10941C00C7FAFFF7C2FA18B1A4F10903012BEDD971
:10942C00232C8CBF0020012070BD00BFC4DC0320A6
:10943C00C8DC0320232838B504460D460AD8FF297A
:10944C0008D0FFF7C1FF28B129462046BDE83840B7
:10945C00FEF71EB938BD38B504460D46FEF720F9A7
:10946C00FF2810D0062804D84D2323FA00F0C30798
:10947C0009D42046FFF7A8FF28B129462046BDE8AD
:10948C003840FEF715B938BD10B50446FEF708F99B
:10949C000438C0B2012808D92046FFF795FF20B147
:1094AC002046BDE81040FEF70BB9002010BD0D287A
:1094BC0010B504469CBF0E34A4B22046FFF784FFBF
:1094CC0050B103212046FEF7DBF8032804D12046D7
:1094DC00BDE81040FEF70CB9002010BD70B5044675
:1094EC0014252A46094E002101F02DF8258020254F
:1094FC003146A5602561284600F040F83146606091
:10950C00284600F03BF8E060204670BDB0B60D0078
:10951C0030B50E4D296811F0010487B013D12846DF
:10952C00FAF7C4FD78B101A8FFF7D8FF01AA2146CC
:10953C000748FFF787FA2846FAF7BDFD054A0649A2
:10954C00034800F00BF8024807B030BD0CE70320CD
:10955C0010E70320C0DC0320F9890D000B460146FF
:10956C00184600F0A1BE0000024B1868BFF35F8FD5
:10957C00704700BF24E70320FAF789BD00F000B85C
:10958C0010B5002814BF044601242046FEF744FB06
:10959C0020B9FFF7E9FF08B18047F6E710BD0000DE
:1095AC00184B1A68D1075CBF01221A60164B1A6857
:1095BC00D2075CBF01221A60144B1A68D0075CBF3B
:1095CC0001221A60124B1A68D1075CBF01221A6083
:1095DC00104B1A68D2075CBF01221A600E4B1A6836
:1095EC00D0075CBF01221A600C4B1A68D1075CBF14
:1095FC0001221A600A4B1A68D2075CBF01221A605A
:10960C00704700BF44E7032040E703203CE70320FA
:10961C0038E7032034E7032030E703202CE703204E
:10962C0028E70320244B1A68D0075CBF01221A607C
:10963C00224B1A68D1075CBF01221A60204B1A68B2
:10964C00D2075CBF01221A601E4B1A68D0075CBFA0
:10965C0001221A601C4B1A68D1075CBF01221A60E8
:10966C001A4B1A68D2075CBF01221A60184B1A6891
:10967C00D0075CBF01221A60164B1A68D1075CBF79
:10968C0001221A60144B1A68D2075CBF01221A60BF
:10969C00124B1A68D0075CBF01221A60104B1A6873
:1096AC00D1075CBF01221A600E4B1A68D2075CBF4F
:1096BC0001221A60704700BF74E7032070E7032093
:1096CC006CE7032068E7032064E7032060E70320CE
:1096DC005CE7032058E7032054E7032050E70320FE
:1096EC004CE7032048E70320244B1A68D0075CBFE3
:1096FC0001221A60224B1A68D1075CBF01221A6042
:10970C00204B1A68D2075CBF01221A601E4B1A68E4
:10971C00D0075CBF01221A601C4B1A68D1075CBFD2
:10972C0001221A601A4B1A68D2075CBF01221A6018
:10973C00184B1A68D0075CBF01221A60164B1A68C6
:10974C00D1075CBF01221A60144B1A68D2075CBFA8
:10975C0001221A60124B1A68D0075CBF01221A60F2
:10976C00104B1A68D1075CBF01221A600E4B1A68A5
:10977C00D2075CBF01221A60704700BFA4E7032028
:10978C00A0E703209CE7032098E7032094E703203D
:10979C0090E703208CE7032088E7032084E703206D
:1097AC0080E703207CE7032078E70320184B1A6836
:1097BC00D1075CBF01221A60164B1A68D2075CBF36
:1097CC0001221A60144B1A68D0075CBF01221A6080
:1097DC00124B1A68D1075CBF01221A60104B1A6831
:1097EC00D2075CBF01221A600E4B1A68D0075CBF0F
:1097FC0001221A600C4B1A68D1075CBF01221A6057
:10980C000A4B1A68D2075CBF01221A60704700BF6E
:10981C00C4E70320C0E70320BCE70320B8E703201C
:10982C00B4E70320B0E70320ACE70320A8E703204C
:10983C0081F0004102E000BF83F0004330B54FEAF5
:10984C0041044FEA430594EA050F08BF90EA020F62
:10985C001FBF54EA000C55EA020C7FEA645C7FEAF5
:10986C00655C00F0E2804FEA5454D4EB5555B8BF18
:10987C006D420CDD2C4480EA020281EA030382EA89
:10988C00000083EA010180EA020281EA0303362D1B
:10989C0088BF30BD11F0004F4FEA01314FF4801CEE
:1098AC004CEA113102D0404261EB410113F0004F00
:1098BC004FEA03334CEA133302D0524263EB4303B7
:1098CC0094EA050F00F0A780A4F10104D5F1200E55
:1098DC000DDB02FA0EFC22FA05F2801841F10001B0
:1098EC0003FA0EF2801843FA05F359410EE0A5F184
:1098FC0020050EF1200E012A03FA0EFC28BF4CF0B5
:10990C00020C43FA05F3C01851EBE37101F000456A
:10991C0007D54FF0000EDCF1000C7EEB00006EEB77
:10992C000101B1F5801F1BD3B1F5001F0CD3490801
:10993C005FEA30004FEA3C0C04F101044FEA445258
:10994C0012F5800F80F09A80BCF1004F08BF5FEADF
:10995C00500C50F1000041EB045141EA050130BDBF
:10996C005FEA4C0C404141EB010111F4801FA4F162
:10997C000104E9D191F0000F04BF01460020B1FAB7
:10998C0081F308BF2033A3F10B03B3F120020CDAEF
:10999C000C3208DD02F1140CC2F10C0201FA0CF0CD
:1099AC0021FA02F10CE002F11402D8BFC2F1200C32
:1099BC0001FA02F120FA0CFCDCBF41EA0C019040E8
:1099CC00E41AA2BF01EB0451294330BD6FEA040431
:1099DC001F3C1CDA0C340EDC04F11404C4F120021C
:1099EC0020FA04F001FA02F340EA030021FA04F32E
:1099FC0045EA030130BDC4F10C04C4F1200220FA85
:109A0C0002F001FA04F340EA0300294630BD21FAC2
:109A1C0004F0294630BD94F0000F83F4801306BF88
:109A2C0081F480110134013D4EE77FEA645C18BF7C
:109A3C007FEA655C29D094EA050F08BF90EA020F13
:109A4C0005D054EA000C04BF1946104630BD91EA0B
:109A5C00030F1EBF0021002030BD5FEA545C05D10E
:109A6C004000494128BF41F0004130BD14F580044D
:109A7C003CBF01F5801130BD01F0004545F0FE41C1
:109A8C0041F470014FF0000030BD7FEA645C1ABFF6
:109A9C00194610467FEA655C1CBF0B46024650EA2D
:109AAC00013406BF52EA033591EA030F41F4002159
:109ABC0030BD00BF90F0000F04BF0021704730B5DF
:109ACC004FF4806404F132044FF000054FF00001B4
